{
	"data": {
		"bytecode": {
			"linkReferences": {},
			"object": "608060405234801561000f575f5ffd5b5060405161001c906104be565b604051809103905ff080158015610035573d5f5f3e3d5ffd5b505f5f6101000a81548173ffffffffffffffffffffffffffffffffffffffff021916908373ffffffffffffffffffffffffffffffffffffffff16021790555069d3c21bcecceda100000060405161008b906104cb565b61009591906105c7565b604051809103905ff0801580156100ae573d5f5f3e3d5ffd5b5060015f6101000a81548173ffffffffffffffffffffffffffffffffffffffff021916908373ffffffffffffffffffffffffffffffffffffffff16021790555069d3c21bcecceda1000000604051610105906104cb565b61010f919061069a565b604051809103905ff080158015610128573d5f5f3e3d5ffd5b5060025f6101000a81548173ffffffffffffffffffffffffffffffffffffffff021916908373ffffffffffffffffffffffffffffffffffffffff1602179055503060035f6101000a81548173ffffffffffffffffffffffffffffffffffffffff021916908373ffffffffffffffffffffffffffffffffffffffff16021790555061012360045f6101000a81548173ffffffffffffffffffffffffffffffffffffffff021916908373ffffffffffffffffffffffffffffffffffffffff16021790555060015f9054906101000a900473ffffffffffffffffffffffffffffffffffffffff1673ffffffffffffffffffffffffffffffffffffffff1663095ea7b360035f9054906101000a900473ffffffffffffffffffffffffffffffffffffffff167fffffffffffffffffffffffffffffffffffffffffffffffffffffffffffffffff6040518363ffffffff1660e01b8152600401610287929190610727565b6020604051808303815f875af11580156102a3573d5f5f3e3d5ffd5b505050506040513d601f19601f820116820180604052508101906102c79190610787565b5060025f9054906101000a900473ffffffffffffffffffffffffffffffffffffffff1673ffffffffffffffffffffffffffffffffffffffff1663095ea7b360035f9054906101000a900473ffffffffffffffffffffffffffffffffffffffff167fffffffffffffffffffffffffffffffffffffffffffffffffffffffffffffffff6040518363ffffffff1660e01b8152600401610365929190610727565b6020604051808303815f875af1158015610381573d5f5f3e3d5ffd5b505050506040513d601f19601f820116820180604052508101906103a59190610787565b505f5f9054906101000a900473ffffffffffffffffffffffffffffffffffffffff1673ffffffffffffffffffffffffffffffffffffffff16635e7b647f60035f9054906101000a900473ffffffffffffffffffffffffffffffffffffffff1660015f9054906101000a900473ffffffffffffffffffffffffffffffffffffffff1660025f9054906101000a900473ffffffffffffffffffffffffffffffffffffffff16601e60045f9054906101000a900473ffffffffffffffffffffffffffffffffffffffff166040518663ffffffff1660e01b815260040161048c9594939291906107eb565b5f604051808303815f87803b1580156104a3575f5ffd5b505af11580156104b5573d5f5f3e3d5ffd5b5050505061083c565b611e9e806114b983390190565b6116ec8061335783390190565b5f82825260208201905092915050565b7f546f6b656e2041000000000000000000000000000000000000000000000000005f82015250565b5f61051c6007836104d8565b9150610527826104e8565b602082019050919050565b7f544b4100000000000000000000000000000000000000000000000000000000005f82015250565b5f6105666003836104d8565b915061057182610532565b602082019050919050565b5f819050919050565b5f819050919050565b5f819050919050565b5f6105b16105ac6105a78461057c565b61058e565b610585565b9050919050565b6105c181610597565b82525050565b5f6060820190508181035f8301526105de81610510565b905081810360208301526105f18161055a565b905061060060408301846105b8565b92915050565b7f546f6b656e2042000000000000000000000000000000000000000000000000005f82015250565b5f61063a6007836104d8565b915061064582610606565b602082019050919050565b7f544b4200000000000000000000000000000000000000000000000000000000005f82015250565b5f6106846003836104d8565b915061068f82610650565b602082019050919050565b5f6060820190508181035f8301526106b18161062e565b905081810360208301526106c481610678565b90506106d360408301846105b8565b92915050565b5f73ffffffffffffffffffffffffffffffffffffffff82169050919050565b5f610702826106d9565b9050919050565b610712816106f8565b82525050565b61072181610585565b82525050565b5f60408201905061073a5f830185610709565b6107476020830184610718565b9392505050565b5f5ffd5b5f8115159050919050565b61076681610752565b8114610770575f5ffd5b50565b5f815190506107818161075d565b92915050565b5f6020828403121561079c5761079b61074e565b5b5f6107a984828501610773565b91505092915050565b5f819050919050565b5f6107d56107d06107cb846107b2565b61058e565b610585565b9050919050565b6107e5816107bb565b82525050565b5f60a0820190506107fe5f830188610709565b61080b6020830187610709565b6108186040830186610709565b61082560608301856107dc565b6108326080830184610709565b9695505050505050565b610c70806108495f395ff3fe608060405234801561000f575f5ffd5b5060043610610091575f3560e01c80635f64b55b116100645780635f64b55b146101095780639653dee514610127578063af56d99b14610145578063c9fce74514610161578063d216dcbc1461017d57610091565b80630fc63d10146100955780631755ff21146100b357806333d97f8b146100d15780635aeca080146100ed575b5f5ffd5b61009d61019b565b6040516100aa91906108bf565b60405180910390f35b6100bb6101c0565b6040516100c891906108f8565b60405180910390f35b6100eb60048036038101906100e69190610948565b6101e5565b005b610107600480360381019061010291906109b0565b610548565b005b6101116105dd565b60405161011e91906108bf565b60405180910390f35b61012f610602565b60405161013c9190610a47565b60405180910390f35b61015f600480360381019061015a9190610a60565b610626565b005b61017b60048036038101906101769190610ab0565b610774565b005b610185610820565b60405161019291906108f8565b60405180910390f35b60015f9054906101000a900473ffffffffffffffffffffffffffffffffffffffff1681565b60035f9054906101000a900473ffffffffffffffffffffffffffffffffffffffff1681565b60015f9054906101000a900473ffffffffffffffffffffffffffffffffffffffff1673ffffffffffffffffffffffffffffffffffffffff1663a9059cbb33846040518363ffffffff1660e01b8152600401610241929190610aea565b6020604051808303815f875af115801561025d573d5f5f3e3d5ffd5b505050506040513d601f19601f820116820180604052508101906102819190610b46565b5060025f9054906101000a900473ffffffffffffffffffffffffffffffffffffffff1673ffffffffffffffffffffffffffffffffffffffff1663a9059cbb33836040518363ffffffff1660e01b81526004016102de929190610aea565b6020604051808303815f875af11580156102fa573d5f5f3e3d5ffd5b505050506040513d601f19601f8201168201806040525081019061031e9190610b46565b5060015f9054906101000a900473ffffffffffffffffffffffffffffffffffffffff1673ffffffffffffffffffffffffffffffffffffffff1663095ea7b35f5f9054906101000a900473ffffffffffffffffffffffffffffffffffffffff16846040518363ffffffff1660e01b815260040161039b929190610aea565b6020604051808303815f875af11580156103b7573d5f5f3e3d5ffd5b505050506040513d601f19601f820116820180604052508101906103db9190610b46565b5060025f9054906101000a900473ffffffffffffffffffffffffffffffffffffffff1673ffffffffffffffffffffffffffffffffffffffff1663095ea7b35f5f9054906101000a900473ffffffffffffffffffffffffffffffffffffffff16836040518363ffffffff1660e01b8152600401610458929190610aea565b6020604051808303815f875af1158015610474573d5f5f3e3d5ffd5b505050506040513d601f19601f820116820180604052508101906104989190610b46565b505f5f9054906101000a900473ffffffffffffffffffffffffffffffffffffffff1673ffffffffffffffffffffffffffffffffffffffff166355776b7760035f9054906101000a900473ffffffffffffffffffffffffffffffffffffffff1684846040518463ffffffff1660e01b815260040161051793929190610b71565b5f604051808303815f87803b15801561052e575f5ffd5b505af1158015610540573d5f5f3e3d5ffd5b505050505050565b5f5f9054906101000a900473ffffffffffffffffffffffffffffffffffffffff1673ffffffffffffffffffffffffffffffffffffffff16635e7b647f86868686866040518663ffffffff1660e01b81526004016105a9959493929190610ba6565b5f604051808303815f87803b1580156105c0575f5ffd5b505af11580156105d2573d5f5f3e3d5ffd5b505050505050505050565b60025f9054906101000a900473ffffffffffffffffffffffffffffffffffffffff1681565b5f5f9054906101000a900473ffffffffffffffffffffffffffffffffffffffff1681565b8273ffffffffffffffffffffffffffffffffffffffff1663095ea7b35f5f9054906101000a900473ffffffffffffffffffffffffffffffffffffffff16846040518363ffffffff1660e01b8152600401610681929190610aea565b6020604051808303815f875af115801561069d573d5f5f3e3d5ffd5b505050506040513d601f19601f820116820180604052508101906106c19190610b46565b505f5f9054906101000a900473ffffffffffffffffffffffffffffffffffffffff1673ffffffffffffffffffffffffffffffffffffffff1663fe02915660035f9054906101000a900473ffffffffffffffffffffffffffffffffffffffff168585856040518563ffffffff1660e01b81526004016107429493929190610bf7565b5f604051808303815f87803b158015610759575f5ffd5b505af115801561076b573d5f5f3e3d5ffd5b50505050505050565b5f5f9054906101000a900473ffffffffffffffffffffffffffffffffffffffff1673ffffffffffffffffffffffffffffffffffffffff1663a201ccf660035f9054906101000a900473ffffffffffffffffffffffffffffffffffffffff16836040518363ffffffff1660e01b81526004016107f0929190610aea565b5f604051808303815f87803b158015610807575f5ffd5b505af1158015610819573d5f5f3e3d5ffd5b5050505050565b60045f9054906101000a900473ffffffffffffffffffffffffffffffffffffffff1681565b5f73ffffffffffffffffffffffffffffffffffffffff82169050919050565b5f819050919050565b5f61088761088261087d84610845565b610864565b610845565b9050919050565b5f6108988261086d565b9050919050565b5f6108a98261088e565b9050919050565b6108b98161089f565b82525050565b5f6020820190506108d25f8301846108b0565b92915050565b5f6108e282610845565b9050919050565b6108f2816108d8565b82525050565b5f60208201905061090b5f8301846108e9565b92915050565b5f5ffd5b5f819050919050565b61092781610915565b8114610931575f5ffd5b50565b5f813590506109428161091e565b92915050565b5f5f6040838503121561095e5761095d610911565b5b5f61096b85828601610934565b925050602061097c85828601610934565b9150509250929050565b61098f816108d8565b8114610999575f5ffd5b50565b5f813590506109aa81610986565b92915050565b5f5f5f5f5f60a086880312156109c9576109c8610911565b5b5f6109d68882890161099c565b95505060206109e78882890161099c565b94505060406109f88882890161099c565b9350506060610a0988828901610934565b9250506080610a1a8882890161099c565b9150509295509295909350565b5f610a318261088e565b9050919050565b610a4181610a27565b82525050565b5f602082019050610a5a5f830184610a38565b92915050565b5f5f5f60608486031215610a7757610a76610911565b5b5f610a848682870161099c565b9350506020610a9586828701610934565b9250506040610aa686828701610934565b9150509250925092565b5f60208284031215610ac557610ac4610911565b5b5f610ad284828501610934565b91505092915050565b610ae481610915565b82525050565b5f604082019050610afd5f8301856108e9565b610b0a6020830184610adb565b9392505050565b5f8115159050919050565b610b2581610b11565b8114610b2f575f5ffd5b50565b5f81519050610b4081610b1c565b92915050565b5f60208284031215610b5b57610b5a610911565b5b5f610b6884828501610b32565b91505092915050565b5f606082019050610b845f8301866108e9565b610b916020830185610adb565b610b9e6040830184610adb565b949350505050565b5f60a082019050610bb95f8301886108e9565b610bc660208301876108e9565b610bd360408301866108e9565b610be06060830185610adb565b610bed60808301846108e9565b9695505050505050565b5f608082019050610c0a5f8301876108e9565b610c1760208301866108e9565b610c246040830185610adb565b610c316060830184610adb565b9594505050505056fea26469706673582212208992bcb845ec185570426920f43b983a146b7d1ace9b00d1742144f94c21054764736f6c634300081c0033608060405234801561000f575f5ffd5b50335f73ffffffffffffffffffffffffffffffffffffffff168173ffffffffffffffffffffffffffffffffffffffff1603610081575f6040517f1e4fbdf70000000000000000000000000000000000000000000000000000000081526004016100789190610196565b60405180910390fd5b6100908161009660201b60201c565b506101af565b5f5f5f9054906101000a900473ffffffffffffffffffffffffffffffffffffffff169050815f5f6101000a81548173ffffffffffffffffffffffffffffffffffffffff021916908373ffffffffffffffffffffffffffffffffffffffff1602179055508173ffffffffffffffffffffffffffffffffffffffff168173ffffffffffffffffffffffffffffffffffffffff167f8be0079c531659141344cd1fd0a4f28419497f9722a3daafe3b4186f6b6457e060405160405180910390a35050565b5f73ffffffffffffffffffffffffffffffffffffffff82169050919050565b5f61018082610157565b9050919050565b61019081610176565b82525050565b5f6020820190506101a95f830184610187565b92915050565b611ce2806101bc5f395ff3fe608060405234801561000f575f5ffd5b5060043610610086575f3560e01c8063a201ccf611610059578063a201ccf6146100ea578063a4063dbc14610106578063f2fde38b1461013b578063fe0291561461015757610086565b806355776b771461008a5780635e7b647f146100a6578063715018a6146100c25780638da5cb5b146100cc575b5f5ffd5b6100a4600480360381019061009f9190611553565b610173565b005b6100c060048036038101906100bb91906115a3565b610466565b005b6100ca61079f565b005b6100d46107b2565b6040516100e19190611629565b60405180910390f35b61010460048036038101906100ff9190611642565b6107d9565b005b610120600480360381019061011b9190611680565b610c60565b604051610132969594939291906116ba565b60405180910390f35b61015560048036038101906101509190611680565b610cf5565b005b610171600480360381019061016c9190611719565b610d79565b005b5f60015f8573ffffffffffffffffffffffffffffffffffffffff1673ffffffffffffffffffffffffffffffffffffffff1681526020019081526020015f2090505f73ffffffffffffffffffffffffffffffffffffffff16815f015f9054906101000a900473ffffffffffffffffffffffffffffffffffffffff1673ffffffffffffffffffffffffffffffffffffffff1603610243576040517f08c379a000000000000000000000000000000000000000000000000000000000815260040161023a906117d7565b60405180910390fd5b805f015f9054906101000a900473ffffffffffffffffffffffffffffffffffffffff1673ffffffffffffffffffffffffffffffffffffffff166323b872dd3386866040518463ffffffff1660e01b81526004016102a2939291906117f5565b6020604051808303815f875af11580156102be573d5f5f3e3d5ffd5b505050506040513d601f19601f820116820180604052508101906102e2919061185f565b50806001015f9054906101000a900473ffffffffffffffffffffffffffffffffffffffff1673ffffffffffffffffffffffffffffffffffffffff166323b872dd3386856040518463ffffffff1660e01b8152600401610343939291906117f5565b6020604051808303815f875af115801561035f573d5f5f3e3d5ffd5b505050506040513d601f19601f82011682018060405250810190610383919061185f565b505f5f8260020154146103c657828461039c91906118b7565b826002015484866103ad91906118b7565b6103b791906118ea565b6103c19190611958565b6103d3565b82846103d291906118b7565b5b905080826002015f8282546103e891906118b7565b925050819055504282600501819055503373ffffffffffffffffffffffffffffffffffffffff168573ffffffffffffffffffffffffffffffffffffffff167f36f3b2e1a21c19137dd82ec243b0708a1d26b3d1fa1dc49c44c4c366a58781388686604051610457929190611988565b60405180910390a35050505050565b61046e611373565b6103e88211156104b3576040517f08c379a00000000000000000000000000000000000000000000000000000000081526004016104aa906119f9565b60405180910390fd5b5f73ffffffffffffffffffffffffffffffffffffffff1660015f8773ffffffffffffffffffffffffffffffffffffffff1673ffffffffffffffffffffffffffffffffffffffff1681526020019081526020015f205f015f9054906101000a900473ffffffffffffffffffffffffffffffffffffffff1673ffffffffffffffffffffffffffffffffffffffff161461057f576040517f08c379a000000000000000000000000000000000000000000000000000000000815260040161057690611a61565b60405180910390fd5b6040518060c001604052808573ffffffffffffffffffffffffffffffffffffffff1681526020018473ffffffffffffffffffffffffffffffffffffffff1681526020015f81526020018381526020018273ffffffffffffffffffffffffffffffffffffffff1681526020014281525060015f8773ffffffffffffffffffffffffffffffffffffffff1673ffffffffffffffffffffffffffffffffffffffff1681526020019081526020015f205f820151815f015f6101000a81548173ffffffffffffffffffffffffffffffffffffffff021916908373ffffffffffffffffffffffffffffffffffffffff1602179055506020820151816001015f6101000a81548173ffffffffffffffffffffffffffffffffffffffff021916908373ffffffffffffffffffffffffffffffffffffffff16021790555060408201518160020155606082015181600301556080820151816004015f6101000a81548173ffffffffffffffffffffffffffffffffffffffff021916908373ffffffffffffffffffffffffffffffffffffffff16021790555060a082015181600501559050508273ffffffffffffffffffffffffffffffffffffffff168473ffffffffffffffffffffffffffffffffffffffff168673ffffffffffffffffffffffffffffffffffffffff167f886ffed95392e2f52907cb2236f5a7da7760e3b971f5df0775067a2bc8647654856040516107909190611a7f565b60405180910390a45050505050565b6107a7611373565b6107b05f6113fa565b565b5f5f5f9054906101000a900473ffffffffffffffffffffffffffffffffffffffff16905090565b5f60015f8473ffffffffffffffffffffffffffffffffffffffff1673ffffffffffffffffffffffffffffffffffffffff1681526020019081526020015f2090505f73ffffffffffffffffffffffffffffffffffffffff16815f015f9054906101000a900473ffffffffffffffffffffffffffffffffffffffff1673ffffffffffffffffffffffffffffffffffffffff16036108a9576040517f08c379a00000000000000000000000000000000000000000000000000000000081526004016108a0906117d7565b60405180910390fd5b61012c81600501546108bb91906118b7565b4210156108fd576040517f08c379a00000000000000000000000000000000000000000000000000000000081526004016108f490611ae2565b60405180910390fd5b5f8160020154670de0b6b3a76400008461091791906118ea565b6109219190611958565b90505f670de0b6b3a7640000835f015f9054906101000a900473ffffffffffffffffffffffffffffffffffffffff1673ffffffffffffffffffffffffffffffffffffffff166370a08231876040518263ffffffff1660e01b81526004016109889190611629565b602060405180830381865afa1580156109a3573d5f5f3e3d5ffd5b505050506040513d601f19601f820116820180604052508101906109c79190611b14565b836109d291906118ea565b6109dc9190611958565b90505f670de0b6b3a7640000846001015f9054906101000a900473ffffffffffffffffffffffffffffffffffffffff1673ffffffffffffffffffffffffffffffffffffffff166370a08231886040518263ffffffff1660e01b8152600401610a449190611629565b602060405180830381865afa158015610a5f573d5f5f3e3d5ffd5b505050506040513d601f19601f82011682018060405250810190610a839190611b14565b84610a8e91906118ea565b610a989190611958565b905084846002015f828254610aad9190611b3f565b92505081905550835f015f9054906101000a900473ffffffffffffffffffffffffffffffffffffffff1673ffffffffffffffffffffffffffffffffffffffff1663a9059cbb33846040518363ffffffff1660e01b8152600401610b11929190611b72565b6020604051808303815f875af1158015610b2d573d5f5f3e3d5ffd5b505050506040513d601f19601f82011682018060405250810190610b51919061185f565b50836001015f9054906101000a900473ffffffffffffffffffffffffffffffffffffffff1673ffffffffffffffffffffffffffffffffffffffff1663a9059cbb33836040518363ffffffff1660e01b8152600401610bb0929190611b72565b6020604051808303815f875af1158015610bcc573d5f5f3e3d5ffd5b505050506040513d601f19601f82011682018060405250810190610bf0919061185f565b503373ffffffffffffffffffffffffffffffffffffffff168673ffffffffffffffffffffffffffffffffffffffff167f3b5c196aff80bb96c03b41c96906b66827014de931d1b36e0ede6ee8caeb4bf98484604051610c50929190611988565b60405180910390a3505050505050565b6001602052805f5260405f205f91509050805f015f9054906101000a900473ffffffffffffffffffffffffffffffffffffffff1690806001015f9054906101000a900473ffffffffffffffffffffffffffffffffffffffff1690806002015490806003015490806004015f9054906101000a900473ffffffffffffffffffffffffffffffffffffffff16908060050154905086565b610cfd611373565b5f73ffffffffffffffffffffffffffffffffffffffff168173ffffffffffffffffffffffffffffffffffffffff1603610d6d575f6040517f1e4fbdf7000000000000000000000000000000000000000000000000000000008152600401610d649190611629565b60405180910390fd5b610d76816113fa565b50565b5f60015f8673ffffffffffffffffffffffffffffffffffffffff1673ffffffffffffffffffffffffffffffffffffffff1681526020019081526020015f2090505f73ffffffffffffffffffffffffffffffffffffffff16815f015f9054906101000a900473ffffffffffffffffffffffffffffffffffffffff1673ffffffffffffffffffffffffffffffffffffffff1603610e49576040517f08c379a0000000000000000000000000000000000000000000000000000000008152600401610e40906117d7565b60405180910390fd5b805f015f9054906101000a900473ffffffffffffffffffffffffffffffffffffffff1673ffffffffffffffffffffffffffffffffffffffff168473ffffffffffffffffffffffffffffffffffffffff161480610ef35750806001015f9054906101000a900473ffffffffffffffffffffffffffffffffffffffff1673ffffffffffffffffffffffffffffffffffffffff168473ffffffffffffffffffffffffffffffffffffffff16145b610f32576040517f08c379a0000000000000000000000000000000000000000000000000000000008152600401610f2990611be3565b60405180910390fd5b5f815f015f9054906101000a900473ffffffffffffffffffffffffffffffffffffffff1673ffffffffffffffffffffffffffffffffffffffff168573ffffffffffffffffffffffffffffffffffffffff1614610fb057815f015f9054906101000a900473ffffffffffffffffffffffffffffffffffffffff16610fd5565b816001015f9054906101000a900473ffffffffffffffffffffffffffffffffffffffff165b90505f8573ffffffffffffffffffffffffffffffffffffffff166370a08231886040518263ffffffff1660e01b81526004016110119190611629565b602060405180830381865afa15801561102c573d5f5f3e3d5ffd5b505050506040513d601f19601f820116820180604052508101906110509190611b14565b90505f8273ffffffffffffffffffffffffffffffffffffffff166370a08231896040518263ffffffff1660e01b815260040161108c9190611629565b602060405180830381865afa1580156110a7573d5f5f3e3d5ffd5b505050506040513d601f19601f820116820180604052508101906110cb9190611b14565b90505f86836110da91906118b7565b82886110e691906118ea565b6110f09190611958565b90505f61271086600301548361110691906118ea565b6111109190611958565b9050808261111e9190611b3f565b915086821015611163576040517f08c379a000000000000000000000000000000000000000000000000000000000815260040161115a90611c4b565b60405180910390fd5b8873ffffffffffffffffffffffffffffffffffffffff166323b872dd338c8b6040518463ffffffff1660e01b81526004016111a0939291906117f5565b6020604051808303815f875af11580156111bc573d5f5f3e3d5ffd5b505050506040513d601f19601f820116820180604052508101906111e0919061185f565b508473ffffffffffffffffffffffffffffffffffffffff1663a9059cbb33846040518363ffffffff1660e01b815260040161121c929190611b72565b6020604051808303815f875af1158015611238573d5f5f3e3d5ffd5b505050506040513d601f19601f8201168201806040525081019061125c919061185f565b508473ffffffffffffffffffffffffffffffffffffffff1663a9059cbb876004015f9054906101000a900473ffffffffffffffffffffffffffffffffffffffff16836040518363ffffffff1660e01b81526004016112bb929190611b72565b6020604051808303815f875af11580156112d7573d5f5f3e3d5ffd5b505050506040513d601f19601f820116820180604052508101906112fb919061185f565b503373ffffffffffffffffffffffffffffffffffffffff168a73ffffffffffffffffffffffffffffffffffffffff167f0ff97d8ba659dc8513a47254ed48f52a28aa6d045ca043d8a60bd7d954805d898b888c8760405161135f9493929190611c69565b60405180910390a350505050505050505050565b61137b6114bb565b73ffffffffffffffffffffffffffffffffffffffff166113996107b2565b73ffffffffffffffffffffffffffffffffffffffff16146113f8576113bc6114bb565b6040517f118cdaa70000000000000000000000000000000000000000000000000000000081526004016113ef9190611629565b60405180910390fd5b565b5f5f5f9054906101000a900473ffffffffffffffffffffffffffffffffffffffff169050815f5f6101000a81548173ffffffffffffffffffffffffffffffffffffffff021916908373ffffffffffffffffffffffffffffffffffffffff1602179055508173ffffffffffffffffffffffffffffffffffffffff168173ffffffffffffffffffffffffffffffffffffffff167f8be0079c531659141344cd1fd0a4f28419497f9722a3daafe3b4186f6b6457e060405160405180910390a35050565b5f33905090565b5f5ffd5b5f73ffffffffffffffffffffffffffffffffffffffff82169050919050565b5f6114ef826114c6565b9050919050565b6114ff816114e5565b8114611509575f5ffd5b50565b5f8135905061151a816114f6565b92915050565b5f819050919050565b61153281611520565b811461153c575f5ffd5b50565b5f8135905061154d81611529565b92915050565b5f5f5f6060848603121561156a576115696114c2565b5b5f6115778682870161150c565b93505060206115888682870161153f565b92505060406115998682870161153f565b9150509250925092565b5f5f5f5f5f60a086880312156115bc576115bb6114c2565b5b5f6115c98882890161150c565b95505060206115da8882890161150c565b94505060406115eb8882890161150c565b93505060606115fc8882890161153f565b925050608061160d8882890161150c565b9150509295509295909350565b611623816114e5565b82525050565b5f60208201905061163c5f83018461161a565b92915050565b5f5f60408385031215611658576116576114c2565b5b5f6116658582860161150c565b92505060206116768582860161153f565b9150509250929050565b5f60208284031215611695576116946114c2565b5b5f6116a28482850161150c565b91505092915050565b6116b481611520565b82525050565b5f60c0820190506116cd5f83018961161a565b6116da602083018861161a565b6116e760408301876116ab565b6116f460608301866116ab565b611701608083018561161a565b61170e60a08301846116ab565b979650505050505050565b5f5f5f5f60808587031215611731576117306114c2565b5b5f61173e8782880161150c565b945050602061174f8782880161150c565b93505060406117608782880161153f565b92505060606117718782880161153f565b91505092959194509250565b5f82825260208201905092915050565b7f506f6f6c20646f6573206e6f74206578697374000000000000000000000000005f82015250565b5f6117c160138361177d565b91506117cc8261178d565b602082019050919050565b5f6020820190508181035f8301526117ee816117b5565b9050919050565b5f6060820190506118085f83018661161a565b611815602083018561161a565b61182260408301846116ab565b949350505050565b5f8115159050919050565b61183e8161182a565b8114611848575f5ffd5b50565b5f8151905061185981611835565b92915050565b5f60208284031215611874576118736114c2565b5b5f6118818482850161184b565b91505092915050565b7f4e487b71000000000000000000000000000000000000000000000000000000005f52601160045260245ffd5b5f6118c182611520565b91506118cc83611520565b92508282019050808211156118e4576118e361188a565b5b92915050565b5f6118f482611520565b91506118ff83611520565b925082820261190d81611520565b915082820484148315176119245761192361188a565b5b5092915050565b7f4e487b71000000000000000000000000000000000000000000000000000000005f52601260045260245ffd5b5f61196282611520565b915061196d83611520565b92508261197d5761197c61192b565b5b828204905092915050565b5f60408201905061199b5f8301856116ab565b6119a860208301846116ab565b9392505050565b7f4665652070657263656e7461676520746f6f20686967680000000000000000005f82015250565b5f6119e360178361177d565b91506119ee826119af565b602082019050919050565b5f6020820190508181035f830152611a10816119d7565b9050919050565b7f506f6f6c20616c726561647920657869737473000000000000000000000000005f82015250565b5f611a4b60138361177d565b9150611a5682611a17565b602082019050919050565b5f6020820190508181035f830152611a7881611a3f565b9050919050565b5f602082019050611a925f8301846116ab565b92915050565b7f5769746864726177616c20746f6f20736f6f6e000000000000000000000000005f82015250565b5f611acc60138361177d565b9150611ad782611a98565b602082019050919050565b5f6020820190508181035f830152611af981611ac0565b9050919050565b5f81519050611b0e81611529565b92915050565b5f60208284031215611b2957611b286114c2565b5b5f611b3684828501611b00565b91505092915050565b5f611b4982611520565b9150611b5483611520565b9250828203905081811115611b6c57611b6b61188a565b5b92915050565b5f604082019050611b855f83018561161a565b611b9260208301846116ab565b9392505050565b7f496e76616c696420696e70757420746f6b656e000000000000000000000000005f82015250565b5f611bcd60138361177d565b9150611bd882611b99565b602082019050919050565b5f6020820190508181035f830152611bfa81611bc1565b9050919050565b7f496e73756666696369656e74206f757470757420616d6f756e740000000000005f82015250565b5f611c35601a8361177d565b9150611c4082611c01565b602082019050919050565b5f6020820190508181035f830152611c6281611c29565b9050919050565b5f608082019050611c7c5f83018761161a565b611c89602083018661161a565b611c9660408301856116ab565b611ca360608301846116ab565b9594505050505056fea2646970667358221220d8c8ddc9a4bf9cc0105e5b9d409192dcce08318c305ac51585b576fb627bb4e064736f6c634300081c0033608060405234801561000f575f5ffd5b506040516116ec3803806116ec8339818101604052810190610031919061048b565b82828160039081610042919061071a565b508060049081610052919061071a565b505050610065338261006d60201b60201c565b5050506108fe565b5f73ffffffffffffffffffffffffffffffffffffffff168273ffffffffffffffffffffffffffffffffffffffff16036100dd575f6040517fec442f050000000000000000000000000000000000000000000000000000000081526004016100d49190610828565b60405180910390fd5b6100ee5f83836100f260201b60201c565b5050565b5f73ffffffffffffffffffffffffffffffffffffffff168373ffffffffffffffffffffffffffffffffffffffff1603610142578060025f828254610136919061086e565b92505081905550610210565b5f5f5f8573ffffffffffffffffffffffffffffffffffffffff1673ffffffffffffffffffffffffffffffffffffffff1681526020019081526020015f20549050818110156101cb578381836040517fe450d38c0000000000000000000000000000000000000000000000000000000081526004016101c2939291906108b0565b60405180910390fd5b8181035f5f8673ffffffffffffffffffffffffffffffffffffffff1673ffffffffffffffffffffffffffffffffffffffff1681526020019081526020015f2081905550505b5f73ffffffffffffffffffffffffffffffffffffffff168273ffffffffffffffffffffffffffffffffffffffff1603610257578060025f82825403925050819055506102a1565b805f5f8473ffffffffffffffffffffffffffffffffffffffff1673ffffffffffffffffffffffffffffffffffffffff1681526020019081526020015f205f82825401925050819055505b8173ffffffffffffffffffffffffffffffffffffffff168373ffffffffffffffffffffffffffffffffffffffff167fddf252ad1be2c89b69c2b068fc378daa952ba7f163c4a11628f55a4df523b3ef836040516102fe91906108e5565b60405180910390a3505050565b5f604051905090565b5f5ffd5b5f5ffd5b5f5ffd5b5f5ffd5b5f601f19601f8301169050919050565b7f4e487b71000000000000000000000000000000000000000000000000000000005f52604160045260245ffd5b61036a82610324565b810181811067ffffffffffffffff8211171561038957610388610334565b5b80604052505050565b5f61039b61030b565b90506103a78282610361565b919050565b5f67ffffffffffffffff8211156103c6576103c5610334565b5b6103cf82610324565b9050602081019050919050565b8281835e5f83830152505050565b5f6103fc6103f7846103ac565b610392565b90508281526020810184848401111561041857610417610320565b5b6104238482856103dc565b509392505050565b5f82601f83011261043f5761043e61031c565b5b815161044f8482602086016103ea565b91505092915050565b5f819050919050565b61046a81610458565b8114610474575f5ffd5b50565b5f8151905061048581610461565b92915050565b5f5f5f606084860312156104a2576104a1610314565b5b5f84015167ffffffffffffffff8111156104bf576104be610318565b5b6104cb8682870161042b565b935050602084015167ffffffffffffffff8111156104ec576104eb610318565b5b6104f88682870161042b565b925050604061050986828701610477565b9150509250925092565b5f81519050919050565b7f4e487b71000000000000000000000000000000000000000000000000000000005f52602260045260245ffd5b5f600282049050600182168061056157607f821691505b6020821081036105745761057361051d565b5b50919050565b5f819050815f5260205f209050919050565b5f6020601f8301049050919050565b5f82821b905092915050565b5f600883026105d67fffffffffffffffffffffffffffffffffffffffffffffffffffffffffffffffff8261059b565b6105e0868361059b565b95508019841693508086168417925050509392505050565b5f819050919050565b5f61061b61061661061184610458565b6105f8565b610458565b9050919050565b5f819050919050565b61063483610601565b61064861064082610622565b8484546105a7565b825550505050565b5f5f905090565b61065f610650565b61066a81848461062b565b505050565b5b8181101561068d576106825f82610657565b600181019050610670565b5050565b601f8211156106d2576106a38161057a565b6106ac8461058c565b810160208510156106bb578190505b6106cf6106c78561058c565b83018261066f565b50505b505050565b5f82821c905092915050565b5f6106f25f19846008026106d7565b1980831691505092915050565b5f61070a83836106e3565b9150826002028217905092915050565b61072382610513565b67ffffffffffffffff81111561073c5761073b610334565b5b610746825461054a565b610751828285610691565b5f60209050601f831160018114610782575f8415610770578287015190505b61077a85826106ff565b8655506107e1565b601f1984166107908661057a565b5f5b828110156107b757848901518255600182019150602085019450602081019050610792565b868310156107d457848901516107d0601f8916826106e3565b8355505b6001600288020188555050505b505050505050565b5f73ffffffffffffffffffffffffffffffffffffffff82169050919050565b5f610812826107e9565b9050919050565b61082281610808565b82525050565b5f60208201905061083b5f830184610819565b92915050565b7f4e487b71000000000000000000000000000000000000000000000000000000005f52601160045260245ffd5b5f61087882610458565b915061088383610458565b925082820190508082111561089b5761089a610841565b5b92915050565b6108aa81610458565b82525050565b5f6060820190506108c35f830186610819565b6108d060208301856108a1565b6108dd60408301846108a1565b949350505050565b5f6020820190506108f85f8301846108a1565b92915050565b610de18061090b5f395ff3fe608060405234801561000f575f5ffd5b5060043610610091575f3560e01c8063313ce56711610064578063313ce5671461013157806370a082311461014f57806395d89b411461017f578063a9059cbb1461019d578063dd62ed3e146101cd57610091565b806306fdde0314610095578063095ea7b3146100b357806318160ddd146100e357806323b872dd14610101575b5f5ffd5b61009d6101fd565b6040516100aa9190610a5a565b60405180910390f35b6100cd60048036038101906100c89190610b0b565b61028d565b6040516100da9190610b63565b60405180910390f35b6100eb6102af565b6040516100f89190610b8b565b60405180910390f35b61011b60048036038101906101169190610ba4565b6102b8565b6040516101289190610b63565b60405180910390f35b6101396102e6565b6040516101469190610c0f565b60405180910390f35b61016960048036038101906101649190610c28565b6102ee565b6040516101769190610b8b565b60405180910390f35b610187610333565b6040516101949190610a5a565b60405180910390f35b6101b760048036038101906101b29190610b0b565b6103c3565b6040516101c49190610b63565b60405180910390f35b6101e760048036038101906101e29190610c53565b6103e5565b6040516101f49190610b8b565b60405180910390f35b60606003805461020c90610cbe565b80601f016020809104026020016040519081016040528092919081815260200182805461023890610cbe565b80156102835780601f1061025a57610100808354040283529160200191610283565b820191905f5260205f20905b81548152906001019060200180831161026657829003601f168201915b5050505050905090565b5f5f610297610467565b90506102a481858561046e565b600191505092915050565b5f600254905090565b5f5f6102c2610467565b90506102cf858285610480565b6102da858585610512565b60019150509392505050565b5f6012905090565b5f5f5f8373ffffffffffffffffffffffffffffffffffffffff1673ffffffffffffffffffffffffffffffffffffffff1681526020019081526020015f20549050919050565b60606004805461034290610cbe565b80601f016020809104026020016040519081016040528092919081815260200182805461036e90610cbe565b80156103b95780601f10610390576101008083540402835291602001916103b9565b820191905f5260205f20905b81548152906001019060200180831161039c57829003601f168201915b5050505050905090565b5f5f6103cd610467565b90506103da818585610512565b600191505092915050565b5f60015f8473ffffffffffffffffffffffffffffffffffffffff1673ffffffffffffffffffffffffffffffffffffffff1681526020019081526020015f205f8373ffffffffffffffffffffffffffffffffffffffff1673ffffffffffffffffffffffffffffffffffffffff1681526020019081526020015f2054905092915050565b5f33905090565b61047b8383836001610602565b505050565b5f61048b84846103e5565b90507fffffffffffffffffffffffffffffffffffffffffffffffffffffffffffffffff811461050c57818110156104fd578281836040517ffb8f41b20000000000000000000000000000000000000000000000000000000081526004016104f493929190610cfd565b60405180910390fd5b61050b84848484035f610602565b5b50505050565b5f73ffffffffffffffffffffffffffffffffffffffff168373ffffffffffffffffffffffffffffffffffffffff1603610582575f6040517f96c6fd1e0000000000000000000000000000000000000000000000000000000081526004016105799190610d32565b60405180910390fd5b5f73ffffffffffffffffffffffffffffffffffffffff168273ffffffffffffffffffffffffffffffffffffffff16036105f2575f6040517fec442f050000000000000000000000000000000000000000000000000000000081526004016105e99190610d32565b60405180910390fd5b6105fd8383836107d1565b505050565b5f73ffffffffffffffffffffffffffffffffffffffff168473ffffffffffffffffffffffffffffffffffffffff1603610672575f6040517fe602df050000000000000000000000000000000000000000000000000000000081526004016106699190610d32565b60405180910390fd5b5f73ffffffffffffffffffffffffffffffffffffffff168373ffffffffffffffffffffffffffffffffffffffff16036106e2575f6040517f94280d620000000000000000000000000000000000000000000000000000000081526004016106d99190610d32565b60405180910390fd5b8160015f8673ffffffffffffffffffffffffffffffffffffffff1673ffffffffffffffffffffffffffffffffffffffff1681526020019081526020015f205f8573ffffffffffffffffffffffffffffffffffffffff1673ffffffffffffffffffffffffffffffffffffffff1681526020019081526020015f208190555080156107cb578273ffffffffffffffffffffffffffffffffffffffff168473ffffffffffffffffffffffffffffffffffffffff167f8c5be1e5ebec7d5bd14f71427d1e84f3dd0314c0f7b2291e5b200ac8c7c3b925846040516107c29190610b8b565b60405180910390a35b50505050565b5f73ffffffffffffffffffffffffffffffffffffffff168373ffffffffffffffffffffffffffffffffffffffff1603610821578060025f8282546108159190610d78565b925050819055506108ef565b5f5f5f8573ffffffffffffffffffffffffffffffffffffffff1673ffffffffffffffffffffffffffffffffffffffff1681526020019081526020015f20549050818110156108aa578381836040517fe450d38c0000000000000000000000000000000000000000000000000000000081526004016108a193929190610cfd565b60405180910390fd5b8181035f5f8673ffffffffffffffffffffffffffffffffffffffff1673ffffffffffffffffffffffffffffffffffffffff1681526020019081526020015f2081905550505b5f73ffffffffffffffffffffffffffffffffffffffff168273ffffffffffffffffffffffffffffffffffffffff1603610936578060025f8282540392505081905550610980565b805f5f8473ffffffffffffffffffffffffffffffffffffffff1673ffffffffffffffffffffffffffffffffffffffff1681526020019081526020015f205f82825401925050819055505b8173ffffffffffffffffffffffffffffffffffffffff168373ffffffffffffffffffffffffffffffffffffffff167fddf252ad1be2c89b69c2b068fc378daa952ba7f163c4a11628f55a4df523b3ef836040516109dd9190610b8b565b60405180910390a3505050565b5f81519050919050565b5f82825260208201905092915050565b8281835e5f83830152505050565b5f601f19601f8301169050919050565b5f610a2c826109ea565b610a3681856109f4565b9350610a46818560208601610a04565b610a4f81610a12565b840191505092915050565b5f6020820190508181035f830152610a728184610a22565b905092915050565b5f5ffd5b5f73ffffffffffffffffffffffffffffffffffffffff82169050919050565b5f610aa782610a7e565b9050919050565b610ab781610a9d565b8114610ac1575f5ffd5b50565b5f81359050610ad281610aae565b92915050565b5f819050919050565b610aea81610ad8565b8114610af4575f5ffd5b50565b5f81359050610b0581610ae1565b92915050565b5f5f60408385031215610b2157610b20610a7a565b5b5f610b2e85828601610ac4565b9250506020610b3f85828601610af7565b9150509250929050565b5f8115159050919050565b610b5d81610b49565b82525050565b5f602082019050610b765f830184610b54565b92915050565b610b8581610ad8565b82525050565b5f602082019050610b9e5f830184610b7c565b92915050565b5f5f5f60608486031215610bbb57610bba610a7a565b5b5f610bc886828701610ac4565b9350506020610bd986828701610ac4565b9250506040610bea86828701610af7565b9150509250925092565b5f60ff82169050919050565b610c0981610bf4565b82525050565b5f602082019050610c225f830184610c00565b92915050565b5f60208284031215610c3d57610c3c610a7a565b5b5f610c4a84828501610ac4565b91505092915050565b5f5f60408385031215610c6957610c68610a7a565b5b5f610c7685828601610ac4565b9250506020610c8785828601610ac4565b9150509250929050565b7f4e487b71000000000000000000000000000000000000000000000000000000005f52602260045260245ffd5b5f6002820490506001821680610cd557607f821691505b602082108103610ce857610ce7610c91565b5b50919050565b610cf781610a9d565b82525050565b5f606082019050610d105f830186610cee565b610d1d6020830185610b7c565b610d2a6040830184610b7c565b949350505050565b5f602082019050610d455f830184610cee565b92915050565b7f4e487b71000000000000000000000000000000000000000000000000000000005f52601160045260245ffd5b5f610d8282610ad8565b9150610d8d83610ad8565b9250828201905080821115610da557610da4610d4b565b5b9291505056fea264697066735822122093e440e15dedc2f859d2b66d24d5f44d1063d501024cd4da16bebd44fd353d4c64736f6c634300081c0033",
			"opcodes": "PUSH1 0x80 PUSH1 0x40 MSTORE CALLVALUE DUP1 ISZERO PUSH2 0xF JUMPI PUSH0 PUSH0 REVERT JUMPDEST POP PUSH1 0x40 MLOAD PUSH2 0x1C SWAP1 PUSH2 0x4BE JUMP JUMPDEST PUSH1 0x40 MLOAD DUP1 SWAP2 SUB SWAP1 PUSH0 CREATE DUP1 ISZERO DUP1 ISZERO PUSH2 0x35 JUMPI RETURNDATASIZE PUSH0 PUSH0 RETURNDATACOPY RETURNDATASIZE PUSH0 REVERT JUMPDEST POP PUSH0 PUSH0 PUSH2 0x100 EXP DUP2 SLOAD DUP2 PUSH20 0xFFFFFFFFFFFFFFFFFFFFFFFFFFFFFFFFFFFFFFFF MUL NOT AND SWAP1 DUP4 PUSH20 0xFFFFFFFFFFFFFFFFFFFFFFFFFFFFFFFFFFFFFFFF AND MUL OR SWAP1 SSTORE POP PUSH10 0xD3C21BCECCEDA1000000 PUSH1 0x40 MLOAD PUSH2 0x8B SWAP1 PUSH2 0x4CB JUMP JUMPDEST PUSH2 0x95 SWAP2 SWAP1 PUSH2 0x5C7 JUMP JUMPDEST PUSH1 0x40 MLOAD DUP1 SWAP2 SUB SWAP1 PUSH0 CREATE DUP1 ISZERO DUP1 ISZERO PUSH2 0xAE JUMPI RETURNDATASIZE PUSH0 PUSH0 RETURNDATACOPY RETURNDATASIZE PUSH0 REVERT JUMPDEST POP PUSH1 0x1 PUSH0 PUSH2 0x100 EXP DUP2 SLOAD DUP2 PUSH20 0xFFFFFFFFFFFFFFFFFFFFFFFFFFFFFFFFFFFFFFFF MUL NOT AND SWAP1 DUP4 PUSH20 0xFFFFFFFFFFFFFFFFFFFFFFFFFFFFFFFFFFFFFFFF AND MUL OR SWAP1 SSTORE POP PUSH10 0xD3C21BCECCEDA1000000 PUSH1 0x40 MLOAD PUSH2 0x105 SWAP1 PUSH2 0x4CB JUMP JUMPDEST PUSH2 0x10F SWAP2 SWAP1 PUSH2 0x69A JUMP JUMPDEST PUSH1 0x40 MLOAD DUP1 SWAP2 SUB SWAP1 PUSH0 CREATE DUP1 ISZERO DUP1 ISZERO PUSH2 0x128 JUMPI RETURNDATASIZE PUSH0 PUSH0 RETURNDATACOPY RETURNDATASIZE PUSH0 REVERT JUMPDEST POP PUSH1 0x2 PUSH0 PUSH2 0x100 EXP DUP2 SLOAD DUP2 PUSH20 0xFFFFFFFFFFFFFFFFFFFFFFFFFFFFFFFFFFFFFFFF MUL NOT AND SWAP1 DUP4 PUSH20 0xFFFFFFFFFFFFFFFFFFFFFFFFFFFFFFFFFFFFFFFF AND MUL OR SWAP1 SSTORE POP ADDRESS PUSH1 0x3 PUSH0 PUSH2 0x100 EXP DUP2 SLOAD DUP2 PUSH20 0xFFFFFFFFFFFFFFFFFFFFFFFFFFFFFFFFFFFFFFFF MUL NOT AND SWAP1 DUP4 PUSH20 0xFFFFFFFFFFFFFFFFFFFFFFFFFFFFFFFFFFFFFFFF AND MUL OR SWAP1 SSTORE POP PUSH2 0x123 PUSH1 0x4 PUSH0 PUSH2 0x100 EXP DUP2 SLOAD DUP2 PUSH20 0xFFFFFFFFFFFFFFFFFFFFFFFFFFFFFFFFFFFFFFFF MUL NOT AND SWAP1 DUP4 PUSH20 0xFFFFFFFFFFFFFFFFFFFFFFFFFFFFFFFFFFFFFFFF AND MUL OR SWAP1 SSTORE POP PUSH1 0x1 PUSH0 SWAP1 SLOAD SWAP1 PUSH2 0x100 EXP SWAP1 DIV PUSH20 0xFFFFFFFFFFFFFFFFFFFFFFFFFFFFFFFFFFFFFFFF AND PUSH20 0xFFFFFFFFFFFFFFFFFFFFFFFFFFFFFFFFFFFFFFFF AND PUSH4 0x95EA7B3 PUSH1 0x3 PUSH0 SWAP1 SLOAD SWAP1 PUSH2 0x100 EXP SWAP1 DIV PUSH20 0xFFFFFFFFFFFFFFFFFFFFFFFFFFFFFFFFFFFFFFFF AND PUSH32 0xFFFFFFFFFFFFFFFFFFFFFFFFFFFFFFFFFFFFFFFFFFFFFFFFFFFFFFFFFFFFFFFF PUSH1 0x40 MLOAD DUP4 PUSH4 0xFFFFFFFF AND PUSH1 0xE0 SHL DUP2 MSTORE PUSH1 0x4 ADD PUSH2 0x287 SWAP3 SWAP2 SWAP1 PUSH2 0x727 JUMP JUMPDEST PUSH1 0x20 PUSH1 0x40 MLOAD DUP1 DUP4 SUB DUP2 PUSH0 DUP8 GAS CALL ISZERO DUP1 ISZERO PUSH2 0x2A3 JUMPI RETURNDATASIZE PUSH0 PUSH0 RETURNDATACOPY RETURNDATASIZE PUSH0 REVERT JUMPDEST POP POP POP POP PUSH1 0x40 MLOAD RETURNDATASIZE PUSH1 0x1F NOT PUSH1 0x1F DUP3 ADD AND DUP3 ADD DUP1 PUSH1 0x40 MSTORE POP DUP2 ADD SWAP1 PUSH2 0x2C7 SWAP2 SWAP1 PUSH2 0x787 JUMP JUMPDEST POP PUSH1 0x2 PUSH0 SWAP1 SLOAD SWAP1 PUSH2 0x100 EXP SWAP1 DIV PUSH20 0xFFFFFFFFFFFFFFFFFFFFFFFFFFFFFFFFFFFFFFFF AND PUSH20 0xFFFFFFFFFFFFFFFFFFFFFFFFFFFFFFFFFFFFFFFF AND PUSH4 0x95EA7B3 PUSH1 0x3 PUSH0 SWAP1 SLOAD SWAP1 PUSH2 0x100 EXP SWAP1 DIV PUSH20 0xFFFFFFFFFFFFFFFFFFFFFFFFFFFFFFFFFFFFFFFF AND PUSH32 0xFFFFFFFFFFFFFFFFFFFFFFFFFFFFFFFFFFFFFFFFFFFFFFFFFFFFFFFFFFFFFFFF PUSH1 0x40 MLOAD DUP4 PUSH4 0xFFFFFFFF AND PUSH1 0xE0 SHL DUP2 MSTORE PUSH1 0x4 ADD PUSH2 0x365 SWAP3 SWAP2 SWAP1 PUSH2 0x727 JUMP JUMPDEST PUSH1 0x20 PUSH1 0x40 MLOAD DUP1 DUP4 SUB DUP2 PUSH0 DUP8 GAS CALL ISZERO DUP1 ISZERO PUSH2 0x381 JUMPI RETURNDATASIZE PUSH0 PUSH0 RETURNDATACOPY RETURNDATASIZE PUSH0 REVERT JUMPDEST POP POP POP POP PUSH1 0x40 MLOAD RETURNDATASIZE PUSH1 0x1F NOT PUSH1 0x1F DUP3 ADD AND DUP3 ADD DUP1 PUSH1 0x40 MSTORE POP DUP2 ADD SWAP1 PUSH2 0x3A5 SWAP2 SWAP1 PUSH2 0x787 JUMP JUMPDEST POP PUSH0 PUSH0 SWAP1 SLOAD SWAP1 PUSH2 0x100 EXP SWAP1 DIV PUSH20 0xFFFFFFFFFFFFFFFFFFFFFFFFFFFFFFFFFFFFFFFF AND PUSH20 0xFFFFFFFFFFFFFFFFFFFFFFFFFFFFFFFFFFFFFFFF AND PUSH4 0x5E7B647F PUSH1 0x3 PUSH0 SWAP1 SLOAD SWAP1 PUSH2 0x100 EXP SWAP1 DIV PUSH20 0xFFFFFFFFFFFFFFFFFFFFFFFFFFFFFFFFFFFFFFFF AND PUSH1 0x1 PUSH0 SWAP1 SLOAD SWAP1 PUSH2 0x100 EXP SWAP1 DIV PUSH20 0xFFFFFFFFFFFFFFFFFFFFFFFFFFFFFFFFFFFFFFFF AND PUSH1 0x2 PUSH0 SWAP1 SLOAD SWAP1 PUSH2 0x100 EXP SWAP1 DIV PUSH20 0xFFFFFFFFFFFFFFFFFFFFFFFFFFFFFFFFFFFFFFFF AND PUSH1 0x1E PUSH1 0x4 PUSH0 SWAP1 SLOAD SWAP1 PUSH2 0x100 EXP SWAP1 DIV PUSH20 0xFFFFFFFFFFFFFFFFFFFFFFFFFFFFFFFFFFFFFFFF AND PUSH1 0x40 MLOAD DUP7 PUSH4 0xFFFFFFFF AND PUSH1 0xE0 SHL DUP2 MSTORE PUSH1 0x4 ADD PUSH2 0x48C SWAP6 SWAP5 SWAP4 SWAP3 SWAP2 SWAP1 PUSH2 0x7EB JUMP JUMPDEST PUSH0 PUSH1 0x40 MLOAD DUP1 DUP4 SUB DUP2 PUSH0 DUP8 DUP1 EXTCODESIZE ISZERO DUP1 ISZERO PUSH2 0x4A3 JUMPI PUSH0 PUSH0 REVERT JUMPDEST POP GAS CALL ISZERO DUP1 ISZERO PUSH2 0x4B5 JUMPI RETURNDATASIZE PUSH0 PUSH0 RETURNDATACOPY RETURNDATASIZE PUSH0 REVERT JUMPDEST POP POP POP POP PUSH2 0x83C JUMP JUMPDEST PUSH2 0x1E9E DUP1 PUSH2 0x14B9 DUP4 CODECOPY ADD SWAP1 JUMP JUMPDEST PUSH2 0x16EC DUP1 PUSH2 0x3357 DUP4 CODECOPY ADD SWAP1 JUMP JUMPDEST PUSH0 DUP3 DUP3 MSTORE PUSH1 0x20 DUP3 ADD SWAP1 POP SWAP3 SWAP2 POP POP JUMP JUMPDEST PUSH32 0x546F6B656E204100000000000000000000000000000000000000000000000000 PUSH0 DUP3 ADD MSTORE POP JUMP JUMPDEST PUSH0 PUSH2 0x51C PUSH1 0x7 DUP4 PUSH2 0x4D8 JUMP JUMPDEST SWAP2 POP PUSH2 0x527 DUP3 PUSH2 0x4E8 JUMP JUMPDEST PUSH1 0x20 DUP3 ADD SWAP1 POP SWAP2 SWAP1 POP JUMP JUMPDEST PUSH32 0x544B410000000000000000000000000000000000000000000000000000000000 PUSH0 DUP3 ADD MSTORE POP JUMP JUMPDEST PUSH0 PUSH2 0x566 PUSH1 0x3 DUP4 PUSH2 0x4D8 JUMP JUMPDEST SWAP2 POP PUSH2 0x571 DUP3 PUSH2 0x532 JUMP JUMPDEST PUSH1 0x20 DUP3 ADD SWAP1 POP SWAP2 SWAP1 POP JUMP JUMPDEST PUSH0 DUP2 SWAP1 POP SWAP2 SWAP1 POP JUMP JUMPDEST PUSH0 DUP2 SWAP1 POP SWAP2 SWAP1 POP JUMP JUMPDEST PUSH0 DUP2 SWAP1 POP SWAP2 SWAP1 POP JUMP JUMPDEST PUSH0 PUSH2 0x5B1 PUSH2 0x5AC PUSH2 0x5A7 DUP5 PUSH2 0x57C JUMP JUMPDEST PUSH2 0x58E JUMP JUMPDEST PUSH2 0x585 JUMP JUMPDEST SWAP1 POP SWAP2 SWAP1 POP JUMP JUMPDEST PUSH2 0x5C1 DUP2 PUSH2 0x597 JUMP JUMPDEST DUP3 MSTORE POP POP JUMP JUMPDEST PUSH0 PUSH1 0x60 DUP3 ADD SWAP1 POP DUP2 DUP2 SUB PUSH0 DUP4 ADD MSTORE PUSH2 0x5DE DUP2 PUSH2 0x510 JUMP JUMPDEST SWAP1 POP DUP2 DUP2 SUB PUSH1 0x20 DUP4 ADD MSTORE PUSH2 0x5F1 DUP2 PUSH2 0x55A JUMP JUMPDEST SWAP1 POP PUSH2 0x600 PUSH1 0x40 DUP4 ADD DUP5 PUSH2 0x5B8 JUMP JUMPDEST SWAP3 SWAP2 POP POP JUMP JUMPDEST PUSH32 0x546F6B656E204200000000000000000000000000000000000000000000000000 PUSH0 DUP3 ADD MSTORE POP JUMP JUMPDEST PUSH0 PUSH2 0x63A PUSH1 0x7 DUP4 PUSH2 0x4D8 JUMP JUMPDEST SWAP2 POP PUSH2 0x645 DUP3 PUSH2 0x606 JUMP JUMPDEST PUSH1 0x20 DUP3 ADD SWAP1 POP SWAP2 SWAP1 POP JUMP JUMPDEST PUSH32 0x544B420000000000000000000000000000000000000000000000000000000000 PUSH0 DUP3 ADD MSTORE POP JUMP JUMPDEST PUSH0 PUSH2 0x684 PUSH1 0x3 DUP4 PUSH2 0x4D8 JUMP JUMPDEST SWAP2 POP PUSH2 0x68F DUP3 PUSH2 0x650 JUMP JUMPDEST PUSH1 0x20 DUP3 ADD SWAP1 POP SWAP2 SWAP1 POP JUMP JUMPDEST PUSH0 PUSH1 0x60 DUP3 ADD SWAP1 POP DUP2 DUP2 SUB PUSH0 DUP4 ADD MSTORE PUSH2 0x6B1 DUP2 PUSH2 0x62E JUMP JUMPDEST SWAP1 POP DUP2 DUP2 SUB PUSH1 0x20 DUP4 ADD MSTORE PUSH2 0x6C4 DUP2 PUSH2 0x678 JUMP JUMPDEST SWAP1 POP PUSH2 0x6D3 PUSH1 0x40 DUP4 ADD DUP5 PUSH2 0x5B8 JUMP JUMPDEST SWAP3 SWAP2 POP POP JUMP JUMPDEST PUSH0 PUSH20 0xFFFFFFFFFFFFFFFFFFFFFFFFFFFFFFFFFFFFFFFF DUP3 AND SWAP1 POP SWAP2 SWAP1 POP JUMP JUMPDEST PUSH0 PUSH2 0x702 DUP3 PUSH2 0x6D9 JUMP JUMPDEST SWAP1 POP SWAP2 SWAP1 POP JUMP JUMPDEST PUSH2 0x712 DUP2 PUSH2 0x6F8 JUMP JUMPDEST DUP3 MSTORE POP POP JUMP JUMPDEST PUSH2 0x721 DUP2 PUSH2 0x585 JUMP JUMPDEST DUP3 MSTORE POP POP JUMP JUMPDEST PUSH0 PUSH1 0x40 DUP3 ADD SWAP1 POP PUSH2 0x73A PUSH0 DUP4 ADD DUP6 PUSH2 0x709 JUMP JUMPDEST PUSH2 0x747 PUSH1 0x20 DUP4 ADD DUP5 PUSH2 0x718 JUMP JUMPDEST SWAP4 SWAP3 POP POP POP JUMP JUMPDEST PUSH0 PUSH0 REVERT JUMPDEST PUSH0 DUP2 ISZERO ISZERO SWAP1 POP SWAP2 SWAP1 POP JUMP JUMPDEST PUSH2 0x766 DUP2 PUSH2 0x752 JUMP JUMPDEST DUP2 EQ PUSH2 0x770 JUMPI PUSH0 PUSH0 REVERT JUMPDEST POP JUMP JUMPDEST PUSH0 DUP2 MLOAD SWAP1 POP PUSH2 0x781 DUP2 PUSH2 0x75D JUMP JUMPDEST SWAP3 SWAP2 POP POP JUMP JUMPDEST PUSH0 PUSH1 0x20 DUP3 DUP5 SUB SLT ISZERO PUSH2 0x79C JUMPI PUSH2 0x79B PUSH2 0x74E JUMP JUMPDEST JUMPDEST PUSH0 PUSH2 0x7A9 DUP5 DUP3 DUP6 ADD PUSH2 0x773 JUMP JUMPDEST SWAP2 POP POP SWAP3 SWAP2 POP POP JUMP JUMPDEST PUSH0 DUP2 SWAP1 POP SWAP2 SWAP1 POP JUMP JUMPDEST PUSH0 PUSH2 0x7D5 PUSH2 0x7D0 PUSH2 0x7CB DUP5 PUSH2 0x7B2 JUMP JUMPDEST PUSH2 0x58E JUMP JUMPDEST PUSH2 0x585 JUMP JUMPDEST SWAP1 POP SWAP2 SWAP1 POP JUMP JUMPDEST PUSH2 0x7E5 DUP2 PUSH2 0x7BB JUMP JUMPDEST DUP3 MSTORE POP POP JUMP JUMPDEST PUSH0 PUSH1 0xA0 DUP3 ADD SWAP1 POP PUSH2 0x7FE PUSH0 DUP4 ADD DUP9 PUSH2 0x709 JUMP JUMPDEST PUSH2 0x80B PUSH1 0x20 DUP4 ADD DUP8 PUSH2 0x709 JUMP JUMPDEST PUSH2 0x818 PUSH1 0x40 DUP4 ADD DUP7 PUSH2 0x709 JUMP JUMPDEST PUSH2 0x825 PUSH1 0x60 DUP4 ADD DUP6 PUSH2 0x7DC JUMP JUMPDEST PUSH2 0x832 PUSH1 0x80 DUP4 ADD DUP5 PUSH2 0x709 JUMP JUMPDEST SWAP7 SWAP6 POP POP POP POP POP POP JUMP JUMPDEST PUSH2 0xC70 DUP1 PUSH2 0x849 PUSH0 CODECOPY PUSH0 RETURN INVALID PUSH1 0x80 PUSH1 0x40 MSTORE CALLVALUE DUP1 ISZERO PUSH2 0xF JUMPI PUSH0 PUSH0 REVERT JUMPDEST POP PUSH1 0x4 CALLDATASIZE LT PUSH2 0x91 JUMPI PUSH0 CALLDATALOAD PUSH1 0xE0 SHR DUP1 PUSH4 0x5F64B55B GT PUSH2 0x64 JUMPI DUP1 PUSH4 0x5F64B55B EQ PUSH2 0x109 JUMPI DUP1 PUSH4 0x9653DEE5 EQ PUSH2 0x127 JUMPI DUP1 PUSH4 0xAF56D99B EQ PUSH2 0x145 JUMPI DUP1 PUSH4 0xC9FCE745 EQ PUSH2 0x161 JUMPI DUP1 PUSH4 0xD216DCBC EQ PUSH2 0x17D JUMPI PUSH2 0x91 JUMP JUMPDEST DUP1 PUSH4 0xFC63D10 EQ PUSH2 0x95 JUMPI DUP1 PUSH4 0x1755FF21 EQ PUSH2 0xB3 JUMPI DUP1 PUSH4 0x33D97F8B EQ PUSH2 0xD1 JUMPI DUP1 PUSH4 0x5AECA080 EQ PUSH2 0xED JUMPI JUMPDEST PUSH0 PUSH0 REVERT JUMPDEST PUSH2 0x9D PUSH2 0x19B JUMP JUMPDEST PUSH1 0x40 MLOAD PUSH2 0xAA SWAP2 SWAP1 PUSH2 0x8BF JUMP JUMPDEST PUSH1 0x40 MLOAD DUP1 SWAP2 SUB SWAP1 RETURN JUMPDEST PUSH2 0xBB PUSH2 0x1C0 JUMP JUMPDEST PUSH1 0x40 MLOAD PUSH2 0xC8 SWAP2 SWAP1 PUSH2 0x8F8 JUMP JUMPDEST PUSH1 0x40 MLOAD DUP1 SWAP2 SUB SWAP1 RETURN JUMPDEST PUSH2 0xEB PUSH1 0x4 DUP1 CALLDATASIZE SUB DUP2 ADD SWAP1 PUSH2 0xE6 SWAP2 SWAP1 PUSH2 0x948 JUMP JUMPDEST PUSH2 0x1E5 JUMP JUMPDEST STOP JUMPDEST PUSH2 0x107 PUSH1 0x4 DUP1 CALLDATASIZE SUB DUP2 ADD SWAP1 PUSH2 0x102 SWAP2 SWAP1 PUSH2 0x9B0 JUMP JUMPDEST PUSH2 0x548 JUMP JUMPDEST STOP JUMPDEST PUSH2 0x111 PUSH2 0x5DD JUMP JUMPDEST PUSH1 0x40 MLOAD PUSH2 0x11E SWAP2 SWAP1 PUSH2 0x8BF JUMP JUMPDEST PUSH1 0x40 MLOAD DUP1 SWAP2 SUB SWAP1 RETURN JUMPDEST PUSH2 0x12F PUSH2 0x602 JUMP JUMPDEST PUSH1 0x40 MLOAD PUSH2 0x13C SWAP2 SWAP1 PUSH2 0xA47 JUMP JUMPDEST PUSH1 0x40 MLOAD DUP1 SWAP2 SUB SWAP1 RETURN JUMPDEST PUSH2 0x15F PUSH1 0x4 DUP1 CALLDATASIZE SUB DUP2 ADD SWAP1 PUSH2 0x15A SWAP2 SWAP1 PUSH2 0xA60 JUMP JUMPDEST PUSH2 0x626 JUMP JUMPDEST STOP JUMPDEST PUSH2 0x17B PUSH1 0x4 DUP1 CALLDATASIZE SUB DUP2 ADD SWAP1 PUSH2 0x176 SWAP2 SWAP1 PUSH2 0xAB0 JUMP JUMPDEST PUSH2 0x774 JUMP JUMPDEST STOP JUMPDEST PUSH2 0x185 PUSH2 0x820 JUMP JUMPDEST PUSH1 0x40 MLOAD PUSH2 0x192 SWAP2 SWAP1 PUSH2 0x8F8 JUMP JUMPDEST PUSH1 0x40 MLOAD DUP1 SWAP2 SUB SWAP1 RETURN JUMPDEST PUSH1 0x1 PUSH0 SWAP1 SLOAD SWAP1 PUSH2 0x100 EXP SWAP1 DIV PUSH20 0xFFFFFFFFFFFFFFFFFFFFFFFFFFFFFFFFFFFFFFFF AND DUP2 JUMP JUMPDEST PUSH1 0x3 PUSH0 SWAP1 SLOAD SWAP1 PUSH2 0x100 EXP SWAP1 DIV PUSH20 0xFFFFFFFFFFFFFFFFFFFFFFFFFFFFFFFFFFFFFFFF AND DUP2 JUMP JUMPDEST PUSH1 0x1 PUSH0 SWAP1 SLOAD SWAP1 PUSH2 0x100 EXP SWAP1 DIV PUSH20 0xFFFFFFFFFFFFFFFFFFFFFFFFFFFFFFFFFFFFFFFF AND PUSH20 0xFFFFFFFFFFFFFFFFFFFFFFFFFFFFFFFFFFFFFFFF AND PUSH4 0xA9059CBB CALLER DUP5 PUSH1 0x40 MLOAD DUP4 PUSH4 0xFFFFFFFF AND PUSH1 0xE0 SHL DUP2 MSTORE PUSH1 0x4 ADD PUSH2 0x241 SWAP3 SWAP2 SWAP1 PUSH2 0xAEA JUMP JUMPDEST PUSH1 0x20 PUSH1 0x40 MLOAD DUP1 DUP4 SUB DUP2 PUSH0 DUP8 GAS CALL ISZERO DUP1 ISZERO PUSH2 0x25D JUMPI RETURNDATASIZE PUSH0 PUSH0 RETURNDATACOPY RETURNDATASIZE PUSH0 REVERT JUMPDEST POP POP POP POP PUSH1 0x40 MLOAD RETURNDATASIZE PUSH1 0x1F NOT PUSH1 0x1F DUP3 ADD AND DUP3 ADD DUP1 PUSH1 0x40 MSTORE POP DUP2 ADD SWAP1 PUSH2 0x281 SWAP2 SWAP1 PUSH2 0xB46 JUMP JUMPDEST POP PUSH1 0x2 PUSH0 SWAP1 SLOAD SWAP1 PUSH2 0x100 EXP SWAP1 DIV PUSH20 0xFFFFFFFFFFFFFFFFFFFFFFFFFFFFFFFFFFFFFFFF AND PUSH20 0xFFFFFFFFFFFFFFFFFFFFFFFFFFFFFFFFFFFFFFFF AND PUSH4 0xA9059CBB CALLER DUP4 PUSH1 0x40 MLOAD DUP4 PUSH4 0xFFFFFFFF AND PUSH1 0xE0 SHL DUP2 MSTORE PUSH1 0x4 ADD PUSH2 0x2DE SWAP3 SWAP2 SWAP1 PUSH2 0xAEA JUMP JUMPDEST PUSH1 0x20 PUSH1 0x40 MLOAD DUP1 DUP4 SUB DUP2 PUSH0 DUP8 GAS CALL ISZERO DUP1 ISZERO PUSH2 0x2FA JUMPI RETURNDATASIZE PUSH0 PUSH0 RETURNDATACOPY RETURNDATASIZE PUSH0 REVERT JUMPDEST POP POP POP POP PUSH1 0x40 MLOAD RETURNDATASIZE PUSH1 0x1F NOT PUSH1 0x1F DUP3 ADD AND DUP3 ADD DUP1 PUSH1 0x40 MSTORE POP DUP2 ADD SWAP1 PUSH2 0x31E SWAP2 SWAP1 PUSH2 0xB46 JUMP JUMPDEST POP PUSH1 0x1 PUSH0 SWAP1 SLOAD SWAP1 PUSH2 0x100 EXP SWAP1 DIV PUSH20 0xFFFFFFFFFFFFFFFFFFFFFFFFFFFFFFFFFFFFFFFF AND PUSH20 0xFFFFFFFFFFFFFFFFFFFFFFFFFFFFFFFFFFFFFFFF AND PUSH4 0x95EA7B3 PUSH0 PUSH0 SWAP1 SLOAD SWAP1 PUSH2 0x100 EXP SWAP1 DIV PUSH20 0xFFFFFFFFFFFFFFFFFFFFFFFFFFFFFFFFFFFFFFFF AND DUP5 PUSH1 0x40 MLOAD DUP4 PUSH4 0xFFFFFFFF AND PUSH1 0xE0 SHL DUP2 MSTORE PUSH1 0x4 ADD PUSH2 0x39B SWAP3 SWAP2 SWAP1 PUSH2 0xAEA JUMP JUMPDEST PUSH1 0x20 PUSH1 0x40 MLOAD DUP1 DUP4 SUB DUP2 PUSH0 DUP8 GAS CALL ISZERO DUP1 ISZERO PUSH2 0x3B7 JUMPI RETURNDATASIZE PUSH0 PUSH0 RETURNDATACOPY RETURNDATASIZE PUSH0 REVERT JUMPDEST POP POP POP POP PUSH1 0x40 MLOAD RETURNDATASIZE PUSH1 0x1F NOT PUSH1 0x1F DUP3 ADD AND DUP3 ADD DUP1 PUSH1 0x40 MSTORE POP DUP2 ADD SWAP1 PUSH2 0x3DB SWAP2 SWAP1 PUSH2 0xB46 JUMP JUMPDEST POP PUSH1 0x2 PUSH0 SWAP1 SLOAD SWAP1 PUSH2 0x100 EXP SWAP1 DIV PUSH20 0xFFFFFFFFFFFFFFFFFFFFFFFFFFFFFFFFFFFFFFFF AND PUSH20 0xFFFFFFFFFFFFFFFFFFFFFFFFFFFFFFFFFFFFFFFF AND PUSH4 0x95EA7B3 PUSH0 PUSH0 SWAP1 SLOAD SWAP1 PUSH2 0x100 EXP SWAP1 DIV PUSH20 0xFFFFFFFFFFFFFFFFFFFFFFFFFFFFFFFFFFFFFFFF AND DUP4 PUSH1 0x40 MLOAD DUP4 PUSH4 0xFFFFFFFF AND PUSH1 0xE0 SHL DUP2 MSTORE PUSH1 0x4 ADD PUSH2 0x458 SWAP3 SWAP2 SWAP1 PUSH2 0xAEA JUMP JUMPDEST PUSH1 0x20 PUSH1 0x40 MLOAD DUP1 DUP4 SUB DUP2 PUSH0 DUP8 GAS CALL ISZERO DUP1 ISZERO PUSH2 0x474 JUMPI RETURNDATASIZE PUSH0 PUSH0 RETURNDATACOPY RETURNDATASIZE PUSH0 REVERT JUMPDEST POP POP POP POP PUSH1 0x40 MLOAD RETURNDATASIZE PUSH1 0x1F NOT PUSH1 0x1F DUP3 ADD AND DUP3 ADD DUP1 PUSH1 0x40 MSTORE POP DUP2 ADD SWAP1 PUSH2 0x498 SWAP2 SWAP1 PUSH2 0xB46 JUMP JUMPDEST POP PUSH0 PUSH0 SWAP1 SLOAD SWAP1 PUSH2 0x100 EXP SWAP1 DIV PUSH20 0xFFFFFFFFFFFFFFFFFFFFFFFFFFFFFFFFFFFFFFFF AND PUSH20 0xFFFFFFFFFFFFFFFFFFFFFFFFFFFFFFFFFFFFFFFF AND PUSH4 0x55776B77 PUSH1 0x3 PUSH0 SWAP1 SLOAD SWAP1 PUSH2 0x100 EXP SWAP1 DIV PUSH20 0xFFFFFFFFFFFFFFFFFFFFFFFFFFFFFFFFFFFFFFFF AND DUP5 DUP5 PUSH1 0x40 MLOAD DUP5 PUSH4 0xFFFFFFFF AND PUSH1 0xE0 SHL DUP2 MSTORE PUSH1 0x4 ADD PUSH2 0x517 SWAP4 SWAP3 SWAP2 SWAP1 PUSH2 0xB71 JUMP JUMPDEST PUSH0 PUSH1 0x40 MLOAD DUP1 DUP4 SUB DUP2 PUSH0 DUP8 DUP1 EXTCODESIZE ISZERO DUP1 ISZERO PUSH2 0x52E JUMPI PUSH0 PUSH0 REVERT JUMPDEST POP GAS CALL ISZERO DUP1 ISZERO PUSH2 0x540 JUMPI RETURNDATASIZE PUSH0 PUSH0 RETURNDATACOPY RETURNDATASIZE PUSH0 REVERT JUMPDEST POP POP POP POP POP POP JUMP JUMPDEST PUSH0 PUSH0 SWAP1 SLOAD SWAP1 PUSH2 0x100 EXP SWAP1 DIV PUSH20 0xFFFFFFFFFFFFFFFFFFFFFFFFFFFFFFFFFFFFFFFF AND PUSH20 0xFFFFFFFFFFFFFFFFFFFFFFFFFFFFFFFFFFFFFFFF AND PUSH4 0x5E7B647F DUP7 DUP7 DUP7 DUP7 DUP7 PUSH1 0x40 MLOAD DUP7 PUSH4 0xFFFFFFFF AND PUSH1 0xE0 SHL DUP2 MSTORE PUSH1 0x4 ADD PUSH2 0x5A9 SWAP6 SWAP5 SWAP4 SWAP3 SWAP2 SWAP1 PUSH2 0xBA6 JUMP JUMPDEST PUSH0 PUSH1 0x40 MLOAD DUP1 DUP4 SUB DUP2 PUSH0 DUP8 DUP1 EXTCODESIZE ISZERO DUP1 ISZERO PUSH2 0x5C0 JUMPI PUSH0 PUSH0 REVERT JUMPDEST POP GAS CALL ISZERO DUP1 ISZERO PUSH2 0x5D2 JUMPI RETURNDATASIZE PUSH0 PUSH0 RETURNDATACOPY RETURNDATASIZE PUSH0 REVERT JUMPDEST POP POP POP POP POP POP POP POP POP JUMP JUMPDEST PUSH1 0x2 PUSH0 SWAP1 SLOAD SWAP1 PUSH2 0x100 EXP SWAP1 DIV PUSH20 0xFFFFFFFFFFFFFFFFFFFFFFFFFFFFFFFFFFFFFFFF AND DUP2 JUMP JUMPDEST PUSH0 PUSH0 SWAP1 SLOAD SWAP1 PUSH2 0x100 EXP SWAP1 DIV PUSH20 0xFFFFFFFFFFFFFFFFFFFFFFFFFFFFFFFFFFFFFFFF AND DUP2 JUMP JUMPDEST DUP3 PUSH20 0xFFFFFFFFFFFFFFFFFFFFFFFFFFFFFFFFFFFFFFFF AND PUSH4 0x95EA7B3 PUSH0 PUSH0 SWAP1 SLOAD SWAP1 PUSH2 0x100 EXP SWAP1 DIV PUSH20 0xFFFFFFFFFFFFFFFFFFFFFFFFFFFFFFFFFFFFFFFF AND DUP5 PUSH1 0x40 MLOAD DUP4 PUSH4 0xFFFFFFFF AND PUSH1 0xE0 SHL DUP2 MSTORE PUSH1 0x4 ADD PUSH2 0x681 SWAP3 SWAP2 SWAP1 PUSH2 0xAEA JUMP JUMPDEST PUSH1 0x20 PUSH1 0x40 MLOAD DUP1 DUP4 SUB DUP2 PUSH0 DUP8 GAS CALL ISZERO DUP1 ISZERO PUSH2 0x69D JUMPI RETURNDATASIZE PUSH0 PUSH0 RETURNDATACOPY RETURNDATASIZE PUSH0 REVERT JUMPDEST POP POP POP POP PUSH1 0x40 MLOAD RETURNDATASIZE PUSH1 0x1F NOT PUSH1 0x1F DUP3 ADD AND DUP3 ADD DUP1 PUSH1 0x40 MSTORE POP DUP2 ADD SWAP1 PUSH2 0x6C1 SWAP2 SWAP1 PUSH2 0xB46 JUMP JUMPDEST POP PUSH0 PUSH0 SWAP1 SLOAD SWAP1 PUSH2 0x100 EXP SWAP1 DIV PUSH20 0xFFFFFFFFFFFFFFFFFFFFFFFFFFFFFFFFFFFFFFFF AND PUSH20 0xFFFFFFFFFFFFFFFFFFFFFFFFFFFFFFFFFFFFFFFF AND PUSH4 0xFE029156 PUSH1 0x3 PUSH0 SWAP1 SLOAD SWAP1 PUSH2 0x100 EXP SWAP1 DIV PUSH20 0xFFFFFFFFFFFFFFFFFFFFFFFFFFFFFFFFFFFFFFFF AND DUP6 DUP6 DUP6 PUSH1 0x40 MLOAD DUP6 PUSH4 0xFFFFFFFF AND PUSH1 0xE0 SHL DUP2 MSTORE PUSH1 0x4 ADD PUSH2 0x742 SWAP5 SWAP4 SWAP3 SWAP2 SWAP1 PUSH2 0xBF7 JUMP JUMPDEST PUSH0 PUSH1 0x40 MLOAD DUP1 DUP4 SUB DUP2 PUSH0 DUP8 DUP1 EXTCODESIZE ISZERO DUP1 ISZERO PUSH2 0x759 JUMPI PUSH0 PUSH0 REVERT JUMPDEST POP GAS CALL ISZERO DUP1 ISZERO PUSH2 0x76B JUMPI RETURNDATASIZE PUSH0 PUSH0 RETURNDATACOPY RETURNDATASIZE PUSH0 REVERT JUMPDEST POP POP POP POP POP POP POP JUMP JUMPDEST PUSH0 PUSH0 SWAP1 SLOAD SWAP1 PUSH2 0x100 EXP SWAP1 DIV PUSH20 0xFFFFFFFFFFFFFFFFFFFFFFFFFFFFFFFFFFFFFFFF AND PUSH20 0xFFFFFFFFFFFFFFFFFFFFFFFFFFFFFFFFFFFFFFFF AND PUSH4 0xA201CCF6 PUSH1 0x3 PUSH0 SWAP1 SLOAD SWAP1 PUSH2 0x100 EXP SWAP1 DIV PUSH20 0xFFFFFFFFFFFFFFFFFFFFFFFFFFFFFFFFFFFFFFFF AND DUP4 PUSH1 0x40 MLOAD DUP4 PUSH4 0xFFFFFFFF AND PUSH1 0xE0 SHL DUP2 MSTORE PUSH1 0x4 ADD PUSH2 0x7F0 SWAP3 SWAP2 SWAP1 PUSH2 0xAEA JUMP JUMPDEST PUSH0 PUSH1 0x40 MLOAD DUP1 DUP4 SUB DUP2 PUSH0 DUP8 DUP1 EXTCODESIZE ISZERO DUP1 ISZERO PUSH2 0x807 JUMPI PUSH0 PUSH0 REVERT JUMPDEST POP GAS CALL ISZERO DUP1 ISZERO PUSH2 0x819 JUMPI RETURNDATASIZE PUSH0 PUSH0 RETURNDATACOPY RETURNDATASIZE PUSH0 REVERT JUMPDEST POP POP POP POP POP JUMP JUMPDEST PUSH1 0x4 PUSH0 SWAP1 SLOAD SWAP1 PUSH2 0x100 EXP SWAP1 DIV PUSH20 0xFFFFFFFFFFFFFFFFFFFFFFFFFFFFFFFFFFFFFFFF AND DUP2 JUMP JUMPDEST PUSH0 PUSH20 0xFFFFFFFFFFFFFFFFFFFFFFFFFFFFFFFFFFFFFFFF DUP3 AND SWAP1 POP SWAP2 SWAP1 POP JUMP JUMPDEST PUSH0 DUP2 SWAP1 POP SWAP2 SWAP1 POP JUMP JUMPDEST PUSH0 PUSH2 0x887 PUSH2 0x882 PUSH2 0x87D DUP5 PUSH2 0x845 JUMP JUMPDEST PUSH2 0x864 JUMP JUMPDEST PUSH2 0x845 JUMP JUMPDEST SWAP1 POP SWAP2 SWAP1 POP JUMP JUMPDEST PUSH0 PUSH2 0x898 DUP3 PUSH2 0x86D JUMP JUMPDEST SWAP1 POP SWAP2 SWAP1 POP JUMP JUMPDEST PUSH0 PUSH2 0x8A9 DUP3 PUSH2 0x88E JUMP JUMPDEST SWAP1 POP SWAP2 SWAP1 POP JUMP JUMPDEST PUSH2 0x8B9 DUP2 PUSH2 0x89F JUMP JUMPDEST DUP3 MSTORE POP POP JUMP JUMPDEST PUSH0 PUSH1 0x20 DUP3 ADD SWAP1 POP PUSH2 0x8D2 PUSH0 DUP4 ADD DUP5 PUSH2 0x8B0 JUMP JUMPDEST SWAP3 SWAP2 POP POP JUMP JUMPDEST PUSH0 PUSH2 0x8E2 DUP3 PUSH2 0x845 JUMP JUMPDEST SWAP1 POP SWAP2 SWAP1 POP JUMP JUMPDEST PUSH2 0x8F2 DUP2 PUSH2 0x8D8 JUMP JUMPDEST DUP3 MSTORE POP POP JUMP JUMPDEST PUSH0 PUSH1 0x20 DUP3 ADD SWAP1 POP PUSH2 0x90B PUSH0 DUP4 ADD DUP5 PUSH2 0x8E9 JUMP JUMPDEST SWAP3 SWAP2 POP POP JUMP JUMPDEST PUSH0 PUSH0 REVERT JUMPDEST PUSH0 DUP2 SWAP1 POP SWAP2 SWAP1 POP JUMP JUMPDEST PUSH2 0x927 DUP2 PUSH2 0x915 JUMP JUMPDEST DUP2 EQ PUSH2 0x931 JUMPI PUSH0 PUSH0 REVERT JUMPDEST POP JUMP JUMPDEST PUSH0 DUP2 CALLDATALOAD SWAP1 POP PUSH2 0x942 DUP2 PUSH2 0x91E JUMP JUMPDEST SWAP3 SWAP2 POP POP JUMP JUMPDEST PUSH0 PUSH0 PUSH1 0x40 DUP4 DUP6 SUB SLT ISZERO PUSH2 0x95E JUMPI PUSH2 0x95D PUSH2 0x911 JUMP JUMPDEST JUMPDEST PUSH0 PUSH2 0x96B DUP6 DUP3 DUP7 ADD PUSH2 0x934 JUMP JUMPDEST SWAP3 POP POP PUSH1 0x20 PUSH2 0x97C DUP6 DUP3 DUP7 ADD PUSH2 0x934 JUMP JUMPDEST SWAP2 POP POP SWAP3 POP SWAP3 SWAP1 POP JUMP JUMPDEST PUSH2 0x98F DUP2 PUSH2 0x8D8 JUMP JUMPDEST DUP2 EQ PUSH2 0x999 JUMPI PUSH0 PUSH0 REVERT JUMPDEST POP JUMP JUMPDEST PUSH0 DUP2 CALLDATALOAD SWAP1 POP PUSH2 0x9AA DUP2 PUSH2 0x986 JUMP JUMPDEST SWAP3 SWAP2 POP POP JUMP JUMPDEST PUSH0 PUSH0 PUSH0 PUSH0 PUSH0 PUSH1 0xA0 DUP7 DUP9 SUB SLT ISZERO PUSH2 0x9C9 JUMPI PUSH2 0x9C8 PUSH2 0x911 JUMP JUMPDEST JUMPDEST PUSH0 PUSH2 0x9D6 DUP9 DUP3 DUP10 ADD PUSH2 0x99C JUMP JUMPDEST SWAP6 POP POP PUSH1 0x20 PUSH2 0x9E7 DUP9 DUP3 DUP10 ADD PUSH2 0x99C JUMP JUMPDEST SWAP5 POP POP PUSH1 0x40 PUSH2 0x9F8 DUP9 DUP3 DUP10 ADD PUSH2 0x99C JUMP JUMPDEST SWAP4 POP POP PUSH1 0x60 PUSH2 0xA09 DUP9 DUP3 DUP10 ADD PUSH2 0x934 JUMP JUMPDEST SWAP3 POP POP PUSH1 0x80 PUSH2 0xA1A DUP9 DUP3 DUP10 ADD PUSH2 0x99C JUMP JUMPDEST SWAP2 POP POP SWAP3 SWAP6 POP SWAP3 SWAP6 SWAP1 SWAP4 POP JUMP JUMPDEST PUSH0 PUSH2 0xA31 DUP3 PUSH2 0x88E JUMP JUMPDEST SWAP1 POP SWAP2 SWAP1 POP JUMP JUMPDEST PUSH2 0xA41 DUP2 PUSH2 0xA27 JUMP JUMPDEST DUP3 MSTORE POP POP JUMP JUMPDEST PUSH0 PUSH1 0x20 DUP3 ADD SWAP1 POP PUSH2 0xA5A PUSH0 DUP4 ADD DUP5 PUSH2 0xA38 JUMP JUMPDEST SWAP3 SWAP2 POP POP JUMP JUMPDEST PUSH0 PUSH0 PUSH0 PUSH1 0x60 DUP5 DUP7 SUB SLT ISZERO PUSH2 0xA77 JUMPI PUSH2 0xA76 PUSH2 0x911 JUMP JUMPDEST JUMPDEST PUSH0 PUSH2 0xA84 DUP7 DUP3 DUP8 ADD PUSH2 0x99C JUMP JUMPDEST SWAP4 POP POP PUSH1 0x20 PUSH2 0xA95 DUP7 DUP3 DUP8 ADD PUSH2 0x934 JUMP JUMPDEST SWAP3 POP POP PUSH1 0x40 PUSH2 0xAA6 DUP7 DUP3 DUP8 ADD PUSH2 0x934 JUMP JUMPDEST SWAP2 POP POP SWAP3 POP SWAP3 POP SWAP3 JUMP JUMPDEST PUSH0 PUSH1 0x20 DUP3 DUP5 SUB SLT ISZERO PUSH2 0xAC5 JUMPI PUSH2 0xAC4 PUSH2 0x911 JUMP JUMPDEST JUMPDEST PUSH0 PUSH2 0xAD2 DUP5 DUP3 DUP6 ADD PUSH2 0x934 JUMP JUMPDEST SWAP2 POP POP SWAP3 SWAP2 POP POP JUMP JUMPDEST PUSH2 0xAE4 DUP2 PUSH2 0x915 JUMP JUMPDEST DUP3 MSTORE POP POP JUMP JUMPDEST PUSH0 PUSH1 0x40 DUP3 ADD SWAP1 POP PUSH2 0xAFD PUSH0 DUP4 ADD DUP6 PUSH2 0x8E9 JUMP JUMPDEST PUSH2 0xB0A PUSH1 0x20 DUP4 ADD DUP5 PUSH2 0xADB JUMP JUMPDEST SWAP4 SWAP3 POP POP POP JUMP JUMPDEST PUSH0 DUP2 ISZERO ISZERO SWAP1 POP SWAP2 SWAP1 POP JUMP JUMPDEST PUSH2 0xB25 DUP2 PUSH2 0xB11 JUMP JUMPDEST DUP2 EQ PUSH2 0xB2F JUMPI PUSH0 PUSH0 REVERT JUMPDEST POP JUMP JUMPDEST PUSH0 DUP2 MLOAD SWAP1 POP PUSH2 0xB40 DUP2 PUSH2 0xB1C JUMP JUMPDEST SWAP3 SWAP2 POP POP JUMP JUMPDEST PUSH0 PUSH1 0x20 DUP3 DUP5 SUB SLT ISZERO PUSH2 0xB5B JUMPI PUSH2 0xB5A PUSH2 0x911 JUMP JUMPDEST JUMPDEST PUSH0 PUSH2 0xB68 DUP5 DUP3 DUP6 ADD PUSH2 0xB32 JUMP JUMPDEST SWAP2 POP POP SWAP3 SWAP2 POP POP JUMP JUMPDEST PUSH0 PUSH1 0x60 DUP3 ADD SWAP1 POP PUSH2 0xB84 PUSH0 DUP4 ADD DUP7 PUSH2 0x8E9 JUMP JUMPDEST PUSH2 0xB91 PUSH1 0x20 DUP4 ADD DUP6 PUSH2 0xADB JUMP JUMPDEST PUSH2 0xB9E PUSH1 0x40 DUP4 ADD DUP5 PUSH2 0xADB JUMP JUMPDEST SWAP5 SWAP4 POP POP POP POP JUMP JUMPDEST PUSH0 PUSH1 0xA0 DUP3 ADD SWAP1 POP PUSH2 0xBB9 PUSH0 DUP4 ADD DUP9 PUSH2 0x8E9 JUMP JUMPDEST PUSH2 0xBC6 PUSH1 0x20 DUP4 ADD DUP8 PUSH2 0x8E9 JUMP JUMPDEST PUSH2 0xBD3 PUSH1 0x40 DUP4 ADD DUP7 PUSH2 0x8E9 JUMP JUMPDEST PUSH2 0xBE0 PUSH1 0x60 DUP4 ADD DUP6 PUSH2 0xADB JUMP JUMPDEST PUSH2 0xBED PUSH1 0x80 DUP4 ADD DUP5 PUSH2 0x8E9 JUMP JUMPDEST SWAP7 SWAP6 POP POP POP POP POP POP JUMP JUMPDEST PUSH0 PUSH1 0x80 DUP3 ADD SWAP1 POP PUSH2 0xC0A PUSH0 DUP4 ADD DUP8 PUSH2 0x8E9 JUMP JUMPDEST PUSH2 0xC17 PUSH1 0x20 DUP4 ADD DUP7 PUSH2 0x8E9 JUMP JUMPDEST PUSH2 0xC24 PUSH1 0x40 DUP4 ADD DUP6 PUSH2 0xADB JUMP JUMPDEST PUSH2 0xC31 PUSH1 0x60 DUP4 ADD DUP5 PUSH2 0xADB JUMP JUMPDEST SWAP6 SWAP5 POP POP POP POP POP JUMP INVALID LOG2 PUSH5 0x6970667358 0x22 SLT KECCAK256 DUP10 SWAP3 0xBC 0xB8 GASLIMIT 0xEC XOR SSTORE PUSH17 0x426920F43B983A146B7D1ACE9B00D17421 PREVRANDAO 0xF9 0x4C 0x21 SDIV SELFBALANCE PUSH5 0x736F6C6343 STOP ADDMOD SHR STOP CALLER PUSH1 0x80 PUSH1 0x40 MSTORE CALLVALUE DUP1 ISZERO PUSH2 0xF JUMPI PUSH0 PUSH0 REVERT JUMPDEST POP CALLER PUSH0 PUSH20 0xFFFFFFFFFFFFFFFFFFFFFFFFFFFFFFFFFFFFFFFF AND DUP2 PUSH20 0xFFFFFFFFFFFFFFFFFFFFFFFFFFFFFFFFFFFFFFFF AND SUB PUSH2 0x81 JUMPI PUSH0 PUSH1 0x40 MLOAD PUSH32 0x1E4FBDF700000000000000000000000000000000000000000000000000000000 DUP2 MSTORE PUSH1 0x4 ADD PUSH2 0x78 SWAP2 SWAP1 PUSH2 0x196 JUMP JUMPDEST PUSH1 0x40 MLOAD DUP1 SWAP2 SUB SWAP1 REVERT JUMPDEST PUSH2 0x90 DUP2 PUSH2 0x96 PUSH1 0x20 SHL PUSH1 0x20 SHR JUMP JUMPDEST POP PUSH2 0x1AF JUMP JUMPDEST PUSH0 PUSH0 PUSH0 SWAP1 SLOAD SWAP1 PUSH2 0x100 EXP SWAP1 DIV PUSH20 0xFFFFFFFFFFFFFFFFFFFFFFFFFFFFFFFFFFFFFFFF AND SWAP1 POP DUP2 PUSH0 PUSH0 PUSH2 0x100 EXP DUP2 SLOAD DUP2 PUSH20 0xFFFFFFFFFFFFFFFFFFFFFFFFFFFFFFFFFFFFFFFF MUL NOT AND SWAP1 DUP4 PUSH20 0xFFFFFFFFFFFFFFFFFFFFFFFFFFFFFFFFFFFFFFFF AND MUL OR SWAP1 SSTORE POP DUP2 PUSH20 0xFFFFFFFFFFFFFFFFFFFFFFFFFFFFFFFFFFFFFFFF AND DUP2 PUSH20 0xFFFFFFFFFFFFFFFFFFFFFFFFFFFFFFFFFFFFFFFF AND PUSH32 0x8BE0079C531659141344CD1FD0A4F28419497F9722A3DAAFE3B4186F6B6457E0 PUSH1 0x40 MLOAD PUSH1 0x40 MLOAD DUP1 SWAP2 SUB SWAP1 LOG3 POP POP JUMP JUMPDEST PUSH0 PUSH20 0xFFFFFFFFFFFFFFFFFFFFFFFFFFFFFFFFFFFFFFFF DUP3 AND SWAP1 POP SWAP2 SWAP1 POP JUMP JUMPDEST PUSH0 PUSH2 0x180 DUP3 PUSH2 0x157 JUMP JUMPDEST SWAP1 POP SWAP2 SWAP1 POP JUMP JUMPDEST PUSH2 0x190 DUP2 PUSH2 0x176 JUMP JUMPDEST DUP3 MSTORE POP POP JUMP JUMPDEST PUSH0 PUSH1 0x20 DUP3 ADD SWAP1 POP PUSH2 0x1A9 PUSH0 DUP4 ADD DUP5 PUSH2 0x187 JUMP JUMPDEST SWAP3 SWAP2 POP POP JUMP JUMPDEST PUSH2 0x1CE2 DUP1 PUSH2 0x1BC PUSH0 CODECOPY PUSH0 RETURN INVALID PUSH1 0x80 PUSH1 0x40 MSTORE CALLVALUE DUP1 ISZERO PUSH2 0xF JUMPI PUSH0 PUSH0 REVERT JUMPDEST POP PUSH1 0x4 CALLDATASIZE LT PUSH2 0x86 JUMPI PUSH0 CALLDATALOAD PUSH1 0xE0 SHR DUP1 PUSH4 0xA201CCF6 GT PUSH2 0x59 JUMPI DUP1 PUSH4 0xA201CCF6 EQ PUSH2 0xEA JUMPI DUP1 PUSH4 0xA4063DBC EQ PUSH2 0x106 JUMPI DUP1 PUSH4 0xF2FDE38B EQ PUSH2 0x13B JUMPI DUP1 PUSH4 0xFE029156 EQ PUSH2 0x157 JUMPI PUSH2 0x86 JUMP JUMPDEST DUP1 PUSH4 0x55776B77 EQ PUSH2 0x8A JUMPI DUP1 PUSH4 0x5E7B647F EQ PUSH2 0xA6 JUMPI DUP1 PUSH4 0x715018A6 EQ PUSH2 0xC2 JUMPI DUP1 PUSH4 0x8DA5CB5B EQ PUSH2 0xCC JUMPI JUMPDEST PUSH0 PUSH0 REVERT JUMPDEST PUSH2 0xA4 PUSH1 0x4 DUP1 CALLDATASIZE SUB DUP2 ADD SWAP1 PUSH2 0x9F SWAP2 SWAP1 PUSH2 0x1553 JUMP JUMPDEST PUSH2 0x173 JUMP JUMPDEST STOP JUMPDEST PUSH2 0xC0 PUSH1 0x4 DUP1 CALLDATASIZE SUB DUP2 ADD SWAP1 PUSH2 0xBB SWAP2 SWAP1 PUSH2 0x15A3 JUMP JUMPDEST PUSH2 0x466 JUMP JUMPDEST STOP JUMPDEST PUSH2 0xCA PUSH2 0x79F JUMP JUMPDEST STOP JUMPDEST PUSH2 0xD4 PUSH2 0x7B2 JUMP JUMPDEST PUSH1 0x40 MLOAD PUSH2 0xE1 SWAP2 SWAP1 PUSH2 0x1629 JUMP JUMPDEST PUSH1 0x40 MLOAD DUP1 SWAP2 SUB SWAP1 RETURN JUMPDEST PUSH2 0x104 PUSH1 0x4 DUP1 CALLDATASIZE SUB DUP2 ADD SWAP1 PUSH2 0xFF SWAP2 SWAP1 PUSH2 0x1642 JUMP JUMPDEST PUSH2 0x7D9 JUMP JUMPDEST STOP JUMPDEST PUSH2 0x120 PUSH1 0x4 DUP1 CALLDATASIZE SUB DUP2 ADD SWAP1 PUSH2 0x11B SWAP2 SWAP1 PUSH2 0x1680 JUMP JUMPDEST PUSH2 0xC60 JUMP JUMPDEST PUSH1 0x40 MLOAD PUSH2 0x132 SWAP7 SWAP6 SWAP5 SWAP4 SWAP3 SWAP2 SWAP1 PUSH2 0x16BA JUMP JUMPDEST PUSH1 0x40 MLOAD DUP1 SWAP2 SUB SWAP1 RETURN JUMPDEST PUSH2 0x155 PUSH1 0x4 DUP1 CALLDATASIZE SUB DUP2 ADD SWAP1 PUSH2 0x150 SWAP2 SWAP1 PUSH2 0x1680 JUMP JUMPDEST PUSH2 0xCF5 JUMP JUMPDEST STOP JUMPDEST PUSH2 0x171 PUSH1 0x4 DUP1 CALLDATASIZE SUB DUP2 ADD SWAP1 PUSH2 0x16C SWAP2 SWAP1 PUSH2 0x1719 JUMP JUMPDEST PUSH2 0xD79 JUMP JUMPDEST STOP JUMPDEST PUSH0 PUSH1 0x1 PUSH0 DUP6 PUSH20 0xFFFFFFFFFFFFFFFFFFFFFFFFFFFFFFFFFFFFFFFF AND PUSH20 0xFFFFFFFFFFFFFFFFFFFFFFFFFFFFFFFFFFFFFFFF AND DUP2 MSTORE PUSH1 0x20 ADD SWAP1 DUP2 MSTORE PUSH1 0x20 ADD PUSH0 KECCAK256 SWAP1 POP PUSH0 PUSH20 0xFFFFFFFFFFFFFFFFFFFFFFFFFFFFFFFFFFFFFFFF AND DUP2 PUSH0 ADD PUSH0 SWAP1 SLOAD SWAP1 PUSH2 0x100 EXP SWAP1 DIV PUSH20 0xFFFFFFFFFFFFFFFFFFFFFFFFFFFFFFFFFFFFFFFF AND PUSH20 0xFFFFFFFFFFFFFFFFFFFFFFFFFFFFFFFFFFFFFFFF AND SUB PUSH2 0x243 JUMPI PUSH1 0x40 MLOAD PUSH32 0x8C379A000000000000000000000000000000000000000000000000000000000 DUP2 MSTORE PUSH1 0x4 ADD PUSH2 0x23A SWAP1 PUSH2 0x17D7 JUMP JUMPDEST PUSH1 0x40 MLOAD DUP1 SWAP2 SUB SWAP1 REVERT JUMPDEST DUP1 PUSH0 ADD PUSH0 SWAP1 SLOAD SWAP1 PUSH2 0x100 EXP SWAP1 DIV PUSH20 0xFFFFFFFFFFFFFFFFFFFFFFFFFFFFFFFFFFFFFFFF AND PUSH20 0xFFFFFFFFFFFFFFFFFFFFFFFFFFFFFFFFFFFFFFFF AND PUSH4 0x23B872DD CALLER DUP7 DUP7 PUSH1 0x40 MLOAD DUP5 PUSH4 0xFFFFFFFF AND PUSH1 0xE0 SHL DUP2 MSTORE PUSH1 0x4 ADD PUSH2 0x2A2 SWAP4 SWAP3 SWAP2 SWAP1 PUSH2 0x17F5 JUMP JUMPDEST PUSH1 0x20 PUSH1 0x40 MLOAD DUP1 DUP4 SUB DUP2 PUSH0 DUP8 GAS CALL ISZERO DUP1 ISZERO PUSH2 0x2BE JUMPI RETURNDATASIZE PUSH0 PUSH0 RETURNDATACOPY RETURNDATASIZE PUSH0 REVERT JUMPDEST POP POP POP POP PUSH1 0x40 MLOAD RETURNDATASIZE PUSH1 0x1F NOT PUSH1 0x1F DUP3 ADD AND DUP3 ADD DUP1 PUSH1 0x40 MSTORE POP DUP2 ADD SWAP1 PUSH2 0x2E2 SWAP2 SWAP1 PUSH2 0x185F JUMP JUMPDEST POP DUP1 PUSH1 0x1 ADD PUSH0 SWAP1 SLOAD SWAP1 PUSH2 0x100 EXP SWAP1 DIV PUSH20 0xFFFFFFFFFFFFFFFFFFFFFFFFFFFFFFFFFFFFFFFF AND PUSH20 0xFFFFFFFFFFFFFFFFFFFFFFFFFFFFFFFFFFFFFFFF AND PUSH4 0x23B872DD CALLER DUP7 DUP6 PUSH1 0x40 MLOAD DUP5 PUSH4 0xFFFFFFFF AND PUSH1 0xE0 SHL DUP2 MSTORE PUSH1 0x4 ADD PUSH2 0x343 SWAP4 SWAP3 SWAP2 SWAP1 PUSH2 0x17F5 JUMP JUMPDEST PUSH1 0x20 PUSH1 0x40 MLOAD DUP1 DUP4 SUB DUP2 PUSH0 DUP8 GAS CALL ISZERO DUP1 ISZERO PUSH2 0x35F JUMPI RETURNDATASIZE PUSH0 PUSH0 RETURNDATACOPY RETURNDATASIZE PUSH0 REVERT JUMPDEST POP POP POP POP PUSH1 0x40 MLOAD RETURNDATASIZE PUSH1 0x1F NOT PUSH1 0x1F DUP3 ADD AND DUP3 ADD DUP1 PUSH1 0x40 MSTORE POP DUP2 ADD SWAP1 PUSH2 0x383 SWAP2 SWAP1 PUSH2 0x185F JUMP JUMPDEST POP PUSH0 PUSH0 DUP3 PUSH1 0x2 ADD SLOAD EQ PUSH2 0x3C6 JUMPI DUP3 DUP5 PUSH2 0x39C SWAP2 SWAP1 PUSH2 0x18B7 JUMP JUMPDEST DUP3 PUSH1 0x2 ADD SLOAD DUP5 DUP7 PUSH2 0x3AD SWAP2 SWAP1 PUSH2 0x18B7 JUMP JUMPDEST PUSH2 0x3B7 SWAP2 SWAP1 PUSH2 0x18EA JUMP JUMPDEST PUSH2 0x3C1 SWAP2 SWAP1 PUSH2 0x1958 JUMP JUMPDEST PUSH2 0x3D3 JUMP JUMPDEST DUP3 DUP5 PUSH2 0x3D2 SWAP2 SWAP1 PUSH2 0x18B7 JUMP JUMPDEST JUMPDEST SWAP1 POP DUP1 DUP3 PUSH1 0x2 ADD PUSH0 DUP3 DUP3 SLOAD PUSH2 0x3E8 SWAP2 SWAP1 PUSH2 0x18B7 JUMP JUMPDEST SWAP3 POP POP DUP2 SWAP1 SSTORE POP TIMESTAMP DUP3 PUSH1 0x5 ADD DUP2 SWAP1 SSTORE POP CALLER PUSH20 0xFFFFFFFFFFFFFFFFFFFFFFFFFFFFFFFFFFFFFFFF AND DUP6 PUSH20 0xFFFFFFFFFFFFFFFFFFFFFFFFFFFFFFFFFFFFFFFF AND PUSH32 0x36F3B2E1A21C19137DD82EC243B0708A1D26B3D1FA1DC49C44C4C366A5878138 DUP7 DUP7 PUSH1 0x40 MLOAD PUSH2 0x457 SWAP3 SWAP2 SWAP1 PUSH2 0x1988 JUMP JUMPDEST PUSH1 0x40 MLOAD DUP1 SWAP2 SUB SWAP1 LOG3 POP POP POP POP POP JUMP JUMPDEST PUSH2 0x46E PUSH2 0x1373 JUMP JUMPDEST PUSH2 0x3E8 DUP3 GT ISZERO PUSH2 0x4B3 JUMPI PUSH1 0x40 MLOAD PUSH32 0x8C379A000000000000000000000000000000000000000000000000000000000 DUP2 MSTORE PUSH1 0x4 ADD PUSH2 0x4AA SWAP1 PUSH2 0x19F9 JUMP JUMPDEST PUSH1 0x40 MLOAD DUP1 SWAP2 SUB SWAP1 REVERT JUMPDEST PUSH0 PUSH20 0xFFFFFFFFFFFFFFFFFFFFFFFFFFFFFFFFFFFFFFFF AND PUSH1 0x1 PUSH0 DUP8 PUSH20 0xFFFFFFFFFFFFFFFFFFFFFFFFFFFFFFFFFFFFFFFF AND PUSH20 0xFFFFFFFFFFFFFFFFFFFFFFFFFFFFFFFFFFFFFFFF AND DUP2 MSTORE PUSH1 0x20 ADD SWAP1 DUP2 MSTORE PUSH1 0x20 ADD PUSH0 KECCAK256 PUSH0 ADD PUSH0 SWAP1 SLOAD SWAP1 PUSH2 0x100 EXP SWAP1 DIV PUSH20 0xFFFFFFFFFFFFFFFFFFFFFFFFFFFFFFFFFFFFFFFF AND PUSH20 0xFFFFFFFFFFFFFFFFFFFFFFFFFFFFFFFFFFFFFFFF AND EQ PUSH2 0x57F JUMPI PUSH1 0x40 MLOAD PUSH32 0x8C379A000000000000000000000000000000000000000000000000000000000 DUP2 MSTORE PUSH1 0x4 ADD PUSH2 0x576 SWAP1 PUSH2 0x1A61 JUMP JUMPDEST PUSH1 0x40 MLOAD DUP1 SWAP2 SUB SWAP1 REVERT JUMPDEST PUSH1 0x40 MLOAD DUP1 PUSH1 0xC0 ADD PUSH1 0x40 MSTORE DUP1 DUP6 PUSH20 0xFFFFFFFFFFFFFFFFFFFFFFFFFFFFFFFFFFFFFFFF AND DUP2 MSTORE PUSH1 0x20 ADD DUP5 PUSH20 0xFFFFFFFFFFFFFFFFFFFFFFFFFFFFFFFFFFFFFFFF AND DUP2 MSTORE PUSH1 0x20 ADD PUSH0 DUP2 MSTORE PUSH1 0x20 ADD DUP4 DUP2 MSTORE PUSH1 0x20 ADD DUP3 PUSH20 0xFFFFFFFFFFFFFFFFFFFFFFFFFFFFFFFFFFFFFFFF AND DUP2 MSTORE PUSH1 0x20 ADD TIMESTAMP DUP2 MSTORE POP PUSH1 0x1 PUSH0 DUP8 PUSH20 0xFFFFFFFFFFFFFFFFFFFFFFFFFFFFFFFFFFFFFFFF AND PUSH20 0xFFFFFFFFFFFFFFFFFFFFFFFFFFFFFFFFFFFFFFFF AND DUP2 MSTORE PUSH1 0x20 ADD SWAP1 DUP2 MSTORE PUSH1 0x20 ADD PUSH0 KECCAK256 PUSH0 DUP3 ADD MLOAD DUP2 PUSH0 ADD PUSH0 PUSH2 0x100 EXP DUP2 SLOAD DUP2 PUSH20 0xFFFFFFFFFFFFFFFFFFFFFFFFFFFFFFFFFFFFFFFF MUL NOT AND SWAP1 DUP4 PUSH20 0xFFFFFFFFFFFFFFFFFFFFFFFFFFFFFFFFFFFFFFFF AND MUL OR SWAP1 SSTORE POP PUSH1 0x20 DUP3 ADD MLOAD DUP2 PUSH1 0x1 ADD PUSH0 PUSH2 0x100 EXP DUP2 SLOAD DUP2 PUSH20 0xFFFFFFFFFFFFFFFFFFFFFFFFFFFFFFFFFFFFFFFF MUL NOT AND SWAP1 DUP4 PUSH20 0xFFFFFFFFFFFFFFFFFFFFFFFFFFFFFFFFFFFFFFFF AND MUL OR SWAP1 SSTORE POP PUSH1 0x40 DUP3 ADD MLOAD DUP2 PUSH1 0x2 ADD SSTORE PUSH1 0x60 DUP3 ADD MLOAD DUP2 PUSH1 0x3 ADD SSTORE PUSH1 0x80 DUP3 ADD MLOAD DUP2 PUSH1 0x4 ADD PUSH0 PUSH2 0x100 EXP DUP2 SLOAD DUP2 PUSH20 0xFFFFFFFFFFFFFFFFFFFFFFFFFFFFFFFFFFFFFFFF MUL NOT AND SWAP1 DUP4 PUSH20 0xFFFFFFFFFFFFFFFFFFFFFFFFFFFFFFFFFFFFFFFF AND MUL OR SWAP1 SSTORE POP PUSH1 0xA0 DUP3 ADD MLOAD DUP2 PUSH1 0x5 ADD SSTORE SWAP1 POP POP DUP3 PUSH20 0xFFFFFFFFFFFFFFFFFFFFFFFFFFFFFFFFFFFFFFFF AND DUP5 PUSH20 0xFFFFFFFFFFFFFFFFFFFFFFFFFFFFFFFFFFFFFFFF AND DUP7 PUSH20 0xFFFFFFFFFFFFFFFFFFFFFFFFFFFFFFFFFFFFFFFF AND PUSH32 0x886FFED95392E2F52907CB2236F5A7DA7760E3B971F5DF0775067A2BC8647654 DUP6 PUSH1 0x40 MLOAD PUSH2 0x790 SWAP2 SWAP1 PUSH2 0x1A7F JUMP JUMPDEST PUSH1 0x40 MLOAD DUP1 SWAP2 SUB SWAP1 LOG4 POP POP POP POP POP JUMP JUMPDEST PUSH2 0x7A7 PUSH2 0x1373 JUMP JUMPDEST PUSH2 0x7B0 PUSH0 PUSH2 0x13FA JUMP JUMPDEST JUMP JUMPDEST PUSH0 PUSH0 PUSH0 SWAP1 SLOAD SWAP1 PUSH2 0x100 EXP SWAP1 DIV PUSH20 0xFFFFFFFFFFFFFFFFFFFFFFFFFFFFFFFFFFFFFFFF AND SWAP1 POP SWAP1 JUMP JUMPDEST PUSH0 PUSH1 0x1 PUSH0 DUP5 PUSH20 0xFFFFFFFFFFFFFFFFFFFFFFFFFFFFFFFFFFFFFFFF AND PUSH20 0xFFFFFFFFFFFFFFFFFFFFFFFFFFFFFFFFFFFFFFFF AND DUP2 MSTORE PUSH1 0x20 ADD SWAP1 DUP2 MSTORE PUSH1 0x20 ADD PUSH0 KECCAK256 SWAP1 POP PUSH0 PUSH20 0xFFFFFFFFFFFFFFFFFFFFFFFFFFFFFFFFFFFFFFFF AND DUP2 PUSH0 ADD PUSH0 SWAP1 SLOAD SWAP1 PUSH2 0x100 EXP SWAP1 DIV PUSH20 0xFFFFFFFFFFFFFFFFFFFFFFFFFFFFFFFFFFFFFFFF AND PUSH20 0xFFFFFFFFFFFFFFFFFFFFFFFFFFFFFFFFFFFFFFFF AND SUB PUSH2 0x8A9 JUMPI PUSH1 0x40 MLOAD PUSH32 0x8C379A000000000000000000000000000000000000000000000000000000000 DUP2 MSTORE PUSH1 0x4 ADD PUSH2 0x8A0 SWAP1 PUSH2 0x17D7 JUMP JUMPDEST PUSH1 0x40 MLOAD DUP1 SWAP2 SUB SWAP1 REVERT JUMPDEST PUSH2 0x12C DUP2 PUSH1 0x5 ADD SLOAD PUSH2 0x8BB SWAP2 SWAP1 PUSH2 0x18B7 JUMP JUMPDEST TIMESTAMP LT ISZERO PUSH2 0x8FD JUMPI PUSH1 0x40 MLOAD PUSH32 0x8C379A000000000000000000000000000000000000000000000000000000000 DUP2 MSTORE PUSH1 0x4 ADD PUSH2 0x8F4 SWAP1 PUSH2 0x1AE2 JUMP JUMPDEST PUSH1 0x40 MLOAD DUP1 SWAP2 SUB SWAP1 REVERT JUMPDEST PUSH0 DUP2 PUSH1 0x2 ADD SLOAD PUSH8 0xDE0B6B3A7640000 DUP5 PUSH2 0x917 SWAP2 SWAP1 PUSH2 0x18EA JUMP JUMPDEST PUSH2 0x921 SWAP2 SWAP1 PUSH2 0x1958 JUMP JUMPDEST SWAP1 POP PUSH0 PUSH8 0xDE0B6B3A7640000 DUP4 PUSH0 ADD PUSH0 SWAP1 SLOAD SWAP1 PUSH2 0x100 EXP SWAP1 DIV PUSH20 0xFFFFFFFFFFFFFFFFFFFFFFFFFFFFFFFFFFFFFFFF AND PUSH20 0xFFFFFFFFFFFFFFFFFFFFFFFFFFFFFFFFFFFFFFFF AND PUSH4 0x70A08231 DUP8 PUSH1 0x40 MLOAD DUP3 PUSH4 0xFFFFFFFF AND PUSH1 0xE0 SHL DUP2 MSTORE PUSH1 0x4 ADD PUSH2 0x988 SWAP2 SWAP1 PUSH2 0x1629 JUMP JUMPDEST PUSH1 0x20 PUSH1 0x40 MLOAD DUP1 DUP4 SUB DUP2 DUP7 GAS STATICCALL ISZERO DUP1 ISZERO PUSH2 0x9A3 JUMPI RETURNDATASIZE PUSH0 PUSH0 RETURNDATACOPY RETURNDATASIZE PUSH0 REVERT JUMPDEST POP POP POP POP PUSH1 0x40 MLOAD RETURNDATASIZE PUSH1 0x1F NOT PUSH1 0x1F DUP3 ADD AND DUP3 ADD DUP1 PUSH1 0x40 MSTORE POP DUP2 ADD SWAP1 PUSH2 0x9C7 SWAP2 SWAP1 PUSH2 0x1B14 JUMP JUMPDEST DUP4 PUSH2 0x9D2 SWAP2 SWAP1 PUSH2 0x18EA JUMP JUMPDEST PUSH2 0x9DC SWAP2 SWAP1 PUSH2 0x1958 JUMP JUMPDEST SWAP1 POP PUSH0 PUSH8 0xDE0B6B3A7640000 DUP5 PUSH1 0x1 ADD PUSH0 SWAP1 SLOAD SWAP1 PUSH2 0x100 EXP SWAP1 DIV PUSH20 0xFFFFFFFFFFFFFFFFFFFFFFFFFFFFFFFFFFFFFFFF AND PUSH20 0xFFFFFFFFFFFFFFFFFFFFFFFFFFFFFFFFFFFFFFFF AND PUSH4 0x70A08231 DUP9 PUSH1 0x40 MLOAD DUP3 PUSH4 0xFFFFFFFF AND PUSH1 0xE0 SHL DUP2 MSTORE PUSH1 0x4 ADD PUSH2 0xA44 SWAP2 SWAP1 PUSH2 0x1629 JUMP JUMPDEST PUSH1 0x20 PUSH1 0x40 MLOAD DUP1 DUP4 SUB DUP2 DUP7 GAS STATICCALL ISZERO DUP1 ISZERO PUSH2 0xA5F JUMPI RETURNDATASIZE PUSH0 PUSH0 RETURNDATACOPY RETURNDATASIZE PUSH0 REVERT JUMPDEST POP POP POP POP PUSH1 0x40 MLOAD RETURNDATASIZE PUSH1 0x1F NOT PUSH1 0x1F DUP3 ADD AND DUP3 ADD DUP1 PUSH1 0x40 MSTORE POP DUP2 ADD SWAP1 PUSH2 0xA83 SWAP2 SWAP1 PUSH2 0x1B14 JUMP JUMPDEST DUP5 PUSH2 0xA8E SWAP2 SWAP1 PUSH2 0x18EA JUMP JUMPDEST PUSH2 0xA98 SWAP2 SWAP1 PUSH2 0x1958 JUMP JUMPDEST SWAP1 POP DUP5 DUP5 PUSH1 0x2 ADD PUSH0 DUP3 DUP3 SLOAD PUSH2 0xAAD SWAP2 SWAP1 PUSH2 0x1B3F JUMP JUMPDEST SWAP3 POP POP DUP2 SWAP1 SSTORE POP DUP4 PUSH0 ADD PUSH0 SWAP1 SLOAD SWAP1 PUSH2 0x100 EXP SWAP1 DIV PUSH20 0xFFFFFFFFFFFFFFFFFFFFFFFFFFFFFFFFFFFFFFFF AND PUSH20 0xFFFFFFFFFFFFFFFFFFFFFFFFFFFFFFFFFFFFFFFF AND PUSH4 0xA9059CBB CALLER DUP5 PUSH1 0x40 MLOAD DUP4 PUSH4 0xFFFFFFFF AND PUSH1 0xE0 SHL DUP2 MSTORE PUSH1 0x4 ADD PUSH2 0xB11 SWAP3 SWAP2 SWAP1 PUSH2 0x1B72 JUMP JUMPDEST PUSH1 0x20 PUSH1 0x40 MLOAD DUP1 DUP4 SUB DUP2 PUSH0 DUP8 GAS CALL ISZERO DUP1 ISZERO PUSH2 0xB2D JUMPI RETURNDATASIZE PUSH0 PUSH0 RETURNDATACOPY RETURNDATASIZE PUSH0 REVERT JUMPDEST POP POP POP POP PUSH1 0x40 MLOAD RETURNDATASIZE PUSH1 0x1F NOT PUSH1 0x1F DUP3 ADD AND DUP3 ADD DUP1 PUSH1 0x40 MSTORE POP DUP2 ADD SWAP1 PUSH2 0xB51 SWAP2 SWAP1 PUSH2 0x185F JUMP JUMPDEST POP DUP4 PUSH1 0x1 ADD PUSH0 SWAP1 SLOAD SWAP1 PUSH2 0x100 EXP SWAP1 DIV PUSH20 0xFFFFFFFFFFFFFFFFFFFFFFFFFFFFFFFFFFFFFFFF AND PUSH20 0xFFFFFFFFFFFFFFFFFFFFFFFFFFFFFFFFFFFFFFFF AND PUSH4 0xA9059CBB CALLER DUP4 PUSH1 0x40 MLOAD DUP4 PUSH4 0xFFFFFFFF AND PUSH1 0xE0 SHL DUP2 MSTORE PUSH1 0x4 ADD PUSH2 0xBB0 SWAP3 SWAP2 SWAP1 PUSH2 0x1B72 JUMP JUMPDEST PUSH1 0x20 PUSH1 0x40 MLOAD DUP1 DUP4 SUB DUP2 PUSH0 DUP8 GAS CALL ISZERO DUP1 ISZERO PUSH2 0xBCC JUMPI RETURNDATASIZE PUSH0 PUSH0 RETURNDATACOPY RETURNDATASIZE PUSH0 REVERT JUMPDEST POP POP POP POP PUSH1 0x40 MLOAD RETURNDATASIZE PUSH1 0x1F NOT PUSH1 0x1F DUP3 ADD AND DUP3 ADD DUP1 PUSH1 0x40 MSTORE POP DUP2 ADD SWAP1 PUSH2 0xBF0 SWAP2 SWAP1 PUSH2 0x185F JUMP JUMPDEST POP CALLER PUSH20 0xFFFFFFFFFFFFFFFFFFFFFFFFFFFFFFFFFFFFFFFF AND DUP7 PUSH20 0xFFFFFFFFFFFFFFFFFFFFFFFFFFFFFFFFFFFFFFFF AND PUSH32 0x3B5C196AFF80BB96C03B41C96906B66827014DE931D1B36E0EDE6EE8CAEB4BF9 DUP5 DUP5 PUSH1 0x40 MLOAD PUSH2 0xC50 SWAP3 SWAP2 SWAP1 PUSH2 0x1988 JUMP JUMPDEST PUSH1 0x40 MLOAD DUP1 SWAP2 SUB SWAP1 LOG3 POP POP POP POP POP POP JUMP JUMPDEST PUSH1 0x1 PUSH1 0x20 MSTORE DUP1 PUSH0 MSTORE PUSH1 0x40 PUSH0 KECCAK256 PUSH0 SWAP2 POP SWAP1 POP DUP1 PUSH0 ADD PUSH0 SWAP1 SLOAD SWAP1 PUSH2 0x100 EXP SWAP1 DIV PUSH20 0xFFFFFFFFFFFFFFFFFFFFFFFFFFFFFFFFFFFFFFFF AND SWAP1 DUP1 PUSH1 0x1 ADD PUSH0 SWAP1 SLOAD SWAP1 PUSH2 0x100 EXP SWAP1 DIV PUSH20 0xFFFFFFFFFFFFFFFFFFFFFFFFFFFFFFFFFFFFFFFF AND SWAP1 DUP1 PUSH1 0x2 ADD SLOAD SWAP1 DUP1 PUSH1 0x3 ADD SLOAD SWAP1 DUP1 PUSH1 0x4 ADD PUSH0 SWAP1 SLOAD SWAP1 PUSH2 0x100 EXP SWAP1 DIV PUSH20 0xFFFFFFFFFFFFFFFFFFFFFFFFFFFFFFFFFFFFFFFF AND SWAP1 DUP1 PUSH1 0x5 ADD SLOAD SWAP1 POP DUP7 JUMP JUMPDEST PUSH2 0xCFD PUSH2 0x1373 JUMP JUMPDEST PUSH0 PUSH20 0xFFFFFFFFFFFFFFFFFFFFFFFFFFFFFFFFFFFFFFFF AND DUP2 PUSH20 0xFFFFFFFFFFFFFFFFFFFFFFFFFFFFFFFFFFFFFFFF AND SUB PUSH2 0xD6D JUMPI PUSH0 PUSH1 0x40 MLOAD PUSH32 0x1E4FBDF700000000000000000000000000000000000000000000000000000000 DUP2 MSTORE PUSH1 0x4 ADD PUSH2 0xD64 SWAP2 SWAP1 PUSH2 0x1629 JUMP JUMPDEST PUSH1 0x40 MLOAD DUP1 SWAP2 SUB SWAP1 REVERT JUMPDEST PUSH2 0xD76 DUP2 PUSH2 0x13FA JUMP JUMPDEST POP JUMP JUMPDEST PUSH0 PUSH1 0x1 PUSH0 DUP7 PUSH20 0xFFFFFFFFFFFFFFFFFFFFFFFFFFFFFFFFFFFFFFFF AND PUSH20 0xFFFFFFFFFFFFFFFFFFFFFFFFFFFFFFFFFFFFFFFF AND DUP2 MSTORE PUSH1 0x20 ADD SWAP1 DUP2 MSTORE PUSH1 0x20 ADD PUSH0 KECCAK256 SWAP1 POP PUSH0 PUSH20 0xFFFFFFFFFFFFFFFFFFFFFFFFFFFFFFFFFFFFFFFF AND DUP2 PUSH0 ADD PUSH0 SWAP1 SLOAD SWAP1 PUSH2 0x100 EXP SWAP1 DIV PUSH20 0xFFFFFFFFFFFFFFFFFFFFFFFFFFFFFFFFFFFFFFFF AND PUSH20 0xFFFFFFFFFFFFFFFFFFFFFFFFFFFFFFFFFFFFFFFF AND SUB PUSH2 0xE49 JUMPI PUSH1 0x40 MLOAD PUSH32 0x8C379A000000000000000000000000000000000000000000000000000000000 DUP2 MSTORE PUSH1 0x4 ADD PUSH2 0xE40 SWAP1 PUSH2 0x17D7 JUMP JUMPDEST PUSH1 0x40 MLOAD DUP1 SWAP2 SUB SWAP1 REVERT JUMPDEST DUP1 PUSH0 ADD PUSH0 SWAP1 SLOAD SWAP1 PUSH2 0x100 EXP SWAP1 DIV PUSH20 0xFFFFFFFFFFFFFFFFFFFFFFFFFFFFFFFFFFFFFFFF AND PUSH20 0xFFFFFFFFFFFFFFFFFFFFFFFFFFFFFFFFFFFFFFFF AND DUP5 PUSH20 0xFFFFFFFFFFFFFFFFFFFFFFFFFFFFFFFFFFFFFFFF AND EQ DUP1 PUSH2 0xEF3 JUMPI POP DUP1 PUSH1 0x1 ADD PUSH0 SWAP1 SLOAD SWAP1 PUSH2 0x100 EXP SWAP1 DIV PUSH20 0xFFFFFFFFFFFFFFFFFFFFFFFFFFFFFFFFFFFFFFFF AND PUSH20 0xFFFFFFFFFFFFFFFFFFFFFFFFFFFFFFFFFFFFFFFF AND DUP5 PUSH20 0xFFFFFFFFFFFFFFFFFFFFFFFFFFFFFFFFFFFFFFFF AND EQ JUMPDEST PUSH2 0xF32 JUMPI PUSH1 0x40 MLOAD PUSH32 0x8C379A000000000000000000000000000000000000000000000000000000000 DUP2 MSTORE PUSH1 0x4 ADD PUSH2 0xF29 SWAP1 PUSH2 0x1BE3 JUMP JUMPDEST PUSH1 0x40 MLOAD DUP1 SWAP2 SUB SWAP1 REVERT JUMPDEST PUSH0 DUP2 PUSH0 ADD PUSH0 SWAP1 SLOAD SWAP1 PUSH2 0x100 EXP SWAP1 DIV PUSH20 0xFFFFFFFFFFFFFFFFFFFFFFFFFFFFFFFFFFFFFFFF AND PUSH20 0xFFFFFFFFFFFFFFFFFFFFFFFFFFFFFFFFFFFFFFFF AND DUP6 PUSH20 0xFFFFFFFFFFFFFFFFFFFFFFFFFFFFFFFFFFFFFFFF AND EQ PUSH2 0xFB0 JUMPI DUP2 PUSH0 ADD PUSH0 SWAP1 SLOAD SWAP1 PUSH2 0x100 EXP SWAP1 DIV PUSH20 0xFFFFFFFFFFFFFFFFFFFFFFFFFFFFFFFFFFFFFFFF AND PUSH2 0xFD5 JUMP JUMPDEST DUP2 PUSH1 0x1 ADD PUSH0 SWAP1 SLOAD SWAP1 PUSH2 0x100 EXP SWAP1 DIV PUSH20 0xFFFFFFFFFFFFFFFFFFFFFFFFFFFFFFFFFFFFFFFF AND JUMPDEST SWAP1 POP PUSH0 DUP6 PUSH20 0xFFFFFFFFFFFFFFFFFFFFFFFFFFFFFFFFFFFFFFFF AND PUSH4 0x70A08231 DUP9 PUSH1 0x40 MLOAD DUP3 PUSH4 0xFFFFFFFF AND PUSH1 0xE0 SHL DUP2 MSTORE PUSH1 0x4 ADD PUSH2 0x1011 SWAP2 SWAP1 PUSH2 0x1629 JUMP JUMPDEST PUSH1 0x20 PUSH1 0x40 MLOAD DUP1 DUP4 SUB DUP2 DUP7 GAS STATICCALL ISZERO DUP1 ISZERO PUSH2 0x102C JUMPI RETURNDATASIZE PUSH0 PUSH0 RETURNDATACOPY RETURNDATASIZE PUSH0 REVERT JUMPDEST POP POP POP POP PUSH1 0x40 MLOAD RETURNDATASIZE PUSH1 0x1F NOT PUSH1 0x1F DUP3 ADD AND DUP3 ADD DUP1 PUSH1 0x40 MSTORE POP DUP2 ADD SWAP1 PUSH2 0x1050 SWAP2 SWAP1 PUSH2 0x1B14 JUMP JUMPDEST SWAP1 POP PUSH0 DUP3 PUSH20 0xFFFFFFFFFFFFFFFFFFFFFFFFFFFFFFFFFFFFFFFF AND PUSH4 0x70A08231 DUP10 PUSH1 0x40 MLOAD DUP3 PUSH4 0xFFFFFFFF AND PUSH1 0xE0 SHL DUP2 MSTORE PUSH1 0x4 ADD PUSH2 0x108C SWAP2 SWAP1 PUSH2 0x1629 JUMP JUMPDEST PUSH1 0x20 PUSH1 0x40 MLOAD DUP1 DUP4 SUB DUP2 DUP7 GAS STATICCALL ISZERO DUP1 ISZERO PUSH2 0x10A7 JUMPI RETURNDATASIZE PUSH0 PUSH0 RETURNDATACOPY RETURNDATASIZE PUSH0 REVERT JUMPDEST POP POP POP POP PUSH1 0x40 MLOAD RETURNDATASIZE PUSH1 0x1F NOT PUSH1 0x1F DUP3 ADD AND DUP3 ADD DUP1 PUSH1 0x40 MSTORE POP DUP2 ADD SWAP1 PUSH2 0x10CB SWAP2 SWAP1 PUSH2 0x1B14 JUMP JUMPDEST SWAP1 POP PUSH0 DUP7 DUP4 PUSH2 0x10DA SWAP2 SWAP1 PUSH2 0x18B7 JUMP JUMPDEST DUP3 DUP9 PUSH2 0x10E6 SWAP2 SWAP1 PUSH2 0x18EA JUMP JUMPDEST PUSH2 0x10F0 SWAP2 SWAP1 PUSH2 0x1958 JUMP JUMPDEST SWAP1 POP PUSH0 PUSH2 0x2710 DUP7 PUSH1 0x3 ADD SLOAD DUP4 PUSH2 0x1106 SWAP2 SWAP1 PUSH2 0x18EA JUMP JUMPDEST PUSH2 0x1110 SWAP2 SWAP1 PUSH2 0x1958 JUMP JUMPDEST SWAP1 POP DUP1 DUP3 PUSH2 0x111E SWAP2 SWAP1 PUSH2 0x1B3F JUMP JUMPDEST SWAP2 POP DUP7 DUP3 LT ISZERO PUSH2 0x1163 JUMPI PUSH1 0x40 MLOAD PUSH32 0x8C379A000000000000000000000000000000000000000000000000000000000 DUP2 MSTORE PUSH1 0x4 ADD PUSH2 0x115A SWAP1 PUSH2 0x1C4B JUMP JUMPDEST PUSH1 0x40 MLOAD DUP1 SWAP2 SUB SWAP1 REVERT JUMPDEST DUP9 PUSH20 0xFFFFFFFFFFFFFFFFFFFFFFFFFFFFFFFFFFFFFFFF AND PUSH4 0x23B872DD CALLER DUP13 DUP12 PUSH1 0x40 MLOAD DUP5 PUSH4 0xFFFFFFFF AND PUSH1 0xE0 SHL DUP2 MSTORE PUSH1 0x4 ADD PUSH2 0x11A0 SWAP4 SWAP3 SWAP2 SWAP1 PUSH2 0x17F5 JUMP JUMPDEST PUSH1 0x20 PUSH1 0x40 MLOAD DUP1 DUP4 SUB DUP2 PUSH0 DUP8 GAS CALL ISZERO DUP1 ISZERO PUSH2 0x11BC JUMPI RETURNDATASIZE PUSH0 PUSH0 RETURNDATACOPY RETURNDATASIZE PUSH0 REVERT JUMPDEST POP POP POP POP PUSH1 0x40 MLOAD RETURNDATASIZE PUSH1 0x1F NOT PUSH1 0x1F DUP3 ADD AND DUP3 ADD DUP1 PUSH1 0x40 MSTORE POP DUP2 ADD SWAP1 PUSH2 0x11E0 SWAP2 SWAP1 PUSH2 0x185F JUMP JUMPDEST POP DUP5 PUSH20 0xFFFFFFFFFFFFFFFFFFFFFFFFFFFFFFFFFFFFFFFF AND PUSH4 0xA9059CBB CALLER DUP5 PUSH1 0x40 MLOAD DUP4 PUSH4 0xFFFFFFFF AND PUSH1 0xE0 SHL DUP2 MSTORE PUSH1 0x4 ADD PUSH2 0x121C SWAP3 SWAP2 SWAP1 PUSH2 0x1B72 JUMP JUMPDEST PUSH1 0x20 PUSH1 0x40 MLOAD DUP1 DUP4 SUB DUP2 PUSH0 DUP8 GAS CALL ISZERO DUP1 ISZERO PUSH2 0x1238 JUMPI RETURNDATASIZE PUSH0 PUSH0 RETURNDATACOPY RETURNDATASIZE PUSH0 REVERT JUMPDEST POP POP POP POP PUSH1 0x40 MLOAD RETURNDATASIZE PUSH1 0x1F NOT PUSH1 0x1F DUP3 ADD AND DUP3 ADD DUP1 PUSH1 0x40 MSTORE POP DUP2 ADD SWAP1 PUSH2 0x125C SWAP2 SWAP1 PUSH2 0x185F JUMP JUMPDEST POP DUP5 PUSH20 0xFFFFFFFFFFFFFFFFFFFFFFFFFFFFFFFFFFFFFFFF AND PUSH4 0xA9059CBB DUP8 PUSH1 0x4 ADD PUSH0 SWAP1 SLOAD SWAP1 PUSH2 0x100 EXP SWAP1 DIV PUSH20 0xFFFFFFFFFFFFFFFFFFFFFFFFFFFFFFFFFFFFFFFF AND DUP4 PUSH1 0x40 MLOAD DUP4 PUSH4 0xFFFFFFFF AND PUSH1 0xE0 SHL DUP2 MSTORE PUSH1 0x4 ADD PUSH2 0x12BB SWAP3 SWAP2 SWAP1 PUSH2 0x1B72 JUMP JUMPDEST PUSH1 0x20 PUSH1 0x40 MLOAD DUP1 DUP4 SUB DUP2 PUSH0 DUP8 GAS CALL ISZERO DUP1 ISZERO PUSH2 0x12D7 JUMPI RETURNDATASIZE PUSH0 PUSH0 RETURNDATACOPY RETURNDATASIZE PUSH0 REVERT JUMPDEST POP POP POP POP PUSH1 0x40 MLOAD RETURNDATASIZE PUSH1 0x1F NOT PUSH1 0x1F DUP3 ADD AND DUP3 ADD DUP1 PUSH1 0x40 MSTORE POP DUP2 ADD SWAP1 PUSH2 0x12FB SWAP2 SWAP1 PUSH2 0x185F JUMP JUMPDEST POP CALLER PUSH20 0xFFFFFFFFFFFFFFFFFFFFFFFFFFFFFFFFFFFFFFFF AND DUP11 PUSH20 0xFFFFFFFFFFFFFFFFFFFFFFFFFFFFFFFFFFFFFFFF AND PUSH32 0xFF97D8BA659DC8513A47254ED48F52A28AA6D045CA043D8A60BD7D954805D89 DUP12 DUP9 DUP13 DUP8 PUSH1 0x40 MLOAD PUSH2 0x135F SWAP5 SWAP4 SWAP3 SWAP2 SWAP1 PUSH2 0x1C69 JUMP JUMPDEST PUSH1 0x40 MLOAD DUP1 SWAP2 SUB SWAP1 LOG3 POP POP POP POP POP POP POP POP POP POP JUMP JUMPDEST PUSH2 0x137B PUSH2 0x14BB JUMP JUMPDEST PUSH20 0xFFFFFFFFFFFFFFFFFFFFFFFFFFFFFFFFFFFFFFFF AND PUSH2 0x1399 PUSH2 0x7B2 JUMP JUMPDEST PUSH20 0xFFFFFFFFFFFFFFFFFFFFFFFFFFFFFFFFFFFFFFFF AND EQ PUSH2 0x13F8 JUMPI PUSH2 0x13BC PUSH2 0x14BB JUMP JUMPDEST PUSH1 0x40 MLOAD PUSH32 0x118CDAA700000000000000000000000000000000000000000000000000000000 DUP2 MSTORE PUSH1 0x4 ADD PUSH2 0x13EF SWAP2 SWAP1 PUSH2 0x1629 JUMP JUMPDEST PUSH1 0x40 MLOAD DUP1 SWAP2 SUB SWAP1 REVERT JUMPDEST JUMP JUMPDEST PUSH0 PUSH0 PUSH0 SWAP1 SLOAD SWAP1 PUSH2 0x100 EXP SWAP1 DIV PUSH20 0xFFFFFFFFFFFFFFFFFFFFFFFFFFFFFFFFFFFFFFFF AND SWAP1 POP DUP2 PUSH0 PUSH0 PUSH2 0x100 EXP DUP2 SLOAD DUP2 PUSH20 0xFFFFFFFFFFFFFFFFFFFFFFFFFFFFFFFFFFFFFFFF MUL NOT AND SWAP1 DUP4 PUSH20 0xFFFFFFFFFFFFFFFFFFFFFFFFFFFFFFFFFFFFFFFF AND MUL OR SWAP1 SSTORE POP DUP2 PUSH20 0xFFFFFFFFFFFFFFFFFFFFFFFFFFFFFFFFFFFFFFFF AND DUP2 PUSH20 0xFFFFFFFFFFFFFFFFFFFFFFFFFFFFFFFFFFFFFFFF AND PUSH32 0x8BE0079C531659141344CD1FD0A4F28419497F9722A3DAAFE3B4186F6B6457E0 PUSH1 0x40 MLOAD PUSH1 0x40 MLOAD DUP1 SWAP2 SUB SWAP1 LOG3 POP POP JUMP JUMPDEST PUSH0 CALLER SWAP1 POP SWAP1 JUMP JUMPDEST PUSH0 PUSH0 REVERT JUMPDEST PUSH0 PUSH20 0xFFFFFFFFFFFFFFFFFFFFFFFFFFFFFFFFFFFFFFFF DUP3 AND SWAP1 POP SWAP2 SWAP1 POP JUMP JUMPDEST PUSH0 PUSH2 0x14EF DUP3 PUSH2 0x14C6 JUMP JUMPDEST SWAP1 POP SWAP2 SWAP1 POP JUMP JUMPDEST PUSH2 0x14FF DUP2 PUSH2 0x14E5 JUMP JUMPDEST DUP2 EQ PUSH2 0x1509 JUMPI PUSH0 PUSH0 REVERT JUMPDEST POP JUMP JUMPDEST PUSH0 DUP2 CALLDATALOAD SWAP1 POP PUSH2 0x151A DUP2 PUSH2 0x14F6 JUMP JUMPDEST SWAP3 SWAP2 POP POP JUMP JUMPDEST PUSH0 DUP2 SWAP1 POP SWAP2 SWAP1 POP JUMP JUMPDEST PUSH2 0x1532 DUP2 PUSH2 0x1520 JUMP JUMPDEST DUP2 EQ PUSH2 0x153C JUMPI PUSH0 PUSH0 REVERT JUMPDEST POP JUMP JUMPDEST PUSH0 DUP2 CALLDATALOAD SWAP1 POP PUSH2 0x154D DUP2 PUSH2 0x1529 JUMP JUMPDEST SWAP3 SWAP2 POP POP JUMP JUMPDEST PUSH0 PUSH0 PUSH0 PUSH1 0x60 DUP5 DUP7 SUB SLT ISZERO PUSH2 0x156A JUMPI PUSH2 0x1569 PUSH2 0x14C2 JUMP JUMPDEST JUMPDEST PUSH0 PUSH2 0x1577 DUP7 DUP3 DUP8 ADD PUSH2 0x150C JUMP JUMPDEST SWAP4 POP POP PUSH1 0x20 PUSH2 0x1588 DUP7 DUP3 DUP8 ADD PUSH2 0x153F JUMP JUMPDEST SWAP3 POP POP PUSH1 0x40 PUSH2 0x1599 DUP7 DUP3 DUP8 ADD PUSH2 0x153F JUMP JUMPDEST SWAP2 POP POP SWAP3 POP SWAP3 POP SWAP3 JUMP JUMPDEST PUSH0 PUSH0 PUSH0 PUSH0 PUSH0 PUSH1 0xA0 DUP7 DUP9 SUB SLT ISZERO PUSH2 0x15BC JUMPI PUSH2 0x15BB PUSH2 0x14C2 JUMP JUMPDEST JUMPDEST PUSH0 PUSH2 0x15C9 DUP9 DUP3 DUP10 ADD PUSH2 0x150C JUMP JUMPDEST SWAP6 POP POP PUSH1 0x20 PUSH2 0x15DA DUP9 DUP3 DUP10 ADD PUSH2 0x150C JUMP JUMPDEST SWAP5 POP POP PUSH1 0x40 PUSH2 0x15EB DUP9 DUP3 DUP10 ADD PUSH2 0x150C JUMP JUMPDEST SWAP4 POP POP PUSH1 0x60 PUSH2 0x15FC DUP9 DUP3 DUP10 ADD PUSH2 0x153F JUMP JUMPDEST SWAP3 POP POP PUSH1 0x80 PUSH2 0x160D DUP9 DUP3 DUP10 ADD PUSH2 0x150C JUMP JUMPDEST SWAP2 POP POP SWAP3 SWAP6 POP SWAP3 SWAP6 SWAP1 SWAP4 POP JUMP JUMPDEST PUSH2 0x1623 DUP2 PUSH2 0x14E5 JUMP JUMPDEST DUP3 MSTORE POP POP JUMP JUMPDEST PUSH0 PUSH1 0x20 DUP3 ADD SWAP1 POP PUSH2 0x163C PUSH0 DUP4 ADD DUP5 PUSH2 0x161A JUMP JUMPDEST SWAP3 SWAP2 POP POP JUMP JUMPDEST PUSH0 PUSH0 PUSH1 0x40 DUP4 DUP6 SUB SLT ISZERO PUSH2 0x1658 JUMPI PUSH2 0x1657 PUSH2 0x14C2 JUMP JUMPDEST JUMPDEST PUSH0 PUSH2 0x1665 DUP6 DUP3 DUP7 ADD PUSH2 0x150C JUMP JUMPDEST SWAP3 POP POP PUSH1 0x20 PUSH2 0x1676 DUP6 DUP3 DUP7 ADD PUSH2 0x153F JUMP JUMPDEST SWAP2 POP POP SWAP3 POP SWAP3 SWAP1 POP JUMP JUMPDEST PUSH0 PUSH1 0x20 DUP3 DUP5 SUB SLT ISZERO PUSH2 0x1695 JUMPI PUSH2 0x1694 PUSH2 0x14C2 JUMP JUMPDEST JUMPDEST PUSH0 PUSH2 0x16A2 DUP5 DUP3 DUP6 ADD PUSH2 0x150C JUMP JUMPDEST SWAP2 POP POP SWAP3 SWAP2 POP POP JUMP JUMPDEST PUSH2 0x16B4 DUP2 PUSH2 0x1520 JUMP JUMPDEST DUP3 MSTORE POP POP JUMP JUMPDEST PUSH0 PUSH1 0xC0 DUP3 ADD SWAP1 POP PUSH2 0x16CD PUSH0 DUP4 ADD DUP10 PUSH2 0x161A JUMP JUMPDEST PUSH2 0x16DA PUSH1 0x20 DUP4 ADD DUP9 PUSH2 0x161A JUMP JUMPDEST PUSH2 0x16E7 PUSH1 0x40 DUP4 ADD DUP8 PUSH2 0x16AB JUMP JUMPDEST PUSH2 0x16F4 PUSH1 0x60 DUP4 ADD DUP7 PUSH2 0x16AB JUMP JUMPDEST PUSH2 0x1701 PUSH1 0x80 DUP4 ADD DUP6 PUSH2 0x161A JUMP JUMPDEST PUSH2 0x170E PUSH1 0xA0 DUP4 ADD DUP5 PUSH2 0x16AB JUMP JUMPDEST SWAP8 SWAP7 POP POP POP POP POP POP POP JUMP JUMPDEST PUSH0 PUSH0 PUSH0 PUSH0 PUSH1 0x80 DUP6 DUP8 SUB SLT ISZERO PUSH2 0x1731 JUMPI PUSH2 0x1730 PUSH2 0x14C2 JUMP JUMPDEST JUMPDEST PUSH0 PUSH2 0x173E DUP8 DUP3 DUP9 ADD PUSH2 0x150C JUMP JUMPDEST SWAP5 POP POP PUSH1 0x20 PUSH2 0x174F DUP8 DUP3 DUP9 ADD PUSH2 0x150C JUMP JUMPDEST SWAP4 POP POP PUSH1 0x40 PUSH2 0x1760 DUP8 DUP3 DUP9 ADD PUSH2 0x153F JUMP JUMPDEST SWAP3 POP POP PUSH1 0x60 PUSH2 0x1771 DUP8 DUP3 DUP9 ADD PUSH2 0x153F JUMP JUMPDEST SWAP2 POP POP SWAP3 SWAP6 SWAP2 SWAP5 POP SWAP3 POP JUMP JUMPDEST PUSH0 DUP3 DUP3 MSTORE PUSH1 0x20 DUP3 ADD SWAP1 POP SWAP3 SWAP2 POP POP JUMP JUMPDEST PUSH32 0x506F6F6C20646F6573206E6F7420657869737400000000000000000000000000 PUSH0 DUP3 ADD MSTORE POP JUMP JUMPDEST PUSH0 PUSH2 0x17C1 PUSH1 0x13 DUP4 PUSH2 0x177D JUMP JUMPDEST SWAP2 POP PUSH2 0x17CC DUP3 PUSH2 0x178D JUMP JUMPDEST PUSH1 0x20 DUP3 ADD SWAP1 POP SWAP2 SWAP1 POP JUMP JUMPDEST PUSH0 PUSH1 0x20 DUP3 ADD SWAP1 POP DUP2 DUP2 SUB PUSH0 DUP4 ADD MSTORE PUSH2 0x17EE DUP2 PUSH2 0x17B5 JUMP JUMPDEST SWAP1 POP SWAP2 SWAP1 POP JUMP JUMPDEST PUSH0 PUSH1 0x60 DUP3 ADD SWAP1 POP PUSH2 0x1808 PUSH0 DUP4 ADD DUP7 PUSH2 0x161A JUMP JUMPDEST PUSH2 0x1815 PUSH1 0x20 DUP4 ADD DUP6 PUSH2 0x161A JUMP JUMPDEST PUSH2 0x1822 PUSH1 0x40 DUP4 ADD DUP5 PUSH2 0x16AB JUMP JUMPDEST SWAP5 SWAP4 POP POP POP POP JUMP JUMPDEST PUSH0 DUP2 ISZERO ISZERO SWAP1 POP SWAP2 SWAP1 POP JUMP JUMPDEST PUSH2 0x183E DUP2 PUSH2 0x182A JUMP JUMPDEST DUP2 EQ PUSH2 0x1848 JUMPI PUSH0 PUSH0 REVERT JUMPDEST POP JUMP JUMPDEST PUSH0 DUP2 MLOAD SWAP1 POP PUSH2 0x1859 DUP2 PUSH2 0x1835 JUMP JUMPDEST SWAP3 SWAP2 POP POP JUMP JUMPDEST PUSH0 PUSH1 0x20 DUP3 DUP5 SUB SLT ISZERO PUSH2 0x1874 JUMPI PUSH2 0x1873 PUSH2 0x14C2 JUMP JUMPDEST JUMPDEST PUSH0 PUSH2 0x1881 DUP5 DUP3 DUP6 ADD PUSH2 0x184B JUMP JUMPDEST SWAP2 POP POP SWAP3 SWAP2 POP POP JUMP JUMPDEST PUSH32 0x4E487B7100000000000000000000000000000000000000000000000000000000 PUSH0 MSTORE PUSH1 0x11 PUSH1 0x4 MSTORE PUSH1 0x24 PUSH0 REVERT JUMPDEST PUSH0 PUSH2 0x18C1 DUP3 PUSH2 0x1520 JUMP JUMPDEST SWAP2 POP PUSH2 0x18CC DUP4 PUSH2 0x1520 JUMP JUMPDEST SWAP3 POP DUP3 DUP3 ADD SWAP1 POP DUP1 DUP3 GT ISZERO PUSH2 0x18E4 JUMPI PUSH2 0x18E3 PUSH2 0x188A JUMP JUMPDEST JUMPDEST SWAP3 SWAP2 POP POP JUMP JUMPDEST PUSH0 PUSH2 0x18F4 DUP3 PUSH2 0x1520 JUMP JUMPDEST SWAP2 POP PUSH2 0x18FF DUP4 PUSH2 0x1520 JUMP JUMPDEST SWAP3 POP DUP3 DUP3 MUL PUSH2 0x190D DUP2 PUSH2 0x1520 JUMP JUMPDEST SWAP2 POP DUP3 DUP3 DIV DUP5 EQ DUP4 ISZERO OR PUSH2 0x1924 JUMPI PUSH2 0x1923 PUSH2 0x188A JUMP JUMPDEST JUMPDEST POP SWAP3 SWAP2 POP POP JUMP JUMPDEST PUSH32 0x4E487B7100000000000000000000000000000000000000000000000000000000 PUSH0 MSTORE PUSH1 0x12 PUSH1 0x4 MSTORE PUSH1 0x24 PUSH0 REVERT JUMPDEST PUSH0 PUSH2 0x1962 DUP3 PUSH2 0x1520 JUMP JUMPDEST SWAP2 POP PUSH2 0x196D DUP4 PUSH2 0x1520 JUMP JUMPDEST SWAP3 POP DUP3 PUSH2 0x197D JUMPI PUSH2 0x197C PUSH2 0x192B JUMP JUMPDEST JUMPDEST DUP3 DUP3 DIV SWAP1 POP SWAP3 SWAP2 POP POP JUMP JUMPDEST PUSH0 PUSH1 0x40 DUP3 ADD SWAP1 POP PUSH2 0x199B PUSH0 DUP4 ADD DUP6 PUSH2 0x16AB JUMP JUMPDEST PUSH2 0x19A8 PUSH1 0x20 DUP4 ADD DUP5 PUSH2 0x16AB JUMP JUMPDEST SWAP4 SWAP3 POP POP POP JUMP JUMPDEST PUSH32 0x4665652070657263656E7461676520746F6F2068696768000000000000000000 PUSH0 DUP3 ADD MSTORE POP JUMP JUMPDEST PUSH0 PUSH2 0x19E3 PUSH1 0x17 DUP4 PUSH2 0x177D JUMP JUMPDEST SWAP2 POP PUSH2 0x19EE DUP3 PUSH2 0x19AF JUMP JUMPDEST PUSH1 0x20 DUP3 ADD SWAP1 POP SWAP2 SWAP1 POP JUMP JUMPDEST PUSH0 PUSH1 0x20 DUP3 ADD SWAP1 POP DUP2 DUP2 SUB PUSH0 DUP4 ADD MSTORE PUSH2 0x1A10 DUP2 PUSH2 0x19D7 JUMP JUMPDEST SWAP1 POP SWAP2 SWAP1 POP JUMP JUMPDEST PUSH32 0x506F6F6C20616C72656164792065786973747300000000000000000000000000 PUSH0 DUP3 ADD MSTORE POP JUMP JUMPDEST PUSH0 PUSH2 0x1A4B PUSH1 0x13 DUP4 PUSH2 0x177D JUMP JUMPDEST SWAP2 POP PUSH2 0x1A56 DUP3 PUSH2 0x1A17 JUMP JUMPDEST PUSH1 0x20 DUP3 ADD SWAP1 POP SWAP2 SWAP1 POP JUMP JUMPDEST PUSH0 PUSH1 0x20 DUP3 ADD SWAP1 POP DUP2 DUP2 SUB PUSH0 DUP4 ADD MSTORE PUSH2 0x1A78 DUP2 PUSH2 0x1A3F JUMP JUMPDEST SWAP1 POP SWAP2 SWAP1 POP JUMP JUMPDEST PUSH0 PUSH1 0x20 DUP3 ADD SWAP1 POP PUSH2 0x1A92 PUSH0 DUP4 ADD DUP5 PUSH2 0x16AB JUMP JUMPDEST SWAP3 SWAP2 POP POP JUMP JUMPDEST PUSH32 0x5769746864726177616C20746F6F20736F6F6E00000000000000000000000000 PUSH0 DUP3 ADD MSTORE POP JUMP JUMPDEST PUSH0 PUSH2 0x1ACC PUSH1 0x13 DUP4 PUSH2 0x177D JUMP JUMPDEST SWAP2 POP PUSH2 0x1AD7 DUP3 PUSH2 0x1A98 JUMP JUMPDEST PUSH1 0x20 DUP3 ADD SWAP1 POP SWAP2 SWAP1 POP JUMP JUMPDEST PUSH0 PUSH1 0x20 DUP3 ADD SWAP1 POP DUP2 DUP2 SUB PUSH0 DUP4 ADD MSTORE PUSH2 0x1AF9 DUP2 PUSH2 0x1AC0 JUMP JUMPDEST SWAP1 POP SWAP2 SWAP1 POP JUMP JUMPDEST PUSH0 DUP2 MLOAD SWAP1 POP PUSH2 0x1B0E DUP2 PUSH2 0x1529 JUMP JUMPDEST SWAP3 SWAP2 POP POP JUMP JUMPDEST PUSH0 PUSH1 0x20 DUP3 DUP5 SUB SLT ISZERO PUSH2 0x1B29 JUMPI PUSH2 0x1B28 PUSH2 0x14C2 JUMP JUMPDEST JUMPDEST PUSH0 PUSH2 0x1B36 DUP5 DUP3 DUP6 ADD PUSH2 0x1B00 JUMP JUMPDEST SWAP2 POP POP SWAP3 SWAP2 POP POP JUMP JUMPDEST PUSH0 PUSH2 0x1B49 DUP3 PUSH2 0x1520 JUMP JUMPDEST SWAP2 POP PUSH2 0x1B54 DUP4 PUSH2 0x1520 JUMP JUMPDEST SWAP3 POP DUP3 DUP3 SUB SWAP1 POP DUP2 DUP2 GT ISZERO PUSH2 0x1B6C JUMPI PUSH2 0x1B6B PUSH2 0x188A JUMP JUMPDEST JUMPDEST SWAP3 SWAP2 POP POP JUMP JUMPDEST PUSH0 PUSH1 0x40 DUP3 ADD SWAP1 POP PUSH2 0x1B85 PUSH0 DUP4 ADD DUP6 PUSH2 0x161A JUMP JUMPDEST PUSH2 0x1B92 PUSH1 0x20 DUP4 ADD DUP5 PUSH2 0x16AB JUMP JUMPDEST SWAP4 SWAP3 POP POP POP JUMP JUMPDEST PUSH32 0x496E76616C696420696E70757420746F6B656E00000000000000000000000000 PUSH0 DUP3 ADD MSTORE POP JUMP JUMPDEST PUSH0 PUSH2 0x1BCD PUSH1 0x13 DUP4 PUSH2 0x177D JUMP JUMPDEST SWAP2 POP PUSH2 0x1BD8 DUP3 PUSH2 0x1B99 JUMP JUMPDEST PUSH1 0x20 DUP3 ADD SWAP1 POP SWAP2 SWAP1 POP JUMP JUMPDEST PUSH0 PUSH1 0x20 DUP3 ADD SWAP1 POP DUP2 DUP2 SUB PUSH0 DUP4 ADD MSTORE PUSH2 0x1BFA DUP2 PUSH2 0x1BC1 JUMP JUMPDEST SWAP1 POP SWAP2 SWAP1 POP JUMP JUMPDEST PUSH32 0x496E73756666696369656E74206F757470757420616D6F756E74000000000000 PUSH0 DUP3 ADD MSTORE POP JUMP JUMPDEST PUSH0 PUSH2 0x1C35 PUSH1 0x1A DUP4 PUSH2 0x177D JUMP JUMPDEST SWAP2 POP PUSH2 0x1C40 DUP3 PUSH2 0x1C01 JUMP JUMPDEST PUSH1 0x20 DUP3 ADD SWAP1 POP SWAP2 SWAP1 POP JUMP JUMPDEST PUSH0 PUSH1 0x20 DUP3 ADD SWAP1 POP DUP2 DUP2 SUB PUSH0 DUP4 ADD MSTORE PUSH2 0x1C62 DUP2 PUSH2 0x1C29 JUMP JUMPDEST SWAP1 POP SWAP2 SWAP1 POP JUMP JUMPDEST PUSH0 PUSH1 0x80 DUP3 ADD SWAP1 POP PUSH2 0x1C7C PUSH0 DUP4 ADD DUP8 PUSH2 0x161A JUMP JUMPDEST PUSH2 0x1C89 PUSH1 0x20 DUP4 ADD DUP7 PUSH2 0x161A JUMP JUMPDEST PUSH2 0x1C96 PUSH1 0x40 DUP4 ADD DUP6 PUSH2 0x16AB JUMP JUMPDEST PUSH2 0x1CA3 PUSH1 0x60 DUP4 ADD DUP5 PUSH2 0x16AB JUMP JUMPDEST SWAP6 SWAP5 POP POP POP POP POP JUMP INVALID LOG2 PUSH5 0x6970667358 0x22 SLT KECCAK256 0xD8 0xC8 0xDD 0xC9 LOG4 0xBF SWAP13 0xC0 LT MCOPY JUMPDEST SWAP14 BLOCKHASH SWAP2 SWAP3 0xDC 0xCE ADDMOD BALANCE DUP13 ADDRESS GAS 0xC5 ISZERO DUP6 0xB5 PUSH23 0xFB627BB4E064736F6C634300081C003360806040523480 ISZERO PUSH2 0xF JUMPI PUSH0 PUSH0 REVERT JUMPDEST POP PUSH1 0x40 MLOAD PUSH2 0x16EC CODESIZE SUB DUP1 PUSH2 0x16EC DUP4 CODECOPY DUP2 DUP2 ADD PUSH1 0x40 MSTORE DUP2 ADD SWAP1 PUSH2 0x31 SWAP2 SWAP1 PUSH2 0x48B JUMP JUMPDEST DUP3 DUP3 DUP2 PUSH1 0x3 SWAP1 DUP2 PUSH2 0x42 SWAP2 SWAP1 PUSH2 0x71A JUMP JUMPDEST POP DUP1 PUSH1 0x4 SWAP1 DUP2 PUSH2 0x52 SWAP2 SWAP1 PUSH2 0x71A JUMP JUMPDEST POP POP POP PUSH2 0x65 CALLER DUP3 PUSH2 0x6D PUSH1 0x20 SHL PUSH1 0x20 SHR JUMP JUMPDEST POP POP POP PUSH2 0x8FE JUMP JUMPDEST PUSH0 PUSH20 0xFFFFFFFFFFFFFFFFFFFFFFFFFFFFFFFFFFFFFFFF AND DUP3 PUSH20 0xFFFFFFFFFFFFFFFFFFFFFFFFFFFFFFFFFFFFFFFF AND SUB PUSH2 0xDD JUMPI PUSH0 PUSH1 0x40 MLOAD PUSH32 0xEC442F0500000000000000000000000000000000000000000000000000000000 DUP2 MSTORE PUSH1 0x4 ADD PUSH2 0xD4 SWAP2 SWAP1 PUSH2 0x828 JUMP JUMPDEST PUSH1 0x40 MLOAD DUP1 SWAP2 SUB SWAP1 REVERT JUMPDEST PUSH2 0xEE PUSH0 DUP4 DUP4 PUSH2 0xF2 PUSH1 0x20 SHL PUSH1 0x20 SHR JUMP JUMPDEST POP POP JUMP JUMPDEST PUSH0 PUSH20 0xFFFFFFFFFFFFFFFFFFFFFFFFFFFFFFFFFFFFFFFF AND DUP4 PUSH20 0xFFFFFFFFFFFFFFFFFFFFFFFFFFFFFFFFFFFFFFFF AND SUB PUSH2 0x142 JUMPI DUP1 PUSH1 0x2 PUSH0 DUP3 DUP3 SLOAD PUSH2 0x136 SWAP2 SWAP1 PUSH2 0x86E JUMP JUMPDEST SWAP3 POP POP DUP2 SWAP1 SSTORE POP PUSH2 0x210 JUMP JUMPDEST PUSH0 PUSH0 PUSH0 DUP6 PUSH20 0xFFFFFFFFFFFFFFFFFFFFFFFFFFFFFFFFFFFFFFFF AND PUSH20 0xFFFFFFFFFFFFFFFFFFFFFFFFFFFFFFFFFFFFFFFF AND DUP2 MSTORE PUSH1 0x20 ADD SWAP1 DUP2 MSTORE PUSH1 0x20 ADD PUSH0 KECCAK256 SLOAD SWAP1 POP DUP2 DUP2 LT ISZERO PUSH2 0x1CB JUMPI DUP4 DUP2 DUP4 PUSH1 0x40 MLOAD PUSH32 0xE450D38C00000000000000000000000000000000000000000000000000000000 DUP2 MSTORE PUSH1 0x4 ADD PUSH2 0x1C2 SWAP4 SWAP3 SWAP2 SWAP1 PUSH2 0x8B0 JUMP JUMPDEST PUSH1 0x40 MLOAD DUP1 SWAP2 SUB SWAP1 REVERT JUMPDEST DUP2 DUP2 SUB PUSH0 PUSH0 DUP7 PUSH20 0xFFFFFFFFFFFFFFFFFFFFFFFFFFFFFFFFFFFFFFFF AND PUSH20 0xFFFFFFFFFFFFFFFFFFFFFFFFFFFFFFFFFFFFFFFF AND DUP2 MSTORE PUSH1 0x20 ADD SWAP1 DUP2 MSTORE PUSH1 0x20 ADD PUSH0 KECCAK256 DUP2 SWAP1 SSTORE POP POP JUMPDEST PUSH0 PUSH20 0xFFFFFFFFFFFFFFFFFFFFFFFFFFFFFFFFFFFFFFFF AND DUP3 PUSH20 0xFFFFFFFFFFFFFFFFFFFFFFFFFFFFFFFFFFFFFFFF AND SUB PUSH2 0x257 JUMPI DUP1 PUSH1 0x2 PUSH0 DUP3 DUP3 SLOAD SUB SWAP3 POP POP DUP2 SWAP1 SSTORE POP PUSH2 0x2A1 JUMP JUMPDEST DUP1 PUSH0 PUSH0 DUP5 PUSH20 0xFFFFFFFFFFFFFFFFFFFFFFFFFFFFFFFFFFFFFFFF AND PUSH20 0xFFFFFFFFFFFFFFFFFFFFFFFFFFFFFFFFFFFFFFFF AND DUP2 MSTORE PUSH1 0x20 ADD SWAP1 DUP2 MSTORE PUSH1 0x20 ADD PUSH0 KECCAK256 PUSH0 DUP3 DUP3 SLOAD ADD SWAP3 POP POP DUP2 SWAP1 SSTORE POP JUMPDEST DUP2 PUSH20 0xFFFFFFFFFFFFFFFFFFFFFFFFFFFFFFFFFFFFFFFF AND DUP4 PUSH20 0xFFFFFFFFFFFFFFFFFFFFFFFFFFFFFFFFFFFFFFFF AND PUSH32 0xDDF252AD1BE2C89B69C2B068FC378DAA952BA7F163C4A11628F55A4DF523B3EF DUP4 PUSH1 0x40 MLOAD PUSH2 0x2FE SWAP2 SWAP1 PUSH2 0x8E5 JUMP JUMPDEST PUSH1 0x40 MLOAD DUP1 SWAP2 SUB SWAP1 LOG3 POP POP POP JUMP JUMPDEST PUSH0 PUSH1 0x40 MLOAD SWAP1 POP SWAP1 JUMP JUMPDEST PUSH0 PUSH0 REVERT JUMPDEST PUSH0 PUSH0 REVERT JUMPDEST PUSH0 PUSH0 REVERT JUMPDEST PUSH0 PUSH0 REVERT JUMPDEST PUSH0 PUSH1 0x1F NOT PUSH1 0x1F DUP4 ADD AND SWAP1 POP SWAP2 SWAP1 POP JUMP JUMPDEST PUSH32 0x4E487B7100000000000000000000000000000000000000000000000000000000 PUSH0 MSTORE PUSH1 0x41 PUSH1 0x4 MSTORE PUSH1 0x24 PUSH0 REVERT JUMPDEST PUSH2 0x36A DUP3 PUSH2 0x324 JUMP JUMPDEST DUP2 ADD DUP2 DUP2 LT PUSH8 0xFFFFFFFFFFFFFFFF DUP3 GT OR ISZERO PUSH2 0x389 JUMPI PUSH2 0x388 PUSH2 0x334 JUMP JUMPDEST JUMPDEST DUP1 PUSH1 0x40 MSTORE POP POP POP JUMP JUMPDEST PUSH0 PUSH2 0x39B PUSH2 0x30B JUMP JUMPDEST SWAP1 POP PUSH2 0x3A7 DUP3 DUP3 PUSH2 0x361 JUMP JUMPDEST SWAP2 SWAP1 POP JUMP JUMPDEST PUSH0 PUSH8 0xFFFFFFFFFFFFFFFF DUP3 GT ISZERO PUSH2 0x3C6 JUMPI PUSH2 0x3C5 PUSH2 0x334 JUMP JUMPDEST JUMPDEST PUSH2 0x3CF DUP3 PUSH2 0x324 JUMP JUMPDEST SWAP1 POP PUSH1 0x20 DUP2 ADD SWAP1 POP SWAP2 SWAP1 POP JUMP JUMPDEST DUP3 DUP2 DUP4 MCOPY PUSH0 DUP4 DUP4 ADD MSTORE POP POP POP JUMP JUMPDEST PUSH0 PUSH2 0x3FC PUSH2 0x3F7 DUP5 PUSH2 0x3AC JUMP JUMPDEST PUSH2 0x392 JUMP JUMPDEST SWAP1 POP DUP3 DUP2 MSTORE PUSH1 0x20 DUP2 ADD DUP5 DUP5 DUP5 ADD GT ISZERO PUSH2 0x418 JUMPI PUSH2 0x417 PUSH2 0x320 JUMP JUMPDEST JUMPDEST PUSH2 0x423 DUP5 DUP3 DUP6 PUSH2 0x3DC JUMP JUMPDEST POP SWAP4 SWAP3 POP POP POP JUMP JUMPDEST PUSH0 DUP3 PUSH1 0x1F DUP4 ADD SLT PUSH2 0x43F JUMPI PUSH2 0x43E PUSH2 0x31C JUMP JUMPDEST JUMPDEST DUP2 MLOAD PUSH2 0x44F DUP5 DUP3 PUSH1 0x20 DUP7 ADD PUSH2 0x3EA JUMP JUMPDEST SWAP2 POP POP SWAP3 SWAP2 POP POP JUMP JUMPDEST PUSH0 DUP2 SWAP1 POP SWAP2 SWAP1 POP JUMP JUMPDEST PUSH2 0x46A DUP2 PUSH2 0x458 JUMP JUMPDEST DUP2 EQ PUSH2 0x474 JUMPI PUSH0 PUSH0 REVERT JUMPDEST POP JUMP JUMPDEST PUSH0 DUP2 MLOAD SWAP1 POP PUSH2 0x485 DUP2 PUSH2 0x461 JUMP JUMPDEST SWAP3 SWAP2 POP POP JUMP JUMPDEST PUSH0 PUSH0 PUSH0 PUSH1 0x60 DUP5 DUP7 SUB SLT ISZERO PUSH2 0x4A2 JUMPI PUSH2 0x4A1 PUSH2 0x314 JUMP JUMPDEST JUMPDEST PUSH0 DUP5 ADD MLOAD PUSH8 0xFFFFFFFFFFFFFFFF DUP2 GT ISZERO PUSH2 0x4BF JUMPI PUSH2 0x4BE PUSH2 0x318 JUMP JUMPDEST JUMPDEST PUSH2 0x4CB DUP7 DUP3 DUP8 ADD PUSH2 0x42B JUMP JUMPDEST SWAP4 POP POP PUSH1 0x20 DUP5 ADD MLOAD PUSH8 0xFFFFFFFFFFFFFFFF DUP2 GT ISZERO PUSH2 0x4EC JUMPI PUSH2 0x4EB PUSH2 0x318 JUMP JUMPDEST JUMPDEST PUSH2 0x4F8 DUP7 DUP3 DUP8 ADD PUSH2 0x42B JUMP JUMPDEST SWAP3 POP POP PUSH1 0x40 PUSH2 0x509 DUP7 DUP3 DUP8 ADD PUSH2 0x477 JUMP JUMPDEST SWAP2 POP POP SWAP3 POP SWAP3 POP SWAP3 JUMP JUMPDEST PUSH0 DUP2 MLOAD SWAP1 POP SWAP2 SWAP1 POP JUMP JUMPDEST PUSH32 0x4E487B7100000000000000000000000000000000000000000000000000000000 PUSH0 MSTORE PUSH1 0x22 PUSH1 0x4 MSTORE PUSH1 0x24 PUSH0 REVERT JUMPDEST PUSH0 PUSH1 0x2 DUP3 DIV SWAP1 POP PUSH1 0x1 DUP3 AND DUP1 PUSH2 0x561 JUMPI PUSH1 0x7F DUP3 AND SWAP2 POP JUMPDEST PUSH1 0x20 DUP3 LT DUP2 SUB PUSH2 0x574 JUMPI PUSH2 0x573 PUSH2 0x51D JUMP JUMPDEST JUMPDEST POP SWAP2 SWAP1 POP JUMP JUMPDEST PUSH0 DUP2 SWAP1 POP DUP2 PUSH0 MSTORE PUSH1 0x20 PUSH0 KECCAK256 SWAP1 POP SWAP2 SWAP1 POP JUMP JUMPDEST PUSH0 PUSH1 0x20 PUSH1 0x1F DUP4 ADD DIV SWAP1 POP SWAP2 SWAP1 POP JUMP JUMPDEST PUSH0 DUP3 DUP3 SHL SWAP1 POP SWAP3 SWAP2 POP POP JUMP JUMPDEST PUSH0 PUSH1 0x8 DUP4 MUL PUSH2 0x5D6 PUSH32 0xFFFFFFFFFFFFFFFFFFFFFFFFFFFFFFFFFFFFFFFFFFFFFFFFFFFFFFFFFFFFFFFF DUP3 PUSH2 0x59B JUMP JUMPDEST PUSH2 0x5E0 DUP7 DUP4 PUSH2 0x59B JUMP JUMPDEST SWAP6 POP DUP1 NOT DUP5 AND SWAP4 POP DUP1 DUP7 AND DUP5 OR SWAP3 POP POP POP SWAP4 SWAP3 POP POP POP JUMP JUMPDEST PUSH0 DUP2 SWAP1 POP SWAP2 SWAP1 POP JUMP JUMPDEST PUSH0 PUSH2 0x61B PUSH2 0x616 PUSH2 0x611 DUP5 PUSH2 0x458 JUMP JUMPDEST PUSH2 0x5F8 JUMP JUMPDEST PUSH2 0x458 JUMP JUMPDEST SWAP1 POP SWAP2 SWAP1 POP JUMP JUMPDEST PUSH0 DUP2 SWAP1 POP SWAP2 SWAP1 POP JUMP JUMPDEST PUSH2 0x634 DUP4 PUSH2 0x601 JUMP JUMPDEST PUSH2 0x648 PUSH2 0x640 DUP3 PUSH2 0x622 JUMP JUMPDEST DUP5 DUP5 SLOAD PUSH2 0x5A7 JUMP JUMPDEST DUP3 SSTORE POP POP POP POP JUMP JUMPDEST PUSH0 PUSH0 SWAP1 POP SWAP1 JUMP JUMPDEST PUSH2 0x65F PUSH2 0x650 JUMP JUMPDEST PUSH2 0x66A DUP2 DUP5 DUP5 PUSH2 0x62B JUMP JUMPDEST POP POP POP JUMP JUMPDEST JUMPDEST DUP2 DUP2 LT ISZERO PUSH2 0x68D JUMPI PUSH2 0x682 PUSH0 DUP3 PUSH2 0x657 JUMP JUMPDEST PUSH1 0x1 DUP2 ADD SWAP1 POP PUSH2 0x670 JUMP JUMPDEST POP POP JUMP JUMPDEST PUSH1 0x1F DUP3 GT ISZERO PUSH2 0x6D2 JUMPI PUSH2 0x6A3 DUP2 PUSH2 0x57A JUMP JUMPDEST PUSH2 0x6AC DUP5 PUSH2 0x58C JUMP JUMPDEST DUP2 ADD PUSH1 0x20 DUP6 LT ISZERO PUSH2 0x6BB JUMPI DUP2 SWAP1 POP JUMPDEST PUSH2 0x6CF PUSH2 0x6C7 DUP6 PUSH2 0x58C JUMP JUMPDEST DUP4 ADD DUP3 PUSH2 0x66F JUMP JUMPDEST POP POP JUMPDEST POP POP POP JUMP JUMPDEST PUSH0 DUP3 DUP3 SHR SWAP1 POP SWAP3 SWAP2 POP POP JUMP JUMPDEST PUSH0 PUSH2 0x6F2 PUSH0 NOT DUP5 PUSH1 0x8 MUL PUSH2 0x6D7 JUMP JUMPDEST NOT DUP1 DUP4 AND SWAP2 POP POP SWAP3 SWAP2 POP POP JUMP JUMPDEST PUSH0 PUSH2 0x70A DUP4 DUP4 PUSH2 0x6E3 JUMP JUMPDEST SWAP2 POP DUP3 PUSH1 0x2 MUL DUP3 OR SWAP1 POP SWAP3 SWAP2 POP POP JUMP JUMPDEST PUSH2 0x723 DUP3 PUSH2 0x513 JUMP JUMPDEST PUSH8 0xFFFFFFFFFFFFFFFF DUP2 GT ISZERO PUSH2 0x73C JUMPI PUSH2 0x73B PUSH2 0x334 JUMP JUMPDEST JUMPDEST PUSH2 0x746 DUP3 SLOAD PUSH2 0x54A JUMP JUMPDEST PUSH2 0x751 DUP3 DUP3 DUP6 PUSH2 0x691 JUMP JUMPDEST PUSH0 PUSH1 0x20 SWAP1 POP PUSH1 0x1F DUP4 GT PUSH1 0x1 DUP2 EQ PUSH2 0x782 JUMPI PUSH0 DUP5 ISZERO PUSH2 0x770 JUMPI DUP3 DUP8 ADD MLOAD SWAP1 POP JUMPDEST PUSH2 0x77A DUP6 DUP3 PUSH2 0x6FF JUMP JUMPDEST DUP7 SSTORE POP PUSH2 0x7E1 JUMP JUMPDEST PUSH1 0x1F NOT DUP5 AND PUSH2 0x790 DUP7 PUSH2 0x57A JUMP JUMPDEST PUSH0 JUMPDEST DUP3 DUP2 LT ISZERO PUSH2 0x7B7 JUMPI DUP5 DUP10 ADD MLOAD DUP3 SSTORE PUSH1 0x1 DUP3 ADD SWAP2 POP PUSH1 0x20 DUP6 ADD SWAP5 POP PUSH1 0x20 DUP2 ADD SWAP1 POP PUSH2 0x792 JUMP JUMPDEST DUP7 DUP4 LT ISZERO PUSH2 0x7D4 JUMPI DUP5 DUP10 ADD MLOAD PUSH2 0x7D0 PUSH1 0x1F DUP10 AND DUP3 PUSH2 0x6E3 JUMP JUMPDEST DUP4 SSTORE POP JUMPDEST PUSH1 0x1 PUSH1 0x2 DUP9 MUL ADD DUP9 SSTORE POP POP POP JUMPDEST POP POP POP POP POP POP JUMP JUMPDEST PUSH0 PUSH20 0xFFFFFFFFFFFFFFFFFFFFFFFFFFFFFFFFFFFFFFFF DUP3 AND SWAP1 POP SWAP2 SWAP1 POP JUMP JUMPDEST PUSH0 PUSH2 0x812 DUP3 PUSH2 0x7E9 JUMP JUMPDEST SWAP1 POP SWAP2 SWAP1 POP JUMP JUMPDEST PUSH2 0x822 DUP2 PUSH2 0x808 JUMP JUMPDEST DUP3 MSTORE POP POP JUMP JUMPDEST PUSH0 PUSH1 0x20 DUP3 ADD SWAP1 POP PUSH2 0x83B PUSH0 DUP4 ADD DUP5 PUSH2 0x819 JUMP JUMPDEST SWAP3 SWAP2 POP POP JUMP JUMPDEST PUSH32 0x4E487B7100000000000000000000000000000000000000000000000000000000 PUSH0 MSTORE PUSH1 0x11 PUSH1 0x4 MSTORE PUSH1 0x24 PUSH0 REVERT JUMPDEST PUSH0 PUSH2 0x878 DUP3 PUSH2 0x458 JUMP JUMPDEST SWAP2 POP PUSH2 0x883 DUP4 PUSH2 0x458 JUMP JUMPDEST SWAP3 POP DUP3 DUP3 ADD SWAP1 POP DUP1 DUP3 GT ISZERO PUSH2 0x89B JUMPI PUSH2 0x89A PUSH2 0x841 JUMP JUMPDEST JUMPDEST SWAP3 SWAP2 POP POP JUMP JUMPDEST PUSH2 0x8AA DUP2 PUSH2 0x458 JUMP JUMPDEST DUP3 MSTORE POP POP JUMP JUMPDEST PUSH0 PUSH1 0x60 DUP3 ADD SWAP1 POP PUSH2 0x8C3 PUSH0 DUP4 ADD DUP7 PUSH2 0x819 JUMP JUMPDEST PUSH2 0x8D0 PUSH1 0x20 DUP4 ADD DUP6 PUSH2 0x8A1 JUMP JUMPDEST PUSH2 0x8DD PUSH1 0x40 DUP4 ADD DUP5 PUSH2 0x8A1 JUMP JUMPDEST SWAP5 SWAP4 POP POP POP POP JUMP JUMPDEST PUSH0 PUSH1 0x20 DUP3 ADD SWAP1 POP PUSH2 0x8F8 PUSH0 DUP4 ADD DUP5 PUSH2 0x8A1 JUMP JUMPDEST SWAP3 SWAP2 POP POP JUMP JUMPDEST PUSH2 0xDE1 DUP1 PUSH2 0x90B PUSH0 CODECOPY PUSH0 RETURN INVALID PUSH1 0x80 PUSH1 0x40 MSTORE CALLVALUE DUP1 ISZERO PUSH2 0xF JUMPI PUSH0 PUSH0 REVERT JUMPDEST POP PUSH1 0x4 CALLDATASIZE LT PUSH2 0x91 JUMPI PUSH0 CALLDATALOAD PUSH1 0xE0 SHR DUP1 PUSH4 0x313CE567 GT PUSH2 0x64 JUMPI DUP1 PUSH4 0x313CE567 EQ PUSH2 0x131 JUMPI DUP1 PUSH4 0x70A08231 EQ PUSH2 0x14F JUMPI DUP1 PUSH4 0x95D89B41 EQ PUSH2 0x17F JUMPI DUP1 PUSH4 0xA9059CBB EQ PUSH2 0x19D JUMPI DUP1 PUSH4 0xDD62ED3E EQ PUSH2 0x1CD JUMPI PUSH2 0x91 JUMP JUMPDEST DUP1 PUSH4 0x6FDDE03 EQ PUSH2 0x95 JUMPI DUP1 PUSH4 0x95EA7B3 EQ PUSH2 0xB3 JUMPI DUP1 PUSH4 0x18160DDD EQ PUSH2 0xE3 JUMPI DUP1 PUSH4 0x23B872DD EQ PUSH2 0x101 JUMPI JUMPDEST PUSH0 PUSH0 REVERT JUMPDEST PUSH2 0x9D PUSH2 0x1FD JUMP JUMPDEST PUSH1 0x40 MLOAD PUSH2 0xAA SWAP2 SWAP1 PUSH2 0xA5A JUMP JUMPDEST PUSH1 0x40 MLOAD DUP1 SWAP2 SUB SWAP1 RETURN JUMPDEST PUSH2 0xCD PUSH1 0x4 DUP1 CALLDATASIZE SUB DUP2 ADD SWAP1 PUSH2 0xC8 SWAP2 SWAP1 PUSH2 0xB0B JUMP JUMPDEST PUSH2 0x28D JUMP JUMPDEST PUSH1 0x40 MLOAD PUSH2 0xDA SWAP2 SWAP1 PUSH2 0xB63 JUMP JUMPDEST PUSH1 0x40 MLOAD DUP1 SWAP2 SUB SWAP1 RETURN JUMPDEST PUSH2 0xEB PUSH2 0x2AF JUMP JUMPDEST PUSH1 0x40 MLOAD PUSH2 0xF8 SWAP2 SWAP1 PUSH2 0xB8B JUMP JUMPDEST PUSH1 0x40 MLOAD DUP1 SWAP2 SUB SWAP1 RETURN JUMPDEST PUSH2 0x11B PUSH1 0x4 DUP1 CALLDATASIZE SUB DUP2 ADD SWAP1 PUSH2 0x116 SWAP2 SWAP1 PUSH2 0xBA4 JUMP JUMPDEST PUSH2 0x2B8 JUMP JUMPDEST PUSH1 0x40 MLOAD PUSH2 0x128 SWAP2 SWAP1 PUSH2 0xB63 JUMP JUMPDEST PUSH1 0x40 MLOAD DUP1 SWAP2 SUB SWAP1 RETURN JUMPDEST PUSH2 0x139 PUSH2 0x2E6 JUMP JUMPDEST PUSH1 0x40 MLOAD PUSH2 0x146 SWAP2 SWAP1 PUSH2 0xC0F JUMP JUMPDEST PUSH1 0x40 MLOAD DUP1 SWAP2 SUB SWAP1 RETURN JUMPDEST PUSH2 0x169 PUSH1 0x4 DUP1 CALLDATASIZE SUB DUP2 ADD SWAP1 PUSH2 0x164 SWAP2 SWAP1 PUSH2 0xC28 JUMP JUMPDEST PUSH2 0x2EE JUMP JUMPDEST PUSH1 0x40 MLOAD PUSH2 0x176 SWAP2 SWAP1 PUSH2 0xB8B JUMP JUMPDEST PUSH1 0x40 MLOAD DUP1 SWAP2 SUB SWAP1 RETURN JUMPDEST PUSH2 0x187 PUSH2 0x333 JUMP JUMPDEST PUSH1 0x40 MLOAD PUSH2 0x194 SWAP2 SWAP1 PUSH2 0xA5A JUMP JUMPDEST PUSH1 0x40 MLOAD DUP1 SWAP2 SUB SWAP1 RETURN JUMPDEST PUSH2 0x1B7 PUSH1 0x4 DUP1 CALLDATASIZE SUB DUP2 ADD SWAP1 PUSH2 0x1B2 SWAP2 SWAP1 PUSH2 0xB0B JUMP JUMPDEST PUSH2 0x3C3 JUMP JUMPDEST PUSH1 0x40 MLOAD PUSH2 0x1C4 SWAP2 SWAP1 PUSH2 0xB63 JUMP JUMPDEST PUSH1 0x40 MLOAD DUP1 SWAP2 SUB SWAP1 RETURN JUMPDEST PUSH2 0x1E7 PUSH1 0x4 DUP1 CALLDATASIZE SUB DUP2 ADD SWAP1 PUSH2 0x1E2 SWAP2 SWAP1 PUSH2 0xC53 JUMP JUMPDEST PUSH2 0x3E5 JUMP JUMPDEST PUSH1 0x40 MLOAD PUSH2 0x1F4 SWAP2 SWAP1 PUSH2 0xB8B JUMP JUMPDEST PUSH1 0x40 MLOAD DUP1 SWAP2 SUB SWAP1 RETURN JUMPDEST PUSH1 0x60 PUSH1 0x3 DUP1 SLOAD PUSH2 0x20C SWAP1 PUSH2 0xCBE JUMP JUMPDEST DUP1 PUSH1 0x1F ADD PUSH1 0x20 DUP1 SWAP2 DIV MUL PUSH1 0x20 ADD PUSH1 0x40 MLOAD SWAP1 DUP2 ADD PUSH1 0x40 MSTORE DUP1 SWAP3 SWAP2 SWAP1 DUP2 DUP2 MSTORE PUSH1 0x20 ADD DUP3 DUP1 SLOAD PUSH2 0x238 SWAP1 PUSH2 0xCBE JUMP JUMPDEST DUP1 ISZERO PUSH2 0x283 JUMPI DUP1 PUSH1 0x1F LT PUSH2 0x25A JUMPI PUSH2 0x100 DUP1 DUP4 SLOAD DIV MUL DUP4 MSTORE SWAP2 PUSH1 0x20 ADD SWAP2 PUSH2 0x283 JUMP JUMPDEST DUP3 ADD SWAP2 SWAP1 PUSH0 MSTORE PUSH1 0x20 PUSH0 KECCAK256 SWAP1 JUMPDEST DUP2 SLOAD DUP2 MSTORE SWAP1 PUSH1 0x1 ADD SWAP1 PUSH1 0x20 ADD DUP1 DUP4 GT PUSH2 0x266 JUMPI DUP3 SWAP1 SUB PUSH1 0x1F AND DUP3 ADD SWAP2 JUMPDEST POP POP POP POP POP SWAP1 POP SWAP1 JUMP JUMPDEST PUSH0 PUSH0 PUSH2 0x297 PUSH2 0x467 JUMP JUMPDEST SWAP1 POP PUSH2 0x2A4 DUP2 DUP6 DUP6 PUSH2 0x46E JUMP JUMPDEST PUSH1 0x1 SWAP2 POP POP SWAP3 SWAP2 POP POP JUMP JUMPDEST PUSH0 PUSH1 0x2 SLOAD SWAP1 POP SWAP1 JUMP JUMPDEST PUSH0 PUSH0 PUSH2 0x2C2 PUSH2 0x467 JUMP JUMPDEST SWAP1 POP PUSH2 0x2CF DUP6 DUP3 DUP6 PUSH2 0x480 JUMP JUMPDEST PUSH2 0x2DA DUP6 DUP6 DUP6 PUSH2 0x512 JUMP JUMPDEST PUSH1 0x1 SWAP2 POP POP SWAP4 SWAP3 POP POP POP JUMP JUMPDEST PUSH0 PUSH1 0x12 SWAP1 POP SWAP1 JUMP JUMPDEST PUSH0 PUSH0 PUSH0 DUP4 PUSH20 0xFFFFFFFFFFFFFFFFFFFFFFFFFFFFFFFFFFFFFFFF AND PUSH20 0xFFFFFFFFFFFFFFFFFFFFFFFFFFFFFFFFFFFFFFFF AND DUP2 MSTORE PUSH1 0x20 ADD SWAP1 DUP2 MSTORE PUSH1 0x20 ADD PUSH0 KECCAK256 SLOAD SWAP1 POP SWAP2 SWAP1 POP JUMP JUMPDEST PUSH1 0x60 PUSH1 0x4 DUP1 SLOAD PUSH2 0x342 SWAP1 PUSH2 0xCBE JUMP JUMPDEST DUP1 PUSH1 0x1F ADD PUSH1 0x20 DUP1 SWAP2 DIV MUL PUSH1 0x20 ADD PUSH1 0x40 MLOAD SWAP1 DUP2 ADD PUSH1 0x40 MSTORE DUP1 SWAP3 SWAP2 SWAP1 DUP2 DUP2 MSTORE PUSH1 0x20 ADD DUP3 DUP1 SLOAD PUSH2 0x36E SWAP1 PUSH2 0xCBE JUMP JUMPDEST DUP1 ISZERO PUSH2 0x3B9 JUMPI DUP1 PUSH1 0x1F LT PUSH2 0x390 JUMPI PUSH2 0x100 DUP1 DUP4 SLOAD DIV MUL DUP4 MSTORE SWAP2 PUSH1 0x20 ADD SWAP2 PUSH2 0x3B9 JUMP JUMPDEST DUP3 ADD SWAP2 SWAP1 PUSH0 MSTORE PUSH1 0x20 PUSH0 KECCAK256 SWAP1 JUMPDEST DUP2 SLOAD DUP2 MSTORE SWAP1 PUSH1 0x1 ADD SWAP1 PUSH1 0x20 ADD DUP1 DUP4 GT PUSH2 0x39C JUMPI DUP3 SWAP1 SUB PUSH1 0x1F AND DUP3 ADD SWAP2 JUMPDEST POP POP POP POP POP SWAP1 POP SWAP1 JUMP JUMPDEST PUSH0 PUSH0 PUSH2 0x3CD PUSH2 0x467 JUMP JUMPDEST SWAP1 POP PUSH2 0x3DA DUP2 DUP6 DUP6 PUSH2 0x512 JUMP JUMPDEST PUSH1 0x1 SWAP2 POP POP SWAP3 SWAP2 POP POP JUMP JUMPDEST PUSH0 PUSH1 0x1 PUSH0 DUP5 PUSH20 0xFFFFFFFFFFFFFFFFFFFFFFFFFFFFFFFFFFFFFFFF AND PUSH20 0xFFFFFFFFFFFFFFFFFFFFFFFFFFFFFFFFFFFFFFFF AND DUP2 MSTORE PUSH1 0x20 ADD SWAP1 DUP2 MSTORE PUSH1 0x20 ADD PUSH0 KECCAK256 PUSH0 DUP4 PUSH20 0xFFFFFFFFFFFFFFFFFFFFFFFFFFFFFFFFFFFFFFFF AND PUSH20 0xFFFFFFFFFFFFFFFFFFFFFFFFFFFFFFFFFFFFFFFF AND DUP2 MSTORE PUSH1 0x20 ADD SWAP1 DUP2 MSTORE PUSH1 0x20 ADD PUSH0 KECCAK256 SLOAD SWAP1 POP SWAP3 SWAP2 POP POP JUMP JUMPDEST PUSH0 CALLER SWAP1 POP SWAP1 JUMP JUMPDEST PUSH2 0x47B DUP4 DUP4 DUP4 PUSH1 0x1 PUSH2 0x602 JUMP JUMPDEST POP POP POP JUMP JUMPDEST PUSH0 PUSH2 0x48B DUP5 DUP5 PUSH2 0x3E5 JUMP JUMPDEST SWAP1 POP PUSH32 0xFFFFFFFFFFFFFFFFFFFFFFFFFFFFFFFFFFFFFFFFFFFFFFFFFFFFFFFFFFFFFFFF DUP2 EQ PUSH2 0x50C JUMPI DUP2 DUP2 LT ISZERO PUSH2 0x4FD JUMPI DUP3 DUP2 DUP4 PUSH1 0x40 MLOAD PUSH32 0xFB8F41B200000000000000000000000000000000000000000000000000000000 DUP2 MSTORE PUSH1 0x4 ADD PUSH2 0x4F4 SWAP4 SWAP3 SWAP2 SWAP1 PUSH2 0xCFD JUMP JUMPDEST PUSH1 0x40 MLOAD DUP1 SWAP2 SUB SWAP1 REVERT JUMPDEST PUSH2 0x50B DUP5 DUP5 DUP5 DUP5 SUB PUSH0 PUSH2 0x602 JUMP JUMPDEST JUMPDEST POP POP POP POP JUMP JUMPDEST PUSH0 PUSH20 0xFFFFFFFFFFFFFFFFFFFFFFFFFFFFFFFFFFFFFFFF AND DUP4 PUSH20 0xFFFFFFFFFFFFFFFFFFFFFFFFFFFFFFFFFFFFFFFF AND SUB PUSH2 0x582 JUMPI PUSH0 PUSH1 0x40 MLOAD PUSH32 0x96C6FD1E00000000000000000000000000000000000000000000000000000000 DUP2 MSTORE PUSH1 0x4 ADD PUSH2 0x579 SWAP2 SWAP1 PUSH2 0xD32 JUMP JUMPDEST PUSH1 0x40 MLOAD DUP1 SWAP2 SUB SWAP1 REVERT JUMPDEST PUSH0 PUSH20 0xFFFFFFFFFFFFFFFFFFFFFFFFFFFFFFFFFFFFFFFF AND DUP3 PUSH20 0xFFFFFFFFFFFFFFFFFFFFFFFFFFFFFFFFFFFFFFFF AND SUB PUSH2 0x5F2 JUMPI PUSH0 PUSH1 0x40 MLOAD PUSH32 0xEC442F0500000000000000000000000000000000000000000000000000000000 DUP2 MSTORE PUSH1 0x4 ADD PUSH2 0x5E9 SWAP2 SWAP1 PUSH2 0xD32 JUMP JUMPDEST PUSH1 0x40 MLOAD DUP1 SWAP2 SUB SWAP1 REVERT JUMPDEST PUSH2 0x5FD DUP4 DUP4 DUP4 PUSH2 0x7D1 JUMP JUMPDEST POP POP POP JUMP JUMPDEST PUSH0 PUSH20 0xFFFFFFFFFFFFFFFFFFFFFFFFFFFFFFFFFFFFFFFF AND DUP5 PUSH20 0xFFFFFFFFFFFFFFFFFFFFFFFFFFFFFFFFFFFFFFFF AND SUB PUSH2 0x672 JUMPI PUSH0 PUSH1 0x40 MLOAD PUSH32 0xE602DF0500000000000000000000000000000000000000000000000000000000 DUP2 MSTORE PUSH1 0x4 ADD PUSH2 0x669 SWAP2 SWAP1 PUSH2 0xD32 JUMP JUMPDEST PUSH1 0x40 MLOAD DUP1 SWAP2 SUB SWAP1 REVERT JUMPDEST PUSH0 PUSH20 0xFFFFFFFFFFFFFFFFFFFFFFFFFFFFFFFFFFFFFFFF AND DUP4 PUSH20 0xFFFFFFFFFFFFFFFFFFFFFFFFFFFFFFFFFFFFFFFF AND SUB PUSH2 0x6E2 JUMPI PUSH0 PUSH1 0x40 MLOAD PUSH32 0x94280D6200000000000000000000000000000000000000000000000000000000 DUP2 MSTORE PUSH1 0x4 ADD PUSH2 0x6D9 SWAP2 SWAP1 PUSH2 0xD32 JUMP JUMPDEST PUSH1 0x40 MLOAD DUP1 SWAP2 SUB SWAP1 REVERT JUMPDEST DUP2 PUSH1 0x1 PUSH0 DUP7 PUSH20 0xFFFFFFFFFFFFFFFFFFFFFFFFFFFFFFFFFFFFFFFF AND PUSH20 0xFFFFFFFFFFFFFFFFFFFFFFFFFFFFFFFFFFFFFFFF AND DUP2 MSTORE PUSH1 0x20 ADD SWAP1 DUP2 MSTORE PUSH1 0x20 ADD PUSH0 KECCAK256 PUSH0 DUP6 PUSH20 0xFFFFFFFFFFFFFFFFFFFFFFFFFFFFFFFFFFFFFFFF AND PUSH20 0xFFFFFFFFFFFFFFFFFFFFFFFFFFFFFFFFFFFFFFFF AND DUP2 MSTORE PUSH1 0x20 ADD SWAP1 DUP2 MSTORE PUSH1 0x20 ADD PUSH0 KECCAK256 DUP2 SWAP1 SSTORE POP DUP1 ISZERO PUSH2 0x7CB JUMPI DUP3 PUSH20 0xFFFFFFFFFFFFFFFFFFFFFFFFFFFFFFFFFFFFFFFF AND DUP5 PUSH20 0xFFFFFFFFFFFFFFFFFFFFFFFFFFFFFFFFFFFFFFFF AND PUSH32 0x8C5BE1E5EBEC7D5BD14F71427D1E84F3DD0314C0F7B2291E5B200AC8C7C3B925 DUP5 PUSH1 0x40 MLOAD PUSH2 0x7C2 SWAP2 SWAP1 PUSH2 0xB8B JUMP JUMPDEST PUSH1 0x40 MLOAD DUP1 SWAP2 SUB SWAP1 LOG3 JUMPDEST POP POP POP POP JUMP JUMPDEST PUSH0 PUSH20 0xFFFFFFFFFFFFFFFFFFFFFFFFFFFFFFFFFFFFFFFF AND DUP4 PUSH20 0xFFFFFFFFFFFFFFFFFFFFFFFFFFFFFFFFFFFFFFFF AND SUB PUSH2 0x821 JUMPI DUP1 PUSH1 0x2 PUSH0 DUP3 DUP3 SLOAD PUSH2 0x815 SWAP2 SWAP1 PUSH2 0xD78 JUMP JUMPDEST SWAP3 POP POP DUP2 SWAP1 SSTORE POP PUSH2 0x8EF JUMP JUMPDEST PUSH0 PUSH0 PUSH0 DUP6 PUSH20 0xFFFFFFFFFFFFFFFFFFFFFFFFFFFFFFFFFFFFFFFF AND PUSH20 0xFFFFFFFFFFFFFFFFFFFFFFFFFFFFFFFFFFFFFFFF AND DUP2 MSTORE PUSH1 0x20 ADD SWAP1 DUP2 MSTORE PUSH1 0x20 ADD PUSH0 KECCAK256 SLOAD SWAP1 POP DUP2 DUP2 LT ISZERO PUSH2 0x8AA JUMPI DUP4 DUP2 DUP4 PUSH1 0x40 MLOAD PUSH32 0xE450D38C00000000000000000000000000000000000000000000000000000000 DUP2 MSTORE PUSH1 0x4 ADD PUSH2 0x8A1 SWAP4 SWAP3 SWAP2 SWAP1 PUSH2 0xCFD JUMP JUMPDEST PUSH1 0x40 MLOAD DUP1 SWAP2 SUB SWAP1 REVERT JUMPDEST DUP2 DUP2 SUB PUSH0 PUSH0 DUP7 PUSH20 0xFFFFFFFFFFFFFFFFFFFFFFFFFFFFFFFFFFFFFFFF AND PUSH20 0xFFFFFFFFFFFFFFFFFFFFFFFFFFFFFFFFFFFFFFFF AND DUP2 MSTORE PUSH1 0x20 ADD SWAP1 DUP2 MSTORE PUSH1 0x20 ADD PUSH0 KECCAK256 DUP2 SWAP1 SSTORE POP POP JUMPDEST PUSH0 PUSH20 0xFFFFFFFFFFFFFFFFFFFFFFFFFFFFFFFFFFFFFFFF AND DUP3 PUSH20 0xFFFFFFFFFFFFFFFFFFFFFFFFFFFFFFFFFFFFFFFF AND SUB PUSH2 0x936 JUMPI DUP1 PUSH1 0x2 PUSH0 DUP3 DUP3 SLOAD SUB SWAP3 POP POP DUP2 SWAP1 SSTORE POP PUSH2 0x980 JUMP JUMPDEST DUP1 PUSH0 PUSH0 DUP5 PUSH20 0xFFFFFFFFFFFFFFFFFFFFFFFFFFFFFFFFFFFFFFFF AND PUSH20 0xFFFFFFFFFFFFFFFFFFFFFFFFFFFFFFFFFFFFFFFF AND DUP2 MSTORE PUSH1 0x20 ADD SWAP1 DUP2 MSTORE PUSH1 0x20 ADD PUSH0 KECCAK256 PUSH0 DUP3 DUP3 SLOAD ADD SWAP3 POP POP DUP2 SWAP1 SSTORE POP JUMPDEST DUP2 PUSH20 0xFFFFFFFFFFFFFFFFFFFFFFFFFFFFFFFFFFFFFFFF AND DUP4 PUSH20 0xFFFFFFFFFFFFFFFFFFFFFFFFFFFFFFFFFFFFFFFF AND PUSH32 0xDDF252AD1BE2C89B69C2B068FC378DAA952BA7F163C4A11628F55A4DF523B3EF DUP4 PUSH1 0x40 MLOAD PUSH2 0x9DD SWAP2 SWAP1 PUSH2 0xB8B JUMP JUMPDEST PUSH1 0x40 MLOAD DUP1 SWAP2 SUB SWAP1 LOG3 POP POP POP JUMP JUMPDEST PUSH0 DUP2 MLOAD SWAP1 POP SWAP2 SWAP1 POP JUMP JUMPDEST PUSH0 DUP3 DUP3 MSTORE PUSH1 0x20 DUP3 ADD SWAP1 POP SWAP3 SWAP2 POP POP JUMP JUMPDEST DUP3 DUP2 DUP4 MCOPY PUSH0 DUP4 DUP4 ADD MSTORE POP POP POP JUMP JUMPDEST PUSH0 PUSH1 0x1F NOT PUSH1 0x1F DUP4 ADD AND SWAP1 POP SWAP2 SWAP1 POP JUMP JUMPDEST PUSH0 PUSH2 0xA2C DUP3 PUSH2 0x9EA JUMP JUMPDEST PUSH2 0xA36 DUP2 DUP6 PUSH2 0x9F4 JUMP JUMPDEST SWAP4 POP PUSH2 0xA46 DUP2 DUP6 PUSH1 0x20 DUP7 ADD PUSH2 0xA04 JUMP JUMPDEST PUSH2 0xA4F DUP2 PUSH2 0xA12 JUMP JUMPDEST DUP5 ADD SWAP2 POP POP SWAP3 SWAP2 POP POP JUMP JUMPDEST PUSH0 PUSH1 0x20 DUP3 ADD SWAP1 POP DUP2 DUP2 SUB PUSH0 DUP4 ADD MSTORE PUSH2 0xA72 DUP2 DUP5 PUSH2 0xA22 JUMP JUMPDEST SWAP1 POP SWAP3 SWAP2 POP POP JUMP JUMPDEST PUSH0 PUSH0 REVERT JUMPDEST PUSH0 PUSH20 0xFFFFFFFFFFFFFFFFFFFFFFFFFFFFFFFFFFFFFFFF DUP3 AND SWAP1 POP SWAP2 SWAP1 POP JUMP JUMPDEST PUSH0 PUSH2 0xAA7 DUP3 PUSH2 0xA7E JUMP JUMPDEST SWAP1 POP SWAP2 SWAP1 POP JUMP JUMPDEST PUSH2 0xAB7 DUP2 PUSH2 0xA9D JUMP JUMPDEST DUP2 EQ PUSH2 0xAC1 JUMPI PUSH0 PUSH0 REVERT JUMPDEST POP JUMP JUMPDEST PUSH0 DUP2 CALLDATALOAD SWAP1 POP PUSH2 0xAD2 DUP2 PUSH2 0xAAE JUMP JUMPDEST SWAP3 SWAP2 POP POP JUMP JUMPDEST PUSH0 DUP2 SWAP1 POP SWAP2 SWAP1 POP JUMP JUMPDEST PUSH2 0xAEA DUP2 PUSH2 0xAD8 JUMP JUMPDEST DUP2 EQ PUSH2 0xAF4 JUMPI PUSH0 PUSH0 REVERT JUMPDEST POP JUMP JUMPDEST PUSH0 DUP2 CALLDATALOAD SWAP1 POP PUSH2 0xB05 DUP2 PUSH2 0xAE1 JUMP JUMPDEST SWAP3 SWAP2 POP POP JUMP JUMPDEST PUSH0 PUSH0 PUSH1 0x40 DUP4 DUP6 SUB SLT ISZERO PUSH2 0xB21 JUMPI PUSH2 0xB20 PUSH2 0xA7A JUMP JUMPDEST JUMPDEST PUSH0 PUSH2 0xB2E DUP6 DUP3 DUP7 ADD PUSH2 0xAC4 JUMP JUMPDEST SWAP3 POP POP PUSH1 0x20 PUSH2 0xB3F DUP6 DUP3 DUP7 ADD PUSH2 0xAF7 JUMP JUMPDEST SWAP2 POP POP SWAP3 POP SWAP3 SWAP1 POP JUMP JUMPDEST PUSH0 DUP2 ISZERO ISZERO SWAP1 POP SWAP2 SWAP1 POP JUMP JUMPDEST PUSH2 0xB5D DUP2 PUSH2 0xB49 JUMP JUMPDEST DUP3 MSTORE POP POP JUMP JUMPDEST PUSH0 PUSH1 0x20 DUP3 ADD SWAP1 POP PUSH2 0xB76 PUSH0 DUP4 ADD DUP5 PUSH2 0xB54 JUMP JUMPDEST SWAP3 SWAP2 POP POP JUMP JUMPDEST PUSH2 0xB85 DUP2 PUSH2 0xAD8 JUMP JUMPDEST DUP3 MSTORE POP POP JUMP JUMPDEST PUSH0 PUSH1 0x20 DUP3 ADD SWAP1 POP PUSH2 0xB9E PUSH0 DUP4 ADD DUP5 PUSH2 0xB7C JUMP JUMPDEST SWAP3 SWAP2 POP POP JUMP JUMPDEST PUSH0 PUSH0 PUSH0 PUSH1 0x60 DUP5 DUP7 SUB SLT ISZERO PUSH2 0xBBB JUMPI PUSH2 0xBBA PUSH2 0xA7A JUMP JUMPDEST JUMPDEST PUSH0 PUSH2 0xBC8 DUP7 DUP3 DUP8 ADD PUSH2 0xAC4 JUMP JUMPDEST SWAP4 POP POP PUSH1 0x20 PUSH2 0xBD9 DUP7 DUP3 DUP8 ADD PUSH2 0xAC4 JUMP JUMPDEST SWAP3 POP POP PUSH1 0x40 PUSH2 0xBEA DUP7 DUP3 DUP8 ADD PUSH2 0xAF7 JUMP JUMPDEST SWAP2 POP POP SWAP3 POP SWAP3 POP SWAP3 JUMP JUMPDEST PUSH0 PUSH1 0xFF DUP3 AND SWAP1 POP SWAP2 SWAP1 POP JUMP JUMPDEST PUSH2 0xC09 DUP2 PUSH2 0xBF4 JUMP JUMPDEST DUP3 MSTORE POP POP JUMP JUMPDEST PUSH0 PUSH1 0x20 DUP3 ADD SWAP1 POP PUSH2 0xC22 PUSH0 DUP4 ADD DUP5 PUSH2 0xC00 JUMP JUMPDEST SWAP3 SWAP2 POP POP JUMP JUMPDEST PUSH0 PUSH1 0x20 DUP3 DUP5 SUB SLT ISZERO PUSH2 0xC3D JUMPI PUSH2 0xC3C PUSH2 0xA7A JUMP JUMPDEST JUMPDEST PUSH0 PUSH2 0xC4A DUP5 DUP3 DUP6 ADD PUSH2 0xAC4 JUMP JUMPDEST SWAP2 POP POP SWAP3 SWAP2 POP POP JUMP JUMPDEST PUSH0 PUSH0 PUSH1 0x40 DUP4 DUP6 SUB SLT ISZERO PUSH2 0xC69 JUMPI PUSH2 0xC68 PUSH2 0xA7A JUMP JUMPDEST JUMPDEST PUSH0 PUSH2 0xC76 DUP6 DUP3 DUP7 ADD PUSH2 0xAC4 JUMP JUMPDEST SWAP3 POP POP PUSH1 0x20 PUSH2 0xC87 DUP6 DUP3 DUP7 ADD PUSH2 0xAC4 JUMP JUMPDEST SWAP2 POP POP SWAP3 POP SWAP3 SWAP1 POP JUMP JUMPDEST PUSH32 0x4E487B7100000000000000000000000000000000000000000000000000000000 PUSH0 MSTORE PUSH1 0x22 PUSH1 0x4 MSTORE PUSH1 0x24 PUSH0 REVERT JUMPDEST PUSH0 PUSH1 0x2 DUP3 DIV SWAP1 POP PUSH1 0x1 DUP3 AND DUP1 PUSH2 0xCD5 JUMPI PUSH1 0x7F DUP3 AND SWAP2 POP JUMPDEST PUSH1 0x20 DUP3 LT DUP2 SUB PUSH2 0xCE8 JUMPI PUSH2 0xCE7 PUSH2 0xC91 JUMP JUMPDEST JUMPDEST POP SWAP2 SWAP1 POP JUMP JUMPDEST PUSH2 0xCF7 DUP2 PUSH2 0xA9D JUMP JUMPDEST DUP3 MSTORE POP POP JUMP JUMPDEST PUSH0 PUSH1 0x60 DUP3 ADD SWAP1 POP PUSH2 0xD10 PUSH0 DUP4 ADD DUP7 PUSH2 0xCEE JUMP JUMPDEST PUSH2 0xD1D PUSH1 0x20 DUP4 ADD DUP6 PUSH2 0xB7C JUMP JUMPDEST PUSH2 0xD2A PUSH1 0x40 DUP4 ADD DUP5 PUSH2 0xB7C JUMP JUMPDEST SWAP5 SWAP4 POP POP POP POP JUMP JUMPDEST PUSH0 PUSH1 0x20 DUP3 ADD SWAP1 POP PUSH2 0xD45 PUSH0 DUP4 ADD DUP5 PUSH2 0xCEE JUMP JUMPDEST SWAP3 SWAP2 POP POP JUMP JUMPDEST PUSH32 0x4E487B7100000000000000000000000000000000000000000000000000000000 PUSH0 MSTORE PUSH1 0x11 PUSH1 0x4 MSTORE PUSH1 0x24 PUSH0 REVERT JUMPDEST PUSH0 PUSH2 0xD82 DUP3 PUSH2 0xAD8 JUMP JUMPDEST SWAP2 POP PUSH2 0xD8D DUP4 PUSH2 0xAD8 JUMP JUMPDEST SWAP3 POP DUP3 DUP3 ADD SWAP1 POP DUP1 DUP3 GT ISZERO PUSH2 0xDA5 JUMPI PUSH2 0xDA4 PUSH2 0xD4B JUMP JUMPDEST JUMPDEST SWAP3 SWAP2 POP POP JUMP INVALID LOG2 PUSH5 0x6970667358 0x22 SLT KECCAK256 SWAP4 0xE4 BLOCKHASH 0xE1 TSTORE 0xED 0xC2 0xF8 MSIZE 0xD2 0xB6 PUSH14 0x24D5F44D1063D501024CD4DA16BE 0xBD PREVRANDAO REVERT CALLDATALOAD RETURNDATASIZE 0x4C PUSH5 0x736F6C6343 STOP ADDMOD SHR STOP CALLER "
		},
		"gasEstimates": {
			"creation": {
				"codeDepositCost": "636800",
				"executionCost": "infinite",
				"totalCost": "infinite"
			},
			"external": {
				"adminFeeAccount()": "2596",
				"poolAddress()": "2531",
				"testAddLiquidity(uint256,uint256)": "infinite",
				"testInitializePool(address,address,address,uint256,address)": "infinite",
				"testRemoveLiquidity(uint256)": "infinite",
				"testSwap(address,uint256,uint256)": "infinite",
				"tokenA()": "infinite",
				"tokenB()": "infinite",
				"tokenSwap()": "infinite"
			}
		},
		"methodIdentifiers": {
			"adminFeeAccount()": "d216dcbc",
			"poolAddress()": "1755ff21",
			"testAddLiquidity(uint256,uint256)": "33d97f8b",
			"testInitializePool(address,address,address,uint256,address)": "5aeca080",
			"testRemoveLiquidity(uint256)": "c9fce745",
			"testSwap(address,uint256,uint256)": "af56d99b",
			"tokenA()": "0fc63d10",
			"tokenB()": "5f64b55b",
			"tokenSwap()": "9653dee5"
		}
	},
	"abi": [
		{
			"inputs": [],
			"stateMutability": "nonpayable",
			"type": "constructor"
		},
		{
			"inputs": [],
			"name": "adminFeeAccount",
			"outputs": [
				{
					"internalType": "address",
					"name": "",
					"type": "address"
				}
			],
			"stateMutability": "view",
			"type": "function"
		},
		{
			"inputs": [],
			"name": "poolAddress",
			"outputs": [
				{
					"internalType": "address",
					"name": "",
					"type": "address"
				}
			],
			"stateMutability": "view",
			"type": "function"
		},
		{
			"inputs": [
				{
					"internalType": "uint256",
					"name": "amountA",
					"type": "uint256"
				},
				{
					"internalType": "uint256",
					"name": "amountB",
					"type": "uint256"
				}
			],
			"name": "testAddLiquidity",
			"outputs": [],
			"stateMutability": "nonpayable",
			"type": "function"
		},
		{
			"inputs": [
				{
					"internalType": "address",
					"name": "_poolAddress",
					"type": "address"
				},
				{
					"internalType": "address",
					"name": "_tokenA",
					"type": "address"
				},
				{
					"internalType": "address",
					"name": "_tokenB",
					"type": "address"
				},
				{
					"internalType": "uint256",
					"name": "_feePercentage",
					"type": "uint256"
				},
				{
					"internalType": "address",
					"name": "_adminFeeAccount",
					"type": "address"
				}
			],
			"name": "testInitializePool",
			"outputs": [],
			"stateMutability": "nonpayable",
			"type": "function"
		},
		{
			"inputs": [
				{
					"internalType": "uint256",
					"name": "shares",
					"type": "uint256"
				}
			],
			"name": "testRemoveLiquidity",
			"outputs": [],
			"stateMutability": "nonpayable",
			"type": "function"
		},
		{
			"inputs": [
				{
					"internalType": "address",
					"name": "inputToken",
					"type": "address"
				},
				{
					"internalType": "uint256",
					"name": "amountIn",
					"type": "uint256"
				},
				{
					"internalType": "uint256",
					"name": "minOut",
					"type": "uint256"
				}
			],
			"name": "testSwap",
			"outputs": [],
			"stateMutability": "nonpayable",
			"type": "function"
		},
		{
			"inputs": [],
			"name": "tokenA",
			"outputs": [
				{
					"internalType": "contract TestToken",
					"name": "",
					"type": "address"
				}
			],
			"stateMutability": "view",
			"type": "function"
		},
		{
			"inputs": [],
			"name": "tokenB",
			"outputs": [
				{
					"internalType": "contract TestToken",
					"name": "",
					"type": "address"
				}
			],
			"stateMutability": "view",
			"type": "function"
		},
		{
			"inputs": [],
			"name": "tokenSwap",
			"outputs": [
				{
					"internalType": "contract TokenSwap",
					"name": "",
					"type": "address"
				}
			],
			"stateMutability": "view",
			"type": "function"
		}
	]
}