{
	"contracts/TokenSwap.sol": {
		"TokenSwap": {
			"abi": [
				{
					"inputs": [],
					"stateMutability": "nonpayable",
					"type": "constructor"
				},
				{
					"inputs": [
						{
							"internalType": "address",
							"name": "owner",
							"type": "address"
						}
					],
					"name": "OwnableInvalidOwner",
					"type": "error"
				},
				{
					"inputs": [
						{
							"internalType": "address",
							"name": "account",
							"type": "address"
						}
					],
					"name": "OwnableUnauthorizedAccount",
					"type": "error"
				},
				{
					"anonymous": false,
					"inputs": [
						{
							"indexed": true,
							"internalType": "address",
							"name": "pool",
							"type": "address"
						},
						{
							"indexed": true,
							"internalType": "address",
							"name": "user",
							"type": "address"
						},
						{
							"indexed": false,
							"internalType": "uint256",
							"name": "amountA",
							"type": "uint256"
						},
						{
							"indexed": false,
							"internalType": "uint256",
							"name": "amountB",
							"type": "uint256"
						}
					],
					"name": "LiquidityAdded",
					"type": "event"
				},
				{
					"anonymous": false,
					"inputs": [
						{
							"indexed": true,
							"internalType": "address",
							"name": "pool",
							"type": "address"
						},
						{
							"indexed": true,
							"internalType": "address",
							"name": "user",
							"type": "address"
						},
						{
							"indexed": false,
							"internalType": "uint256",
							"name": "amountA",
							"type": "uint256"
						},
						{
							"indexed": false,
							"internalType": "uint256",
							"name": "amountB",
							"type": "uint256"
						}
					],
					"name": "LiquidityRemoved",
					"type": "event"
				},
				{
					"anonymous": false,
					"inputs": [
						{
							"indexed": true,
							"internalType": "address",
							"name": "previousOwner",
							"type": "address"
						},
						{
							"indexed": true,
							"internalType": "address",
							"name": "newOwner",
							"type": "address"
						}
					],
					"name": "OwnershipTransferred",
					"type": "event"
				},
				{
					"anonymous": false,
					"inputs": [
						{
							"indexed": true,
							"internalType": "address",
							"name": "pool",
							"type": "address"
						},
						{
							"indexed": true,
							"internalType": "address",
							"name": "tokenA",
							"type": "address"
						},
						{
							"indexed": true,
							"internalType": "address",
							"name": "tokenB",
							"type": "address"
						},
						{
							"indexed": false,
							"internalType": "uint256",
							"name": "feePercentage",
							"type": "uint256"
						}
					],
					"name": "PoolInitialized",
					"type": "event"
				},
				{
					"anonymous": false,
					"inputs": [
						{
							"indexed": true,
							"internalType": "address",
							"name": "pool",
							"type": "address"
						},
						{
							"indexed": true,
							"internalType": "address",
							"name": "user",
							"type": "address"
						},
						{
							"indexed": false,
							"internalType": "address",
							"name": "inputToken",
							"type": "address"
						},
						{
							"indexed": false,
							"internalType": "address",
							"name": "outputToken",
							"type": "address"
						},
						{
							"indexed": false,
							"internalType": "uint256",
							"name": "amountIn",
							"type": "uint256"
						},
						{
							"indexed": false,
							"internalType": "uint256",
							"name": "amountOut",
							"type": "uint256"
						}
					],
					"name": "TokensSwapped",
					"type": "event"
				},
				{
					"inputs": [
						{
							"internalType": "address",
							"name": "poolAddress",
							"type": "address"
						},
						{
							"internalType": "uint256",
							"name": "amountA",
							"type": "uint256"
						},
						{
							"internalType": "uint256",
							"name": "amountB",
							"type": "uint256"
						}
					],
					"name": "addLiquidity",
					"outputs": [],
					"stateMutability": "nonpayable",
					"type": "function"
				},
				{
					"inputs": [
						{
							"internalType": "address",
							"name": "poolAddress",
							"type": "address"
						},
						{
							"internalType": "address",
							"name": "tokenA",
							"type": "address"
						},
						{
							"internalType": "address",
							"name": "tokenB",
							"type": "address"
						},
						{
							"internalType": "uint256",
							"name": "feePercentage",
							"type": "uint256"
						},
						{
							"internalType": "address",
							"name": "adminFeeAccount",
							"type": "address"
						}
					],
					"name": "initializePool",
					"outputs": [],
					"stateMutability": "nonpayable",
					"type": "function"
				},
				{
					"inputs": [],
					"name": "owner",
					"outputs": [
						{
							"internalType": "address",
							"name": "",
							"type": "address"
						}
					],
					"stateMutability": "view",
					"type": "function"
				},
				{
					"inputs": [
						{
							"internalType": "address",
							"name": "",
							"type": "address"
						}
					],
					"name": "pools",
					"outputs": [
						{
							"internalType": "address",
							"name": "tokenA",
							"type": "address"
						},
						{
							"internalType": "address",
							"name": "tokenB",
							"type": "address"
						},
						{
							"internalType": "uint256",
							"name": "totalLiquidity",
							"type": "uint256"
						},
						{
							"internalType": "uint256",
							"name": "feePercentage",
							"type": "uint256"
						},
						{
							"internalType": "address",
							"name": "adminFeeAccount",
							"type": "address"
						},
						{
							"internalType": "uint256",
							"name": "lastDepositTime",
							"type": "uint256"
						}
					],
					"stateMutability": "view",
					"type": "function"
				},
				{
					"inputs": [
						{
							"internalType": "address",
							"name": "poolAddress",
							"type": "address"
						},
						{
							"internalType": "uint256",
							"name": "shares",
							"type": "uint256"
						}
					],
					"name": "removeLiquidity",
					"outputs": [],
					"stateMutability": "nonpayable",
					"type": "function"
				},
				{
					"inputs": [],
					"name": "renounceOwnership",
					"outputs": [],
					"stateMutability": "nonpayable",
					"type": "function"
				},
				{
					"inputs": [
						{
							"internalType": "address",
							"name": "poolAddress",
							"type": "address"
						},
						{
							"internalType": "address",
							"name": "inputToken",
							"type": "address"
						},
						{
							"internalType": "uint256",
							"name": "amountIn",
							"type": "uint256"
						},
						{
							"internalType": "uint256",
							"name": "minOut",
							"type": "uint256"
						}
					],
					"name": "swap",
					"outputs": [],
					"stateMutability": "nonpayable",
					"type": "function"
				},
				{
					"inputs": [
						{
							"internalType": "address",
							"name": "newOwner",
							"type": "address"
						}
					],
					"name": "transferOwnership",
					"outputs": [],
					"stateMutability": "nonpayable",
					"type": "function"
				}
			],
			"devdoc": {
				"errors": {
					"OwnableInvalidOwner(address)": [
						{
							"details": "The owner is not a valid owner account. (eg. `address(0)`)"
						}
					],
					"OwnableUnauthorizedAccount(address)": [
						{
							"details": "The caller account is not authorized to perform an operation."
						}
					]
				},
				"kind": "dev",
				"methods": {
					"addLiquidity(address,uint256,uint256)": {
						"params": {
							"amountA": "Amount of token A to deposit",
							"amountB": "Amount of token B to deposit",
							"poolAddress": "The address of the liquidity pool"
						}
					},
					"initializePool(address,address,address,uint256,address)": {
						"params": {
							"adminFeeAccount": "Address to collect admin fees",
							"feePercentage": "Fee percentage for swaps",
							"poolAddress": "The address of the liquidity pool",
							"tokenA": "Address of token A",
							"tokenB": "Address of token B"
						}
					},
					"owner()": {
						"details": "Returns the address of the current owner."
					},
					"removeLiquidity(address,uint256)": {
						"params": {
							"poolAddress": "The address of the liquidity pool",
							"shares": "The number of liquidity shares to redeem"
						}
					},
					"renounceOwnership()": {
						"details": "Leaves the contract without owner. It will not be possible to call `onlyOwner` functions. Can only be called by the current owner. NOTE: Renouncing ownership will leave the contract without an owner, thereby disabling any functionality that is only available to the owner."
					},
					"swap(address,address,uint256,uint256)": {
						"params": {
							"amountIn": "Amount of input tokens",
							"inputToken": "Address of the token to swap",
							"minOut": "Minimum acceptable output tokens",
							"poolAddress": "The address of the liquidity pool"
						}
					},
					"transferOwnership(address)": {
						"details": "Transfers ownership of the contract to a new account (`newOwner`). Can only be called by the current owner."
					}
				},
				"title": "TokenSwap - A liquidity pool-based token swap program",
				"version": 1
			},
			"evm": {
				"assembly": "    /* \"contracts/TokenSwap.sol\":415:5895  contract TokenSwap is Ownable {... */\n  mstore(0x40, 0x80)\n    /* \"contracts/TokenSwap.sol\":1513:1549  constructor() Ownable(msg.sender) {} */\n  callvalue\n  dup1\n  iszero\n  tag_1\n  jumpi\n  revert(0x00, 0x00)\ntag_1:\n  pop\n    /* \"contracts/TokenSwap.sol\":1535:1545  msg.sender */\n  caller\n    /* \"@openzeppelin/contracts/access/Ownable.sol\":1297:1298  0 */\n  0x00\n    /* \"@openzeppelin/contracts/access/Ownable.sol\":1273:1299  initialOwner == address(0) */\n  0xffffffffffffffffffffffffffffffffffffffff\n  and\n    /* \"@openzeppelin/contracts/access/Ownable.sol\":1273:1285  initialOwner */\n  dup2\n    /* \"@openzeppelin/contracts/access/Ownable.sol\":1273:1299  initialOwner == address(0) */\n  0xffffffffffffffffffffffffffffffffffffffff\n  and\n  sub\n    /* \"@openzeppelin/contracts/access/Ownable.sol\":1269:1364  if (initialOwner == address(0)) {... */\n  tag_5\n  jumpi\n    /* \"@openzeppelin/contracts/access/Ownable.sol\":1350:1351  0 */\n  0x00\n    /* \"@openzeppelin/contracts/access/Ownable.sol\":1322:1353  OwnableInvalidOwner(address(0)) */\n  mload(0x40)\n  0x1e4fbdf700000000000000000000000000000000000000000000000000000000\n  dup2\n  mstore\n  0x04\n  add\n  tag_6\n  swap2\n  swap1\n  tag_7\n  jump\t// in\ntag_6:\n  mload(0x40)\n  dup1\n  swap2\n  sub\n  swap1\n  revert\n    /* \"@openzeppelin/contracts/access/Ownable.sol\":1269:1364  if (initialOwner == address(0)) {... */\ntag_5:\n    /* \"@openzeppelin/contracts/access/Ownable.sol\":1373:1405  _transferOwnership(initialOwner) */\n  tag_8\n    /* \"@openzeppelin/contracts/access/Ownable.sol\":1392:1404  initialOwner */\n  dup2\n    /* \"@openzeppelin/contracts/access/Ownable.sol\":1373:1391  _transferOwnership */\n  shl(0x20, tag_9)\n    /* \"@openzeppelin/contracts/access/Ownable.sol\":1373:1405  _transferOwnership(initialOwner) */\n  0x20\n  shr\n  jump\t// in\ntag_8:\n    /* \"@openzeppelin/contracts/access/Ownable.sol\":1225:1412  constructor(address initialOwner) {... */\n  pop\n    /* \"contracts/TokenSwap.sol\":415:5895  contract TokenSwap is Ownable {... */\n  jump(tag_11)\n    /* \"@openzeppelin/contracts/access/Ownable.sol\":2912:3099  function _transferOwnership(address newOwner) internal virtual {... */\ntag_9:\n    /* \"@openzeppelin/contracts/access/Ownable.sol\":2985:3001  address oldOwner */\n  0x00\n    /* \"@openzeppelin/contracts/access/Ownable.sol\":3004:3010  _owner */\n  0x00\n  0x00\n  swap1\n  sload\n  swap1\n  0x0100\n  exp\n  swap1\n  div\n  0xffffffffffffffffffffffffffffffffffffffff\n  and\n    /* \"@openzeppelin/contracts/access/Ownable.sol\":2985:3010  address oldOwner = _owner */\n  swap1\n  pop\n    /* \"@openzeppelin/contracts/access/Ownable.sol\":3029:3037  newOwner */\n  dup2\n    /* \"@openzeppelin/contracts/access/Ownable.sol\":3020:3026  _owner */\n  0x00\n  0x00\n    /* \"@openzeppelin/contracts/access/Ownable.sol\":3020:3037  _owner = newOwner */\n  0x0100\n  exp\n  dup2\n  sload\n  dup2\n  0xffffffffffffffffffffffffffffffffffffffff\n  mul\n  not\n  and\n  swap1\n  dup4\n  0xffffffffffffffffffffffffffffffffffffffff\n  and\n  mul\n  or\n  swap1\n  sstore\n  pop\n    /* \"@openzeppelin/contracts/access/Ownable.sol\":3083:3091  newOwner */\n  dup2\n    /* \"@openzeppelin/contracts/access/Ownable.sol\":3052:3092  OwnershipTransferred(oldOwner, newOwner) */\n  0xffffffffffffffffffffffffffffffffffffffff\n  and\n    /* \"@openzeppelin/contracts/access/Ownable.sol\":3073:3081  oldOwner */\n  dup2\n    /* \"@openzeppelin/contracts/access/Ownable.sol\":3052:3092  OwnershipTransferred(oldOwner, newOwner) */\n  0xffffffffffffffffffffffffffffffffffffffff\n  and\n  0x8be0079c531659141344cd1fd0a4f28419497f9722a3daafe3b4186f6b6457e0\n  mload(0x40)\n  mload(0x40)\n  dup1\n  swap2\n  sub\n  swap1\n  log3\n    /* \"@openzeppelin/contracts/access/Ownable.sol\":2975:3099  {... */\n  pop\n    /* \"@openzeppelin/contracts/access/Ownable.sol\":2912:3099  function _transferOwnership(address newOwner) internal virtual {... */\n  pop\n  jump\t// out\n    /* \"#utility.yul\":7:133   */\ntag_13:\n    /* \"#utility.yul\":44:51   */\n  0x00\n    /* \"#utility.yul\":84:126   */\n  0xffffffffffffffffffffffffffffffffffffffff\n    /* \"#utility.yul\":77:82   */\n  dup3\n    /* \"#utility.yul\":73:127   */\n  and\n    /* \"#utility.yul\":62:127   */\n  swap1\n  pop\n    /* \"#utility.yul\":7:133   */\n  swap2\n  swap1\n  pop\n  jump\t// out\n    /* \"#utility.yul\":139:235   */\ntag_14:\n    /* \"#utility.yul\":176:183   */\n  0x00\n    /* \"#utility.yul\":205:229   */\n  tag_19\n    /* \"#utility.yul\":223:228   */\n  dup3\n    /* \"#utility.yul\":205:229   */\n  tag_13\n  jump\t// in\ntag_19:\n    /* \"#utility.yul\":194:229   */\n  swap1\n  pop\n    /* \"#utility.yul\":139:235   */\n  swap2\n  swap1\n  pop\n  jump\t// out\n    /* \"#utility.yul\":241:359   */\ntag_15:\n    /* \"#utility.yul\":328:352   */\n  tag_21\n    /* \"#utility.yul\":346:351   */\n  dup2\n    /* \"#utility.yul\":328:352   */\n  tag_14\n  jump\t// in\ntag_21:\n    /* \"#utility.yul\":323:326   */\n  dup3\n    /* \"#utility.yul\":316:353   */\n  mstore\n    /* \"#utility.yul\":241:359   */\n  pop\n  pop\n  jump\t// out\n    /* \"#utility.yul\":365:587   */\ntag_7:\n    /* \"#utility.yul\":458:462   */\n  0x00\n    /* \"#utility.yul\":496:498   */\n  0x20\n    /* \"#utility.yul\":485:494   */\n  dup3\n    /* \"#utility.yul\":481:499   */\n  add\n    /* \"#utility.yul\":473:499   */\n  swap1\n  pop\n    /* \"#utility.yul\":509:580   */\n  tag_23\n    /* \"#utility.yul\":577:578   */\n  0x00\n    /* \"#utility.yul\":566:575   */\n  dup4\n    /* \"#utility.yul\":562:579   */\n  add\n    /* \"#utility.yul\":553:559   */\n  dup5\n    /* \"#utility.yul\":509:580   */\n  tag_15\n  jump\t// in\ntag_23:\n    /* \"#utility.yul\":365:587   */\n  swap3\n  swap2\n  pop\n  pop\n  jump\t// out\n    /* \"contracts/TokenSwap.sol\":415:5895  contract TokenSwap is Ownable {... */\ntag_11:\n  dataSize(sub_0)\n  dup1\n  dataOffset(sub_0)\n  0x00\n  codecopy\n  0x00\n  return\nstop\n\nsub_0: assembly {\n        /* \"contracts/TokenSwap.sol\":415:5895  contract TokenSwap is Ownable {... */\n      mstore(0x40, 0x80)\n      callvalue\n      dup1\n      iszero\n      tag_1\n      jumpi\n      revert(0x00, 0x00)\n    tag_1:\n      pop\n      jumpi(tag_2, lt(calldatasize, 0x04))\n      shr(0xe0, calldataload(0x00))\n      dup1\n      0xa201ccf6\n      gt\n      tag_11\n      jumpi\n      dup1\n      0xa201ccf6\n      eq\n      tag_7\n      jumpi\n      dup1\n      0xa4063dbc\n      eq\n      tag_8\n      jumpi\n      dup1\n      0xf2fde38b\n      eq\n      tag_9\n      jumpi\n      dup1\n      0xfe029156\n      eq\n      tag_10\n      jumpi\n      jump(tag_2)\n    tag_11:\n      dup1\n      0x55776b77\n      eq\n      tag_3\n      jumpi\n      dup1\n      0x5e7b647f\n      eq\n      tag_4\n      jumpi\n      dup1\n      0x715018a6\n      eq\n      tag_5\n      jumpi\n      dup1\n      0x8da5cb5b\n      eq\n      tag_6\n      jumpi\n    tag_2:\n      revert(0x00, 0x00)\n        /* \"contracts/TokenSwap.sol\":2774:3497  function addLiquidity(... */\n    tag_3:\n      tag_12\n      0x04\n      dup1\n      calldatasize\n      sub\n      dup2\n      add\n      swap1\n      tag_13\n      swap2\n      swap1\n      tag_14\n      jump\t// in\n    tag_13:\n      tag_15\n      jump\t// in\n    tag_12:\n      stop\n        /* \"contracts/TokenSwap.sol\":1862:2560  function initializePool(... */\n    tag_4:\n      tag_16\n      0x04\n      dup1\n      calldatasize\n      sub\n      dup2\n      add\n      swap1\n      tag_17\n      swap2\n      swap1\n      tag_18\n      jump\t// in\n    tag_17:\n      tag_19\n      jump\t// in\n    tag_16:\n      stop\n        /* \"@openzeppelin/contracts/access/Ownable.sol\":2293:2394  function renounceOwnership() public virtual onlyOwner {... */\n    tag_5:\n      tag_20\n      tag_21\n      jump\t// in\n    tag_20:\n      stop\n        /* \"@openzeppelin/contracts/access/Ownable.sol\":1638:1723  function owner() public view virtual returns (address) {... */\n    tag_6:\n      tag_22\n      tag_23\n      jump\t// in\n    tag_22:\n      mload(0x40)\n      tag_24\n      swap2\n      swap1\n      tag_25\n      jump\t// in\n    tag_24:\n      mload(0x40)\n      dup1\n      swap2\n      sub\n      swap1\n      return\n        /* \"contracts/TokenSwap.sol\":3675:4467  function removeLiquidity(... */\n    tag_7:\n      tag_26\n      0x04\n      dup1\n      calldatasize\n      sub\n      dup2\n      add\n      swap1\n      tag_27\n      swap2\n      swap1\n      tag_28\n      jump\t// in\n    tag_27:\n      tag_29\n      jump\t// in\n    tag_26:\n      stop\n        /* \"contracts/TokenSwap.sol\":835:881  mapping(address => LiquidityPool) public pools */\n    tag_8:\n      tag_30\n      0x04\n      dup1\n      calldatasize\n      sub\n      dup2\n      add\n      swap1\n      tag_31\n      swap2\n      swap1\n      tag_32\n      jump\t// in\n    tag_31:\n      tag_33\n      jump\t// in\n    tag_30:\n      mload(0x40)\n      tag_34\n      swap7\n      swap6\n      swap5\n      swap4\n      swap3\n      swap2\n      swap1\n      tag_35\n      jump\t// in\n    tag_34:\n      mload(0x40)\n      dup1\n      swap2\n      sub\n      swap1\n      return\n        /* \"@openzeppelin/contracts/access/Ownable.sol\":2543:2758  function transferOwnership(address newOwner) public virtual onlyOwner {... */\n    tag_9:\n      tag_36\n      0x04\n      dup1\n      calldatasize\n      sub\n      dup2\n      add\n      swap1\n      tag_37\n      swap2\n      swap1\n      tag_32\n      jump\t// in\n    tag_37:\n      tag_38\n      jump\t// in\n    tag_36:\n      stop\n        /* \"contracts/TokenSwap.sol\":4747:5893  function swap(... */\n    tag_10:\n      tag_39\n      0x04\n      dup1\n      calldatasize\n      sub\n      dup2\n      add\n      swap1\n      tag_40\n      swap2\n      swap1\n      tag_41\n      jump\t// in\n    tag_40:\n      tag_42\n      jump\t// in\n    tag_39:\n      stop\n        /* \"contracts/TokenSwap.sol\":2774:3497  function addLiquidity(... */\n    tag_15:\n        /* \"contracts/TokenSwap.sol\":2900:2926  LiquidityPool storage pool */\n      0x00\n        /* \"contracts/TokenSwap.sol\":2929:2934  pools */\n      0x01\n        /* \"contracts/TokenSwap.sol\":2929:2947  pools[poolAddress] */\n      0x00\n        /* \"contracts/TokenSwap.sol\":2935:2946  poolAddress */\n      dup6\n        /* \"contracts/TokenSwap.sol\":2929:2947  pools[poolAddress] */\n      0xffffffffffffffffffffffffffffffffffffffff\n      and\n      0xffffffffffffffffffffffffffffffffffffffff\n      and\n      dup2\n      mstore\n      0x20\n      add\n      swap1\n      dup2\n      mstore\n      0x20\n      add\n      0x00\n      keccak256\n        /* \"contracts/TokenSwap.sol\":2900:2947  LiquidityPool storage pool = pools[poolAddress] */\n      swap1\n      pop\n        /* \"contracts/TokenSwap.sol\":2988:2989  0 */\n      0x00\n        /* \"contracts/TokenSwap.sol\":2965:2990  pool.tokenA != address(0) */\n      0xffffffffffffffffffffffffffffffffffffffff\n      and\n        /* \"contracts/TokenSwap.sol\":2965:2969  pool */\n      dup2\n        /* \"contracts/TokenSwap.sol\":2965:2976  pool.tokenA */\n      0x00\n      add\n      0x00\n      swap1\n      sload\n      swap1\n      0x0100\n      exp\n      swap1\n      div\n      0xffffffffffffffffffffffffffffffffffffffff\n      and\n        /* \"contracts/TokenSwap.sol\":2965:2990  pool.tokenA != address(0) */\n      0xffffffffffffffffffffffffffffffffffffffff\n      and\n      sub\n        /* \"contracts/TokenSwap.sol\":2957:3014  require(pool.tokenA != address(0), \"Pool does not exist\") */\n      tag_44\n      jumpi\n      mload(0x40)\n      0x08c379a000000000000000000000000000000000000000000000000000000000\n      dup2\n      mstore\n      0x04\n      add\n      tag_45\n      swap1\n      tag_46\n      jump\t// in\n    tag_45:\n      mload(0x40)\n      dup1\n      swap2\n      sub\n      swap1\n      revert\n    tag_44:\n        /* \"contracts/TokenSwap.sol\":3032:3036  pool */\n      dup1\n        /* \"contracts/TokenSwap.sol\":3032:3043  pool.tokenA */\n      0x00\n      add\n      0x00\n      swap1\n      sload\n      swap1\n      0x0100\n      exp\n      swap1\n      div\n      0xffffffffffffffffffffffffffffffffffffffff\n      and\n        /* \"contracts/TokenSwap.sol\":3025:3057  IERC20(pool.tokenA).transferFrom */\n      0xffffffffffffffffffffffffffffffffffffffff\n      and\n      0x23b872dd\n        /* \"contracts/TokenSwap.sol\":3058:3068  msg.sender */\n      caller\n        /* \"contracts/TokenSwap.sol\":3070:3081  poolAddress */\n      dup7\n        /* \"contracts/TokenSwap.sol\":3083:3090  amountA */\n      dup7\n        /* \"contracts/TokenSwap.sol\":3025:3091  IERC20(pool.tokenA).transferFrom(msg.sender, poolAddress, amountA) */\n      mload(0x40)\n      dup5\n      0xffffffff\n      and\n      0xe0\n      shl\n      dup2\n      mstore\n      0x04\n      add\n      tag_47\n      swap4\n      swap3\n      swap2\n      swap1\n      tag_48\n      jump\t// in\n    tag_47:\n      0x20\n      mload(0x40)\n      dup1\n      dup4\n      sub\n      dup2\n      0x00\n      dup8\n      gas\n      call\n      iszero\n      dup1\n      iszero\n      tag_50\n      jumpi\n      returndatacopy(0x00, 0x00, returndatasize)\n      revert(0x00, returndatasize)\n    tag_50:\n      pop\n      pop\n      pop\n      pop\n      mload(0x40)\n      returndatasize\n      not(0x1f)\n      0x1f\n      dup3\n      add\n      and\n      dup3\n      add\n      dup1\n      0x40\n      mstore\n      pop\n      dup2\n      add\n      swap1\n      tag_51\n      swap2\n      swap1\n      tag_52\n      jump\t// in\n    tag_51:\n      pop\n        /* \"contracts/TokenSwap.sol\":3108:3112  pool */\n      dup1\n        /* \"contracts/TokenSwap.sol\":3108:3119  pool.tokenB */\n      0x01\n      add\n      0x00\n      swap1\n      sload\n      swap1\n      0x0100\n      exp\n      swap1\n      div\n      0xffffffffffffffffffffffffffffffffffffffff\n      and\n        /* \"contracts/TokenSwap.sol\":3101:3133  IERC20(pool.tokenB).transferFrom */\n      0xffffffffffffffffffffffffffffffffffffffff\n      and\n      0x23b872dd\n        /* \"contracts/TokenSwap.sol\":3134:3144  msg.sender */\n      caller\n        /* \"contracts/TokenSwap.sol\":3146:3157  poolAddress */\n      dup7\n        /* \"contracts/TokenSwap.sol\":3159:3166  amountB */\n      dup6\n        /* \"contracts/TokenSwap.sol\":3101:3167  IERC20(pool.tokenB).transferFrom(msg.sender, poolAddress, amountB) */\n      mload(0x40)\n      dup5\n      0xffffffff\n      and\n      0xe0\n      shl\n      dup2\n      mstore\n      0x04\n      add\n      tag_53\n      swap4\n      swap3\n      swap2\n      swap1\n      tag_48\n      jump\t// in\n    tag_53:\n      0x20\n      mload(0x40)\n      dup1\n      dup4\n      sub\n      dup2\n      0x00\n      dup8\n      gas\n      call\n      iszero\n      dup1\n      iszero\n      tag_55\n      jumpi\n      returndatacopy(0x00, 0x00, returndatasize)\n      revert(0x00, returndatasize)\n    tag_55:\n      pop\n      pop\n      pop\n      pop\n      mload(0x40)\n      returndatasize\n      not(0x1f)\n      0x1f\n      dup3\n      add\n      and\n      dup3\n      add\n      dup1\n      0x40\n      mstore\n      pop\n      dup2\n      add\n      swap1\n      tag_56\n      swap2\n      swap1\n      tag_52\n      jump\t// in\n    tag_56:\n      pop\n        /* \"contracts/TokenSwap.sol\":3178:3192  uint256 shares */\n      0x00\n        /* \"contracts/TokenSwap.sol\":3218:3219  0 */\n      0x00\n        /* \"contracts/TokenSwap.sol\":3195:3199  pool */\n      dup3\n        /* \"contracts/TokenSwap.sol\":3195:3214  pool.totalLiquidity */\n      0x02\n      add\n      sload\n        /* \"contracts/TokenSwap.sol\":3195:3219  pool.totalLiquidity == 0 */\n      eq\n        /* \"contracts/TokenSwap.sol\":3195:3329  pool.totalLiquidity == 0... */\n      tag_57\n      jumpi\n        /* \"contracts/TokenSwap.sol\":3321:3328  amountB */\n      dup3\n        /* \"contracts/TokenSwap.sol\":3311:3318  amountA */\n      dup5\n        /* \"contracts/TokenSwap.sol\":3311:3328  amountA + amountB */\n      tag_58\n      swap2\n      swap1\n      tag_59\n      jump\t// in\n    tag_58:\n        /* \"contracts/TokenSwap.sol\":3288:3292  pool */\n      dup3\n        /* \"contracts/TokenSwap.sol\":3288:3307  pool.totalLiquidity */\n      0x02\n      add\n      sload\n        /* \"contracts/TokenSwap.sol\":3277:3284  amountB */\n      dup5\n        /* \"contracts/TokenSwap.sol\":3267:3274  amountA */\n      dup7\n        /* \"contracts/TokenSwap.sol\":3267:3284  amountA + amountB */\n      tag_60\n      swap2\n      swap1\n      tag_59\n      jump\t// in\n    tag_60:\n        /* \"contracts/TokenSwap.sol\":3266:3307  (amountA + amountB) * pool.totalLiquidity */\n      tag_61\n      swap2\n      swap1\n      tag_62\n      jump\t// in\n    tag_61:\n        /* \"contracts/TokenSwap.sol\":3266:3329  (amountA + amountB) * pool.totalLiquidity / (amountA + amountB) */\n      tag_63\n      swap2\n      swap1\n      tag_64\n      jump\t// in\n    tag_63:\n        /* \"contracts/TokenSwap.sol\":3195:3329  pool.totalLiquidity == 0... */\n      jump(tag_65)\n    tag_57:\n        /* \"contracts/TokenSwap.sol\":3244:3251  amountB */\n      dup3\n        /* \"contracts/TokenSwap.sol\":3234:3241  amountA */\n      dup5\n        /* \"contracts/TokenSwap.sol\":3234:3251  amountA + amountB */\n      tag_66\n      swap2\n      swap1\n      tag_59\n      jump\t// in\n    tag_66:\n        /* \"contracts/TokenSwap.sol\":3195:3329  pool.totalLiquidity == 0... */\n    tag_65:\n        /* \"contracts/TokenSwap.sol\":3178:3329  uint256 shares = pool.totalLiquidity == 0... */\n      swap1\n      pop\n        /* \"contracts/TokenSwap.sol\":3363:3369  shares */\n      dup1\n        /* \"contracts/TokenSwap.sol\":3340:3344  pool */\n      dup3\n        /* \"contracts/TokenSwap.sol\":3340:3359  pool.totalLiquidity */\n      0x02\n      add\n      0x00\n        /* \"contracts/TokenSwap.sol\":3340:3369  pool.totalLiquidity += shares */\n      dup3\n      dup3\n      sload\n      tag_67\n      swap2\n      swap1\n      tag_59\n      jump\t// in\n    tag_67:\n      swap3\n      pop\n      pop\n      dup2\n      swap1\n      sstore\n      pop\n        /* \"contracts/TokenSwap.sol\":3402:3417  block.timestamp */\n      timestamp\n        /* \"contracts/TokenSwap.sol\":3379:3383  pool */\n      dup3\n        /* \"contracts/TokenSwap.sol\":3379:3399  pool.lastDepositTime */\n      0x05\n      add\n        /* \"contracts/TokenSwap.sol\":3379:3417  pool.lastDepositTime = block.timestamp */\n      dup2\n      swap1\n      sstore\n      pop\n        /* \"contracts/TokenSwap.sol\":3461:3471  msg.sender */\n      caller\n        /* \"contracts/TokenSwap.sol\":3433:3490  LiquidityAdded(poolAddress, msg.sender, amountA, amountB) */\n      0xffffffffffffffffffffffffffffffffffffffff\n      and\n        /* \"contracts/TokenSwap.sol\":3448:3459  poolAddress */\n      dup6\n        /* \"contracts/TokenSwap.sol\":3433:3490  LiquidityAdded(poolAddress, msg.sender, amountA, amountB) */\n      0xffffffffffffffffffffffffffffffffffffffff\n      and\n      0x36f3b2e1a21c19137dd82ec243b0708a1d26b3d1fa1dc49c44c4c366a5878138\n        /* \"contracts/TokenSwap.sol\":3473:3480  amountA */\n      dup7\n        /* \"contracts/TokenSwap.sol\":3482:3489  amountB */\n      dup7\n        /* \"contracts/TokenSwap.sol\":3433:3490  LiquidityAdded(poolAddress, msg.sender, amountA, amountB) */\n      mload(0x40)\n      tag_68\n      swap3\n      swap2\n      swap1\n      tag_69\n      jump\t// in\n    tag_68:\n      mload(0x40)\n      dup1\n      swap2\n      sub\n      swap1\n      log3\n        /* \"contracts/TokenSwap.sol\":2890:3497  {... */\n      pop\n      pop\n        /* \"contracts/TokenSwap.sol\":2774:3497  function addLiquidity(... */\n      pop\n      pop\n      pop\n      jump\t// out\n        /* \"contracts/TokenSwap.sol\":1862:2560  function initializePool(... */\n    tag_19:\n        /* \"@openzeppelin/contracts/access/Ownable.sol\":1531:1544  _checkOwner() */\n      tag_71\n        /* \"@openzeppelin/contracts/access/Ownable.sol\":1531:1542  _checkOwner */\n      tag_72\n        /* \"@openzeppelin/contracts/access/Ownable.sol\":1531:1544  _checkOwner() */\n      jump\t// in\n    tag_71:\n        /* \"contracts/TokenSwap.sol\":2087:2091  1000 */\n      0x03e8\n        /* \"contracts/TokenSwap.sol\":2070:2083  feePercentage */\n      dup3\n        /* \"contracts/TokenSwap.sol\":2070:2091  feePercentage <= 1000 */\n      gt\n      iszero\n        /* \"contracts/TokenSwap.sol\":2062:2119  require(feePercentage <= 1000, \"Fee percentage too high\") */\n      tag_74\n      jumpi\n      mload(0x40)\n      0x08c379a000000000000000000000000000000000000000000000000000000000\n      dup2\n      mstore\n      0x04\n      add\n      tag_75\n      swap1\n      tag_76\n      jump\t// in\n    tag_75:\n      mload(0x40)\n      dup1\n      swap2\n      sub\n      swap1\n      revert\n    tag_74:\n        /* \"contracts/TokenSwap.sol\":2174:2175  0 */\n      0x00\n        /* \"contracts/TokenSwap.sol\":2137:2176  pools[poolAddress].tokenA == address(0) */\n      0xffffffffffffffffffffffffffffffffffffffff\n      and\n        /* \"contracts/TokenSwap.sol\":2137:2142  pools */\n      0x01\n        /* \"contracts/TokenSwap.sol\":2137:2155  pools[poolAddress] */\n      0x00\n        /* \"contracts/TokenSwap.sol\":2143:2154  poolAddress */\n      dup8\n        /* \"contracts/TokenSwap.sol\":2137:2155  pools[poolAddress] */\n      0xffffffffffffffffffffffffffffffffffffffff\n      and\n      0xffffffffffffffffffffffffffffffffffffffff\n      and\n      dup2\n      mstore\n      0x20\n      add\n      swap1\n      dup2\n      mstore\n      0x20\n      add\n      0x00\n      keccak256\n        /* \"contracts/TokenSwap.sol\":2137:2162  pools[poolAddress].tokenA */\n      0x00\n      add\n      0x00\n      swap1\n      sload\n      swap1\n      0x0100\n      exp\n      swap1\n      div\n      0xffffffffffffffffffffffffffffffffffffffff\n      and\n        /* \"contracts/TokenSwap.sol\":2137:2176  pools[poolAddress].tokenA == address(0) */\n      0xffffffffffffffffffffffffffffffffffffffff\n      and\n      eq\n        /* \"contracts/TokenSwap.sol\":2129:2200  require(pools[poolAddress].tokenA == address(0), \"Pool already exists\") */\n      tag_77\n      jumpi\n      mload(0x40)\n      0x08c379a000000000000000000000000000000000000000000000000000000000\n      dup2\n      mstore\n      0x04\n      add\n      tag_78\n      swap1\n      tag_79\n      jump\t// in\n    tag_78:\n      mload(0x40)\n      dup1\n      swap2\n      sub\n      swap1\n      revert\n    tag_77:\n        /* \"contracts/TokenSwap.sol\":2232:2478  LiquidityPool({... */\n      mload(0x40)\n      dup1\n      0xc0\n      add\n      0x40\n      mstore\n      dup1\n        /* \"contracts/TokenSwap.sol\":2268:2274  tokenA */\n      dup6\n        /* \"contracts/TokenSwap.sol\":2232:2478  LiquidityPool({... */\n      0xffffffffffffffffffffffffffffffffffffffff\n      and\n      dup2\n      mstore\n      0x20\n      add\n        /* \"contracts/TokenSwap.sol\":2296:2302  tokenB */\n      dup5\n        /* \"contracts/TokenSwap.sol\":2232:2478  LiquidityPool({... */\n      0xffffffffffffffffffffffffffffffffffffffff\n      and\n      dup2\n      mstore\n      0x20\n      add\n        /* \"contracts/TokenSwap.sol\":2332:2333  0 */\n      0x00\n        /* \"contracts/TokenSwap.sol\":2232:2478  LiquidityPool({... */\n      dup2\n      mstore\n      0x20\n      add\n        /* \"contracts/TokenSwap.sol\":2362:2375  feePercentage */\n      dup4\n        /* \"contracts/TokenSwap.sol\":2232:2478  LiquidityPool({... */\n      dup2\n      mstore\n      0x20\n      add\n        /* \"contracts/TokenSwap.sol\":2406:2421  adminFeeAccount */\n      dup3\n        /* \"contracts/TokenSwap.sol\":2232:2478  LiquidityPool({... */\n      0xffffffffffffffffffffffffffffffffffffffff\n      and\n      dup2\n      mstore\n      0x20\n      add\n        /* \"contracts/TokenSwap.sol\":2452:2467  block.timestamp */\n      timestamp\n        /* \"contracts/TokenSwap.sol\":2232:2478  LiquidityPool({... */\n      dup2\n      mstore\n      pop\n        /* \"contracts/TokenSwap.sol\":2211:2216  pools */\n      0x01\n        /* \"contracts/TokenSwap.sol\":2211:2229  pools[poolAddress] */\n      0x00\n        /* \"contracts/TokenSwap.sol\":2217:2228  poolAddress */\n      dup8\n        /* \"contracts/TokenSwap.sol\":2211:2229  pools[poolAddress] */\n      0xffffffffffffffffffffffffffffffffffffffff\n      and\n      0xffffffffffffffffffffffffffffffffffffffff\n      and\n      dup2\n      mstore\n      0x20\n      add\n      swap1\n      dup2\n      mstore\n      0x20\n      add\n      0x00\n      keccak256\n        /* \"contracts/TokenSwap.sol\":2211:2478  pools[poolAddress] = LiquidityPool({... */\n      0x00\n      dup3\n      add\n      mload\n      dup2\n      0x00\n      add\n      exp(0x0100, 0x00)\n      dup2\n      sload\n      dup2\n      0xffffffffffffffffffffffffffffffffffffffff\n      mul\n      not\n      and\n      swap1\n      dup4\n      0xffffffffffffffffffffffffffffffffffffffff\n      and\n      mul\n      or\n      swap1\n      sstore\n      pop\n      0x20\n      dup3\n      add\n      mload\n      dup2\n      0x01\n      add\n      exp(0x0100, 0x00)\n      dup2\n      sload\n      dup2\n      0xffffffffffffffffffffffffffffffffffffffff\n      mul\n      not\n      and\n      swap1\n      dup4\n      0xffffffffffffffffffffffffffffffffffffffff\n      and\n      mul\n      or\n      swap1\n      sstore\n      pop\n      0x40\n      dup3\n      add\n      mload\n      dup2\n      0x02\n      add\n      sstore\n      0x60\n      dup3\n      add\n      mload\n      dup2\n      0x03\n      add\n      sstore\n      0x80\n      dup3\n      add\n      mload\n      dup2\n      0x04\n      add\n      exp(0x0100, 0x00)\n      dup2\n      sload\n      dup2\n      0xffffffffffffffffffffffffffffffffffffffff\n      mul\n      not\n      and\n      swap1\n      dup4\n      0xffffffffffffffffffffffffffffffffffffffff\n      and\n      mul\n      or\n      swap1\n      sstore\n      pop\n      0xa0\n      dup3\n      add\n      mload\n      dup2\n      0x05\n      add\n      sstore\n      swap1\n      pop\n      pop\n        /* \"contracts/TokenSwap.sol\":2531:2537  tokenB */\n      dup3\n        /* \"contracts/TokenSwap.sol\":2494:2553  PoolInitialized(poolAddress, tokenA, tokenB, feePercentage) */\n      0xffffffffffffffffffffffffffffffffffffffff\n      and\n        /* \"contracts/TokenSwap.sol\":2523:2529  tokenA */\n      dup5\n        /* \"contracts/TokenSwap.sol\":2494:2553  PoolInitialized(poolAddress, tokenA, tokenB, feePercentage) */\n      0xffffffffffffffffffffffffffffffffffffffff\n      and\n        /* \"contracts/TokenSwap.sol\":2510:2521  poolAddress */\n      dup7\n        /* \"contracts/TokenSwap.sol\":2494:2553  PoolInitialized(poolAddress, tokenA, tokenB, feePercentage) */\n      0xffffffffffffffffffffffffffffffffffffffff\n      and\n      0x886ffed95392e2f52907cb2236f5a7da7760e3b971f5df0775067a2bc8647654\n        /* \"contracts/TokenSwap.sol\":2539:2552  feePercentage */\n      dup6\n        /* \"contracts/TokenSwap.sol\":2494:2553  PoolInitialized(poolAddress, tokenA, tokenB, feePercentage) */\n      mload(0x40)\n      tag_80\n      swap2\n      swap1\n      tag_81\n      jump\t// in\n    tag_80:\n      mload(0x40)\n      dup1\n      swap2\n      sub\n      swap1\n      log4\n        /* \"contracts/TokenSwap.sol\":1862:2560  function initializePool(... */\n      pop\n      pop\n      pop\n      pop\n      pop\n      jump\t// out\n        /* \"@openzeppelin/contracts/access/Ownable.sol\":2293:2394  function renounceOwnership() public virtual onlyOwner {... */\n    tag_21:\n        /* \"@openzeppelin/contracts/access/Ownable.sol\":1531:1544  _checkOwner() */\n      tag_83\n        /* \"@openzeppelin/contracts/access/Ownable.sol\":1531:1542  _checkOwner */\n      tag_72\n        /* \"@openzeppelin/contracts/access/Ownable.sol\":1531:1544  _checkOwner() */\n      jump\t// in\n    tag_83:\n        /* \"@openzeppelin/contracts/access/Ownable.sol\":2357:2387  _transferOwnership(address(0)) */\n      tag_85\n        /* \"@openzeppelin/contracts/access/Ownable.sol\":2384:2385  0 */\n      0x00\n        /* \"@openzeppelin/contracts/access/Ownable.sol\":2357:2375  _transferOwnership */\n      tag_86\n        /* \"@openzeppelin/contracts/access/Ownable.sol\":2357:2387  _transferOwnership(address(0)) */\n      jump\t// in\n    tag_85:\n        /* \"@openzeppelin/contracts/access/Ownable.sol\":2293:2394  function renounceOwnership() public virtual onlyOwner {... */\n      jump\t// out\n        /* \"@openzeppelin/contracts/access/Ownable.sol\":1638:1723  function owner() public view virtual returns (address) {... */\n    tag_23:\n        /* \"@openzeppelin/contracts/access/Ownable.sol\":1684:1691  address */\n      0x00\n        /* \"@openzeppelin/contracts/access/Ownable.sol\":1710:1716  _owner */\n      0x00\n      0x00\n      swap1\n      sload\n      swap1\n      0x0100\n      exp\n      swap1\n      div\n      0xffffffffffffffffffffffffffffffffffffffff\n      and\n        /* \"@openzeppelin/contracts/access/Ownable.sol\":1703:1716  return _owner */\n      swap1\n      pop\n        /* \"@openzeppelin/contracts/access/Ownable.sol\":1638:1723  function owner() public view virtual returns (address) {... */\n      swap1\n      jump\t// out\n        /* \"contracts/TokenSwap.sol\":3675:4467  function removeLiquidity(... */\n    tag_29:\n        /* \"contracts/TokenSwap.sol\":3778:3804  LiquidityPool storage pool */\n      0x00\n        /* \"contracts/TokenSwap.sol\":3807:3812  pools */\n      0x01\n        /* \"contracts/TokenSwap.sol\":3807:3825  pools[poolAddress] */\n      0x00\n        /* \"contracts/TokenSwap.sol\":3813:3824  poolAddress */\n      dup5\n        /* \"contracts/TokenSwap.sol\":3807:3825  pools[poolAddress] */\n      0xffffffffffffffffffffffffffffffffffffffff\n      and\n      0xffffffffffffffffffffffffffffffffffffffff\n      and\n      dup2\n      mstore\n      0x20\n      add\n      swap1\n      dup2\n      mstore\n      0x20\n      add\n      0x00\n      keccak256\n        /* \"contracts/TokenSwap.sol\":3778:3825  LiquidityPool storage pool = pools[poolAddress] */\n      swap1\n      pop\n        /* \"contracts/TokenSwap.sol\":3866:3867  0 */\n      0x00\n        /* \"contracts/TokenSwap.sol\":3843:3868  pool.tokenA != address(0) */\n      0xffffffffffffffffffffffffffffffffffffffff\n      and\n        /* \"contracts/TokenSwap.sol\":3843:3847  pool */\n      dup2\n        /* \"contracts/TokenSwap.sol\":3843:3854  pool.tokenA */\n      0x00\n      add\n      0x00\n      swap1\n      sload\n      swap1\n      0x0100\n      exp\n      swap1\n      div\n      0xffffffffffffffffffffffffffffffffffffffff\n      and\n        /* \"contracts/TokenSwap.sol\":3843:3868  pool.tokenA != address(0) */\n      0xffffffffffffffffffffffffffffffffffffffff\n      and\n      sub\n        /* \"contracts/TokenSwap.sol\":3835:3892  require(pool.tokenA != address(0), \"Pool does not exist\") */\n      tag_89\n      jumpi\n      mload(0x40)\n      0x08c379a000000000000000000000000000000000000000000000000000000000\n      dup2\n      mstore\n      0x04\n      add\n      tag_90\n      swap1\n      tag_46\n      jump\t// in\n    tag_90:\n      mload(0x40)\n      dup1\n      swap2\n      sub\n      swap1\n      revert\n    tag_89:\n        /* \"contracts/TokenSwap.sol\":3952:3955  300 */\n      0x012c\n        /* \"contracts/TokenSwap.sol\":3929:3933  pool */\n      dup2\n        /* \"contracts/TokenSwap.sol\":3929:3949  pool.lastDepositTime */\n      0x05\n      add\n      sload\n        /* \"contracts/TokenSwap.sol\":3929:3955  pool.lastDepositTime + 300 */\n      tag_91\n      swap2\n      swap1\n      tag_59\n      jump\t// in\n    tag_91:\n        /* \"contracts/TokenSwap.sol\":3910:3925  block.timestamp */\n      timestamp\n        /* \"contracts/TokenSwap.sol\":3910:3955  block.timestamp >= pool.lastDepositTime + 300 */\n      lt\n      iszero\n        /* \"contracts/TokenSwap.sol\":3902:3979  require(block.timestamp >= pool.lastDepositTime + 300, \"Withdrawal too soon\") */\n      tag_92\n      jumpi\n      mload(0x40)\n      0x08c379a000000000000000000000000000000000000000000000000000000000\n      dup2\n      mstore\n      0x04\n      add\n      tag_93\n      swap1\n      tag_94\n      jump\t// in\n    tag_93:\n      mload(0x40)\n      dup1\n      swap2\n      sub\n      swap1\n      revert\n    tag_92:\n        /* \"contracts/TokenSwap.sol\":3990:4008  uint256 proportion */\n      0x00\n        /* \"contracts/TokenSwap.sol\":4027:4031  pool */\n      dup2\n        /* \"contracts/TokenSwap.sol\":4027:4046  pool.totalLiquidity */\n      0x02\n      add\n      sload\n        /* \"contracts/TokenSwap.sol\":4020:4024  1e18 */\n      0x0de0b6b3a7640000\n        /* \"contracts/TokenSwap.sol\":4011:4017  shares */\n      dup5\n        /* \"contracts/TokenSwap.sol\":4011:4024  shares * 1e18 */\n      tag_95\n      swap2\n      swap1\n      tag_62\n      jump\t// in\n    tag_95:\n        /* \"contracts/TokenSwap.sol\":4011:4046  shares * 1e18 / pool.totalLiquidity */\n      tag_96\n      swap2\n      swap1\n      tag_64\n      jump\t// in\n    tag_96:\n        /* \"contracts/TokenSwap.sol\":3990:4046  uint256 proportion = shares * 1e18 / pool.totalLiquidity */\n      swap1\n      pop\n        /* \"contracts/TokenSwap.sol\":4056:4071  uint256 amountA */\n      0x00\n        /* \"contracts/TokenSwap.sol\":4132:4136  1e18 */\n      0x0de0b6b3a7640000\n        /* \"contracts/TokenSwap.sol\":4094:4098  pool */\n      dup4\n        /* \"contracts/TokenSwap.sol\":4094:4105  pool.tokenA */\n      0x00\n      add\n      0x00\n      swap1\n      sload\n      swap1\n      0x0100\n      exp\n      swap1\n      div\n      0xffffffffffffffffffffffffffffffffffffffff\n      and\n        /* \"contracts/TokenSwap.sol\":4087:4116  IERC20(pool.tokenA).balanceOf */\n      0xffffffffffffffffffffffffffffffffffffffff\n      and\n      0x70a08231\n        /* \"contracts/TokenSwap.sol\":4117:4128  poolAddress */\n      dup8\n        /* \"contracts/TokenSwap.sol\":4087:4129  IERC20(pool.tokenA).balanceOf(poolAddress) */\n      mload(0x40)\n      dup3\n      0xffffffff\n      and\n      0xe0\n      shl\n      dup2\n      mstore\n      0x04\n      add\n      tag_97\n      swap2\n      swap1\n      tag_25\n      jump\t// in\n    tag_97:\n      0x20\n      mload(0x40)\n      dup1\n      dup4\n      sub\n      dup2\n      dup7\n      gas\n      staticcall\n      iszero\n      dup1\n      iszero\n      tag_99\n      jumpi\n      returndatacopy(0x00, 0x00, returndatasize)\n      revert(0x00, returndatasize)\n    tag_99:\n      pop\n      pop\n      pop\n      pop\n      mload(0x40)\n      returndatasize\n      not(0x1f)\n      0x1f\n      dup3\n      add\n      and\n      dup3\n      add\n      dup1\n      0x40\n      mstore\n      pop\n      dup2\n      add\n      swap1\n      tag_100\n      swap2\n      swap1\n      tag_101\n      jump\t// in\n    tag_100:\n        /* \"contracts/TokenSwap.sol\":4074:4084  proportion */\n      dup4\n        /* \"contracts/TokenSwap.sol\":4074:4129  proportion * IERC20(pool.tokenA).balanceOf(poolAddress) */\n      tag_102\n      swap2\n      swap1\n      tag_62\n      jump\t// in\n    tag_102:\n        /* \"contracts/TokenSwap.sol\":4074:4136  proportion * IERC20(pool.tokenA).balanceOf(poolAddress) / 1e18 */\n      tag_103\n      swap2\n      swap1\n      tag_64\n      jump\t// in\n    tag_103:\n        /* \"contracts/TokenSwap.sol\":4056:4136  uint256 amountA = proportion * IERC20(pool.tokenA).balanceOf(poolAddress) / 1e18 */\n      swap1\n      pop\n        /* \"contracts/TokenSwap.sol\":4146:4161  uint256 amountB */\n      0x00\n        /* \"contracts/TokenSwap.sol\":4222:4226  1e18 */\n      0x0de0b6b3a7640000\n        /* \"contracts/TokenSwap.sol\":4184:4188  pool */\n      dup5\n        /* \"contracts/TokenSwap.sol\":4184:4195  pool.tokenB */\n      0x01\n      add\n      0x00\n      swap1\n      sload\n      swap1\n      0x0100\n      exp\n      swap1\n      div\n      0xffffffffffffffffffffffffffffffffffffffff\n      and\n        /* \"contracts/TokenSwap.sol\":4177:4206  IERC20(pool.tokenB).balanceOf */\n      0xffffffffffffffffffffffffffffffffffffffff\n      and\n      0x70a08231\n        /* \"contracts/TokenSwap.sol\":4207:4218  poolAddress */\n      dup9\n        /* \"contracts/TokenSwap.sol\":4177:4219  IERC20(pool.tokenB).balanceOf(poolAddress) */\n      mload(0x40)\n      dup3\n      0xffffffff\n      and\n      0xe0\n      shl\n      dup2\n      mstore\n      0x04\n      add\n      tag_104\n      swap2\n      swap1\n      tag_25\n      jump\t// in\n    tag_104:\n      0x20\n      mload(0x40)\n      dup1\n      dup4\n      sub\n      dup2\n      dup7\n      gas\n      staticcall\n      iszero\n      dup1\n      iszero\n      tag_106\n      jumpi\n      returndatacopy(0x00, 0x00, returndatasize)\n      revert(0x00, returndatasize)\n    tag_106:\n      pop\n      pop\n      pop\n      pop\n      mload(0x40)\n      returndatasize\n      not(0x1f)\n      0x1f\n      dup3\n      add\n      and\n      dup3\n      add\n      dup1\n      0x40\n      mstore\n      pop\n      dup2\n      add\n      swap1\n      tag_107\n      swap2\n      swap1\n      tag_101\n      jump\t// in\n    tag_107:\n        /* \"contracts/TokenSwap.sol\":4164:4174  proportion */\n      dup5\n        /* \"contracts/TokenSwap.sol\":4164:4219  proportion * IERC20(pool.tokenB).balanceOf(poolAddress) */\n      tag_108\n      swap2\n      swap1\n      tag_62\n      jump\t// in\n    tag_108:\n        /* \"contracts/TokenSwap.sol\":4164:4226  proportion * IERC20(pool.tokenB).balanceOf(poolAddress) / 1e18 */\n      tag_109\n      swap2\n      swap1\n      tag_64\n      jump\t// in\n    tag_109:\n        /* \"contracts/TokenSwap.sol\":4146:4226  uint256 amountB = proportion * IERC20(pool.tokenB).balanceOf(poolAddress) / 1e18 */\n      swap1\n      pop\n        /* \"contracts/TokenSwap.sol\":4260:4266  shares */\n      dup5\n        /* \"contracts/TokenSwap.sol\":4237:4241  pool */\n      dup5\n        /* \"contracts/TokenSwap.sol\":4237:4256  pool.totalLiquidity */\n      0x02\n      add\n      0x00\n        /* \"contracts/TokenSwap.sol\":4237:4266  pool.totalLiquidity -= shares */\n      dup3\n      dup3\n      sload\n      tag_110\n      swap2\n      swap1\n      tag_111\n      jump\t// in\n    tag_110:\n      swap3\n      pop\n      pop\n      dup2\n      swap1\n      sstore\n      pop\n        /* \"contracts/TokenSwap.sol\":4284:4288  pool */\n      dup4\n        /* \"contracts/TokenSwap.sol\":4284:4295  pool.tokenA */\n      0x00\n      add\n      0x00\n      swap1\n      sload\n      swap1\n      0x0100\n      exp\n      swap1\n      div\n      0xffffffffffffffffffffffffffffffffffffffff\n      and\n        /* \"contracts/TokenSwap.sol\":4277:4305  IERC20(pool.tokenA).transfer */\n      0xffffffffffffffffffffffffffffffffffffffff\n      and\n      0xa9059cbb\n        /* \"contracts/TokenSwap.sol\":4306:4316  msg.sender */\n      caller\n        /* \"contracts/TokenSwap.sol\":4318:4325  amountA */\n      dup5\n        /* \"contracts/TokenSwap.sol\":4277:4326  IERC20(pool.tokenA).transfer(msg.sender, amountA) */\n      mload(0x40)\n      dup4\n      0xffffffff\n      and\n      0xe0\n      shl\n      dup2\n      mstore\n      0x04\n      add\n      tag_112\n      swap3\n      swap2\n      swap1\n      tag_113\n      jump\t// in\n    tag_112:\n      0x20\n      mload(0x40)\n      dup1\n      dup4\n      sub\n      dup2\n      0x00\n      dup8\n      gas\n      call\n      iszero\n      dup1\n      iszero\n      tag_115\n      jumpi\n      returndatacopy(0x00, 0x00, returndatasize)\n      revert(0x00, returndatasize)\n    tag_115:\n      pop\n      pop\n      pop\n      pop\n      mload(0x40)\n      returndatasize\n      not(0x1f)\n      0x1f\n      dup3\n      add\n      and\n      dup3\n      add\n      dup1\n      0x40\n      mstore\n      pop\n      dup2\n      add\n      swap1\n      tag_116\n      swap2\n      swap1\n      tag_52\n      jump\t// in\n    tag_116:\n      pop\n        /* \"contracts/TokenSwap.sol\":4343:4347  pool */\n      dup4\n        /* \"contracts/TokenSwap.sol\":4343:4354  pool.tokenB */\n      0x01\n      add\n      0x00\n      swap1\n      sload\n      swap1\n      0x0100\n      exp\n      swap1\n      div\n      0xffffffffffffffffffffffffffffffffffffffff\n      and\n        /* \"contracts/TokenSwap.sol\":4336:4364  IERC20(pool.tokenB).transfer */\n      0xffffffffffffffffffffffffffffffffffffffff\n      and\n      0xa9059cbb\n        /* \"contracts/TokenSwap.sol\":4365:4375  msg.sender */\n      caller\n        /* \"contracts/TokenSwap.sol\":4377:4384  amountB */\n      dup4\n        /* \"contracts/TokenSwap.sol\":4336:4385  IERC20(pool.tokenB).transfer(msg.sender, amountB) */\n      mload(0x40)\n      dup4\n      0xffffffff\n      and\n      0xe0\n      shl\n      dup2\n      mstore\n      0x04\n      add\n      tag_117\n      swap3\n      swap2\n      swap1\n      tag_113\n      jump\t// in\n    tag_117:\n      0x20\n      mload(0x40)\n      dup1\n      dup4\n      sub\n      dup2\n      0x00\n      dup8\n      gas\n      call\n      iszero\n      dup1\n      iszero\n      tag_119\n      jumpi\n      returndatacopy(0x00, 0x00, returndatasize)\n      revert(0x00, returndatasize)\n    tag_119:\n      pop\n      pop\n      pop\n      pop\n      mload(0x40)\n      returndatasize\n      not(0x1f)\n      0x1f\n      dup3\n      add\n      and\n      dup3\n      add\n      dup1\n      0x40\n      mstore\n      pop\n      dup2\n      add\n      swap1\n      tag_120\n      swap2\n      swap1\n      tag_52\n      jump\t// in\n    tag_120:\n      pop\n        /* \"contracts/TokenSwap.sol\":4431:4441  msg.sender */\n      caller\n        /* \"contracts/TokenSwap.sol\":4401:4460  LiquidityRemoved(poolAddress, msg.sender, amountA, amountB) */\n      0xffffffffffffffffffffffffffffffffffffffff\n      and\n        /* \"contracts/TokenSwap.sol\":4418:4429  poolAddress */\n      dup7\n        /* \"contracts/TokenSwap.sol\":4401:4460  LiquidityRemoved(poolAddress, msg.sender, amountA, amountB) */\n      0xffffffffffffffffffffffffffffffffffffffff\n      and\n      0x3b5c196aff80bb96c03b41c96906b66827014de931d1b36e0ede6ee8caeb4bf9\n        /* \"contracts/TokenSwap.sol\":4443:4450  amountA */\n      dup5\n        /* \"contracts/TokenSwap.sol\":4452:4459  amountB */\n      dup5\n        /* \"contracts/TokenSwap.sol\":4401:4460  LiquidityRemoved(poolAddress, msg.sender, amountA, amountB) */\n      mload(0x40)\n      tag_121\n      swap3\n      swap2\n      swap1\n      tag_69\n      jump\t// in\n    tag_121:\n      mload(0x40)\n      dup1\n      swap2\n      sub\n      swap1\n      log3\n        /* \"contracts/TokenSwap.sol\":3768:4467  {... */\n      pop\n      pop\n      pop\n      pop\n        /* \"contracts/TokenSwap.sol\":3675:4467  function removeLiquidity(... */\n      pop\n      pop\n      jump\t// out\n        /* \"contracts/TokenSwap.sol\":835:881  mapping(address => LiquidityPool) public pools */\n    tag_33:\n      mstore(0x20, 0x01)\n      dup1\n      0x00\n      mstore\n      keccak256(0x00, 0x40)\n      0x00\n      swap2\n      pop\n      swap1\n      pop\n      dup1\n      0x00\n      add\n      0x00\n      swap1\n      sload\n      swap1\n      0x0100\n      exp\n      swap1\n      div\n      0xffffffffffffffffffffffffffffffffffffffff\n      and\n      swap1\n      dup1\n      0x01\n      add\n      0x00\n      swap1\n      sload\n      swap1\n      0x0100\n      exp\n      swap1\n      div\n      0xffffffffffffffffffffffffffffffffffffffff\n      and\n      swap1\n      dup1\n      0x02\n      add\n      sload\n      swap1\n      dup1\n      0x03\n      add\n      sload\n      swap1\n      dup1\n      0x04\n      add\n      0x00\n      swap1\n      sload\n      swap1\n      0x0100\n      exp\n      swap1\n      div\n      0xffffffffffffffffffffffffffffffffffffffff\n      and\n      swap1\n      dup1\n      0x05\n      add\n      sload\n      swap1\n      pop\n      dup7\n      jump\t// out\n        /* \"@openzeppelin/contracts/access/Ownable.sol\":2543:2758  function transferOwnership(address newOwner) public virtual onlyOwner {... */\n    tag_38:\n        /* \"@openzeppelin/contracts/access/Ownable.sol\":1531:1544  _checkOwner() */\n      tag_123\n        /* \"@openzeppelin/contracts/access/Ownable.sol\":1531:1542  _checkOwner */\n      tag_72\n        /* \"@openzeppelin/contracts/access/Ownable.sol\":1531:1544  _checkOwner() */\n      jump\t// in\n    tag_123:\n        /* \"@openzeppelin/contracts/access/Ownable.sol\":2647:2648  0 */\n      0x00\n        /* \"@openzeppelin/contracts/access/Ownable.sol\":2627:2649  newOwner == address(0) */\n      0xffffffffffffffffffffffffffffffffffffffff\n      and\n        /* \"@openzeppelin/contracts/access/Ownable.sol\":2627:2635  newOwner */\n      dup2\n        /* \"@openzeppelin/contracts/access/Ownable.sol\":2627:2649  newOwner == address(0) */\n      0xffffffffffffffffffffffffffffffffffffffff\n      and\n      sub\n        /* \"@openzeppelin/contracts/access/Ownable.sol\":2623:2714  if (newOwner == address(0)) {... */\n      tag_125\n      jumpi\n        /* \"@openzeppelin/contracts/access/Ownable.sol\":2700:2701  0 */\n      0x00\n        /* \"@openzeppelin/contracts/access/Ownable.sol\":2672:2703  OwnableInvalidOwner(address(0)) */\n      mload(0x40)\n      0x1e4fbdf700000000000000000000000000000000000000000000000000000000\n      dup2\n      mstore\n      0x04\n      add\n      tag_126\n      swap2\n      swap1\n      tag_25\n      jump\t// in\n    tag_126:\n      mload(0x40)\n      dup1\n      swap2\n      sub\n      swap1\n      revert\n        /* \"@openzeppelin/contracts/access/Ownable.sol\":2623:2714  if (newOwner == address(0)) {... */\n    tag_125:\n        /* \"@openzeppelin/contracts/access/Ownable.sol\":2723:2751  _transferOwnership(newOwner) */\n      tag_127\n        /* \"@openzeppelin/contracts/access/Ownable.sol\":2742:2750  newOwner */\n      dup2\n        /* \"@openzeppelin/contracts/access/Ownable.sol\":2723:2741  _transferOwnership */\n      tag_86\n        /* \"@openzeppelin/contracts/access/Ownable.sol\":2723:2751  _transferOwnership(newOwner) */\n      jump\t// in\n    tag_127:\n        /* \"@openzeppelin/contracts/access/Ownable.sol\":2543:2758  function transferOwnership(address newOwner) public virtual onlyOwner {... */\n      pop\n      jump\t// out\n        /* \"contracts/TokenSwap.sol\":4747:5893  function swap(... */\n    tag_42:\n        /* \"contracts/TokenSwap.sol\":4893:4919  LiquidityPool storage pool */\n      0x00\n        /* \"contracts/TokenSwap.sol\":4922:4927  pools */\n      0x01\n        /* \"contracts/TokenSwap.sol\":4922:4940  pools[poolAddress] */\n      0x00\n        /* \"contracts/TokenSwap.sol\":4928:4939  poolAddress */\n      dup7\n        /* \"contracts/TokenSwap.sol\":4922:4940  pools[poolAddress] */\n      0xffffffffffffffffffffffffffffffffffffffff\n      and\n      0xffffffffffffffffffffffffffffffffffffffff\n      and\n      dup2\n      mstore\n      0x20\n      add\n      swap1\n      dup2\n      mstore\n      0x20\n      add\n      0x00\n      keccak256\n        /* \"contracts/TokenSwap.sol\":4893:4940  LiquidityPool storage pool = pools[poolAddress] */\n      swap1\n      pop\n        /* \"contracts/TokenSwap.sol\":4981:4982  0 */\n      0x00\n        /* \"contracts/TokenSwap.sol\":4958:4983  pool.tokenA != address(0) */\n      0xffffffffffffffffffffffffffffffffffffffff\n      and\n        /* \"contracts/TokenSwap.sol\":4958:4962  pool */\n      dup2\n        /* \"contracts/TokenSwap.sol\":4958:4969  pool.tokenA */\n      0x00\n      add\n      0x00\n      swap1\n      sload\n      swap1\n      0x0100\n      exp\n      swap1\n      div\n      0xffffffffffffffffffffffffffffffffffffffff\n      and\n        /* \"contracts/TokenSwap.sol\":4958:4983  pool.tokenA != address(0) */\n      0xffffffffffffffffffffffffffffffffffffffff\n      and\n      sub\n        /* \"contracts/TokenSwap.sol\":4950:5007  require(pool.tokenA != address(0), \"Pool does not exist\") */\n      tag_129\n      jumpi\n      mload(0x40)\n      0x08c379a000000000000000000000000000000000000000000000000000000000\n      dup2\n      mstore\n      0x04\n      add\n      tag_130\n      swap1\n      tag_46\n      jump\t// in\n    tag_130:\n      mload(0x40)\n      dup1\n      swap2\n      sub\n      swap1\n      revert\n    tag_129:\n        /* \"contracts/TokenSwap.sol\":5039:5043  pool */\n      dup1\n        /* \"contracts/TokenSwap.sol\":5039:5050  pool.tokenA */\n      0x00\n      add\n      0x00\n      swap1\n      sload\n      swap1\n      0x0100\n      exp\n      swap1\n      div\n      0xffffffffffffffffffffffffffffffffffffffff\n      and\n        /* \"contracts/TokenSwap.sol\":5025:5050  inputToken == pool.tokenA */\n      0xffffffffffffffffffffffffffffffffffffffff\n      and\n        /* \"contracts/TokenSwap.sol\":5025:5035  inputToken */\n      dup5\n        /* \"contracts/TokenSwap.sol\":5025:5050  inputToken == pool.tokenA */\n      0xffffffffffffffffffffffffffffffffffffffff\n      and\n      eq\n        /* \"contracts/TokenSwap.sol\":5025:5079  inputToken == pool.tokenA || inputToken == pool.tokenB */\n      dup1\n      tag_131\n      jumpi\n      pop\n        /* \"contracts/TokenSwap.sol\":5068:5072  pool */\n      dup1\n        /* \"contracts/TokenSwap.sol\":5068:5079  pool.tokenB */\n      0x01\n      add\n      0x00\n      swap1\n      sload\n      swap1\n      0x0100\n      exp\n      swap1\n      div\n      0xffffffffffffffffffffffffffffffffffffffff\n      and\n        /* \"contracts/TokenSwap.sol\":5054:5079  inputToken == pool.tokenB */\n      0xffffffffffffffffffffffffffffffffffffffff\n      and\n        /* \"contracts/TokenSwap.sol\":5054:5064  inputToken */\n      dup5\n        /* \"contracts/TokenSwap.sol\":5054:5079  inputToken == pool.tokenB */\n      0xffffffffffffffffffffffffffffffffffffffff\n      and\n      eq\n        /* \"contracts/TokenSwap.sol\":5025:5079  inputToken == pool.tokenA || inputToken == pool.tokenB */\n    tag_131:\n        /* \"contracts/TokenSwap.sol\":5017:5103  require(inputToken == pool.tokenA || inputToken == pool.tokenB, \"Invalid input token\") */\n      tag_132\n      jumpi\n      mload(0x40)\n      0x08c379a000000000000000000000000000000000000000000000000000000000\n      dup2\n      mstore\n      0x04\n      add\n      tag_133\n      swap1\n      tag_134\n      jump\t// in\n    tag_133:\n      mload(0x40)\n      dup1\n      swap2\n      sub\n      swap1\n      revert\n    tag_132:\n        /* \"contracts/TokenSwap.sol\":5114:5133  address outputToken */\n      0x00\n        /* \"contracts/TokenSwap.sol\":5150:5154  pool */\n      dup2\n        /* \"contracts/TokenSwap.sol\":5150:5161  pool.tokenA */\n      0x00\n      add\n      0x00\n      swap1\n      sload\n      swap1\n      0x0100\n      exp\n      swap1\n      div\n      0xffffffffffffffffffffffffffffffffffffffff\n      and\n        /* \"contracts/TokenSwap.sol\":5136:5161  inputToken == pool.tokenA */\n      0xffffffffffffffffffffffffffffffffffffffff\n      and\n        /* \"contracts/TokenSwap.sol\":5136:5146  inputToken */\n      dup6\n        /* \"contracts/TokenSwap.sol\":5136:5161  inputToken == pool.tokenA */\n      0xffffffffffffffffffffffffffffffffffffffff\n      and\n      eq\n        /* \"contracts/TokenSwap.sol\":5136:5189  inputToken == pool.tokenA ? pool.tokenB : pool.tokenA */\n      tag_135\n      jumpi\n        /* \"contracts/TokenSwap.sol\":5178:5182  pool */\n      dup2\n        /* \"contracts/TokenSwap.sol\":5178:5189  pool.tokenA */\n      0x00\n      add\n      0x00\n      swap1\n      sload\n      swap1\n      0x0100\n      exp\n      swap1\n      div\n      0xffffffffffffffffffffffffffffffffffffffff\n      and\n        /* \"contracts/TokenSwap.sol\":5136:5189  inputToken == pool.tokenA ? pool.tokenB : pool.tokenA */\n      jump(tag_136)\n    tag_135:\n        /* \"contracts/TokenSwap.sol\":5164:5168  pool */\n      dup2\n        /* \"contracts/TokenSwap.sol\":5164:5175  pool.tokenB */\n      0x01\n      add\n      0x00\n      swap1\n      sload\n      swap1\n      0x0100\n      exp\n      swap1\n      div\n      0xffffffffffffffffffffffffffffffffffffffff\n      and\n        /* \"contracts/TokenSwap.sol\":5136:5189  inputToken == pool.tokenA ? pool.tokenB : pool.tokenA */\n    tag_136:\n        /* \"contracts/TokenSwap.sol\":5114:5189  address outputToken = inputToken == pool.tokenA ? pool.tokenB : pool.tokenA */\n      swap1\n      pop\n        /* \"contracts/TokenSwap.sol\":5199:5219  uint256 inputBalance */\n      0x00\n        /* \"contracts/TokenSwap.sol\":5229:5239  inputToken */\n      dup6\n        /* \"contracts/TokenSwap.sol\":5222:5250  IERC20(inputToken).balanceOf */\n      0xffffffffffffffffffffffffffffffffffffffff\n      and\n      0x70a08231\n        /* \"contracts/TokenSwap.sol\":5251:5262  poolAddress */\n      dup9\n        /* \"contracts/TokenSwap.sol\":5222:5263  IERC20(inputToken).balanceOf(poolAddress) */\n      mload(0x40)\n      dup3\n      0xffffffff\n      and\n      0xe0\n      shl\n      dup2\n      mstore\n      0x04\n      add\n      tag_137\n      swap2\n      swap1\n      tag_25\n      jump\t// in\n    tag_137:\n      0x20\n      mload(0x40)\n      dup1\n      dup4\n      sub\n      dup2\n      dup7\n      gas\n      staticcall\n      iszero\n      dup1\n      iszero\n      tag_139\n      jumpi\n      returndatacopy(0x00, 0x00, returndatasize)\n      revert(0x00, returndatasize)\n    tag_139:\n      pop\n      pop\n      pop\n      pop\n      mload(0x40)\n      returndatasize\n      not(0x1f)\n      0x1f\n      dup3\n      add\n      and\n      dup3\n      add\n      dup1\n      0x40\n      mstore\n      pop\n      dup2\n      add\n      swap1\n      tag_140\n      swap2\n      swap1\n      tag_101\n      jump\t// in\n    tag_140:\n        /* \"contracts/TokenSwap.sol\":5199:5263  uint256 inputBalance = IERC20(inputToken).balanceOf(poolAddress) */\n      swap1\n      pop\n        /* \"contracts/TokenSwap.sol\":5273:5294  uint256 outputBalance */\n      0x00\n        /* \"contracts/TokenSwap.sol\":5304:5315  outputToken */\n      dup3\n        /* \"contracts/TokenSwap.sol\":5297:5326  IERC20(outputToken).balanceOf */\n      0xffffffffffffffffffffffffffffffffffffffff\n      and\n      0x70a08231\n        /* \"contracts/TokenSwap.sol\":5327:5338  poolAddress */\n      dup10\n        /* \"contracts/TokenSwap.sol\":5297:5339  IERC20(outputToken).balanceOf(poolAddress) */\n      mload(0x40)\n      dup3\n      0xffffffff\n      and\n      0xe0\n      shl\n      dup2\n      mstore\n      0x04\n      add\n      tag_141\n      swap2\n      swap1\n      tag_25\n      jump\t// in\n    tag_141:\n      0x20\n      mload(0x40)\n      dup1\n      dup4\n      sub\n      dup2\n      dup7\n      gas\n      staticcall\n      iszero\n      dup1\n      iszero\n      tag_143\n      jumpi\n      returndatacopy(0x00, 0x00, returndatasize)\n      revert(0x00, returndatasize)\n    tag_143:\n      pop\n      pop\n      pop\n      pop\n      mload(0x40)\n      returndatasize\n      not(0x1f)\n      0x1f\n      dup3\n      add\n      and\n      dup3\n      add\n      dup1\n      0x40\n      mstore\n      pop\n      dup2\n      add\n      swap1\n      tag_144\n      swap2\n      swap1\n      tag_101\n      jump\t// in\n    tag_144:\n        /* \"contracts/TokenSwap.sol\":5273:5339  uint256 outputBalance = IERC20(outputToken).balanceOf(poolAddress) */\n      swap1\n      pop\n        /* \"contracts/TokenSwap.sol\":5350:5367  uint256 amountOut */\n      0x00\n        /* \"contracts/TokenSwap.sol\":5415:5423  amountIn */\n      dup7\n        /* \"contracts/TokenSwap.sol\":5400:5412  inputBalance */\n      dup4\n        /* \"contracts/TokenSwap.sol\":5400:5423  inputBalance + amountIn */\n      tag_145\n      swap2\n      swap1\n      tag_59\n      jump\t// in\n    tag_145:\n        /* \"contracts/TokenSwap.sol\":5382:5395  outputBalance */\n      dup3\n        /* \"contracts/TokenSwap.sol\":5371:5379  amountIn */\n      dup9\n        /* \"contracts/TokenSwap.sol\":5371:5395  amountIn * outputBalance */\n      tag_146\n      swap2\n      swap1\n      tag_62\n      jump\t// in\n    tag_146:\n        /* \"contracts/TokenSwap.sol\":5370:5424  (amountIn * outputBalance) / (inputBalance + amountIn) */\n      tag_147\n      swap2\n      swap1\n      tag_64\n      jump\t// in\n    tag_147:\n        /* \"contracts/TokenSwap.sol\":5350:5424  uint256 amountOut = (amountIn * outputBalance) / (inputBalance + amountIn) */\n      swap1\n      pop\n        /* \"contracts/TokenSwap.sol\":5434:5445  uint256 fee */\n      0x00\n        /* \"contracts/TokenSwap.sol\":5483:5488  10000 */\n      0x2710\n        /* \"contracts/TokenSwap.sol\":5461:5465  pool */\n      dup7\n        /* \"contracts/TokenSwap.sol\":5461:5479  pool.feePercentage */\n      0x03\n      add\n      sload\n        /* \"contracts/TokenSwap.sol\":5449:5458  amountOut */\n      dup4\n        /* \"contracts/TokenSwap.sol\":5449:5479  amountOut * pool.feePercentage */\n      tag_148\n      swap2\n      swap1\n      tag_62\n      jump\t// in\n    tag_148:\n        /* \"contracts/TokenSwap.sol\":5448:5488  (amountOut * pool.feePercentage) / 10000 */\n      tag_149\n      swap2\n      swap1\n      tag_64\n      jump\t// in\n    tag_149:\n        /* \"contracts/TokenSwap.sol\":5434:5488  uint256 fee = (amountOut * pool.feePercentage) / 10000 */\n      swap1\n      pop\n        /* \"contracts/TokenSwap.sol\":5511:5514  fee */\n      dup1\n        /* \"contracts/TokenSwap.sol\":5498:5514  amountOut -= fee */\n      dup3\n      tag_150\n      swap2\n      swap1\n      tag_111\n      jump\t// in\n    tag_150:\n      swap2\n      pop\n        /* \"contracts/TokenSwap.sol\":5546:5552  minOut */\n      dup7\n        /* \"contracts/TokenSwap.sol\":5533:5542  amountOut */\n      dup3\n        /* \"contracts/TokenSwap.sol\":5533:5552  amountOut >= minOut */\n      lt\n      iszero\n        /* \"contracts/TokenSwap.sol\":5525:5583  require(amountOut >= minOut, \"Insufficient output amount\") */\n      tag_151\n      jumpi\n      mload(0x40)\n      0x08c379a000000000000000000000000000000000000000000000000000000000\n      dup2\n      mstore\n      0x04\n      add\n      tag_152\n      swap1\n      tag_153\n      jump\t// in\n    tag_152:\n      mload(0x40)\n      dup1\n      swap2\n      sub\n      swap1\n      revert\n    tag_151:\n        /* \"contracts/TokenSwap.sol\":5601:5611  inputToken */\n      dup9\n        /* \"contracts/TokenSwap.sol\":5594:5625  IERC20(inputToken).transferFrom */\n      0xffffffffffffffffffffffffffffffffffffffff\n      and\n      0x23b872dd\n        /* \"contracts/TokenSwap.sol\":5626:5636  msg.sender */\n      caller\n        /* \"contracts/TokenSwap.sol\":5638:5649  poolAddress */\n      dup13\n        /* \"contracts/TokenSwap.sol\":5651:5659  amountIn */\n      dup12\n        /* \"contracts/TokenSwap.sol\":5594:5660  IERC20(inputToken).transferFrom(msg.sender, poolAddress, amountIn) */\n      mload(0x40)\n      dup5\n      0xffffffff\n      and\n      0xe0\n      shl\n      dup2\n      mstore\n      0x04\n      add\n      tag_154\n      swap4\n      swap3\n      swap2\n      swap1\n      tag_48\n      jump\t// in\n    tag_154:\n      0x20\n      mload(0x40)\n      dup1\n      dup4\n      sub\n      dup2\n      0x00\n      dup8\n      gas\n      call\n      iszero\n      dup1\n      iszero\n      tag_156\n      jumpi\n      returndatacopy(0x00, 0x00, returndatasize)\n      revert(0x00, returndatasize)\n    tag_156:\n      pop\n      pop\n      pop\n      pop\n      mload(0x40)\n      returndatasize\n      not(0x1f)\n      0x1f\n      dup3\n      add\n      and\n      dup3\n      add\n      dup1\n      0x40\n      mstore\n      pop\n      dup2\n      add\n      swap1\n      tag_157\n      swap2\n      swap1\n      tag_52\n      jump\t// in\n    tag_157:\n      pop\n        /* \"contracts/TokenSwap.sol\":5677:5688  outputToken */\n      dup5\n        /* \"contracts/TokenSwap.sol\":5670:5698  IERC20(outputToken).transfer */\n      0xffffffffffffffffffffffffffffffffffffffff\n      and\n      0xa9059cbb\n        /* \"contracts/TokenSwap.sol\":5699:5709  msg.sender */\n      caller\n        /* \"contracts/TokenSwap.sol\":5711:5720  amountOut */\n      dup5\n        /* \"contracts/TokenSwap.sol\":5670:5721  IERC20(outputToken).transfer(msg.sender, amountOut) */\n      mload(0x40)\n      dup4\n      0xffffffff\n      and\n      0xe0\n      shl\n      dup2\n      mstore\n      0x04\n      add\n      tag_158\n      swap3\n      swap2\n      swap1\n      tag_113\n      jump\t// in\n    tag_158:\n      0x20\n      mload(0x40)\n      dup1\n      dup4\n      sub\n      dup2\n      0x00\n      dup8\n      gas\n      call\n      iszero\n      dup1\n      iszero\n      tag_160\n      jumpi\n      returndatacopy(0x00, 0x00, returndatasize)\n      revert(0x00, returndatasize)\n    tag_160:\n      pop\n      pop\n      pop\n      pop\n      mload(0x40)\n      returndatasize\n      not(0x1f)\n      0x1f\n      dup3\n      add\n      and\n      dup3\n      add\n      dup1\n      0x40\n      mstore\n      pop\n      dup2\n      add\n      swap1\n      tag_161\n      swap2\n      swap1\n      tag_52\n      jump\t// in\n    tag_161:\n      pop\n        /* \"contracts/TokenSwap.sol\":5738:5749  outputToken */\n      dup5\n        /* \"contracts/TokenSwap.sol\":5731:5759  IERC20(outputToken).transfer */\n      0xffffffffffffffffffffffffffffffffffffffff\n      and\n      0xa9059cbb\n        /* \"contracts/TokenSwap.sol\":5760:5764  pool */\n      dup8\n        /* \"contracts/TokenSwap.sol\":5760:5780  pool.adminFeeAccount */\n      0x04\n      add\n      0x00\n      swap1\n      sload\n      swap1\n      0x0100\n      exp\n      swap1\n      div\n      0xffffffffffffffffffffffffffffffffffffffff\n      and\n        /* \"contracts/TokenSwap.sol\":5782:5785  fee */\n      dup4\n        /* \"contracts/TokenSwap.sol\":5731:5786  IERC20(outputToken).transfer(pool.adminFeeAccount, fee) */\n      mload(0x40)\n      dup4\n      0xffffffff\n      and\n      0xe0\n      shl\n      dup2\n      mstore\n      0x04\n      add\n      tag_162\n      swap3\n      swap2\n      swap1\n      tag_113\n      jump\t// in\n    tag_162:\n      0x20\n      mload(0x40)\n      dup1\n      dup4\n      sub\n      dup2\n      0x00\n      dup8\n      gas\n      call\n      iszero\n      dup1\n      iszero\n      tag_164\n      jumpi\n      returndatacopy(0x00, 0x00, returndatasize)\n      revert(0x00, returndatasize)\n    tag_164:\n      pop\n      pop\n      pop\n      pop\n      mload(0x40)\n      returndatasize\n      not(0x1f)\n      0x1f\n      dup3\n      add\n      and\n      dup3\n      add\n      dup1\n      0x40\n      mstore\n      pop\n      dup2\n      add\n      swap1\n      tag_165\n      swap2\n      swap1\n      tag_52\n      jump\t// in\n    tag_165:\n      pop\n        /* \"contracts/TokenSwap.sol\":5829:5839  msg.sender */\n      caller\n        /* \"contracts/TokenSwap.sol\":5802:5886  TokensSwapped(poolAddress, msg.sender, inputToken, outputToken, amountIn, amountOut) */\n      0xffffffffffffffffffffffffffffffffffffffff\n      and\n        /* \"contracts/TokenSwap.sol\":5816:5827  poolAddress */\n      dup11\n        /* \"contracts/TokenSwap.sol\":5802:5886  TokensSwapped(poolAddress, msg.sender, inputToken, outputToken, amountIn, amountOut) */\n      0xffffffffffffffffffffffffffffffffffffffff\n      and\n      0x0ff97d8ba659dc8513a47254ed48f52a28aa6d045ca043d8a60bd7d954805d89\n        /* \"contracts/TokenSwap.sol\":5841:5851  inputToken */\n      dup12\n        /* \"contracts/TokenSwap.sol\":5853:5864  outputToken */\n      dup9\n        /* \"contracts/TokenSwap.sol\":5866:5874  amountIn */\n      dup13\n        /* \"contracts/TokenSwap.sol\":5876:5885  amountOut */\n      dup8\n        /* \"contracts/TokenSwap.sol\":5802:5886  TokensSwapped(poolAddress, msg.sender, inputToken, outputToken, amountIn, amountOut) */\n      mload(0x40)\n      tag_166\n      swap5\n      swap4\n      swap3\n      swap2\n      swap1\n      tag_167\n      jump\t// in\n    tag_166:\n      mload(0x40)\n      dup1\n      swap2\n      sub\n      swap1\n      log3\n        /* \"contracts/TokenSwap.sol\":4883:5893  {... */\n      pop\n      pop\n      pop\n      pop\n      pop\n      pop\n        /* \"contracts/TokenSwap.sol\":4747:5893  function swap(... */\n      pop\n      pop\n      pop\n      pop\n      jump\t// out\n        /* \"@openzeppelin/contracts/access/Ownable.sol\":1796:1958  function _checkOwner() internal view virtual {... */\n    tag_72:\n        /* \"@openzeppelin/contracts/access/Ownable.sol\":1866:1878  _msgSender() */\n      tag_169\n        /* \"@openzeppelin/contracts/access/Ownable.sol\":1866:1876  _msgSender */\n      tag_170\n        /* \"@openzeppelin/contracts/access/Ownable.sol\":1866:1878  _msgSender() */\n      jump\t// in\n    tag_169:\n        /* \"@openzeppelin/contracts/access/Ownable.sol\":1855:1878  owner() != _msgSender() */\n      0xffffffffffffffffffffffffffffffffffffffff\n      and\n        /* \"@openzeppelin/contracts/access/Ownable.sol\":1855:1862  owner() */\n      tag_171\n        /* \"@openzeppelin/contracts/access/Ownable.sol\":1855:1860  owner */\n      tag_23\n        /* \"@openzeppelin/contracts/access/Ownable.sol\":1855:1862  owner() */\n      jump\t// in\n    tag_171:\n        /* \"@openzeppelin/contracts/access/Ownable.sol\":1855:1878  owner() != _msgSender() */\n      0xffffffffffffffffffffffffffffffffffffffff\n      and\n      eq\n        /* \"@openzeppelin/contracts/access/Ownable.sol\":1851:1952  if (owner() != _msgSender()) {... */\n      tag_172\n      jumpi\n        /* \"@openzeppelin/contracts/access/Ownable.sol\":1928:1940  _msgSender() */\n      tag_173\n        /* \"@openzeppelin/contracts/access/Ownable.sol\":1928:1938  _msgSender */\n      tag_170\n        /* \"@openzeppelin/contracts/access/Ownable.sol\":1928:1940  _msgSender() */\n      jump\t// in\n    tag_173:\n        /* \"@openzeppelin/contracts/access/Ownable.sol\":1901:1941  OwnableUnauthorizedAccount(_msgSender()) */\n      mload(0x40)\n      0x118cdaa700000000000000000000000000000000000000000000000000000000\n      dup2\n      mstore\n      0x04\n      add\n      tag_174\n      swap2\n      swap1\n      tag_25\n      jump\t// in\n    tag_174:\n      mload(0x40)\n      dup1\n      swap2\n      sub\n      swap1\n      revert\n        /* \"@openzeppelin/contracts/access/Ownable.sol\":1851:1952  if (owner() != _msgSender()) {... */\n    tag_172:\n        /* \"@openzeppelin/contracts/access/Ownable.sol\":1796:1958  function _checkOwner() internal view virtual {... */\n      jump\t// out\n        /* \"@openzeppelin/contracts/access/Ownable.sol\":2912:3099  function _transferOwnership(address newOwner) internal virtual {... */\n    tag_86:\n        /* \"@openzeppelin/contracts/access/Ownable.sol\":2985:3001  address oldOwner */\n      0x00\n        /* \"@openzeppelin/contracts/access/Ownable.sol\":3004:3010  _owner */\n      0x00\n      0x00\n      swap1\n      sload\n      swap1\n      0x0100\n      exp\n      swap1\n      div\n      0xffffffffffffffffffffffffffffffffffffffff\n      and\n        /* \"@openzeppelin/contracts/access/Ownable.sol\":2985:3010  address oldOwner = _owner */\n      swap1\n      pop\n        /* \"@openzeppelin/contracts/access/Ownable.sol\":3029:3037  newOwner */\n      dup2\n        /* \"@openzeppelin/contracts/access/Ownable.sol\":3020:3026  _owner */\n      0x00\n      0x00\n        /* \"@openzeppelin/contracts/access/Ownable.sol\":3020:3037  _owner = newOwner */\n      0x0100\n      exp\n      dup2\n      sload\n      dup2\n      0xffffffffffffffffffffffffffffffffffffffff\n      mul\n      not\n      and\n      swap1\n      dup4\n      0xffffffffffffffffffffffffffffffffffffffff\n      and\n      mul\n      or\n      swap1\n      sstore\n      pop\n        /* \"@openzeppelin/contracts/access/Ownable.sol\":3083:3091  newOwner */\n      dup2\n        /* \"@openzeppelin/contracts/access/Ownable.sol\":3052:3092  OwnershipTransferred(oldOwner, newOwner) */\n      0xffffffffffffffffffffffffffffffffffffffff\n      and\n        /* \"@openzeppelin/contracts/access/Ownable.sol\":3073:3081  oldOwner */\n      dup2\n        /* \"@openzeppelin/contracts/access/Ownable.sol\":3052:3092  OwnershipTransferred(oldOwner, newOwner) */\n      0xffffffffffffffffffffffffffffffffffffffff\n      and\n      0x8be0079c531659141344cd1fd0a4f28419497f9722a3daafe3b4186f6b6457e0\n      mload(0x40)\n      mload(0x40)\n      dup1\n      swap2\n      sub\n      swap1\n      log3\n        /* \"@openzeppelin/contracts/access/Ownable.sol\":2975:3099  {... */\n      pop\n        /* \"@openzeppelin/contracts/access/Ownable.sol\":2912:3099  function _transferOwnership(address newOwner) internal virtual {... */\n      pop\n      jump\t// out\n        /* \"@openzeppelin/contracts/utils/Context.sol\":656:752  function _msgSender() internal view virtual returns (address) {... */\n    tag_170:\n        /* \"@openzeppelin/contracts/utils/Context.sol\":709:716  address */\n      0x00\n        /* \"@openzeppelin/contracts/utils/Context.sol\":735:745  msg.sender */\n      caller\n        /* \"@openzeppelin/contracts/utils/Context.sol\":728:745  return msg.sender */\n      swap1\n      pop\n        /* \"@openzeppelin/contracts/utils/Context.sol\":656:752  function _msgSender() internal view virtual returns (address) {... */\n      swap1\n      jump\t// out\n        /* \"#utility.yul\":88:205   */\n    tag_178:\n        /* \"#utility.yul\":197:198   */\n      0x00\n        /* \"#utility.yul\":194:195   */\n      0x00\n        /* \"#utility.yul\":187:199   */\n      revert\n        /* \"#utility.yul\":334:460   */\n    tag_180:\n        /* \"#utility.yul\":371:378   */\n      0x00\n        /* \"#utility.yul\":411:453   */\n      0xffffffffffffffffffffffffffffffffffffffff\n        /* \"#utility.yul\":404:409   */\n      dup3\n        /* \"#utility.yul\":400:454   */\n      and\n        /* \"#utility.yul\":389:454   */\n      swap1\n      pop\n        /* \"#utility.yul\":334:460   */\n      swap2\n      swap1\n      pop\n      jump\t// out\n        /* \"#utility.yul\":466:562   */\n    tag_181:\n        /* \"#utility.yul\":503:510   */\n      0x00\n        /* \"#utility.yul\":532:556   */\n      tag_214\n        /* \"#utility.yul\":550:555   */\n      dup3\n        /* \"#utility.yul\":532:556   */\n      tag_180\n      jump\t// in\n    tag_214:\n        /* \"#utility.yul\":521:556   */\n      swap1\n      pop\n        /* \"#utility.yul\":466:562   */\n      swap2\n      swap1\n      pop\n      jump\t// out\n        /* \"#utility.yul\":568:690   */\n    tag_182:\n        /* \"#utility.yul\":641:665   */\n      tag_216\n        /* \"#utility.yul\":659:664   */\n      dup2\n        /* \"#utility.yul\":641:665   */\n      tag_181\n      jump\t// in\n    tag_216:\n        /* \"#utility.yul\":634:639   */\n      dup2\n        /* \"#utility.yul\":631:666   */\n      eq\n        /* \"#utility.yul\":621:684   */\n      tag_217\n      jumpi\n        /* \"#utility.yul\":680:681   */\n      0x00\n        /* \"#utility.yul\":677:678   */\n      0x00\n        /* \"#utility.yul\":670:682   */\n      revert\n        /* \"#utility.yul\":621:684   */\n    tag_217:\n        /* \"#utility.yul\":568:690   */\n      pop\n      jump\t// out\n        /* \"#utility.yul\":696:835   */\n    tag_183:\n        /* \"#utility.yul\":742:747   */\n      0x00\n        /* \"#utility.yul\":780:786   */\n      dup2\n        /* \"#utility.yul\":767:787   */\n      calldataload\n        /* \"#utility.yul\":758:787   */\n      swap1\n      pop\n        /* \"#utility.yul\":796:829   */\n      tag_219\n        /* \"#utility.yul\":823:828   */\n      dup2\n        /* \"#utility.yul\":796:829   */\n      tag_182\n      jump\t// in\n    tag_219:\n        /* \"#utility.yul\":696:835   */\n      swap3\n      swap2\n      pop\n      pop\n      jump\t// out\n        /* \"#utility.yul\":841:918   */\n    tag_184:\n        /* \"#utility.yul\":878:885   */\n      0x00\n        /* \"#utility.yul\":907:912   */\n      dup2\n        /* \"#utility.yul\":896:912   */\n      swap1\n      pop\n        /* \"#utility.yul\":841:918   */\n      swap2\n      swap1\n      pop\n      jump\t// out\n        /* \"#utility.yul\":924:1046   */\n    tag_185:\n        /* \"#utility.yul\":997:1021   */\n      tag_222\n        /* \"#utility.yul\":1015:1020   */\n      dup2\n        /* \"#utility.yul\":997:1021   */\n      tag_184\n      jump\t// in\n    tag_222:\n        /* \"#utility.yul\":990:995   */\n      dup2\n        /* \"#utility.yul\":987:1022   */\n      eq\n        /* \"#utility.yul\":977:1040   */\n      tag_223\n      jumpi\n        /* \"#utility.yul\":1036:1037   */\n      0x00\n        /* \"#utility.yul\":1033:1034   */\n      0x00\n        /* \"#utility.yul\":1026:1038   */\n      revert\n        /* \"#utility.yul\":977:1040   */\n    tag_223:\n        /* \"#utility.yul\":924:1046   */\n      pop\n      jump\t// out\n        /* \"#utility.yul\":1052:1191   */\n    tag_186:\n        /* \"#utility.yul\":1098:1103   */\n      0x00\n        /* \"#utility.yul\":1136:1142   */\n      dup2\n        /* \"#utility.yul\":1123:1143   */\n      calldataload\n        /* \"#utility.yul\":1114:1143   */\n      swap1\n      pop\n        /* \"#utility.yul\":1152:1185   */\n      tag_225\n        /* \"#utility.yul\":1179:1184   */\n      dup2\n        /* \"#utility.yul\":1152:1185   */\n      tag_185\n      jump\t// in\n    tag_225:\n        /* \"#utility.yul\":1052:1191   */\n      swap3\n      swap2\n      pop\n      pop\n      jump\t// out\n        /* \"#utility.yul\":1197:1816   */\n    tag_14:\n        /* \"#utility.yul\":1274:1280   */\n      0x00\n        /* \"#utility.yul\":1282:1288   */\n      0x00\n        /* \"#utility.yul\":1290:1296   */\n      0x00\n        /* \"#utility.yul\":1339:1341   */\n      0x60\n        /* \"#utility.yul\":1327:1336   */\n      dup5\n        /* \"#utility.yul\":1318:1325   */\n      dup7\n        /* \"#utility.yul\":1314:1337   */\n      sub\n        /* \"#utility.yul\":1310:1342   */\n      slt\n        /* \"#utility.yul\":1307:1426   */\n      iszero\n      tag_227\n      jumpi\n        /* \"#utility.yul\":1345:1424   */\n      tag_228\n      tag_178\n      jump\t// in\n    tag_228:\n        /* \"#utility.yul\":1307:1426   */\n    tag_227:\n        /* \"#utility.yul\":1465:1466   */\n      0x00\n        /* \"#utility.yul\":1490:1543   */\n      tag_229\n        /* \"#utility.yul\":1535:1542   */\n      dup7\n        /* \"#utility.yul\":1526:1532   */\n      dup3\n        /* \"#utility.yul\":1515:1524   */\n      dup8\n        /* \"#utility.yul\":1511:1533   */\n      add\n        /* \"#utility.yul\":1490:1543   */\n      tag_183\n      jump\t// in\n    tag_229:\n        /* \"#utility.yul\":1480:1543   */\n      swap4\n      pop\n        /* \"#utility.yul\":1436:1553   */\n      pop\n        /* \"#utility.yul\":1592:1594   */\n      0x20\n        /* \"#utility.yul\":1618:1671   */\n      tag_230\n        /* \"#utility.yul\":1663:1670   */\n      dup7\n        /* \"#utility.yul\":1654:1660   */\n      dup3\n        /* \"#utility.yul\":1643:1652   */\n      dup8\n        /* \"#utility.yul\":1639:1661   */\n      add\n        /* \"#utility.yul\":1618:1671   */\n      tag_186\n      jump\t// in\n    tag_230:\n        /* \"#utility.yul\":1608:1671   */\n      swap3\n      pop\n        /* \"#utility.yul\":1563:1681   */\n      pop\n        /* \"#utility.yul\":1720:1722   */\n      0x40\n        /* \"#utility.yul\":1746:1799   */\n      tag_231\n        /* \"#utility.yul\":1791:1798   */\n      dup7\n        /* \"#utility.yul\":1782:1788   */\n      dup3\n        /* \"#utility.yul\":1771:1780   */\n      dup8\n        /* \"#utility.yul\":1767:1789   */\n      add\n        /* \"#utility.yul\":1746:1799   */\n      tag_186\n      jump\t// in\n    tag_231:\n        /* \"#utility.yul\":1736:1799   */\n      swap2\n      pop\n        /* \"#utility.yul\":1691:1809   */\n      pop\n        /* \"#utility.yul\":1197:1816   */\n      swap3\n      pop\n      swap3\n      pop\n      swap3\n      jump\t// out\n        /* \"#utility.yul\":1822:2733   */\n    tag_18:\n        /* \"#utility.yul\":1917:1923   */\n      0x00\n        /* \"#utility.yul\":1925:1931   */\n      0x00\n        /* \"#utility.yul\":1933:1939   */\n      0x00\n        /* \"#utility.yul\":1941:1947   */\n      0x00\n        /* \"#utility.yul\":1949:1955   */\n      0x00\n        /* \"#utility.yul\":1998:2001   */\n      0xa0\n        /* \"#utility.yul\":1986:1995   */\n      dup7\n        /* \"#utility.yul\":1977:1984   */\n      dup9\n        /* \"#utility.yul\":1973:1996   */\n      sub\n        /* \"#utility.yul\":1969:2002   */\n      slt\n        /* \"#utility.yul\":1966:2086   */\n      iszero\n      tag_233\n      jumpi\n        /* \"#utility.yul\":2005:2084   */\n      tag_234\n      tag_178\n      jump\t// in\n    tag_234:\n        /* \"#utility.yul\":1966:2086   */\n    tag_233:\n        /* \"#utility.yul\":2125:2126   */\n      0x00\n        /* \"#utility.yul\":2150:2203   */\n      tag_235\n        /* \"#utility.yul\":2195:2202   */\n      dup9\n        /* \"#utility.yul\":2186:2192   */\n      dup3\n        /* \"#utility.yul\":2175:2184   */\n      dup10\n        /* \"#utility.yul\":2171:2193   */\n      add\n        /* \"#utility.yul\":2150:2203   */\n      tag_183\n      jump\t// in\n    tag_235:\n        /* \"#utility.yul\":2140:2203   */\n      swap6\n      pop\n        /* \"#utility.yul\":2096:2213   */\n      pop\n        /* \"#utility.yul\":2252:2254   */\n      0x20\n        /* \"#utility.yul\":2278:2331   */\n      tag_236\n        /* \"#utility.yul\":2323:2330   */\n      dup9\n        /* \"#utility.yul\":2314:2320   */\n      dup3\n        /* \"#utility.yul\":2303:2312   */\n      dup10\n        /* \"#utility.yul\":2299:2321   */\n      add\n        /* \"#utility.yul\":2278:2331   */\n      tag_183\n      jump\t// in\n    tag_236:\n        /* \"#utility.yul\":2268:2331   */\n      swap5\n      pop\n        /* \"#utility.yul\":2223:2341   */\n      pop\n        /* \"#utility.yul\":2380:2382   */\n      0x40\n        /* \"#utility.yul\":2406:2459   */\n      tag_237\n        /* \"#utility.yul\":2451:2458   */\n      dup9\n        /* \"#utility.yul\":2442:2448   */\n      dup3\n        /* \"#utility.yul\":2431:2440   */\n      dup10\n        /* \"#utility.yul\":2427:2449   */\n      add\n        /* \"#utility.yul\":2406:2459   */\n      tag_183\n      jump\t// in\n    tag_237:\n        /* \"#utility.yul\":2396:2459   */\n      swap4\n      pop\n        /* \"#utility.yul\":2351:2469   */\n      pop\n        /* \"#utility.yul\":2508:2510   */\n      0x60\n        /* \"#utility.yul\":2534:2587   */\n      tag_238\n        /* \"#utility.yul\":2579:2586   */\n      dup9\n        /* \"#utility.yul\":2570:2576   */\n      dup3\n        /* \"#utility.yul\":2559:2568   */\n      dup10\n        /* \"#utility.yul\":2555:2577   */\n      add\n        /* \"#utility.yul\":2534:2587   */\n      tag_186\n      jump\t// in\n    tag_238:\n        /* \"#utility.yul\":2524:2587   */\n      swap3\n      pop\n        /* \"#utility.yul\":2479:2597   */\n      pop\n        /* \"#utility.yul\":2636:2639   */\n      0x80\n        /* \"#utility.yul\":2663:2716   */\n      tag_239\n        /* \"#utility.yul\":2708:2715   */\n      dup9\n        /* \"#utility.yul\":2699:2705   */\n      dup3\n        /* \"#utility.yul\":2688:2697   */\n      dup10\n        /* \"#utility.yul\":2684:2706   */\n      add\n        /* \"#utility.yul\":2663:2716   */\n      tag_183\n      jump\t// in\n    tag_239:\n        /* \"#utility.yul\":2653:2716   */\n      swap2\n      pop\n        /* \"#utility.yul\":2607:2726   */\n      pop\n        /* \"#utility.yul\":1822:2733   */\n      swap3\n      swap6\n      pop\n      swap3\n      swap6\n      swap1\n      swap4\n      pop\n      jump\t// out\n        /* \"#utility.yul\":2739:2857   */\n    tag_187:\n        /* \"#utility.yul\":2826:2850   */\n      tag_241\n        /* \"#utility.yul\":2844:2849   */\n      dup2\n        /* \"#utility.yul\":2826:2850   */\n      tag_181\n      jump\t// in\n    tag_241:\n        /* \"#utility.yul\":2821:2824   */\n      dup3\n        /* \"#utility.yul\":2814:2851   */\n      mstore\n        /* \"#utility.yul\":2739:2857   */\n      pop\n      pop\n      jump\t// out\n        /* \"#utility.yul\":2863:3085   */\n    tag_25:\n        /* \"#utility.yul\":2956:2960   */\n      0x00\n        /* \"#utility.yul\":2994:2996   */\n      0x20\n        /* \"#utility.yul\":2983:2992   */\n      dup3\n        /* \"#utility.yul\":2979:2997   */\n      add\n        /* \"#utility.yul\":2971:2997   */\n      swap1\n      pop\n        /* \"#utility.yul\":3007:3078   */\n      tag_243\n        /* \"#utility.yul\":3075:3076   */\n      0x00\n        /* \"#utility.yul\":3064:3073   */\n      dup4\n        /* \"#utility.yul\":3060:3077   */\n      add\n        /* \"#utility.yul\":3051:3057   */\n      dup5\n        /* \"#utility.yul\":3007:3078   */\n      tag_187\n      jump\t// in\n    tag_243:\n        /* \"#utility.yul\":2863:3085   */\n      swap3\n      swap2\n      pop\n      pop\n      jump\t// out\n        /* \"#utility.yul\":3091:3565   */\n    tag_28:\n        /* \"#utility.yul\":3159:3165   */\n      0x00\n        /* \"#utility.yul\":3167:3173   */\n      0x00\n        /* \"#utility.yul\":3216:3218   */\n      0x40\n        /* \"#utility.yul\":3204:3213   */\n      dup4\n        /* \"#utility.yul\":3195:3202   */\n      dup6\n        /* \"#utility.yul\":3191:3214   */\n      sub\n        /* \"#utility.yul\":3187:3219   */\n      slt\n        /* \"#utility.yul\":3184:3303   */\n      iszero\n      tag_245\n      jumpi\n        /* \"#utility.yul\":3222:3301   */\n      tag_246\n      tag_178\n      jump\t// in\n    tag_246:\n        /* \"#utility.yul\":3184:3303   */\n    tag_245:\n        /* \"#utility.yul\":3342:3343   */\n      0x00\n        /* \"#utility.yul\":3367:3420   */\n      tag_247\n        /* \"#utility.yul\":3412:3419   */\n      dup6\n        /* \"#utility.yul\":3403:3409   */\n      dup3\n        /* \"#utility.yul\":3392:3401   */\n      dup7\n        /* \"#utility.yul\":3388:3410   */\n      add\n        /* \"#utility.yul\":3367:3420   */\n      tag_183\n      jump\t// in\n    tag_247:\n        /* \"#utility.yul\":3357:3420   */\n      swap3\n      pop\n        /* \"#utility.yul\":3313:3430   */\n      pop\n        /* \"#utility.yul\":3469:3471   */\n      0x20\n        /* \"#utility.yul\":3495:3548   */\n      tag_248\n        /* \"#utility.yul\":3540:3547   */\n      dup6\n        /* \"#utility.yul\":3531:3537   */\n      dup3\n        /* \"#utility.yul\":3520:3529   */\n      dup7\n        /* \"#utility.yul\":3516:3538   */\n      add\n        /* \"#utility.yul\":3495:3548   */\n      tag_186\n      jump\t// in\n    tag_248:\n        /* \"#utility.yul\":3485:3548   */\n      swap2\n      pop\n        /* \"#utility.yul\":3440:3558   */\n      pop\n        /* \"#utility.yul\":3091:3565   */\n      swap3\n      pop\n      swap3\n      swap1\n      pop\n      jump\t// out\n        /* \"#utility.yul\":3571:3900   */\n    tag_32:\n        /* \"#utility.yul\":3630:3636   */\n      0x00\n        /* \"#utility.yul\":3679:3681   */\n      0x20\n        /* \"#utility.yul\":3667:3676   */\n      dup3\n        /* \"#utility.yul\":3658:3665   */\n      dup5\n        /* \"#utility.yul\":3654:3677   */\n      sub\n        /* \"#utility.yul\":3650:3682   */\n      slt\n        /* \"#utility.yul\":3647:3766   */\n      iszero\n      tag_250\n      jumpi\n        /* \"#utility.yul\":3685:3764   */\n      tag_251\n      tag_178\n      jump\t// in\n    tag_251:\n        /* \"#utility.yul\":3647:3766   */\n    tag_250:\n        /* \"#utility.yul\":3805:3806   */\n      0x00\n        /* \"#utility.yul\":3830:3883   */\n      tag_252\n        /* \"#utility.yul\":3875:3882   */\n      dup5\n        /* \"#utility.yul\":3866:3872   */\n      dup3\n        /* \"#utility.yul\":3855:3864   */\n      dup6\n        /* \"#utility.yul\":3851:3873   */\n      add\n        /* \"#utility.yul\":3830:3883   */\n      tag_183\n      jump\t// in\n    tag_252:\n        /* \"#utility.yul\":3820:3883   */\n      swap2\n      pop\n        /* \"#utility.yul\":3776:3893   */\n      pop\n        /* \"#utility.yul\":3571:3900   */\n      swap3\n      swap2\n      pop\n      pop\n      jump\t// out\n        /* \"#utility.yul\":3906:4024   */\n    tag_188:\n        /* \"#utility.yul\":3993:4017   */\n      tag_254\n        /* \"#utility.yul\":4011:4016   */\n      dup2\n        /* \"#utility.yul\":3993:4017   */\n      tag_184\n      jump\t// in\n    tag_254:\n        /* \"#utility.yul\":3988:3991   */\n      dup3\n        /* \"#utility.yul\":3981:4018   */\n      mstore\n        /* \"#utility.yul\":3906:4024   */\n      pop\n      pop\n      jump\t// out\n        /* \"#utility.yul\":4030:4805   */\n    tag_35:\n        /* \"#utility.yul\":4263:4267   */\n      0x00\n        /* \"#utility.yul\":4301:4304   */\n      0xc0\n        /* \"#utility.yul\":4290:4299   */\n      dup3\n        /* \"#utility.yul\":4286:4305   */\n      add\n        /* \"#utility.yul\":4278:4305   */\n      swap1\n      pop\n        /* \"#utility.yul\":4315:4386   */\n      tag_256\n        /* \"#utility.yul\":4383:4384   */\n      0x00\n        /* \"#utility.yul\":4372:4381   */\n      dup4\n        /* \"#utility.yul\":4368:4385   */\n      add\n        /* \"#utility.yul\":4359:4365   */\n      dup10\n        /* \"#utility.yul\":4315:4386   */\n      tag_187\n      jump\t// in\n    tag_256:\n        /* \"#utility.yul\":4396:4468   */\n      tag_257\n        /* \"#utility.yul\":4464:4466   */\n      0x20\n        /* \"#utility.yul\":4453:4462   */\n      dup4\n        /* \"#utility.yul\":4449:4467   */\n      add\n        /* \"#utility.yul\":4440:4446   */\n      dup9\n        /* \"#utility.yul\":4396:4468   */\n      tag_187\n      jump\t// in\n    tag_257:\n        /* \"#utility.yul\":4478:4550   */\n      tag_258\n        /* \"#utility.yul\":4546:4548   */\n      0x40\n        /* \"#utility.yul\":4535:4544   */\n      dup4\n        /* \"#utility.yul\":4531:4549   */\n      add\n        /* \"#utility.yul\":4522:4528   */\n      dup8\n        /* \"#utility.yul\":4478:4550   */\n      tag_188\n      jump\t// in\n    tag_258:\n        /* \"#utility.yul\":4560:4632   */\n      tag_259\n        /* \"#utility.yul\":4628:4630   */\n      0x60\n        /* \"#utility.yul\":4617:4626   */\n      dup4\n        /* \"#utility.yul\":4613:4631   */\n      add\n        /* \"#utility.yul\":4604:4610   */\n      dup7\n        /* \"#utility.yul\":4560:4632   */\n      tag_188\n      jump\t// in\n    tag_259:\n        /* \"#utility.yul\":4642:4715   */\n      tag_260\n        /* \"#utility.yul\":4710:4713   */\n      0x80\n        /* \"#utility.yul\":4699:4708   */\n      dup4\n        /* \"#utility.yul\":4695:4714   */\n      add\n        /* \"#utility.yul\":4686:4692   */\n      dup6\n        /* \"#utility.yul\":4642:4715   */\n      tag_187\n      jump\t// in\n    tag_260:\n        /* \"#utility.yul\":4725:4798   */\n      tag_261\n        /* \"#utility.yul\":4793:4796   */\n      0xa0\n        /* \"#utility.yul\":4782:4791   */\n      dup4\n        /* \"#utility.yul\":4778:4797   */\n      add\n        /* \"#utility.yul\":4769:4775   */\n      dup5\n        /* \"#utility.yul\":4725:4798   */\n      tag_188\n      jump\t// in\n    tag_261:\n        /* \"#utility.yul\":4030:4805   */\n      swap8\n      swap7\n      pop\n      pop\n      pop\n      pop\n      pop\n      pop\n      pop\n      jump\t// out\n        /* \"#utility.yul\":4811:5576   */\n    tag_41:\n        /* \"#utility.yul\":4897:4903   */\n      0x00\n        /* \"#utility.yul\":4905:4911   */\n      0x00\n        /* \"#utility.yul\":4913:4919   */\n      0x00\n        /* \"#utility.yul\":4921:4927   */\n      0x00\n        /* \"#utility.yul\":4970:4973   */\n      0x80\n        /* \"#utility.yul\":4958:4967   */\n      dup6\n        /* \"#utility.yul\":4949:4956   */\n      dup8\n        /* \"#utility.yul\":4945:4968   */\n      sub\n        /* \"#utility.yul\":4941:4974   */\n      slt\n        /* \"#utility.yul\":4938:5058   */\n      iszero\n      tag_263\n      jumpi\n        /* \"#utility.yul\":4977:5056   */\n      tag_264\n      tag_178\n      jump\t// in\n    tag_264:\n        /* \"#utility.yul\":4938:5058   */\n    tag_263:\n        /* \"#utility.yul\":5097:5098   */\n      0x00\n        /* \"#utility.yul\":5122:5175   */\n      tag_265\n        /* \"#utility.yul\":5167:5174   */\n      dup8\n        /* \"#utility.yul\":5158:5164   */\n      dup3\n        /* \"#utility.yul\":5147:5156   */\n      dup9\n        /* \"#utility.yul\":5143:5165   */\n      add\n        /* \"#utility.yul\":5122:5175   */\n      tag_183\n      jump\t// in\n    tag_265:\n        /* \"#utility.yul\":5112:5175   */\n      swap5\n      pop\n        /* \"#utility.yul\":5068:5185   */\n      pop\n        /* \"#utility.yul\":5224:5226   */\n      0x20\n        /* \"#utility.yul\":5250:5303   */\n      tag_266\n        /* \"#utility.yul\":5295:5302   */\n      dup8\n        /* \"#utility.yul\":5286:5292   */\n      dup3\n        /* \"#utility.yul\":5275:5284   */\n      dup9\n        /* \"#utility.yul\":5271:5293   */\n      add\n        /* \"#utility.yul\":5250:5303   */\n      tag_183\n      jump\t// in\n    tag_266:\n        /* \"#utility.yul\":5240:5303   */\n      swap4\n      pop\n        /* \"#utility.yul\":5195:5313   */\n      pop\n        /* \"#utility.yul\":5352:5354   */\n      0x40\n        /* \"#utility.yul\":5378:5431   */\n      tag_267\n        /* \"#utility.yul\":5423:5430   */\n      dup8\n        /* \"#utility.yul\":5414:5420   */\n      dup3\n        /* \"#utility.yul\":5403:5412   */\n      dup9\n        /* \"#utility.yul\":5399:5421   */\n      add\n        /* \"#utility.yul\":5378:5431   */\n      tag_186\n      jump\t// in\n    tag_267:\n        /* \"#utility.yul\":5368:5431   */\n      swap3\n      pop\n        /* \"#utility.yul\":5323:5441   */\n      pop\n        /* \"#utility.yul\":5480:5482   */\n      0x60\n        /* \"#utility.yul\":5506:5559   */\n      tag_268\n        /* \"#utility.yul\":5551:5558   */\n      dup8\n        /* \"#utility.yul\":5542:5548   */\n      dup3\n        /* \"#utility.yul\":5531:5540   */\n      dup9\n        /* \"#utility.yul\":5527:5549   */\n      add\n        /* \"#utility.yul\":5506:5559   */\n      tag_186\n      jump\t// in\n    tag_268:\n        /* \"#utility.yul\":5496:5559   */\n      swap2\n      pop\n        /* \"#utility.yul\":5451:5569   */\n      pop\n        /* \"#utility.yul\":4811:5576   */\n      swap3\n      swap6\n      swap2\n      swap5\n      pop\n      swap3\n      pop\n      jump\t// out\n        /* \"#utility.yul\":5582:5751   */\n    tag_189:\n        /* \"#utility.yul\":5666:5677   */\n      0x00\n        /* \"#utility.yul\":5700:5706   */\n      dup3\n        /* \"#utility.yul\":5695:5698   */\n      dup3\n        /* \"#utility.yul\":5688:5707   */\n      mstore\n        /* \"#utility.yul\":5740:5744   */\n      0x20\n        /* \"#utility.yul\":5735:5738   */\n      dup3\n        /* \"#utility.yul\":5731:5745   */\n      add\n        /* \"#utility.yul\":5716:5745   */\n      swap1\n      pop\n        /* \"#utility.yul\":5582:5751   */\n      swap3\n      swap2\n      pop\n      pop\n      jump\t// out\n        /* \"#utility.yul\":5757:5926   */\n    tag_190:\n        /* \"#utility.yul\":5897:5918   */\n      0x506f6f6c20646f6573206e6f7420657869737400000000000000000000000000\n        /* \"#utility.yul\":5893:5894   */\n      0x00\n        /* \"#utility.yul\":5885:5891   */\n      dup3\n        /* \"#utility.yul\":5881:5895   */\n      add\n        /* \"#utility.yul\":5874:5919   */\n      mstore\n        /* \"#utility.yul\":5757:5926   */\n      pop\n      jump\t// out\n        /* \"#utility.yul\":5932:6298   */\n    tag_191:\n        /* \"#utility.yul\":6074:6077   */\n      0x00\n        /* \"#utility.yul\":6095:6162   */\n      tag_272\n        /* \"#utility.yul\":6159:6161   */\n      0x13\n        /* \"#utility.yul\":6154:6157   */\n      dup4\n        /* \"#utility.yul\":6095:6162   */\n      tag_189\n      jump\t// in\n    tag_272:\n        /* \"#utility.yul\":6088:6162   */\n      swap2\n      pop\n        /* \"#utility.yul\":6171:6264   */\n      tag_273\n        /* \"#utility.yul\":6260:6263   */\n      dup3\n        /* \"#utility.yul\":6171:6264   */\n      tag_190\n      jump\t// in\n    tag_273:\n        /* \"#utility.yul\":6289:6291   */\n      0x20\n        /* \"#utility.yul\":6284:6287   */\n      dup3\n        /* \"#utility.yul\":6280:6292   */\n      add\n        /* \"#utility.yul\":6273:6292   */\n      swap1\n      pop\n        /* \"#utility.yul\":5932:6298   */\n      swap2\n      swap1\n      pop\n      jump\t// out\n        /* \"#utility.yul\":6304:6723   */\n    tag_46:\n        /* \"#utility.yul\":6470:6474   */\n      0x00\n        /* \"#utility.yul\":6508:6510   */\n      0x20\n        /* \"#utility.yul\":6497:6506   */\n      dup3\n        /* \"#utility.yul\":6493:6511   */\n      add\n        /* \"#utility.yul\":6485:6511   */\n      swap1\n      pop\n        /* \"#utility.yul\":6557:6566   */\n      dup2\n        /* \"#utility.yul\":6551:6555   */\n      dup2\n        /* \"#utility.yul\":6547:6567   */\n      sub\n        /* \"#utility.yul\":6543:6544   */\n      0x00\n        /* \"#utility.yul\":6532:6541   */\n      dup4\n        /* \"#utility.yul\":6528:6545   */\n      add\n        /* \"#utility.yul\":6521:6568   */\n      mstore\n        /* \"#utility.yul\":6585:6716   */\n      tag_275\n        /* \"#utility.yul\":6711:6715   */\n      dup2\n        /* \"#utility.yul\":6585:6716   */\n      tag_191\n      jump\t// in\n    tag_275:\n        /* \"#utility.yul\":6577:6716   */\n      swap1\n      pop\n        /* \"#utility.yul\":6304:6723   */\n      swap2\n      swap1\n      pop\n      jump\t// out\n        /* \"#utility.yul\":6729:7171   */\n    tag_48:\n        /* \"#utility.yul\":6878:6882   */\n      0x00\n        /* \"#utility.yul\":6916:6918   */\n      0x60\n        /* \"#utility.yul\":6905:6914   */\n      dup3\n        /* \"#utility.yul\":6901:6919   */\n      add\n        /* \"#utility.yul\":6893:6919   */\n      swap1\n      pop\n        /* \"#utility.yul\":6929:7000   */\n      tag_277\n        /* \"#utility.yul\":6997:6998   */\n      0x00\n        /* \"#utility.yul\":6986:6995   */\n      dup4\n        /* \"#utility.yul\":6982:6999   */\n      add\n        /* \"#utility.yul\":6973:6979   */\n      dup7\n        /* \"#utility.yul\":6929:7000   */\n      tag_187\n      jump\t// in\n    tag_277:\n        /* \"#utility.yul\":7010:7082   */\n      tag_278\n        /* \"#utility.yul\":7078:7080   */\n      0x20\n        /* \"#utility.yul\":7067:7076   */\n      dup4\n        /* \"#utility.yul\":7063:7081   */\n      add\n        /* \"#utility.yul\":7054:7060   */\n      dup6\n        /* \"#utility.yul\":7010:7082   */\n      tag_187\n      jump\t// in\n    tag_278:\n        /* \"#utility.yul\":7092:7164   */\n      tag_279\n        /* \"#utility.yul\":7160:7162   */\n      0x40\n        /* \"#utility.yul\":7149:7158   */\n      dup4\n        /* \"#utility.yul\":7145:7163   */\n      add\n        /* \"#utility.yul\":7136:7142   */\n      dup5\n        /* \"#utility.yul\":7092:7164   */\n      tag_188\n      jump\t// in\n    tag_279:\n        /* \"#utility.yul\":6729:7171   */\n      swap5\n      swap4\n      pop\n      pop\n      pop\n      pop\n      jump\t// out\n        /* \"#utility.yul\":7177:7267   */\n    tag_192:\n        /* \"#utility.yul\":7211:7218   */\n      0x00\n        /* \"#utility.yul\":7254:7259   */\n      dup2\n        /* \"#utility.yul\":7247:7260   */\n      iszero\n        /* \"#utility.yul\":7240:7261   */\n      iszero\n        /* \"#utility.yul\":7229:7261   */\n      swap1\n      pop\n        /* \"#utility.yul\":7177:7267   */\n      swap2\n      swap1\n      pop\n      jump\t// out\n        /* \"#utility.yul\":7273:7389   */\n    tag_193:\n        /* \"#utility.yul\":7343:7364   */\n      tag_282\n        /* \"#utility.yul\":7358:7363   */\n      dup2\n        /* \"#utility.yul\":7343:7364   */\n      tag_192\n      jump\t// in\n    tag_282:\n        /* \"#utility.yul\":7336:7341   */\n      dup2\n        /* \"#utility.yul\":7333:7365   */\n      eq\n        /* \"#utility.yul\":7323:7383   */\n      tag_283\n      jumpi\n        /* \"#utility.yul\":7379:7380   */\n      0x00\n        /* \"#utility.yul\":7376:7377   */\n      0x00\n        /* \"#utility.yul\":7369:7381   */\n      revert\n        /* \"#utility.yul\":7323:7383   */\n    tag_283:\n        /* \"#utility.yul\":7273:7389   */\n      pop\n      jump\t// out\n        /* \"#utility.yul\":7395:7532   */\n    tag_194:\n        /* \"#utility.yul\":7449:7454   */\n      0x00\n        /* \"#utility.yul\":7480:7486   */\n      dup2\n        /* \"#utility.yul\":7474:7487   */\n      mload\n        /* \"#utility.yul\":7465:7487   */\n      swap1\n      pop\n        /* \"#utility.yul\":7496:7526   */\n      tag_285\n        /* \"#utility.yul\":7520:7525   */\n      dup2\n        /* \"#utility.yul\":7496:7526   */\n      tag_193\n      jump\t// in\n    tag_285:\n        /* \"#utility.yul\":7395:7532   */\n      swap3\n      swap2\n      pop\n      pop\n      jump\t// out\n        /* \"#utility.yul\":7538:7883   */\n    tag_52:\n        /* \"#utility.yul\":7605:7611   */\n      0x00\n        /* \"#utility.yul\":7654:7656   */\n      0x20\n        /* \"#utility.yul\":7642:7651   */\n      dup3\n        /* \"#utility.yul\":7633:7640   */\n      dup5\n        /* \"#utility.yul\":7629:7652   */\n      sub\n        /* \"#utility.yul\":7625:7657   */\n      slt\n        /* \"#utility.yul\":7622:7741   */\n      iszero\n      tag_287\n      jumpi\n        /* \"#utility.yul\":7660:7739   */\n      tag_288\n      tag_178\n      jump\t// in\n    tag_288:\n        /* \"#utility.yul\":7622:7741   */\n    tag_287:\n        /* \"#utility.yul\":7780:7781   */\n      0x00\n        /* \"#utility.yul\":7805:7866   */\n      tag_289\n        /* \"#utility.yul\":7858:7865   */\n      dup5\n        /* \"#utility.yul\":7849:7855   */\n      dup3\n        /* \"#utility.yul\":7838:7847   */\n      dup6\n        /* \"#utility.yul\":7834:7856   */\n      add\n        /* \"#utility.yul\":7805:7866   */\n      tag_194\n      jump\t// in\n    tag_289:\n        /* \"#utility.yul\":7795:7866   */\n      swap2\n      pop\n        /* \"#utility.yul\":7751:7876   */\n      pop\n        /* \"#utility.yul\":7538:7883   */\n      swap3\n      swap2\n      pop\n      pop\n      jump\t// out\n        /* \"#utility.yul\":7889:8069   */\n    tag_195:\n        /* \"#utility.yul\":7937:8014   */\n      0x4e487b7100000000000000000000000000000000000000000000000000000000\n        /* \"#utility.yul\":7934:7935   */\n      0x00\n        /* \"#utility.yul\":7927:8015   */\n      mstore\n        /* \"#utility.yul\":8034:8038   */\n      0x11\n        /* \"#utility.yul\":8031:8032   */\n      0x04\n        /* \"#utility.yul\":8024:8039   */\n      mstore\n        /* \"#utility.yul\":8058:8062   */\n      0x24\n        /* \"#utility.yul\":8055:8056   */\n      0x00\n        /* \"#utility.yul\":8048:8063   */\n      revert\n        /* \"#utility.yul\":8075:8266   */\n    tag_59:\n        /* \"#utility.yul\":8115:8118   */\n      0x00\n        /* \"#utility.yul\":8134:8154   */\n      tag_292\n        /* \"#utility.yul\":8152:8153   */\n      dup3\n        /* \"#utility.yul\":8134:8154   */\n      tag_184\n      jump\t// in\n    tag_292:\n        /* \"#utility.yul\":8129:8154   */\n      swap2\n      pop\n        /* \"#utility.yul\":8168:8188   */\n      tag_293\n        /* \"#utility.yul\":8186:8187   */\n      dup4\n        /* \"#utility.yul\":8168:8188   */\n      tag_184\n      jump\t// in\n    tag_293:\n        /* \"#utility.yul\":8163:8188   */\n      swap3\n      pop\n        /* \"#utility.yul\":8211:8212   */\n      dup3\n        /* \"#utility.yul\":8208:8209   */\n      dup3\n        /* \"#utility.yul\":8204:8213   */\n      add\n        /* \"#utility.yul\":8197:8213   */\n      swap1\n      pop\n        /* \"#utility.yul\":8232:8235   */\n      dup1\n        /* \"#utility.yul\":8229:8230   */\n      dup3\n        /* \"#utility.yul\":8226:8236   */\n      gt\n        /* \"#utility.yul\":8223:8259   */\n      iszero\n      tag_294\n      jumpi\n        /* \"#utility.yul\":8239:8257   */\n      tag_295\n      tag_195\n      jump\t// in\n    tag_295:\n        /* \"#utility.yul\":8223:8259   */\n    tag_294:\n        /* \"#utility.yul\":8075:8266   */\n      swap3\n      swap2\n      pop\n      pop\n      jump\t// out\n        /* \"#utility.yul\":8272:8682   */\n    tag_62:\n        /* \"#utility.yul\":8312:8319   */\n      0x00\n        /* \"#utility.yul\":8335:8355   */\n      tag_297\n        /* \"#utility.yul\":8353:8354   */\n      dup3\n        /* \"#utility.yul\":8335:8355   */\n      tag_184\n      jump\t// in\n    tag_297:\n        /* \"#utility.yul\":8330:8355   */\n      swap2\n      pop\n        /* \"#utility.yul\":8369:8389   */\n      tag_298\n        /* \"#utility.yul\":8387:8388   */\n      dup4\n        /* \"#utility.yul\":8369:8389   */\n      tag_184\n      jump\t// in\n    tag_298:\n        /* \"#utility.yul\":8364:8389   */\n      swap3\n      pop\n        /* \"#utility.yul\":8424:8425   */\n      dup3\n        /* \"#utility.yul\":8421:8422   */\n      dup3\n        /* \"#utility.yul\":8417:8426   */\n      mul\n        /* \"#utility.yul\":8446:8476   */\n      tag_299\n        /* \"#utility.yul\":8464:8475   */\n      dup2\n        /* \"#utility.yul\":8446:8476   */\n      tag_184\n      jump\t// in\n    tag_299:\n        /* \"#utility.yul\":8435:8476   */\n      swap2\n      pop\n        /* \"#utility.yul\":8625:8626   */\n      dup3\n        /* \"#utility.yul\":8616:8623   */\n      dup3\n        /* \"#utility.yul\":8612:8627   */\n      div\n        /* \"#utility.yul\":8609:8610   */\n      dup5\n        /* \"#utility.yul\":8606:8628   */\n      eq\n        /* \"#utility.yul\":8586:8587   */\n      dup4\n        /* \"#utility.yul\":8579:8588   */\n      iszero\n        /* \"#utility.yul\":8559:8642   */\n      or\n        /* \"#utility.yul\":8536:8675   */\n      tag_300\n      jumpi\n        /* \"#utility.yul\":8655:8673   */\n      tag_301\n      tag_195\n      jump\t// in\n    tag_301:\n        /* \"#utility.yul\":8536:8675   */\n    tag_300:\n        /* \"#utility.yul\":8320:8682   */\n      pop\n        /* \"#utility.yul\":8272:8682   */\n      swap3\n      swap2\n      pop\n      pop\n      jump\t// out\n        /* \"#utility.yul\":8688:8868   */\n    tag_196:\n        /* \"#utility.yul\":8736:8813   */\n      0x4e487b7100000000000000000000000000000000000000000000000000000000\n        /* \"#utility.yul\":8733:8734   */\n      0x00\n        /* \"#utility.yul\":8726:8814   */\n      mstore\n        /* \"#utility.yul\":8833:8837   */\n      0x12\n        /* \"#utility.yul\":8830:8831   */\n      0x04\n        /* \"#utility.yul\":8823:8838   */\n      mstore\n        /* \"#utility.yul\":8857:8861   */\n      0x24\n        /* \"#utility.yul\":8854:8855   */\n      0x00\n        /* \"#utility.yul\":8847:8862   */\n      revert\n        /* \"#utility.yul\":8874:9059   */\n    tag_64:\n        /* \"#utility.yul\":8914:8915   */\n      0x00\n        /* \"#utility.yul\":8931:8951   */\n      tag_304\n        /* \"#utility.yul\":8949:8950   */\n      dup3\n        /* \"#utility.yul\":8931:8951   */\n      tag_184\n      jump\t// in\n    tag_304:\n        /* \"#utility.yul\":8926:8951   */\n      swap2\n      pop\n        /* \"#utility.yul\":8965:8985   */\n      tag_305\n        /* \"#utility.yul\":8983:8984   */\n      dup4\n        /* \"#utility.yul\":8965:8985   */\n      tag_184\n      jump\t// in\n    tag_305:\n        /* \"#utility.yul\":8960:8985   */\n      swap3\n      pop\n        /* \"#utility.yul\":9004:9005   */\n      dup3\n        /* \"#utility.yul\":8994:9029   */\n      tag_306\n      jumpi\n        /* \"#utility.yul\":9009:9027   */\n      tag_307\n      tag_196\n      jump\t// in\n    tag_307:\n        /* \"#utility.yul\":8994:9029   */\n    tag_306:\n        /* \"#utility.yul\":9051:9052   */\n      dup3\n        /* \"#utility.yul\":9048:9049   */\n      dup3\n        /* \"#utility.yul\":9044:9053   */\n      div\n        /* \"#utility.yul\":9039:9053   */\n      swap1\n      pop\n        /* \"#utility.yul\":8874:9059   */\n      swap3\n      swap2\n      pop\n      pop\n      jump\t// out\n        /* \"#utility.yul\":9065:9397   */\n    tag_69:\n        /* \"#utility.yul\":9186:9190   */\n      0x00\n        /* \"#utility.yul\":9224:9226   */\n      0x40\n        /* \"#utility.yul\":9213:9222   */\n      dup3\n        /* \"#utility.yul\":9209:9227   */\n      add\n        /* \"#utility.yul\":9201:9227   */\n      swap1\n      pop\n        /* \"#utility.yul\":9237:9308   */\n      tag_309\n        /* \"#utility.yul\":9305:9306   */\n      0x00\n        /* \"#utility.yul\":9294:9303   */\n      dup4\n        /* \"#utility.yul\":9290:9307   */\n      add\n        /* \"#utility.yul\":9281:9287   */\n      dup6\n        /* \"#utility.yul\":9237:9308   */\n      tag_188\n      jump\t// in\n    tag_309:\n        /* \"#utility.yul\":9318:9390   */\n      tag_310\n        /* \"#utility.yul\":9386:9388   */\n      0x20\n        /* \"#utility.yul\":9375:9384   */\n      dup4\n        /* \"#utility.yul\":9371:9389   */\n      add\n        /* \"#utility.yul\":9362:9368   */\n      dup5\n        /* \"#utility.yul\":9318:9390   */\n      tag_188\n      jump\t// in\n    tag_310:\n        /* \"#utility.yul\":9065:9397   */\n      swap4\n      swap3\n      pop\n      pop\n      pop\n      jump\t// out\n        /* \"#utility.yul\":9403:9576   */\n    tag_197:\n        /* \"#utility.yul\":9543:9568   */\n      0x4665652070657263656e7461676520746f6f2068696768000000000000000000\n        /* \"#utility.yul\":9539:9540   */\n      0x00\n        /* \"#utility.yul\":9531:9537   */\n      dup3\n        /* \"#utility.yul\":9527:9541   */\n      add\n        /* \"#utility.yul\":9520:9569   */\n      mstore\n        /* \"#utility.yul\":9403:9576   */\n      pop\n      jump\t// out\n        /* \"#utility.yul\":9582:9948   */\n    tag_198:\n        /* \"#utility.yul\":9724:9727   */\n      0x00\n        /* \"#utility.yul\":9745:9812   */\n      tag_313\n        /* \"#utility.yul\":9809:9811   */\n      0x17\n        /* \"#utility.yul\":9804:9807   */\n      dup4\n        /* \"#utility.yul\":9745:9812   */\n      tag_189\n      jump\t// in\n    tag_313:\n        /* \"#utility.yul\":9738:9812   */\n      swap2\n      pop\n        /* \"#utility.yul\":9821:9914   */\n      tag_314\n        /* \"#utility.yul\":9910:9913   */\n      dup3\n        /* \"#utility.yul\":9821:9914   */\n      tag_197\n      jump\t// in\n    tag_314:\n        /* \"#utility.yul\":9939:9941   */\n      0x20\n        /* \"#utility.yul\":9934:9937   */\n      dup3\n        /* \"#utility.yul\":9930:9942   */\n      add\n        /* \"#utility.yul\":9923:9942   */\n      swap1\n      pop\n        /* \"#utility.yul\":9582:9948   */\n      swap2\n      swap1\n      pop\n      jump\t// out\n        /* \"#utility.yul\":9954:10373   */\n    tag_76:\n        /* \"#utility.yul\":10120:10124   */\n      0x00\n        /* \"#utility.yul\":10158:10160   */\n      0x20\n        /* \"#utility.yul\":10147:10156   */\n      dup3\n        /* \"#utility.yul\":10143:10161   */\n      add\n        /* \"#utility.yul\":10135:10161   */\n      swap1\n      pop\n        /* \"#utility.yul\":10207:10216   */\n      dup2\n        /* \"#utility.yul\":10201:10205   */\n      dup2\n        /* \"#utility.yul\":10197:10217   */\n      sub\n        /* \"#utility.yul\":10193:10194   */\n      0x00\n        /* \"#utility.yul\":10182:10191   */\n      dup4\n        /* \"#utility.yul\":10178:10195   */\n      add\n        /* \"#utility.yul\":10171:10218   */\n      mstore\n        /* \"#utility.yul\":10235:10366   */\n      tag_316\n        /* \"#utility.yul\":10361:10365   */\n      dup2\n        /* \"#utility.yul\":10235:10366   */\n      tag_198\n      jump\t// in\n    tag_316:\n        /* \"#utility.yul\":10227:10366   */\n      swap1\n      pop\n        /* \"#utility.yul\":9954:10373   */\n      swap2\n      swap1\n      pop\n      jump\t// out\n        /* \"#utility.yul\":10379:10548   */\n    tag_199:\n        /* \"#utility.yul\":10519:10540   */\n      0x506f6f6c20616c72656164792065786973747300000000000000000000000000\n        /* \"#utility.yul\":10515:10516   */\n      0x00\n        /* \"#utility.yul\":10507:10513   */\n      dup3\n        /* \"#utility.yul\":10503:10517   */\n      add\n        /* \"#utility.yul\":10496:10541   */\n      mstore\n        /* \"#utility.yul\":10379:10548   */\n      pop\n      jump\t// out\n        /* \"#utility.yul\":10554:10920   */\n    tag_200:\n        /* \"#utility.yul\":10696:10699   */\n      0x00\n        /* \"#utility.yul\":10717:10784   */\n      tag_319\n        /* \"#utility.yul\":10781:10783   */\n      0x13\n        /* \"#utility.yul\":10776:10779   */\n      dup4\n        /* \"#utility.yul\":10717:10784   */\n      tag_189\n      jump\t// in\n    tag_319:\n        /* \"#utility.yul\":10710:10784   */\n      swap2\n      pop\n        /* \"#utility.yul\":10793:10886   */\n      tag_320\n        /* \"#utility.yul\":10882:10885   */\n      dup3\n        /* \"#utility.yul\":10793:10886   */\n      tag_199\n      jump\t// in\n    tag_320:\n        /* \"#utility.yul\":10911:10913   */\n      0x20\n        /* \"#utility.yul\":10906:10909   */\n      dup3\n        /* \"#utility.yul\":10902:10914   */\n      add\n        /* \"#utility.yul\":10895:10914   */\n      swap1\n      pop\n        /* \"#utility.yul\":10554:10920   */\n      swap2\n      swap1\n      pop\n      jump\t// out\n        /* \"#utility.yul\":10926:11345   */\n    tag_79:\n        /* \"#utility.yul\":11092:11096   */\n      0x00\n        /* \"#utility.yul\":11130:11132   */\n      0x20\n        /* \"#utility.yul\":11119:11128   */\n      dup3\n        /* \"#utility.yul\":11115:11133   */\n      add\n        /* \"#utility.yul\":11107:11133   */\n      swap1\n      pop\n        /* \"#utility.yul\":11179:11188   */\n      dup2\n        /* \"#utility.yul\":11173:11177   */\n      dup2\n        /* \"#utility.yul\":11169:11189   */\n      sub\n        /* \"#utility.yul\":11165:11166   */\n      0x00\n        /* \"#utility.yul\":11154:11163   */\n      dup4\n        /* \"#utility.yul\":11150:11167   */\n      add\n        /* \"#utility.yul\":11143:11190   */\n      mstore\n        /* \"#utility.yul\":11207:11338   */\n      tag_322\n        /* \"#utility.yul\":11333:11337   */\n      dup2\n        /* \"#utility.yul\":11207:11338   */\n      tag_200\n      jump\t// in\n    tag_322:\n        /* \"#utility.yul\":11199:11338   */\n      swap1\n      pop\n        /* \"#utility.yul\":10926:11345   */\n      swap2\n      swap1\n      pop\n      jump\t// out\n        /* \"#utility.yul\":11351:11573   */\n    tag_81:\n        /* \"#utility.yul\":11444:11448   */\n      0x00\n        /* \"#utility.yul\":11482:11484   */\n      0x20\n        /* \"#utility.yul\":11471:11480   */\n      dup3\n        /* \"#utility.yul\":11467:11485   */\n      add\n        /* \"#utility.yul\":11459:11485   */\n      swap1\n      pop\n        /* \"#utility.yul\":11495:11566   */\n      tag_324\n        /* \"#utility.yul\":11563:11564   */\n      0x00\n        /* \"#utility.yul\":11552:11561   */\n      dup4\n        /* \"#utility.yul\":11548:11565   */\n      add\n        /* \"#utility.yul\":11539:11545   */\n      dup5\n        /* \"#utility.yul\":11495:11566   */\n      tag_188\n      jump\t// in\n    tag_324:\n        /* \"#utility.yul\":11351:11573   */\n      swap3\n      swap2\n      pop\n      pop\n      jump\t// out\n        /* \"#utility.yul\":11579:11748   */\n    tag_201:\n        /* \"#utility.yul\":11719:11740   */\n      0x5769746864726177616c20746f6f20736f6f6e00000000000000000000000000\n        /* \"#utility.yul\":11715:11716   */\n      0x00\n        /* \"#utility.yul\":11707:11713   */\n      dup3\n        /* \"#utility.yul\":11703:11717   */\n      add\n        /* \"#utility.yul\":11696:11741   */\n      mstore\n        /* \"#utility.yul\":11579:11748   */\n      pop\n      jump\t// out\n        /* \"#utility.yul\":11754:12120   */\n    tag_202:\n        /* \"#utility.yul\":11896:11899   */\n      0x00\n        /* \"#utility.yul\":11917:11984   */\n      tag_327\n        /* \"#utility.yul\":11981:11983   */\n      0x13\n        /* \"#utility.yul\":11976:11979   */\n      dup4\n        /* \"#utility.yul\":11917:11984   */\n      tag_189\n      jump\t// in\n    tag_327:\n        /* \"#utility.yul\":11910:11984   */\n      swap2\n      pop\n        /* \"#utility.yul\":11993:12086   */\n      tag_328\n        /* \"#utility.yul\":12082:12085   */\n      dup3\n        /* \"#utility.yul\":11993:12086   */\n      tag_201\n      jump\t// in\n    tag_328:\n        /* \"#utility.yul\":12111:12113   */\n      0x20\n        /* \"#utility.yul\":12106:12109   */\n      dup3\n        /* \"#utility.yul\":12102:12114   */\n      add\n        /* \"#utility.yul\":12095:12114   */\n      swap1\n      pop\n        /* \"#utility.yul\":11754:12120   */\n      swap2\n      swap1\n      pop\n      jump\t// out\n        /* \"#utility.yul\":12126:12545   */\n    tag_94:\n        /* \"#utility.yul\":12292:12296   */\n      0x00\n        /* \"#utility.yul\":12330:12332   */\n      0x20\n        /* \"#utility.yul\":12319:12328   */\n      dup3\n        /* \"#utility.yul\":12315:12333   */\n      add\n        /* \"#utility.yul\":12307:12333   */\n      swap1\n      pop\n        /* \"#utility.yul\":12379:12388   */\n      dup2\n        /* \"#utility.yul\":12373:12377   */\n      dup2\n        /* \"#utility.yul\":12369:12389   */\n      sub\n        /* \"#utility.yul\":12365:12366   */\n      0x00\n        /* \"#utility.yul\":12354:12363   */\n      dup4\n        /* \"#utility.yul\":12350:12367   */\n      add\n        /* \"#utility.yul\":12343:12390   */\n      mstore\n        /* \"#utility.yul\":12407:12538   */\n      tag_330\n        /* \"#utility.yul\":12533:12537   */\n      dup2\n        /* \"#utility.yul\":12407:12538   */\n      tag_202\n      jump\t// in\n    tag_330:\n        /* \"#utility.yul\":12399:12538   */\n      swap1\n      pop\n        /* \"#utility.yul\":12126:12545   */\n      swap2\n      swap1\n      pop\n      jump\t// out\n        /* \"#utility.yul\":12551:12694   */\n    tag_203:\n        /* \"#utility.yul\":12608:12613   */\n      0x00\n        /* \"#utility.yul\":12639:12645   */\n      dup2\n        /* \"#utility.yul\":12633:12646   */\n      mload\n        /* \"#utility.yul\":12624:12646   */\n      swap1\n      pop\n        /* \"#utility.yul\":12655:12688   */\n      tag_332\n        /* \"#utility.yul\":12682:12687   */\n      dup2\n        /* \"#utility.yul\":12655:12688   */\n      tag_185\n      jump\t// in\n    tag_332:\n        /* \"#utility.yul\":12551:12694   */\n      swap3\n      swap2\n      pop\n      pop\n      jump\t// out\n        /* \"#utility.yul\":12700:13051   */\n    tag_101:\n        /* \"#utility.yul\":12770:12776   */\n      0x00\n        /* \"#utility.yul\":12819:12821   */\n      0x20\n        /* \"#utility.yul\":12807:12816   */\n      dup3\n        /* \"#utility.yul\":12798:12805   */\n      dup5\n        /* \"#utility.yul\":12794:12817   */\n      sub\n        /* \"#utility.yul\":12790:12822   */\n      slt\n        /* \"#utility.yul\":12787:12906   */\n      iszero\n      tag_334\n      jumpi\n        /* \"#utility.yul\":12825:12904   */\n      tag_335\n      tag_178\n      jump\t// in\n    tag_335:\n        /* \"#utility.yul\":12787:12906   */\n    tag_334:\n        /* \"#utility.yul\":12945:12946   */\n      0x00\n        /* \"#utility.yul\":12970:13034   */\n      tag_336\n        /* \"#utility.yul\":13026:13033   */\n      dup5\n        /* \"#utility.yul\":13017:13023   */\n      dup3\n        /* \"#utility.yul\":13006:13015   */\n      dup6\n        /* \"#utility.yul\":13002:13024   */\n      add\n        /* \"#utility.yul\":12970:13034   */\n      tag_203\n      jump\t// in\n    tag_336:\n        /* \"#utility.yul\":12960:13034   */\n      swap2\n      pop\n        /* \"#utility.yul\":12916:13044   */\n      pop\n        /* \"#utility.yul\":12700:13051   */\n      swap3\n      swap2\n      pop\n      pop\n      jump\t// out\n        /* \"#utility.yul\":13057:13251   */\n    tag_111:\n        /* \"#utility.yul\":13097:13101   */\n      0x00\n        /* \"#utility.yul\":13117:13137   */\n      tag_338\n        /* \"#utility.yul\":13135:13136   */\n      dup3\n        /* \"#utility.yul\":13117:13137   */\n      tag_184\n      jump\t// in\n    tag_338:\n        /* \"#utility.yul\":13112:13137   */\n      swap2\n      pop\n        /* \"#utility.yul\":13151:13171   */\n      tag_339\n        /* \"#utility.yul\":13169:13170   */\n      dup4\n        /* \"#utility.yul\":13151:13171   */\n      tag_184\n      jump\t// in\n    tag_339:\n        /* \"#utility.yul\":13146:13171   */\n      swap3\n      pop\n        /* \"#utility.yul\":13195:13196   */\n      dup3\n        /* \"#utility.yul\":13192:13193   */\n      dup3\n        /* \"#utility.yul\":13188:13197   */\n      sub\n        /* \"#utility.yul\":13180:13197   */\n      swap1\n      pop\n        /* \"#utility.yul\":13219:13220   */\n      dup2\n        /* \"#utility.yul\":13213:13217   */\n      dup2\n        /* \"#utility.yul\":13210:13221   */\n      gt\n        /* \"#utility.yul\":13207:13244   */\n      iszero\n      tag_340\n      jumpi\n        /* \"#utility.yul\":13224:13242   */\n      tag_341\n      tag_195\n      jump\t// in\n    tag_341:\n        /* \"#utility.yul\":13207:13244   */\n    tag_340:\n        /* \"#utility.yul\":13057:13251   */\n      swap3\n      swap2\n      pop\n      pop\n      jump\t// out\n        /* \"#utility.yul\":13257:13589   */\n    tag_113:\n        /* \"#utility.yul\":13378:13382   */\n      0x00\n        /* \"#utility.yul\":13416:13418   */\n      0x40\n        /* \"#utility.yul\":13405:13414   */\n      dup3\n        /* \"#utility.yul\":13401:13419   */\n      add\n        /* \"#utility.yul\":13393:13419   */\n      swap1\n      pop\n        /* \"#utility.yul\":13429:13500   */\n      tag_343\n        /* \"#utility.yul\":13497:13498   */\n      0x00\n        /* \"#utility.yul\":13486:13495   */\n      dup4\n        /* \"#utility.yul\":13482:13499   */\n      add\n        /* \"#utility.yul\":13473:13479   */\n      dup6\n        /* \"#utility.yul\":13429:13500   */\n      tag_187\n      jump\t// in\n    tag_343:\n        /* \"#utility.yul\":13510:13582   */\n      tag_344\n        /* \"#utility.yul\":13578:13580   */\n      0x20\n        /* \"#utility.yul\":13567:13576   */\n      dup4\n        /* \"#utility.yul\":13563:13581   */\n      add\n        /* \"#utility.yul\":13554:13560   */\n      dup5\n        /* \"#utility.yul\":13510:13582   */\n      tag_188\n      jump\t// in\n    tag_344:\n        /* \"#utility.yul\":13257:13589   */\n      swap4\n      swap3\n      pop\n      pop\n      pop\n      jump\t// out\n        /* \"#utility.yul\":13595:13764   */\n    tag_204:\n        /* \"#utility.yul\":13735:13756   */\n      0x496e76616c696420696e70757420746f6b656e00000000000000000000000000\n        /* \"#utility.yul\":13731:13732   */\n      0x00\n        /* \"#utility.yul\":13723:13729   */\n      dup3\n        /* \"#utility.yul\":13719:13733   */\n      add\n        /* \"#utility.yul\":13712:13757   */\n      mstore\n        /* \"#utility.yul\":13595:13764   */\n      pop\n      jump\t// out\n        /* \"#utility.yul\":13770:14136   */\n    tag_205:\n        /* \"#utility.yul\":13912:13915   */\n      0x00\n        /* \"#utility.yul\":13933:14000   */\n      tag_347\n        /* \"#utility.yul\":13997:13999   */\n      0x13\n        /* \"#utility.yul\":13992:13995   */\n      dup4\n        /* \"#utility.yul\":13933:14000   */\n      tag_189\n      jump\t// in\n    tag_347:\n        /* \"#utility.yul\":13926:14000   */\n      swap2\n      pop\n        /* \"#utility.yul\":14009:14102   */\n      tag_348\n        /* \"#utility.yul\":14098:14101   */\n      dup3\n        /* \"#utility.yul\":14009:14102   */\n      tag_204\n      jump\t// in\n    tag_348:\n        /* \"#utility.yul\":14127:14129   */\n      0x20\n        /* \"#utility.yul\":14122:14125   */\n      dup3\n        /* \"#utility.yul\":14118:14130   */\n      add\n        /* \"#utility.yul\":14111:14130   */\n      swap1\n      pop\n        /* \"#utility.yul\":13770:14136   */\n      swap2\n      swap1\n      pop\n      jump\t// out\n        /* \"#utility.yul\":14142:14561   */\n    tag_134:\n        /* \"#utility.yul\":14308:14312   */\n      0x00\n        /* \"#utility.yul\":14346:14348   */\n      0x20\n        /* \"#utility.yul\":14335:14344   */\n      dup3\n        /* \"#utility.yul\":14331:14349   */\n      add\n        /* \"#utility.yul\":14323:14349   */\n      swap1\n      pop\n        /* \"#utility.yul\":14395:14404   */\n      dup2\n        /* \"#utility.yul\":14389:14393   */\n      dup2\n        /* \"#utility.yul\":14385:14405   */\n      sub\n        /* \"#utility.yul\":14381:14382   */\n      0x00\n        /* \"#utility.yul\":14370:14379   */\n      dup4\n        /* \"#utility.yul\":14366:14383   */\n      add\n        /* \"#utility.yul\":14359:14406   */\n      mstore\n        /* \"#utility.yul\":14423:14554   */\n      tag_350\n        /* \"#utility.yul\":14549:14553   */\n      dup2\n        /* \"#utility.yul\":14423:14554   */\n      tag_205\n      jump\t// in\n    tag_350:\n        /* \"#utility.yul\":14415:14554   */\n      swap1\n      pop\n        /* \"#utility.yul\":14142:14561   */\n      swap2\n      swap1\n      pop\n      jump\t// out\n        /* \"#utility.yul\":14567:14743   */\n    tag_206:\n        /* \"#utility.yul\":14707:14735   */\n      0x496e73756666696369656e74206f757470757420616d6f756e74000000000000\n        /* \"#utility.yul\":14703:14704   */\n      0x00\n        /* \"#utility.yul\":14695:14701   */\n      dup3\n        /* \"#utility.yul\":14691:14705   */\n      add\n        /* \"#utility.yul\":14684:14736   */\n      mstore\n        /* \"#utility.yul\":14567:14743   */\n      pop\n      jump\t// out\n        /* \"#utility.yul\":14749:15115   */\n    tag_207:\n        /* \"#utility.yul\":14891:14894   */\n      0x00\n        /* \"#utility.yul\":14912:14979   */\n      tag_353\n        /* \"#utility.yul\":14976:14978   */\n      0x1a\n        /* \"#utility.yul\":14971:14974   */\n      dup4\n        /* \"#utility.yul\":14912:14979   */\n      tag_189\n      jump\t// in\n    tag_353:\n        /* \"#utility.yul\":14905:14979   */\n      swap2\n      pop\n        /* \"#utility.yul\":14988:15081   */\n      tag_354\n        /* \"#utility.yul\":15077:15080   */\n      dup3\n        /* \"#utility.yul\":14988:15081   */\n      tag_206\n      jump\t// in\n    tag_354:\n        /* \"#utility.yul\":15106:15108   */\n      0x20\n        /* \"#utility.yul\":15101:15104   */\n      dup3\n        /* \"#utility.yul\":15097:15109   */\n      add\n        /* \"#utility.yul\":15090:15109   */\n      swap1\n      pop\n        /* \"#utility.yul\":14749:15115   */\n      swap2\n      swap1\n      pop\n      jump\t// out\n        /* \"#utility.yul\":15121:15540   */\n    tag_153:\n        /* \"#utility.yul\":15287:15291   */\n      0x00\n        /* \"#utility.yul\":15325:15327   */\n      0x20\n        /* \"#utility.yul\":15314:15323   */\n      dup3\n        /* \"#utility.yul\":15310:15328   */\n      add\n        /* \"#utility.yul\":15302:15328   */\n      swap1\n      pop\n        /* \"#utility.yul\":15374:15383   */\n      dup2\n        /* \"#utility.yul\":15368:15372   */\n      dup2\n        /* \"#utility.yul\":15364:15384   */\n      sub\n        /* \"#utility.yul\":15360:15361   */\n      0x00\n        /* \"#utility.yul\":15349:15358   */\n      dup4\n        /* \"#utility.yul\":15345:15362   */\n      add\n        /* \"#utility.yul\":15338:15385   */\n      mstore\n        /* \"#utility.yul\":15402:15533   */\n      tag_356\n        /* \"#utility.yul\":15528:15532   */\n      dup2\n        /* \"#utility.yul\":15402:15533   */\n      tag_207\n      jump\t// in\n    tag_356:\n        /* \"#utility.yul\":15394:15533   */\n      swap1\n      pop\n        /* \"#utility.yul\":15121:15540   */\n      swap2\n      swap1\n      pop\n      jump\t// out\n        /* \"#utility.yul\":15546:16099   */\n    tag_167:\n        /* \"#utility.yul\":15723:15727   */\n      0x00\n        /* \"#utility.yul\":15761:15764   */\n      0x80\n        /* \"#utility.yul\":15750:15759   */\n      dup3\n        /* \"#utility.yul\":15746:15765   */\n      add\n        /* \"#utility.yul\":15738:15765   */\n      swap1\n      pop\n        /* \"#utility.yul\":15775:15846   */\n      tag_358\n        /* \"#utility.yul\":15843:15844   */\n      0x00\n        /* \"#utility.yul\":15832:15841   */\n      dup4\n        /* \"#utility.yul\":15828:15845   */\n      add\n        /* \"#utility.yul\":15819:15825   */\n      dup8\n        /* \"#utility.yul\":15775:15846   */\n      tag_187\n      jump\t// in\n    tag_358:\n        /* \"#utility.yul\":15856:15928   */\n      tag_359\n        /* \"#utility.yul\":15924:15926   */\n      0x20\n        /* \"#utility.yul\":15913:15922   */\n      dup4\n        /* \"#utility.yul\":15909:15927   */\n      add\n        /* \"#utility.yul\":15900:15906   */\n      dup7\n        /* \"#utility.yul\":15856:15928   */\n      tag_187\n      jump\t// in\n    tag_359:\n        /* \"#utility.yul\":15938:16010   */\n      tag_360\n        /* \"#utility.yul\":16006:16008   */\n      0x40\n        /* \"#utility.yul\":15995:16004   */\n      dup4\n        /* \"#utility.yul\":15991:16009   */\n      add\n        /* \"#utility.yul\":15982:15988   */\n      dup6\n        /* \"#utility.yul\":15938:16010   */\n      tag_188\n      jump\t// in\n    tag_360:\n        /* \"#utility.yul\":16020:16092   */\n      tag_361\n        /* \"#utility.yul\":16088:16090   */\n      0x60\n        /* \"#utility.yul\":16077:16086   */\n      dup4\n        /* \"#utility.yul\":16073:16091   */\n      add\n        /* \"#utility.yul\":16064:16070   */\n      dup5\n        /* \"#utility.yul\":16020:16092   */\n      tag_188\n      jump\t// in\n    tag_361:\n        /* \"#utility.yul\":15546:16099   */\n      swap6\n      swap5\n      pop\n      pop\n      pop\n      pop\n      pop\n      jump\t// out\n\n    auxdata: 0xa2646970667358221220d8c8ddc9a4bf9cc0105e5b9d409192dcce08318c305ac51585b576fb627bb4e064736f6c634300081c0033\n}\n",
				"bytecode": {
					"linkReferences": {},
					"object": "608060405234801561000f575f5ffd5b50335f73ffffffffffffffffffffffffffffffffffffffff168173ffffffffffffffffffffffffffffffffffffffff1603610081575f6040517f1e4fbdf70000000000000000000000000000000000000000000000000000000081526004016100789190610196565b60405180910390fd5b6100908161009660201b60201c565b506101af565b5f5f5f9054906101000a900473ffffffffffffffffffffffffffffffffffffffff169050815f5f6101000a81548173ffffffffffffffffffffffffffffffffffffffff021916908373ffffffffffffffffffffffffffffffffffffffff1602179055508173ffffffffffffffffffffffffffffffffffffffff168173ffffffffffffffffffffffffffffffffffffffff167f8be0079c531659141344cd1fd0a4f28419497f9722a3daafe3b4186f6b6457e060405160405180910390a35050565b5f73ffffffffffffffffffffffffffffffffffffffff82169050919050565b5f61018082610157565b9050919050565b61019081610176565b82525050565b5f6020820190506101a95f830184610187565b92915050565b611ce2806101bc5f395ff3fe608060405234801561000f575f5ffd5b5060043610610086575f3560e01c8063a201ccf611610059578063a201ccf6146100ea578063a4063dbc14610106578063f2fde38b1461013b578063fe0291561461015757610086565b806355776b771461008a5780635e7b647f146100a6578063715018a6146100c25780638da5cb5b146100cc575b5f5ffd5b6100a4600480360381019061009f9190611553565b610173565b005b6100c060048036038101906100bb91906115a3565b610466565b005b6100ca61079f565b005b6100d46107b2565b6040516100e19190611629565b60405180910390f35b61010460048036038101906100ff9190611642565b6107d9565b005b610120600480360381019061011b9190611680565b610c60565b604051610132969594939291906116ba565b60405180910390f35b61015560048036038101906101509190611680565b610cf5565b005b610171600480360381019061016c9190611719565b610d79565b005b5f60015f8573ffffffffffffffffffffffffffffffffffffffff1673ffffffffffffffffffffffffffffffffffffffff1681526020019081526020015f2090505f73ffffffffffffffffffffffffffffffffffffffff16815f015f9054906101000a900473ffffffffffffffffffffffffffffffffffffffff1673ffffffffffffffffffffffffffffffffffffffff1603610243576040517f08c379a000000000000000000000000000000000000000000000000000000000815260040161023a906117d7565b60405180910390fd5b805f015f9054906101000a900473ffffffffffffffffffffffffffffffffffffffff1673ffffffffffffffffffffffffffffffffffffffff166323b872dd3386866040518463ffffffff1660e01b81526004016102a2939291906117f5565b6020604051808303815f875af11580156102be573d5f5f3e3d5ffd5b505050506040513d601f19601f820116820180604052508101906102e2919061185f565b50806001015f9054906101000a900473ffffffffffffffffffffffffffffffffffffffff1673ffffffffffffffffffffffffffffffffffffffff166323b872dd3386856040518463ffffffff1660e01b8152600401610343939291906117f5565b6020604051808303815f875af115801561035f573d5f5f3e3d5ffd5b505050506040513d601f19601f82011682018060405250810190610383919061185f565b505f5f8260020154146103c657828461039c91906118b7565b826002015484866103ad91906118b7565b6103b791906118ea565b6103c19190611958565b6103d3565b82846103d291906118b7565b5b905080826002015f8282546103e891906118b7565b925050819055504282600501819055503373ffffffffffffffffffffffffffffffffffffffff168573ffffffffffffffffffffffffffffffffffffffff167f36f3b2e1a21c19137dd82ec243b0708a1d26b3d1fa1dc49c44c4c366a58781388686604051610457929190611988565b60405180910390a35050505050565b61046e611373565b6103e88211156104b3576040517f08c379a00000000000000000000000000000000000000000000000000000000081526004016104aa906119f9565b60405180910390fd5b5f73ffffffffffffffffffffffffffffffffffffffff1660015f8773ffffffffffffffffffffffffffffffffffffffff1673ffffffffffffffffffffffffffffffffffffffff1681526020019081526020015f205f015f9054906101000a900473ffffffffffffffffffffffffffffffffffffffff1673ffffffffffffffffffffffffffffffffffffffff161461057f576040517f08c379a000000000000000000000000000000000000000000000000000000000815260040161057690611a61565b60405180910390fd5b6040518060c001604052808573ffffffffffffffffffffffffffffffffffffffff1681526020018473ffffffffffffffffffffffffffffffffffffffff1681526020015f81526020018381526020018273ffffffffffffffffffffffffffffffffffffffff1681526020014281525060015f8773ffffffffffffffffffffffffffffffffffffffff1673ffffffffffffffffffffffffffffffffffffffff1681526020019081526020015f205f820151815f015f6101000a81548173ffffffffffffffffffffffffffffffffffffffff021916908373ffffffffffffffffffffffffffffffffffffffff1602179055506020820151816001015f6101000a81548173ffffffffffffffffffffffffffffffffffffffff021916908373ffffffffffffffffffffffffffffffffffffffff16021790555060408201518160020155606082015181600301556080820151816004015f6101000a81548173ffffffffffffffffffffffffffffffffffffffff021916908373ffffffffffffffffffffffffffffffffffffffff16021790555060a082015181600501559050508273ffffffffffffffffffffffffffffffffffffffff168473ffffffffffffffffffffffffffffffffffffffff168673ffffffffffffffffffffffffffffffffffffffff167f886ffed95392e2f52907cb2236f5a7da7760e3b971f5df0775067a2bc8647654856040516107909190611a7f565b60405180910390a45050505050565b6107a7611373565b6107b05f6113fa565b565b5f5f5f9054906101000a900473ffffffffffffffffffffffffffffffffffffffff16905090565b5f60015f8473ffffffffffffffffffffffffffffffffffffffff1673ffffffffffffffffffffffffffffffffffffffff1681526020019081526020015f2090505f73ffffffffffffffffffffffffffffffffffffffff16815f015f9054906101000a900473ffffffffffffffffffffffffffffffffffffffff1673ffffffffffffffffffffffffffffffffffffffff16036108a9576040517f08c379a00000000000000000000000000000000000000000000000000000000081526004016108a0906117d7565b60405180910390fd5b61012c81600501546108bb91906118b7565b4210156108fd576040517f08c379a00000000000000000000000000000000000000000000000000000000081526004016108f490611ae2565b60405180910390fd5b5f8160020154670de0b6b3a76400008461091791906118ea565b6109219190611958565b90505f670de0b6b3a7640000835f015f9054906101000a900473ffffffffffffffffffffffffffffffffffffffff1673ffffffffffffffffffffffffffffffffffffffff166370a08231876040518263ffffffff1660e01b81526004016109889190611629565b602060405180830381865afa1580156109a3573d5f5f3e3d5ffd5b505050506040513d601f19601f820116820180604052508101906109c79190611b14565b836109d291906118ea565b6109dc9190611958565b90505f670de0b6b3a7640000846001015f9054906101000a900473ffffffffffffffffffffffffffffffffffffffff1673ffffffffffffffffffffffffffffffffffffffff166370a08231886040518263ffffffff1660e01b8152600401610a449190611629565b602060405180830381865afa158015610a5f573d5f5f3e3d5ffd5b505050506040513d601f19601f82011682018060405250810190610a839190611b14565b84610a8e91906118ea565b610a989190611958565b905084846002015f828254610aad9190611b3f565b92505081905550835f015f9054906101000a900473ffffffffffffffffffffffffffffffffffffffff1673ffffffffffffffffffffffffffffffffffffffff1663a9059cbb33846040518363ffffffff1660e01b8152600401610b11929190611b72565b6020604051808303815f875af1158015610b2d573d5f5f3e3d5ffd5b505050506040513d601f19601f82011682018060405250810190610b51919061185f565b50836001015f9054906101000a900473ffffffffffffffffffffffffffffffffffffffff1673ffffffffffffffffffffffffffffffffffffffff1663a9059cbb33836040518363ffffffff1660e01b8152600401610bb0929190611b72565b6020604051808303815f875af1158015610bcc573d5f5f3e3d5ffd5b505050506040513d601f19601f82011682018060405250810190610bf0919061185f565b503373ffffffffffffffffffffffffffffffffffffffff168673ffffffffffffffffffffffffffffffffffffffff167f3b5c196aff80bb96c03b41c96906b66827014de931d1b36e0ede6ee8caeb4bf98484604051610c50929190611988565b60405180910390a3505050505050565b6001602052805f5260405f205f91509050805f015f9054906101000a900473ffffffffffffffffffffffffffffffffffffffff1690806001015f9054906101000a900473ffffffffffffffffffffffffffffffffffffffff1690806002015490806003015490806004015f9054906101000a900473ffffffffffffffffffffffffffffffffffffffff16908060050154905086565b610cfd611373565b5f73ffffffffffffffffffffffffffffffffffffffff168173ffffffffffffffffffffffffffffffffffffffff1603610d6d575f6040517f1e4fbdf7000000000000000000000000000000000000000000000000000000008152600401610d649190611629565b60405180910390fd5b610d76816113fa565b50565b5f60015f8673ffffffffffffffffffffffffffffffffffffffff1673ffffffffffffffffffffffffffffffffffffffff1681526020019081526020015f2090505f73ffffffffffffffffffffffffffffffffffffffff16815f015f9054906101000a900473ffffffffffffffffffffffffffffffffffffffff1673ffffffffffffffffffffffffffffffffffffffff1603610e49576040517f08c379a0000000000000000000000000000000000000000000000000000000008152600401610e40906117d7565b60405180910390fd5b805f015f9054906101000a900473ffffffffffffffffffffffffffffffffffffffff1673ffffffffffffffffffffffffffffffffffffffff168473ffffffffffffffffffffffffffffffffffffffff161480610ef35750806001015f9054906101000a900473ffffffffffffffffffffffffffffffffffffffff1673ffffffffffffffffffffffffffffffffffffffff168473ffffffffffffffffffffffffffffffffffffffff16145b610f32576040517f08c379a0000000000000000000000000000000000000000000000000000000008152600401610f2990611be3565b60405180910390fd5b5f815f015f9054906101000a900473ffffffffffffffffffffffffffffffffffffffff1673ffffffffffffffffffffffffffffffffffffffff168573ffffffffffffffffffffffffffffffffffffffff1614610fb057815f015f9054906101000a900473ffffffffffffffffffffffffffffffffffffffff16610fd5565b816001015f9054906101000a900473ffffffffffffffffffffffffffffffffffffffff165b90505f8573ffffffffffffffffffffffffffffffffffffffff166370a08231886040518263ffffffff1660e01b81526004016110119190611629565b602060405180830381865afa15801561102c573d5f5f3e3d5ffd5b505050506040513d601f19601f820116820180604052508101906110509190611b14565b90505f8273ffffffffffffffffffffffffffffffffffffffff166370a08231896040518263ffffffff1660e01b815260040161108c9190611629565b602060405180830381865afa1580156110a7573d5f5f3e3d5ffd5b505050506040513d601f19601f820116820180604052508101906110cb9190611b14565b90505f86836110da91906118b7565b82886110e691906118ea565b6110f09190611958565b90505f61271086600301548361110691906118ea565b6111109190611958565b9050808261111e9190611b3f565b915086821015611163576040517f08c379a000000000000000000000000000000000000000000000000000000000815260040161115a90611c4b565b60405180910390fd5b8873ffffffffffffffffffffffffffffffffffffffff166323b872dd338c8b6040518463ffffffff1660e01b81526004016111a0939291906117f5565b6020604051808303815f875af11580156111bc573d5f5f3e3d5ffd5b505050506040513d601f19601f820116820180604052508101906111e0919061185f565b508473ffffffffffffffffffffffffffffffffffffffff1663a9059cbb33846040518363ffffffff1660e01b815260040161121c929190611b72565b6020604051808303815f875af1158015611238573d5f5f3e3d5ffd5b505050506040513d601f19601f8201168201806040525081019061125c919061185f565b508473ffffffffffffffffffffffffffffffffffffffff1663a9059cbb876004015f9054906101000a900473ffffffffffffffffffffffffffffffffffffffff16836040518363ffffffff1660e01b81526004016112bb929190611b72565b6020604051808303815f875af11580156112d7573d5f5f3e3d5ffd5b505050506040513d601f19601f820116820180604052508101906112fb919061185f565b503373ffffffffffffffffffffffffffffffffffffffff168a73ffffffffffffffffffffffffffffffffffffffff167f0ff97d8ba659dc8513a47254ed48f52a28aa6d045ca043d8a60bd7d954805d898b888c8760405161135f9493929190611c69565b60405180910390a350505050505050505050565b61137b6114bb565b73ffffffffffffffffffffffffffffffffffffffff166113996107b2565b73ffffffffffffffffffffffffffffffffffffffff16146113f8576113bc6114bb565b6040517f118cdaa70000000000000000000000000000000000000000000000000000000081526004016113ef9190611629565b60405180910390fd5b565b5f5f5f9054906101000a900473ffffffffffffffffffffffffffffffffffffffff169050815f5f6101000a81548173ffffffffffffffffffffffffffffffffffffffff021916908373ffffffffffffffffffffffffffffffffffffffff1602179055508173ffffffffffffffffffffffffffffffffffffffff168173ffffffffffffffffffffffffffffffffffffffff167f8be0079c531659141344cd1fd0a4f28419497f9722a3daafe3b4186f6b6457e060405160405180910390a35050565b5f33905090565b5f5ffd5b5f73ffffffffffffffffffffffffffffffffffffffff82169050919050565b5f6114ef826114c6565b9050919050565b6114ff816114e5565b8114611509575f5ffd5b50565b5f8135905061151a816114f6565b92915050565b5f819050919050565b61153281611520565b811461153c575f5ffd5b50565b5f8135905061154d81611529565b92915050565b5f5f5f6060848603121561156a576115696114c2565b5b5f6115778682870161150c565b93505060206115888682870161153f565b92505060406115998682870161153f565b9150509250925092565b5f5f5f5f5f60a086880312156115bc576115bb6114c2565b5b5f6115c98882890161150c565b95505060206115da8882890161150c565b94505060406115eb8882890161150c565b93505060606115fc8882890161153f565b925050608061160d8882890161150c565b9150509295509295909350565b611623816114e5565b82525050565b5f60208201905061163c5f83018461161a565b92915050565b5f5f60408385031215611658576116576114c2565b5b5f6116658582860161150c565b92505060206116768582860161153f565b9150509250929050565b5f60208284031215611695576116946114c2565b5b5f6116a28482850161150c565b91505092915050565b6116b481611520565b82525050565b5f60c0820190506116cd5f83018961161a565b6116da602083018861161a565b6116e760408301876116ab565b6116f460608301866116ab565b611701608083018561161a565b61170e60a08301846116ab565b979650505050505050565b5f5f5f5f60808587031215611731576117306114c2565b5b5f61173e8782880161150c565b945050602061174f8782880161150c565b93505060406117608782880161153f565b92505060606117718782880161153f565b91505092959194509250565b5f82825260208201905092915050565b7f506f6f6c20646f6573206e6f74206578697374000000000000000000000000005f82015250565b5f6117c160138361177d565b91506117cc8261178d565b602082019050919050565b5f6020820190508181035f8301526117ee816117b5565b9050919050565b5f6060820190506118085f83018661161a565b611815602083018561161a565b61182260408301846116ab565b949350505050565b5f8115159050919050565b61183e8161182a565b8114611848575f5ffd5b50565b5f8151905061185981611835565b92915050565b5f60208284031215611874576118736114c2565b5b5f6118818482850161184b565b91505092915050565b7f4e487b71000000000000000000000000000000000000000000000000000000005f52601160045260245ffd5b5f6118c182611520565b91506118cc83611520565b92508282019050808211156118e4576118e361188a565b5b92915050565b5f6118f482611520565b91506118ff83611520565b925082820261190d81611520565b915082820484148315176119245761192361188a565b5b5092915050565b7f4e487b71000000000000000000000000000000000000000000000000000000005f52601260045260245ffd5b5f61196282611520565b915061196d83611520565b92508261197d5761197c61192b565b5b828204905092915050565b5f60408201905061199b5f8301856116ab565b6119a860208301846116ab565b9392505050565b7f4665652070657263656e7461676520746f6f20686967680000000000000000005f82015250565b5f6119e360178361177d565b91506119ee826119af565b602082019050919050565b5f6020820190508181035f830152611a10816119d7565b9050919050565b7f506f6f6c20616c726561647920657869737473000000000000000000000000005f82015250565b5f611a4b60138361177d565b9150611a5682611a17565b602082019050919050565b5f6020820190508181035f830152611a7881611a3f565b9050919050565b5f602082019050611a925f8301846116ab565b92915050565b7f5769746864726177616c20746f6f20736f6f6e000000000000000000000000005f82015250565b5f611acc60138361177d565b9150611ad782611a98565b602082019050919050565b5f6020820190508181035f830152611af981611ac0565b9050919050565b5f81519050611b0e81611529565b92915050565b5f60208284031215611b2957611b286114c2565b5b5f611b3684828501611b00565b91505092915050565b5f611b4982611520565b9150611b5483611520565b9250828203905081811115611b6c57611b6b61188a565b5b92915050565b5f604082019050611b855f83018561161a565b611b9260208301846116ab565b9392505050565b7f496e76616c696420696e70757420746f6b656e000000000000000000000000005f82015250565b5f611bcd60138361177d565b9150611bd882611b99565b602082019050919050565b5f6020820190508181035f830152611bfa81611bc1565b9050919050565b7f496e73756666696369656e74206f757470757420616d6f756e740000000000005f82015250565b5f611c35601a8361177d565b9150611c4082611c01565b602082019050919050565b5f6020820190508181035f830152611c6281611c29565b9050919050565b5f608082019050611c7c5f83018761161a565b611c89602083018661161a565b611c9660408301856116ab565b611ca360608301846116ab565b9594505050505056fea2646970667358221220d8c8ddc9a4bf9cc0105e5b9d409192dcce08318c305ac51585b576fb627bb4e064736f6c634300081c0033",
					"opcodes": "PUSH1 0x80 PUSH1 0x40 MSTORE CALLVALUE DUP1 ISZERO PUSH2 0xF JUMPI PUSH0 PUSH0 REVERT JUMPDEST POP CALLER PUSH0 PUSH20 0xFFFFFFFFFFFFFFFFFFFFFFFFFFFFFFFFFFFFFFFF AND DUP2 PUSH20 0xFFFFFFFFFFFFFFFFFFFFFFFFFFFFFFFFFFFFFFFF AND SUB PUSH2 0x81 JUMPI PUSH0 PUSH1 0x40 MLOAD PUSH32 0x1E4FBDF700000000000000000000000000000000000000000000000000000000 DUP2 MSTORE PUSH1 0x4 ADD PUSH2 0x78 SWAP2 SWAP1 PUSH2 0x196 JUMP JUMPDEST PUSH1 0x40 MLOAD DUP1 SWAP2 SUB SWAP1 REVERT JUMPDEST PUSH2 0x90 DUP2 PUSH2 0x96 PUSH1 0x20 SHL PUSH1 0x20 SHR JUMP JUMPDEST POP PUSH2 0x1AF JUMP JUMPDEST PUSH0 PUSH0 PUSH0 SWAP1 SLOAD SWAP1 PUSH2 0x100 EXP SWAP1 DIV PUSH20 0xFFFFFFFFFFFFFFFFFFFFFFFFFFFFFFFFFFFFFFFF AND SWAP1 POP DUP2 PUSH0 PUSH0 PUSH2 0x100 EXP DUP2 SLOAD DUP2 PUSH20 0xFFFFFFFFFFFFFFFFFFFFFFFFFFFFFFFFFFFFFFFF MUL NOT AND SWAP1 DUP4 PUSH20 0xFFFFFFFFFFFFFFFFFFFFFFFFFFFFFFFFFFFFFFFF AND MUL OR SWAP1 SSTORE POP DUP2 PUSH20 0xFFFFFFFFFFFFFFFFFFFFFFFFFFFFFFFFFFFFFFFF AND DUP2 PUSH20 0xFFFFFFFFFFFFFFFFFFFFFFFFFFFFFFFFFFFFFFFF AND PUSH32 0x8BE0079C531659141344CD1FD0A4F28419497F9722A3DAAFE3B4186F6B6457E0 PUSH1 0x40 MLOAD PUSH1 0x40 MLOAD DUP1 SWAP2 SUB SWAP1 LOG3 POP POP JUMP JUMPDEST PUSH0 PUSH20 0xFFFFFFFFFFFFFFFFFFFFFFFFFFFFFFFFFFFFFFFF DUP3 AND SWAP1 POP SWAP2 SWAP1 POP JUMP JUMPDEST PUSH0 PUSH2 0x180 DUP3 PUSH2 0x157 JUMP JUMPDEST SWAP1 POP SWAP2 SWAP1 POP JUMP JUMPDEST PUSH2 0x190 DUP2 PUSH2 0x176 JUMP JUMPDEST DUP3 MSTORE POP POP JUMP JUMPDEST PUSH0 PUSH1 0x20 DUP3 ADD SWAP1 POP PUSH2 0x1A9 PUSH0 DUP4 ADD DUP5 PUSH2 0x187 JUMP JUMPDEST SWAP3 SWAP2 POP POP JUMP JUMPDEST PUSH2 0x1CE2 DUP1 PUSH2 0x1BC PUSH0 CODECOPY PUSH0 RETURN INVALID PUSH1 0x80 PUSH1 0x40 MSTORE CALLVALUE DUP1 ISZERO PUSH2 0xF JUMPI PUSH0 PUSH0 REVERT JUMPDEST POP PUSH1 0x4 CALLDATASIZE LT PUSH2 0x86 JUMPI PUSH0 CALLDATALOAD PUSH1 0xE0 SHR DUP1 PUSH4 0xA201CCF6 GT PUSH2 0x59 JUMPI DUP1 PUSH4 0xA201CCF6 EQ PUSH2 0xEA JUMPI DUP1 PUSH4 0xA4063DBC EQ PUSH2 0x106 JUMPI DUP1 PUSH4 0xF2FDE38B EQ PUSH2 0x13B JUMPI DUP1 PUSH4 0xFE029156 EQ PUSH2 0x157 JUMPI PUSH2 0x86 JUMP JUMPDEST DUP1 PUSH4 0x55776B77 EQ PUSH2 0x8A JUMPI DUP1 PUSH4 0x5E7B647F EQ PUSH2 0xA6 JUMPI DUP1 PUSH4 0x715018A6 EQ PUSH2 0xC2 JUMPI DUP1 PUSH4 0x8DA5CB5B EQ PUSH2 0xCC JUMPI JUMPDEST PUSH0 PUSH0 REVERT JUMPDEST PUSH2 0xA4 PUSH1 0x4 DUP1 CALLDATASIZE SUB DUP2 ADD SWAP1 PUSH2 0x9F SWAP2 SWAP1 PUSH2 0x1553 JUMP JUMPDEST PUSH2 0x173 JUMP JUMPDEST STOP JUMPDEST PUSH2 0xC0 PUSH1 0x4 DUP1 CALLDATASIZE SUB DUP2 ADD SWAP1 PUSH2 0xBB SWAP2 SWAP1 PUSH2 0x15A3 JUMP JUMPDEST PUSH2 0x466 JUMP JUMPDEST STOP JUMPDEST PUSH2 0xCA PUSH2 0x79F JUMP JUMPDEST STOP JUMPDEST PUSH2 0xD4 PUSH2 0x7B2 JUMP JUMPDEST PUSH1 0x40 MLOAD PUSH2 0xE1 SWAP2 SWAP1 PUSH2 0x1629 JUMP JUMPDEST PUSH1 0x40 MLOAD DUP1 SWAP2 SUB SWAP1 RETURN JUMPDEST PUSH2 0x104 PUSH1 0x4 DUP1 CALLDATASIZE SUB DUP2 ADD SWAP1 PUSH2 0xFF SWAP2 SWAP1 PUSH2 0x1642 JUMP JUMPDEST PUSH2 0x7D9 JUMP JUMPDEST STOP JUMPDEST PUSH2 0x120 PUSH1 0x4 DUP1 CALLDATASIZE SUB DUP2 ADD SWAP1 PUSH2 0x11B SWAP2 SWAP1 PUSH2 0x1680 JUMP JUMPDEST PUSH2 0xC60 JUMP JUMPDEST PUSH1 0x40 MLOAD PUSH2 0x132 SWAP7 SWAP6 SWAP5 SWAP4 SWAP3 SWAP2 SWAP1 PUSH2 0x16BA JUMP JUMPDEST PUSH1 0x40 MLOAD DUP1 SWAP2 SUB SWAP1 RETURN JUMPDEST PUSH2 0x155 PUSH1 0x4 DUP1 CALLDATASIZE SUB DUP2 ADD SWAP1 PUSH2 0x150 SWAP2 SWAP1 PUSH2 0x1680 JUMP JUMPDEST PUSH2 0xCF5 JUMP JUMPDEST STOP JUMPDEST PUSH2 0x171 PUSH1 0x4 DUP1 CALLDATASIZE SUB DUP2 ADD SWAP1 PUSH2 0x16C SWAP2 SWAP1 PUSH2 0x1719 JUMP JUMPDEST PUSH2 0xD79 JUMP JUMPDEST STOP JUMPDEST PUSH0 PUSH1 0x1 PUSH0 DUP6 PUSH20 0xFFFFFFFFFFFFFFFFFFFFFFFFFFFFFFFFFFFFFFFF AND PUSH20 0xFFFFFFFFFFFFFFFFFFFFFFFFFFFFFFFFFFFFFFFF AND DUP2 MSTORE PUSH1 0x20 ADD SWAP1 DUP2 MSTORE PUSH1 0x20 ADD PUSH0 KECCAK256 SWAP1 POP PUSH0 PUSH20 0xFFFFFFFFFFFFFFFFFFFFFFFFFFFFFFFFFFFFFFFF AND DUP2 PUSH0 ADD PUSH0 SWAP1 SLOAD SWAP1 PUSH2 0x100 EXP SWAP1 DIV PUSH20 0xFFFFFFFFFFFFFFFFFFFFFFFFFFFFFFFFFFFFFFFF AND PUSH20 0xFFFFFFFFFFFFFFFFFFFFFFFFFFFFFFFFFFFFFFFF AND SUB PUSH2 0x243 JUMPI PUSH1 0x40 MLOAD PUSH32 0x8C379A000000000000000000000000000000000000000000000000000000000 DUP2 MSTORE PUSH1 0x4 ADD PUSH2 0x23A SWAP1 PUSH2 0x17D7 JUMP JUMPDEST PUSH1 0x40 MLOAD DUP1 SWAP2 SUB SWAP1 REVERT JUMPDEST DUP1 PUSH0 ADD PUSH0 SWAP1 SLOAD SWAP1 PUSH2 0x100 EXP SWAP1 DIV PUSH20 0xFFFFFFFFFFFFFFFFFFFFFFFFFFFFFFFFFFFFFFFF AND PUSH20 0xFFFFFFFFFFFFFFFFFFFFFFFFFFFFFFFFFFFFFFFF AND PUSH4 0x23B872DD CALLER DUP7 DUP7 PUSH1 0x40 MLOAD DUP5 PUSH4 0xFFFFFFFF AND PUSH1 0xE0 SHL DUP2 MSTORE PUSH1 0x4 ADD PUSH2 0x2A2 SWAP4 SWAP3 SWAP2 SWAP1 PUSH2 0x17F5 JUMP JUMPDEST PUSH1 0x20 PUSH1 0x40 MLOAD DUP1 DUP4 SUB DUP2 PUSH0 DUP8 GAS CALL ISZERO DUP1 ISZERO PUSH2 0x2BE JUMPI RETURNDATASIZE PUSH0 PUSH0 RETURNDATACOPY RETURNDATASIZE PUSH0 REVERT JUMPDEST POP POP POP POP PUSH1 0x40 MLOAD RETURNDATASIZE PUSH1 0x1F NOT PUSH1 0x1F DUP3 ADD AND DUP3 ADD DUP1 PUSH1 0x40 MSTORE POP DUP2 ADD SWAP1 PUSH2 0x2E2 SWAP2 SWAP1 PUSH2 0x185F JUMP JUMPDEST POP DUP1 PUSH1 0x1 ADD PUSH0 SWAP1 SLOAD SWAP1 PUSH2 0x100 EXP SWAP1 DIV PUSH20 0xFFFFFFFFFFFFFFFFFFFFFFFFFFFFFFFFFFFFFFFF AND PUSH20 0xFFFFFFFFFFFFFFFFFFFFFFFFFFFFFFFFFFFFFFFF AND PUSH4 0x23B872DD CALLER DUP7 DUP6 PUSH1 0x40 MLOAD DUP5 PUSH4 0xFFFFFFFF AND PUSH1 0xE0 SHL DUP2 MSTORE PUSH1 0x4 ADD PUSH2 0x343 SWAP4 SWAP3 SWAP2 SWAP1 PUSH2 0x17F5 JUMP JUMPDEST PUSH1 0x20 PUSH1 0x40 MLOAD DUP1 DUP4 SUB DUP2 PUSH0 DUP8 GAS CALL ISZERO DUP1 ISZERO PUSH2 0x35F JUMPI RETURNDATASIZE PUSH0 PUSH0 RETURNDATACOPY RETURNDATASIZE PUSH0 REVERT JUMPDEST POP POP POP POP PUSH1 0x40 MLOAD RETURNDATASIZE PUSH1 0x1F NOT PUSH1 0x1F DUP3 ADD AND DUP3 ADD DUP1 PUSH1 0x40 MSTORE POP DUP2 ADD SWAP1 PUSH2 0x383 SWAP2 SWAP1 PUSH2 0x185F JUMP JUMPDEST POP PUSH0 PUSH0 DUP3 PUSH1 0x2 ADD SLOAD EQ PUSH2 0x3C6 JUMPI DUP3 DUP5 PUSH2 0x39C SWAP2 SWAP1 PUSH2 0x18B7 JUMP JUMPDEST DUP3 PUSH1 0x2 ADD SLOAD DUP5 DUP7 PUSH2 0x3AD SWAP2 SWAP1 PUSH2 0x18B7 JUMP JUMPDEST PUSH2 0x3B7 SWAP2 SWAP1 PUSH2 0x18EA JUMP JUMPDEST PUSH2 0x3C1 SWAP2 SWAP1 PUSH2 0x1958 JUMP JUMPDEST PUSH2 0x3D3 JUMP JUMPDEST DUP3 DUP5 PUSH2 0x3D2 SWAP2 SWAP1 PUSH2 0x18B7 JUMP JUMPDEST JUMPDEST SWAP1 POP DUP1 DUP3 PUSH1 0x2 ADD PUSH0 DUP3 DUP3 SLOAD PUSH2 0x3E8 SWAP2 SWAP1 PUSH2 0x18B7 JUMP JUMPDEST SWAP3 POP POP DUP2 SWAP1 SSTORE POP TIMESTAMP DUP3 PUSH1 0x5 ADD DUP2 SWAP1 SSTORE POP CALLER PUSH20 0xFFFFFFFFFFFFFFFFFFFFFFFFFFFFFFFFFFFFFFFF AND DUP6 PUSH20 0xFFFFFFFFFFFFFFFFFFFFFFFFFFFFFFFFFFFFFFFF AND PUSH32 0x36F3B2E1A21C19137DD82EC243B0708A1D26B3D1FA1DC49C44C4C366A5878138 DUP7 DUP7 PUSH1 0x40 MLOAD PUSH2 0x457 SWAP3 SWAP2 SWAP1 PUSH2 0x1988 JUMP JUMPDEST PUSH1 0x40 MLOAD DUP1 SWAP2 SUB SWAP1 LOG3 POP POP POP POP POP JUMP JUMPDEST PUSH2 0x46E PUSH2 0x1373 JUMP JUMPDEST PUSH2 0x3E8 DUP3 GT ISZERO PUSH2 0x4B3 JUMPI PUSH1 0x40 MLOAD PUSH32 0x8C379A000000000000000000000000000000000000000000000000000000000 DUP2 MSTORE PUSH1 0x4 ADD PUSH2 0x4AA SWAP1 PUSH2 0x19F9 JUMP JUMPDEST PUSH1 0x40 MLOAD DUP1 SWAP2 SUB SWAP1 REVERT JUMPDEST PUSH0 PUSH20 0xFFFFFFFFFFFFFFFFFFFFFFFFFFFFFFFFFFFFFFFF AND PUSH1 0x1 PUSH0 DUP8 PUSH20 0xFFFFFFFFFFFFFFFFFFFFFFFFFFFFFFFFFFFFFFFF AND PUSH20 0xFFFFFFFFFFFFFFFFFFFFFFFFFFFFFFFFFFFFFFFF AND DUP2 MSTORE PUSH1 0x20 ADD SWAP1 DUP2 MSTORE PUSH1 0x20 ADD PUSH0 KECCAK256 PUSH0 ADD PUSH0 SWAP1 SLOAD SWAP1 PUSH2 0x100 EXP SWAP1 DIV PUSH20 0xFFFFFFFFFFFFFFFFFFFFFFFFFFFFFFFFFFFFFFFF AND PUSH20 0xFFFFFFFFFFFFFFFFFFFFFFFFFFFFFFFFFFFFFFFF AND EQ PUSH2 0x57F JUMPI PUSH1 0x40 MLOAD PUSH32 0x8C379A000000000000000000000000000000000000000000000000000000000 DUP2 MSTORE PUSH1 0x4 ADD PUSH2 0x576 SWAP1 PUSH2 0x1A61 JUMP JUMPDEST PUSH1 0x40 MLOAD DUP1 SWAP2 SUB SWAP1 REVERT JUMPDEST PUSH1 0x40 MLOAD DUP1 PUSH1 0xC0 ADD PUSH1 0x40 MSTORE DUP1 DUP6 PUSH20 0xFFFFFFFFFFFFFFFFFFFFFFFFFFFFFFFFFFFFFFFF AND DUP2 MSTORE PUSH1 0x20 ADD DUP5 PUSH20 0xFFFFFFFFFFFFFFFFFFFFFFFFFFFFFFFFFFFFFFFF AND DUP2 MSTORE PUSH1 0x20 ADD PUSH0 DUP2 MSTORE PUSH1 0x20 ADD DUP4 DUP2 MSTORE PUSH1 0x20 ADD DUP3 PUSH20 0xFFFFFFFFFFFFFFFFFFFFFFFFFFFFFFFFFFFFFFFF AND DUP2 MSTORE PUSH1 0x20 ADD TIMESTAMP DUP2 MSTORE POP PUSH1 0x1 PUSH0 DUP8 PUSH20 0xFFFFFFFFFFFFFFFFFFFFFFFFFFFFFFFFFFFFFFFF AND PUSH20 0xFFFFFFFFFFFFFFFFFFFFFFFFFFFFFFFFFFFFFFFF AND DUP2 MSTORE PUSH1 0x20 ADD SWAP1 DUP2 MSTORE PUSH1 0x20 ADD PUSH0 KECCAK256 PUSH0 DUP3 ADD MLOAD DUP2 PUSH0 ADD PUSH0 PUSH2 0x100 EXP DUP2 SLOAD DUP2 PUSH20 0xFFFFFFFFFFFFFFFFFFFFFFFFFFFFFFFFFFFFFFFF MUL NOT AND SWAP1 DUP4 PUSH20 0xFFFFFFFFFFFFFFFFFFFFFFFFFFFFFFFFFFFFFFFF AND MUL OR SWAP1 SSTORE POP PUSH1 0x20 DUP3 ADD MLOAD DUP2 PUSH1 0x1 ADD PUSH0 PUSH2 0x100 EXP DUP2 SLOAD DUP2 PUSH20 0xFFFFFFFFFFFFFFFFFFFFFFFFFFFFFFFFFFFFFFFF MUL NOT AND SWAP1 DUP4 PUSH20 0xFFFFFFFFFFFFFFFFFFFFFFFFFFFFFFFFFFFFFFFF AND MUL OR SWAP1 SSTORE POP PUSH1 0x40 DUP3 ADD MLOAD DUP2 PUSH1 0x2 ADD SSTORE PUSH1 0x60 DUP3 ADD MLOAD DUP2 PUSH1 0x3 ADD SSTORE PUSH1 0x80 DUP3 ADD MLOAD DUP2 PUSH1 0x4 ADD PUSH0 PUSH2 0x100 EXP DUP2 SLOAD DUP2 PUSH20 0xFFFFFFFFFFFFFFFFFFFFFFFFFFFFFFFFFFFFFFFF MUL NOT AND SWAP1 DUP4 PUSH20 0xFFFFFFFFFFFFFFFFFFFFFFFFFFFFFFFFFFFFFFFF AND MUL OR SWAP1 SSTORE POP PUSH1 0xA0 DUP3 ADD MLOAD DUP2 PUSH1 0x5 ADD SSTORE SWAP1 POP POP DUP3 PUSH20 0xFFFFFFFFFFFFFFFFFFFFFFFFFFFFFFFFFFFFFFFF AND DUP5 PUSH20 0xFFFFFFFFFFFFFFFFFFFFFFFFFFFFFFFFFFFFFFFF AND DUP7 PUSH20 0xFFFFFFFFFFFFFFFFFFFFFFFFFFFFFFFFFFFFFFFF AND PUSH32 0x886FFED95392E2F52907CB2236F5A7DA7760E3B971F5DF0775067A2BC8647654 DUP6 PUSH1 0x40 MLOAD PUSH2 0x790 SWAP2 SWAP1 PUSH2 0x1A7F JUMP JUMPDEST PUSH1 0x40 MLOAD DUP1 SWAP2 SUB SWAP1 LOG4 POP POP POP POP POP JUMP JUMPDEST PUSH2 0x7A7 PUSH2 0x1373 JUMP JUMPDEST PUSH2 0x7B0 PUSH0 PUSH2 0x13FA JUMP JUMPDEST JUMP JUMPDEST PUSH0 PUSH0 PUSH0 SWAP1 SLOAD SWAP1 PUSH2 0x100 EXP SWAP1 DIV PUSH20 0xFFFFFFFFFFFFFFFFFFFFFFFFFFFFFFFFFFFFFFFF AND SWAP1 POP SWAP1 JUMP JUMPDEST PUSH0 PUSH1 0x1 PUSH0 DUP5 PUSH20 0xFFFFFFFFFFFFFFFFFFFFFFFFFFFFFFFFFFFFFFFF AND PUSH20 0xFFFFFFFFFFFFFFFFFFFFFFFFFFFFFFFFFFFFFFFF AND DUP2 MSTORE PUSH1 0x20 ADD SWAP1 DUP2 MSTORE PUSH1 0x20 ADD PUSH0 KECCAK256 SWAP1 POP PUSH0 PUSH20 0xFFFFFFFFFFFFFFFFFFFFFFFFFFFFFFFFFFFFFFFF AND DUP2 PUSH0 ADD PUSH0 SWAP1 SLOAD SWAP1 PUSH2 0x100 EXP SWAP1 DIV PUSH20 0xFFFFFFFFFFFFFFFFFFFFFFFFFFFFFFFFFFFFFFFF AND PUSH20 0xFFFFFFFFFFFFFFFFFFFFFFFFFFFFFFFFFFFFFFFF AND SUB PUSH2 0x8A9 JUMPI PUSH1 0x40 MLOAD PUSH32 0x8C379A000000000000000000000000000000000000000000000000000000000 DUP2 MSTORE PUSH1 0x4 ADD PUSH2 0x8A0 SWAP1 PUSH2 0x17D7 JUMP JUMPDEST PUSH1 0x40 MLOAD DUP1 SWAP2 SUB SWAP1 REVERT JUMPDEST PUSH2 0x12C DUP2 PUSH1 0x5 ADD SLOAD PUSH2 0x8BB SWAP2 SWAP1 PUSH2 0x18B7 JUMP JUMPDEST TIMESTAMP LT ISZERO PUSH2 0x8FD JUMPI PUSH1 0x40 MLOAD PUSH32 0x8C379A000000000000000000000000000000000000000000000000000000000 DUP2 MSTORE PUSH1 0x4 ADD PUSH2 0x8F4 SWAP1 PUSH2 0x1AE2 JUMP JUMPDEST PUSH1 0x40 MLOAD DUP1 SWAP2 SUB SWAP1 REVERT JUMPDEST PUSH0 DUP2 PUSH1 0x2 ADD SLOAD PUSH8 0xDE0B6B3A7640000 DUP5 PUSH2 0x917 SWAP2 SWAP1 PUSH2 0x18EA JUMP JUMPDEST PUSH2 0x921 SWAP2 SWAP1 PUSH2 0x1958 JUMP JUMPDEST SWAP1 POP PUSH0 PUSH8 0xDE0B6B3A7640000 DUP4 PUSH0 ADD PUSH0 SWAP1 SLOAD SWAP1 PUSH2 0x100 EXP SWAP1 DIV PUSH20 0xFFFFFFFFFFFFFFFFFFFFFFFFFFFFFFFFFFFFFFFF AND PUSH20 0xFFFFFFFFFFFFFFFFFFFFFFFFFFFFFFFFFFFFFFFF AND PUSH4 0x70A08231 DUP8 PUSH1 0x40 MLOAD DUP3 PUSH4 0xFFFFFFFF AND PUSH1 0xE0 SHL DUP2 MSTORE PUSH1 0x4 ADD PUSH2 0x988 SWAP2 SWAP1 PUSH2 0x1629 JUMP JUMPDEST PUSH1 0x20 PUSH1 0x40 MLOAD DUP1 DUP4 SUB DUP2 DUP7 GAS STATICCALL ISZERO DUP1 ISZERO PUSH2 0x9A3 JUMPI RETURNDATASIZE PUSH0 PUSH0 RETURNDATACOPY RETURNDATASIZE PUSH0 REVERT JUMPDEST POP POP POP POP PUSH1 0x40 MLOAD RETURNDATASIZE PUSH1 0x1F NOT PUSH1 0x1F DUP3 ADD AND DUP3 ADD DUP1 PUSH1 0x40 MSTORE POP DUP2 ADD SWAP1 PUSH2 0x9C7 SWAP2 SWAP1 PUSH2 0x1B14 JUMP JUMPDEST DUP4 PUSH2 0x9D2 SWAP2 SWAP1 PUSH2 0x18EA JUMP JUMPDEST PUSH2 0x9DC SWAP2 SWAP1 PUSH2 0x1958 JUMP JUMPDEST SWAP1 POP PUSH0 PUSH8 0xDE0B6B3A7640000 DUP5 PUSH1 0x1 ADD PUSH0 SWAP1 SLOAD SWAP1 PUSH2 0x100 EXP SWAP1 DIV PUSH20 0xFFFFFFFFFFFFFFFFFFFFFFFFFFFFFFFFFFFFFFFF AND PUSH20 0xFFFFFFFFFFFFFFFFFFFFFFFFFFFFFFFFFFFFFFFF AND PUSH4 0x70A08231 DUP9 PUSH1 0x40 MLOAD DUP3 PUSH4 0xFFFFFFFF AND PUSH1 0xE0 SHL DUP2 MSTORE PUSH1 0x4 ADD PUSH2 0xA44 SWAP2 SWAP1 PUSH2 0x1629 JUMP JUMPDEST PUSH1 0x20 PUSH1 0x40 MLOAD DUP1 DUP4 SUB DUP2 DUP7 GAS STATICCALL ISZERO DUP1 ISZERO PUSH2 0xA5F JUMPI RETURNDATASIZE PUSH0 PUSH0 RETURNDATACOPY RETURNDATASIZE PUSH0 REVERT JUMPDEST POP POP POP POP PUSH1 0x40 MLOAD RETURNDATASIZE PUSH1 0x1F NOT PUSH1 0x1F DUP3 ADD AND DUP3 ADD DUP1 PUSH1 0x40 MSTORE POP DUP2 ADD SWAP1 PUSH2 0xA83 SWAP2 SWAP1 PUSH2 0x1B14 JUMP JUMPDEST DUP5 PUSH2 0xA8E SWAP2 SWAP1 PUSH2 0x18EA JUMP JUMPDEST PUSH2 0xA98 SWAP2 SWAP1 PUSH2 0x1958 JUMP JUMPDEST SWAP1 POP DUP5 DUP5 PUSH1 0x2 ADD PUSH0 DUP3 DUP3 SLOAD PUSH2 0xAAD SWAP2 SWAP1 PUSH2 0x1B3F JUMP JUMPDEST SWAP3 POP POP DUP2 SWAP1 SSTORE POP DUP4 PUSH0 ADD PUSH0 SWAP1 SLOAD SWAP1 PUSH2 0x100 EXP SWAP1 DIV PUSH20 0xFFFFFFFFFFFFFFFFFFFFFFFFFFFFFFFFFFFFFFFF AND PUSH20 0xFFFFFFFFFFFFFFFFFFFFFFFFFFFFFFFFFFFFFFFF AND PUSH4 0xA9059CBB CALLER DUP5 PUSH1 0x40 MLOAD DUP4 PUSH4 0xFFFFFFFF AND PUSH1 0xE0 SHL DUP2 MSTORE PUSH1 0x4 ADD PUSH2 0xB11 SWAP3 SWAP2 SWAP1 PUSH2 0x1B72 JUMP JUMPDEST PUSH1 0x20 PUSH1 0x40 MLOAD DUP1 DUP4 SUB DUP2 PUSH0 DUP8 GAS CALL ISZERO DUP1 ISZERO PUSH2 0xB2D JUMPI RETURNDATASIZE PUSH0 PUSH0 RETURNDATACOPY RETURNDATASIZE PUSH0 REVERT JUMPDEST POP POP POP POP PUSH1 0x40 MLOAD RETURNDATASIZE PUSH1 0x1F NOT PUSH1 0x1F DUP3 ADD AND DUP3 ADD DUP1 PUSH1 0x40 MSTORE POP DUP2 ADD SWAP1 PUSH2 0xB51 SWAP2 SWAP1 PUSH2 0x185F JUMP JUMPDEST POP DUP4 PUSH1 0x1 ADD PUSH0 SWAP1 SLOAD SWAP1 PUSH2 0x100 EXP SWAP1 DIV PUSH20 0xFFFFFFFFFFFFFFFFFFFFFFFFFFFFFFFFFFFFFFFF AND PUSH20 0xFFFFFFFFFFFFFFFFFFFFFFFFFFFFFFFFFFFFFFFF AND PUSH4 0xA9059CBB CALLER DUP4 PUSH1 0x40 MLOAD DUP4 PUSH4 0xFFFFFFFF AND PUSH1 0xE0 SHL DUP2 MSTORE PUSH1 0x4 ADD PUSH2 0xBB0 SWAP3 SWAP2 SWAP1 PUSH2 0x1B72 JUMP JUMPDEST PUSH1 0x20 PUSH1 0x40 MLOAD DUP1 DUP4 SUB DUP2 PUSH0 DUP8 GAS CALL ISZERO DUP1 ISZERO PUSH2 0xBCC JUMPI RETURNDATASIZE PUSH0 PUSH0 RETURNDATACOPY RETURNDATASIZE PUSH0 REVERT JUMPDEST POP POP POP POP PUSH1 0x40 MLOAD RETURNDATASIZE PUSH1 0x1F NOT PUSH1 0x1F DUP3 ADD AND DUP3 ADD DUP1 PUSH1 0x40 MSTORE POP DUP2 ADD SWAP1 PUSH2 0xBF0 SWAP2 SWAP1 PUSH2 0x185F JUMP JUMPDEST POP CALLER PUSH20 0xFFFFFFFFFFFFFFFFFFFFFFFFFFFFFFFFFFFFFFFF AND DUP7 PUSH20 0xFFFFFFFFFFFFFFFFFFFFFFFFFFFFFFFFFFFFFFFF AND PUSH32 0x3B5C196AFF80BB96C03B41C96906B66827014DE931D1B36E0EDE6EE8CAEB4BF9 DUP5 DUP5 PUSH1 0x40 MLOAD PUSH2 0xC50 SWAP3 SWAP2 SWAP1 PUSH2 0x1988 JUMP JUMPDEST PUSH1 0x40 MLOAD DUP1 SWAP2 SUB SWAP1 LOG3 POP POP POP POP POP POP JUMP JUMPDEST PUSH1 0x1 PUSH1 0x20 MSTORE DUP1 PUSH0 MSTORE PUSH1 0x40 PUSH0 KECCAK256 PUSH0 SWAP2 POP SWAP1 POP DUP1 PUSH0 ADD PUSH0 SWAP1 SLOAD SWAP1 PUSH2 0x100 EXP SWAP1 DIV PUSH20 0xFFFFFFFFFFFFFFFFFFFFFFFFFFFFFFFFFFFFFFFF AND SWAP1 DUP1 PUSH1 0x1 ADD PUSH0 SWAP1 SLOAD SWAP1 PUSH2 0x100 EXP SWAP1 DIV PUSH20 0xFFFFFFFFFFFFFFFFFFFFFFFFFFFFFFFFFFFFFFFF AND SWAP1 DUP1 PUSH1 0x2 ADD SLOAD SWAP1 DUP1 PUSH1 0x3 ADD SLOAD SWAP1 DUP1 PUSH1 0x4 ADD PUSH0 SWAP1 SLOAD SWAP1 PUSH2 0x100 EXP SWAP1 DIV PUSH20 0xFFFFFFFFFFFFFFFFFFFFFFFFFFFFFFFFFFFFFFFF AND SWAP1 DUP1 PUSH1 0x5 ADD SLOAD SWAP1 POP DUP7 JUMP JUMPDEST PUSH2 0xCFD PUSH2 0x1373 JUMP JUMPDEST PUSH0 PUSH20 0xFFFFFFFFFFFFFFFFFFFFFFFFFFFFFFFFFFFFFFFF AND DUP2 PUSH20 0xFFFFFFFFFFFFFFFFFFFFFFFFFFFFFFFFFFFFFFFF AND SUB PUSH2 0xD6D JUMPI PUSH0 PUSH1 0x40 MLOAD PUSH32 0x1E4FBDF700000000000000000000000000000000000000000000000000000000 DUP2 MSTORE PUSH1 0x4 ADD PUSH2 0xD64 SWAP2 SWAP1 PUSH2 0x1629 JUMP JUMPDEST PUSH1 0x40 MLOAD DUP1 SWAP2 SUB SWAP1 REVERT JUMPDEST PUSH2 0xD76 DUP2 PUSH2 0x13FA JUMP JUMPDEST POP JUMP JUMPDEST PUSH0 PUSH1 0x1 PUSH0 DUP7 PUSH20 0xFFFFFFFFFFFFFFFFFFFFFFFFFFFFFFFFFFFFFFFF AND PUSH20 0xFFFFFFFFFFFFFFFFFFFFFFFFFFFFFFFFFFFFFFFF AND DUP2 MSTORE PUSH1 0x20 ADD SWAP1 DUP2 MSTORE PUSH1 0x20 ADD PUSH0 KECCAK256 SWAP1 POP PUSH0 PUSH20 0xFFFFFFFFFFFFFFFFFFFFFFFFFFFFFFFFFFFFFFFF AND DUP2 PUSH0 ADD PUSH0 SWAP1 SLOAD SWAP1 PUSH2 0x100 EXP SWAP1 DIV PUSH20 0xFFFFFFFFFFFFFFFFFFFFFFFFFFFFFFFFFFFFFFFF AND PUSH20 0xFFFFFFFFFFFFFFFFFFFFFFFFFFFFFFFFFFFFFFFF AND SUB PUSH2 0xE49 JUMPI PUSH1 0x40 MLOAD PUSH32 0x8C379A000000000000000000000000000000000000000000000000000000000 DUP2 MSTORE PUSH1 0x4 ADD PUSH2 0xE40 SWAP1 PUSH2 0x17D7 JUMP JUMPDEST PUSH1 0x40 MLOAD DUP1 SWAP2 SUB SWAP1 REVERT JUMPDEST DUP1 PUSH0 ADD PUSH0 SWAP1 SLOAD SWAP1 PUSH2 0x100 EXP SWAP1 DIV PUSH20 0xFFFFFFFFFFFFFFFFFFFFFFFFFFFFFFFFFFFFFFFF AND PUSH20 0xFFFFFFFFFFFFFFFFFFFFFFFFFFFFFFFFFFFFFFFF AND DUP5 PUSH20 0xFFFFFFFFFFFFFFFFFFFFFFFFFFFFFFFFFFFFFFFF AND EQ DUP1 PUSH2 0xEF3 JUMPI POP DUP1 PUSH1 0x1 ADD PUSH0 SWAP1 SLOAD SWAP1 PUSH2 0x100 EXP SWAP1 DIV PUSH20 0xFFFFFFFFFFFFFFFFFFFFFFFFFFFFFFFFFFFFFFFF AND PUSH20 0xFFFFFFFFFFFFFFFFFFFFFFFFFFFFFFFFFFFFFFFF AND DUP5 PUSH20 0xFFFFFFFFFFFFFFFFFFFFFFFFFFFFFFFFFFFFFFFF AND EQ JUMPDEST PUSH2 0xF32 JUMPI PUSH1 0x40 MLOAD PUSH32 0x8C379A000000000000000000000000000000000000000000000000000000000 DUP2 MSTORE PUSH1 0x4 ADD PUSH2 0xF29 SWAP1 PUSH2 0x1BE3 JUMP JUMPDEST PUSH1 0x40 MLOAD DUP1 SWAP2 SUB SWAP1 REVERT JUMPDEST PUSH0 DUP2 PUSH0 ADD PUSH0 SWAP1 SLOAD SWAP1 PUSH2 0x100 EXP SWAP1 DIV PUSH20 0xFFFFFFFFFFFFFFFFFFFFFFFFFFFFFFFFFFFFFFFF AND PUSH20 0xFFFFFFFFFFFFFFFFFFFFFFFFFFFFFFFFFFFFFFFF AND DUP6 PUSH20 0xFFFFFFFFFFFFFFFFFFFFFFFFFFFFFFFFFFFFFFFF AND EQ PUSH2 0xFB0 JUMPI DUP2 PUSH0 ADD PUSH0 SWAP1 SLOAD SWAP1 PUSH2 0x100 EXP SWAP1 DIV PUSH20 0xFFFFFFFFFFFFFFFFFFFFFFFFFFFFFFFFFFFFFFFF AND PUSH2 0xFD5 JUMP JUMPDEST DUP2 PUSH1 0x1 ADD PUSH0 SWAP1 SLOAD SWAP1 PUSH2 0x100 EXP SWAP1 DIV PUSH20 0xFFFFFFFFFFFFFFFFFFFFFFFFFFFFFFFFFFFFFFFF AND JUMPDEST SWAP1 POP PUSH0 DUP6 PUSH20 0xFFFFFFFFFFFFFFFFFFFFFFFFFFFFFFFFFFFFFFFF AND PUSH4 0x70A08231 DUP9 PUSH1 0x40 MLOAD DUP3 PUSH4 0xFFFFFFFF AND PUSH1 0xE0 SHL DUP2 MSTORE PUSH1 0x4 ADD PUSH2 0x1011 SWAP2 SWAP1 PUSH2 0x1629 JUMP JUMPDEST PUSH1 0x20 PUSH1 0x40 MLOAD DUP1 DUP4 SUB DUP2 DUP7 GAS STATICCALL ISZERO DUP1 ISZERO PUSH2 0x102C JUMPI RETURNDATASIZE PUSH0 PUSH0 RETURNDATACOPY RETURNDATASIZE PUSH0 REVERT JUMPDEST POP POP POP POP PUSH1 0x40 MLOAD RETURNDATASIZE PUSH1 0x1F NOT PUSH1 0x1F DUP3 ADD AND DUP3 ADD DUP1 PUSH1 0x40 MSTORE POP DUP2 ADD SWAP1 PUSH2 0x1050 SWAP2 SWAP1 PUSH2 0x1B14 JUMP JUMPDEST SWAP1 POP PUSH0 DUP3 PUSH20 0xFFFFFFFFFFFFFFFFFFFFFFFFFFFFFFFFFFFFFFFF AND PUSH4 0x70A08231 DUP10 PUSH1 0x40 MLOAD DUP3 PUSH4 0xFFFFFFFF AND PUSH1 0xE0 SHL DUP2 MSTORE PUSH1 0x4 ADD PUSH2 0x108C SWAP2 SWAP1 PUSH2 0x1629 JUMP JUMPDEST PUSH1 0x20 PUSH1 0x40 MLOAD DUP1 DUP4 SUB DUP2 DUP7 GAS STATICCALL ISZERO DUP1 ISZERO PUSH2 0x10A7 JUMPI RETURNDATASIZE PUSH0 PUSH0 RETURNDATACOPY RETURNDATASIZE PUSH0 REVERT JUMPDEST POP POP POP POP PUSH1 0x40 MLOAD RETURNDATASIZE PUSH1 0x1F NOT PUSH1 0x1F DUP3 ADD AND DUP3 ADD DUP1 PUSH1 0x40 MSTORE POP DUP2 ADD SWAP1 PUSH2 0x10CB SWAP2 SWAP1 PUSH2 0x1B14 JUMP JUMPDEST SWAP1 POP PUSH0 DUP7 DUP4 PUSH2 0x10DA SWAP2 SWAP1 PUSH2 0x18B7 JUMP JUMPDEST DUP3 DUP9 PUSH2 0x10E6 SWAP2 SWAP1 PUSH2 0x18EA JUMP JUMPDEST PUSH2 0x10F0 SWAP2 SWAP1 PUSH2 0x1958 JUMP JUMPDEST SWAP1 POP PUSH0 PUSH2 0x2710 DUP7 PUSH1 0x3 ADD SLOAD DUP4 PUSH2 0x1106 SWAP2 SWAP1 PUSH2 0x18EA JUMP JUMPDEST PUSH2 0x1110 SWAP2 SWAP1 PUSH2 0x1958 JUMP JUMPDEST SWAP1 POP DUP1 DUP3 PUSH2 0x111E SWAP2 SWAP1 PUSH2 0x1B3F JUMP JUMPDEST SWAP2 POP DUP7 DUP3 LT ISZERO PUSH2 0x1163 JUMPI PUSH1 0x40 MLOAD PUSH32 0x8C379A000000000000000000000000000000000000000000000000000000000 DUP2 MSTORE PUSH1 0x4 ADD PUSH2 0x115A SWAP1 PUSH2 0x1C4B JUMP JUMPDEST PUSH1 0x40 MLOAD DUP1 SWAP2 SUB SWAP1 REVERT JUMPDEST DUP9 PUSH20 0xFFFFFFFFFFFFFFFFFFFFFFFFFFFFFFFFFFFFFFFF AND PUSH4 0x23B872DD CALLER DUP13 DUP12 PUSH1 0x40 MLOAD DUP5 PUSH4 0xFFFFFFFF AND PUSH1 0xE0 SHL DUP2 MSTORE PUSH1 0x4 ADD PUSH2 0x11A0 SWAP4 SWAP3 SWAP2 SWAP1 PUSH2 0x17F5 JUMP JUMPDEST PUSH1 0x20 PUSH1 0x40 MLOAD DUP1 DUP4 SUB DUP2 PUSH0 DUP8 GAS CALL ISZERO DUP1 ISZERO PUSH2 0x11BC JUMPI RETURNDATASIZE PUSH0 PUSH0 RETURNDATACOPY RETURNDATASIZE PUSH0 REVERT JUMPDEST POP POP POP POP PUSH1 0x40 MLOAD RETURNDATASIZE PUSH1 0x1F NOT PUSH1 0x1F DUP3 ADD AND DUP3 ADD DUP1 PUSH1 0x40 MSTORE POP DUP2 ADD SWAP1 PUSH2 0x11E0 SWAP2 SWAP1 PUSH2 0x185F JUMP JUMPDEST POP DUP5 PUSH20 0xFFFFFFFFFFFFFFFFFFFFFFFFFFFFFFFFFFFFFFFF AND PUSH4 0xA9059CBB CALLER DUP5 PUSH1 0x40 MLOAD DUP4 PUSH4 0xFFFFFFFF AND PUSH1 0xE0 SHL DUP2 MSTORE PUSH1 0x4 ADD PUSH2 0x121C SWAP3 SWAP2 SWAP1 PUSH2 0x1B72 JUMP JUMPDEST PUSH1 0x20 PUSH1 0x40 MLOAD DUP1 DUP4 SUB DUP2 PUSH0 DUP8 GAS CALL ISZERO DUP1 ISZERO PUSH2 0x1238 JUMPI RETURNDATASIZE PUSH0 PUSH0 RETURNDATACOPY RETURNDATASIZE PUSH0 REVERT JUMPDEST POP POP POP POP PUSH1 0x40 MLOAD RETURNDATASIZE PUSH1 0x1F NOT PUSH1 0x1F DUP3 ADD AND DUP3 ADD DUP1 PUSH1 0x40 MSTORE POP DUP2 ADD SWAP1 PUSH2 0x125C SWAP2 SWAP1 PUSH2 0x185F JUMP JUMPDEST POP DUP5 PUSH20 0xFFFFFFFFFFFFFFFFFFFFFFFFFFFFFFFFFFFFFFFF AND PUSH4 0xA9059CBB DUP8 PUSH1 0x4 ADD PUSH0 SWAP1 SLOAD SWAP1 PUSH2 0x100 EXP SWAP1 DIV PUSH20 0xFFFFFFFFFFFFFFFFFFFFFFFFFFFFFFFFFFFFFFFF AND DUP4 PUSH1 0x40 MLOAD DUP4 PUSH4 0xFFFFFFFF AND PUSH1 0xE0 SHL DUP2 MSTORE PUSH1 0x4 ADD PUSH2 0x12BB SWAP3 SWAP2 SWAP1 PUSH2 0x1B72 JUMP JUMPDEST PUSH1 0x20 PUSH1 0x40 MLOAD DUP1 DUP4 SUB DUP2 PUSH0 DUP8 GAS CALL ISZERO DUP1 ISZERO PUSH2 0x12D7 JUMPI RETURNDATASIZE PUSH0 PUSH0 RETURNDATACOPY RETURNDATASIZE PUSH0 REVERT JUMPDEST POP POP POP POP PUSH1 0x40 MLOAD RETURNDATASIZE PUSH1 0x1F NOT PUSH1 0x1F DUP3 ADD AND DUP3 ADD DUP1 PUSH1 0x40 MSTORE POP DUP2 ADD SWAP1 PUSH2 0x12FB SWAP2 SWAP1 PUSH2 0x185F JUMP JUMPDEST POP CALLER PUSH20 0xFFFFFFFFFFFFFFFFFFFFFFFFFFFFFFFFFFFFFFFF AND DUP11 PUSH20 0xFFFFFFFFFFFFFFFFFFFFFFFFFFFFFFFFFFFFFFFF AND PUSH32 0xFF97D8BA659DC8513A47254ED48F52A28AA6D045CA043D8A60BD7D954805D89 DUP12 DUP9 DUP13 DUP8 PUSH1 0x40 MLOAD PUSH2 0x135F SWAP5 SWAP4 SWAP3 SWAP2 SWAP1 PUSH2 0x1C69 JUMP JUMPDEST PUSH1 0x40 MLOAD DUP1 SWAP2 SUB SWAP1 LOG3 POP POP POP POP POP POP POP POP POP POP JUMP JUMPDEST PUSH2 0x137B PUSH2 0x14BB JUMP JUMPDEST PUSH20 0xFFFFFFFFFFFFFFFFFFFFFFFFFFFFFFFFFFFFFFFF AND PUSH2 0x1399 PUSH2 0x7B2 JUMP JUMPDEST PUSH20 0xFFFFFFFFFFFFFFFFFFFFFFFFFFFFFFFFFFFFFFFF AND EQ PUSH2 0x13F8 JUMPI PUSH2 0x13BC PUSH2 0x14BB JUMP JUMPDEST PUSH1 0x40 MLOAD PUSH32 0x118CDAA700000000000000000000000000000000000000000000000000000000 DUP2 MSTORE PUSH1 0x4 ADD PUSH2 0x13EF SWAP2 SWAP1 PUSH2 0x1629 JUMP JUMPDEST PUSH1 0x40 MLOAD DUP1 SWAP2 SUB SWAP1 REVERT JUMPDEST JUMP JUMPDEST PUSH0 PUSH0 PUSH0 SWAP1 SLOAD SWAP1 PUSH2 0x100 EXP SWAP1 DIV PUSH20 0xFFFFFFFFFFFFFFFFFFFFFFFFFFFFFFFFFFFFFFFF AND SWAP1 POP DUP2 PUSH0 PUSH0 PUSH2 0x100 EXP DUP2 SLOAD DUP2 PUSH20 0xFFFFFFFFFFFFFFFFFFFFFFFFFFFFFFFFFFFFFFFF MUL NOT AND SWAP1 DUP4 PUSH20 0xFFFFFFFFFFFFFFFFFFFFFFFFFFFFFFFFFFFFFFFF AND MUL OR SWAP1 SSTORE POP DUP2 PUSH20 0xFFFFFFFFFFFFFFFFFFFFFFFFFFFFFFFFFFFFFFFF AND DUP2 PUSH20 0xFFFFFFFFFFFFFFFFFFFFFFFFFFFFFFFFFFFFFFFF AND PUSH32 0x8BE0079C531659141344CD1FD0A4F28419497F9722A3DAAFE3B4186F6B6457E0 PUSH1 0x40 MLOAD PUSH1 0x40 MLOAD DUP1 SWAP2 SUB SWAP1 LOG3 POP POP JUMP JUMPDEST PUSH0 CALLER SWAP1 POP SWAP1 JUMP JUMPDEST PUSH0 PUSH0 REVERT JUMPDEST PUSH0 PUSH20 0xFFFFFFFFFFFFFFFFFFFFFFFFFFFFFFFFFFFFFFFF DUP3 AND SWAP1 POP SWAP2 SWAP1 POP JUMP JUMPDEST PUSH0 PUSH2 0x14EF DUP3 PUSH2 0x14C6 JUMP JUMPDEST SWAP1 POP SWAP2 SWAP1 POP JUMP JUMPDEST PUSH2 0x14FF DUP2 PUSH2 0x14E5 JUMP JUMPDEST DUP2 EQ PUSH2 0x1509 JUMPI PUSH0 PUSH0 REVERT JUMPDEST POP JUMP JUMPDEST PUSH0 DUP2 CALLDATALOAD SWAP1 POP PUSH2 0x151A DUP2 PUSH2 0x14F6 JUMP JUMPDEST SWAP3 SWAP2 POP POP JUMP JUMPDEST PUSH0 DUP2 SWAP1 POP SWAP2 SWAP1 POP JUMP JUMPDEST PUSH2 0x1532 DUP2 PUSH2 0x1520 JUMP JUMPDEST DUP2 EQ PUSH2 0x153C JUMPI PUSH0 PUSH0 REVERT JUMPDEST POP JUMP JUMPDEST PUSH0 DUP2 CALLDATALOAD SWAP1 POP PUSH2 0x154D DUP2 PUSH2 0x1529 JUMP JUMPDEST SWAP3 SWAP2 POP POP JUMP JUMPDEST PUSH0 PUSH0 PUSH0 PUSH1 0x60 DUP5 DUP7 SUB SLT ISZERO PUSH2 0x156A JUMPI PUSH2 0x1569 PUSH2 0x14C2 JUMP JUMPDEST JUMPDEST PUSH0 PUSH2 0x1577 DUP7 DUP3 DUP8 ADD PUSH2 0x150C JUMP JUMPDEST SWAP4 POP POP PUSH1 0x20 PUSH2 0x1588 DUP7 DUP3 DUP8 ADD PUSH2 0x153F JUMP JUMPDEST SWAP3 POP POP PUSH1 0x40 PUSH2 0x1599 DUP7 DUP3 DUP8 ADD PUSH2 0x153F JUMP JUMPDEST SWAP2 POP POP SWAP3 POP SWAP3 POP SWAP3 JUMP JUMPDEST PUSH0 PUSH0 PUSH0 PUSH0 PUSH0 PUSH1 0xA0 DUP7 DUP9 SUB SLT ISZERO PUSH2 0x15BC JUMPI PUSH2 0x15BB PUSH2 0x14C2 JUMP JUMPDEST JUMPDEST PUSH0 PUSH2 0x15C9 DUP9 DUP3 DUP10 ADD PUSH2 0x150C JUMP JUMPDEST SWAP6 POP POP PUSH1 0x20 PUSH2 0x15DA DUP9 DUP3 DUP10 ADD PUSH2 0x150C JUMP JUMPDEST SWAP5 POP POP PUSH1 0x40 PUSH2 0x15EB DUP9 DUP3 DUP10 ADD PUSH2 0x150C JUMP JUMPDEST SWAP4 POP POP PUSH1 0x60 PUSH2 0x15FC DUP9 DUP3 DUP10 ADD PUSH2 0x153F JUMP JUMPDEST SWAP3 POP POP PUSH1 0x80 PUSH2 0x160D DUP9 DUP3 DUP10 ADD PUSH2 0x150C JUMP JUMPDEST SWAP2 POP POP SWAP3 SWAP6 POP SWAP3 SWAP6 SWAP1 SWAP4 POP JUMP JUMPDEST PUSH2 0x1623 DUP2 PUSH2 0x14E5 JUMP JUMPDEST DUP3 MSTORE POP POP JUMP JUMPDEST PUSH0 PUSH1 0x20 DUP3 ADD SWAP1 POP PUSH2 0x163C PUSH0 DUP4 ADD DUP5 PUSH2 0x161A JUMP JUMPDEST SWAP3 SWAP2 POP POP JUMP JUMPDEST PUSH0 PUSH0 PUSH1 0x40 DUP4 DUP6 SUB SLT ISZERO PUSH2 0x1658 JUMPI PUSH2 0x1657 PUSH2 0x14C2 JUMP JUMPDEST JUMPDEST PUSH0 PUSH2 0x1665 DUP6 DUP3 DUP7 ADD PUSH2 0x150C JUMP JUMPDEST SWAP3 POP POP PUSH1 0x20 PUSH2 0x1676 DUP6 DUP3 DUP7 ADD PUSH2 0x153F JUMP JUMPDEST SWAP2 POP POP SWAP3 POP SWAP3 SWAP1 POP JUMP JUMPDEST PUSH0 PUSH1 0x20 DUP3 DUP5 SUB SLT ISZERO PUSH2 0x1695 JUMPI PUSH2 0x1694 PUSH2 0x14C2 JUMP JUMPDEST JUMPDEST PUSH0 PUSH2 0x16A2 DUP5 DUP3 DUP6 ADD PUSH2 0x150C JUMP JUMPDEST SWAP2 POP POP SWAP3 SWAP2 POP POP JUMP JUMPDEST PUSH2 0x16B4 DUP2 PUSH2 0x1520 JUMP JUMPDEST DUP3 MSTORE POP POP JUMP JUMPDEST PUSH0 PUSH1 0xC0 DUP3 ADD SWAP1 POP PUSH2 0x16CD PUSH0 DUP4 ADD DUP10 PUSH2 0x161A JUMP JUMPDEST PUSH2 0x16DA PUSH1 0x20 DUP4 ADD DUP9 PUSH2 0x161A JUMP JUMPDEST PUSH2 0x16E7 PUSH1 0x40 DUP4 ADD DUP8 PUSH2 0x16AB JUMP JUMPDEST PUSH2 0x16F4 PUSH1 0x60 DUP4 ADD DUP7 PUSH2 0x16AB JUMP JUMPDEST PUSH2 0x1701 PUSH1 0x80 DUP4 ADD DUP6 PUSH2 0x161A JUMP JUMPDEST PUSH2 0x170E PUSH1 0xA0 DUP4 ADD DUP5 PUSH2 0x16AB JUMP JUMPDEST SWAP8 SWAP7 POP POP POP POP POP POP POP JUMP JUMPDEST PUSH0 PUSH0 PUSH0 PUSH0 PUSH1 0x80 DUP6 DUP8 SUB SLT ISZERO PUSH2 0x1731 JUMPI PUSH2 0x1730 PUSH2 0x14C2 JUMP JUMPDEST JUMPDEST PUSH0 PUSH2 0x173E DUP8 DUP3 DUP9 ADD PUSH2 0x150C JUMP JUMPDEST SWAP5 POP POP PUSH1 0x20 PUSH2 0x174F DUP8 DUP3 DUP9 ADD PUSH2 0x150C JUMP JUMPDEST SWAP4 POP POP PUSH1 0x40 PUSH2 0x1760 DUP8 DUP3 DUP9 ADD PUSH2 0x153F JUMP JUMPDEST SWAP3 POP POP PUSH1 0x60 PUSH2 0x1771 DUP8 DUP3 DUP9 ADD PUSH2 0x153F JUMP JUMPDEST SWAP2 POP POP SWAP3 SWAP6 SWAP2 SWAP5 POP SWAP3 POP JUMP JUMPDEST PUSH0 DUP3 DUP3 MSTORE PUSH1 0x20 DUP3 ADD SWAP1 POP SWAP3 SWAP2 POP POP JUMP JUMPDEST PUSH32 0x506F6F6C20646F6573206E6F7420657869737400000000000000000000000000 PUSH0 DUP3 ADD MSTORE POP JUMP JUMPDEST PUSH0 PUSH2 0x17C1 PUSH1 0x13 DUP4 PUSH2 0x177D JUMP JUMPDEST SWAP2 POP PUSH2 0x17CC DUP3 PUSH2 0x178D JUMP JUMPDEST PUSH1 0x20 DUP3 ADD SWAP1 POP SWAP2 SWAP1 POP JUMP JUMPDEST PUSH0 PUSH1 0x20 DUP3 ADD SWAP1 POP DUP2 DUP2 SUB PUSH0 DUP4 ADD MSTORE PUSH2 0x17EE DUP2 PUSH2 0x17B5 JUMP JUMPDEST SWAP1 POP SWAP2 SWAP1 POP JUMP JUMPDEST PUSH0 PUSH1 0x60 DUP3 ADD SWAP1 POP PUSH2 0x1808 PUSH0 DUP4 ADD DUP7 PUSH2 0x161A JUMP JUMPDEST PUSH2 0x1815 PUSH1 0x20 DUP4 ADD DUP6 PUSH2 0x161A JUMP JUMPDEST PUSH2 0x1822 PUSH1 0x40 DUP4 ADD DUP5 PUSH2 0x16AB JUMP JUMPDEST SWAP5 SWAP4 POP POP POP POP JUMP JUMPDEST PUSH0 DUP2 ISZERO ISZERO SWAP1 POP SWAP2 SWAP1 POP JUMP JUMPDEST PUSH2 0x183E DUP2 PUSH2 0x182A JUMP JUMPDEST DUP2 EQ PUSH2 0x1848 JUMPI PUSH0 PUSH0 REVERT JUMPDEST POP JUMP JUMPDEST PUSH0 DUP2 MLOAD SWAP1 POP PUSH2 0x1859 DUP2 PUSH2 0x1835 JUMP JUMPDEST SWAP3 SWAP2 POP POP JUMP JUMPDEST PUSH0 PUSH1 0x20 DUP3 DUP5 SUB SLT ISZERO PUSH2 0x1874 JUMPI PUSH2 0x1873 PUSH2 0x14C2 JUMP JUMPDEST JUMPDEST PUSH0 PUSH2 0x1881 DUP5 DUP3 DUP6 ADD PUSH2 0x184B JUMP JUMPDEST SWAP2 POP POP SWAP3 SWAP2 POP POP JUMP JUMPDEST PUSH32 0x4E487B7100000000000000000000000000000000000000000000000000000000 PUSH0 MSTORE PUSH1 0x11 PUSH1 0x4 MSTORE PUSH1 0x24 PUSH0 REVERT JUMPDEST PUSH0 PUSH2 0x18C1 DUP3 PUSH2 0x1520 JUMP JUMPDEST SWAP2 POP PUSH2 0x18CC DUP4 PUSH2 0x1520 JUMP JUMPDEST SWAP3 POP DUP3 DUP3 ADD SWAP1 POP DUP1 DUP3 GT ISZERO PUSH2 0x18E4 JUMPI PUSH2 0x18E3 PUSH2 0x188A JUMP JUMPDEST JUMPDEST SWAP3 SWAP2 POP POP JUMP JUMPDEST PUSH0 PUSH2 0x18F4 DUP3 PUSH2 0x1520 JUMP JUMPDEST SWAP2 POP PUSH2 0x18FF DUP4 PUSH2 0x1520 JUMP JUMPDEST SWAP3 POP DUP3 DUP3 MUL PUSH2 0x190D DUP2 PUSH2 0x1520 JUMP JUMPDEST SWAP2 POP DUP3 DUP3 DIV DUP5 EQ DUP4 ISZERO OR PUSH2 0x1924 JUMPI PUSH2 0x1923 PUSH2 0x188A JUMP JUMPDEST JUMPDEST POP SWAP3 SWAP2 POP POP JUMP JUMPDEST PUSH32 0x4E487B7100000000000000000000000000000000000000000000000000000000 PUSH0 MSTORE PUSH1 0x12 PUSH1 0x4 MSTORE PUSH1 0x24 PUSH0 REVERT JUMPDEST PUSH0 PUSH2 0x1962 DUP3 PUSH2 0x1520 JUMP JUMPDEST SWAP2 POP PUSH2 0x196D DUP4 PUSH2 0x1520 JUMP JUMPDEST SWAP3 POP DUP3 PUSH2 0x197D JUMPI PUSH2 0x197C PUSH2 0x192B JUMP JUMPDEST JUMPDEST DUP3 DUP3 DIV SWAP1 POP SWAP3 SWAP2 POP POP JUMP JUMPDEST PUSH0 PUSH1 0x40 DUP3 ADD SWAP1 POP PUSH2 0x199B PUSH0 DUP4 ADD DUP6 PUSH2 0x16AB JUMP JUMPDEST PUSH2 0x19A8 PUSH1 0x20 DUP4 ADD DUP5 PUSH2 0x16AB JUMP JUMPDEST SWAP4 SWAP3 POP POP POP JUMP JUMPDEST PUSH32 0x4665652070657263656E7461676520746F6F2068696768000000000000000000 PUSH0 DUP3 ADD MSTORE POP JUMP JUMPDEST PUSH0 PUSH2 0x19E3 PUSH1 0x17 DUP4 PUSH2 0x177D JUMP JUMPDEST SWAP2 POP PUSH2 0x19EE DUP3 PUSH2 0x19AF JUMP JUMPDEST PUSH1 0x20 DUP3 ADD SWAP1 POP SWAP2 SWAP1 POP JUMP JUMPDEST PUSH0 PUSH1 0x20 DUP3 ADD SWAP1 POP DUP2 DUP2 SUB PUSH0 DUP4 ADD MSTORE PUSH2 0x1A10 DUP2 PUSH2 0x19D7 JUMP JUMPDEST SWAP1 POP SWAP2 SWAP1 POP JUMP JUMPDEST PUSH32 0x506F6F6C20616C72656164792065786973747300000000000000000000000000 PUSH0 DUP3 ADD MSTORE POP JUMP JUMPDEST PUSH0 PUSH2 0x1A4B PUSH1 0x13 DUP4 PUSH2 0x177D JUMP JUMPDEST SWAP2 POP PUSH2 0x1A56 DUP3 PUSH2 0x1A17 JUMP JUMPDEST PUSH1 0x20 DUP3 ADD SWAP1 POP SWAP2 SWAP1 POP JUMP JUMPDEST PUSH0 PUSH1 0x20 DUP3 ADD SWAP1 POP DUP2 DUP2 SUB PUSH0 DUP4 ADD MSTORE PUSH2 0x1A78 DUP2 PUSH2 0x1A3F JUMP JUMPDEST SWAP1 POP SWAP2 SWAP1 POP JUMP JUMPDEST PUSH0 PUSH1 0x20 DUP3 ADD SWAP1 POP PUSH2 0x1A92 PUSH0 DUP4 ADD DUP5 PUSH2 0x16AB JUMP JUMPDEST SWAP3 SWAP2 POP POP JUMP JUMPDEST PUSH32 0x5769746864726177616C20746F6F20736F6F6E00000000000000000000000000 PUSH0 DUP3 ADD MSTORE POP JUMP JUMPDEST PUSH0 PUSH2 0x1ACC PUSH1 0x13 DUP4 PUSH2 0x177D JUMP JUMPDEST SWAP2 POP PUSH2 0x1AD7 DUP3 PUSH2 0x1A98 JUMP JUMPDEST PUSH1 0x20 DUP3 ADD SWAP1 POP SWAP2 SWAP1 POP JUMP JUMPDEST PUSH0 PUSH1 0x20 DUP3 ADD SWAP1 POP DUP2 DUP2 SUB PUSH0 DUP4 ADD MSTORE PUSH2 0x1AF9 DUP2 PUSH2 0x1AC0 JUMP JUMPDEST SWAP1 POP SWAP2 SWAP1 POP JUMP JUMPDEST PUSH0 DUP2 MLOAD SWAP1 POP PUSH2 0x1B0E DUP2 PUSH2 0x1529 JUMP JUMPDEST SWAP3 SWAP2 POP POP JUMP JUMPDEST PUSH0 PUSH1 0x20 DUP3 DUP5 SUB SLT ISZERO PUSH2 0x1B29 JUMPI PUSH2 0x1B28 PUSH2 0x14C2 JUMP JUMPDEST JUMPDEST PUSH0 PUSH2 0x1B36 DUP5 DUP3 DUP6 ADD PUSH2 0x1B00 JUMP JUMPDEST SWAP2 POP POP SWAP3 SWAP2 POP POP JUMP JUMPDEST PUSH0 PUSH2 0x1B49 DUP3 PUSH2 0x1520 JUMP JUMPDEST SWAP2 POP PUSH2 0x1B54 DUP4 PUSH2 0x1520 JUMP JUMPDEST SWAP3 POP DUP3 DUP3 SUB SWAP1 POP DUP2 DUP2 GT ISZERO PUSH2 0x1B6C JUMPI PUSH2 0x1B6B PUSH2 0x188A JUMP JUMPDEST JUMPDEST SWAP3 SWAP2 POP POP JUMP JUMPDEST PUSH0 PUSH1 0x40 DUP3 ADD SWAP1 POP PUSH2 0x1B85 PUSH0 DUP4 ADD DUP6 PUSH2 0x161A JUMP JUMPDEST PUSH2 0x1B92 PUSH1 0x20 DUP4 ADD DUP5 PUSH2 0x16AB JUMP JUMPDEST SWAP4 SWAP3 POP POP POP JUMP JUMPDEST PUSH32 0x496E76616C696420696E70757420746F6B656E00000000000000000000000000 PUSH0 DUP3 ADD MSTORE POP JUMP JUMPDEST PUSH0 PUSH2 0x1BCD PUSH1 0x13 DUP4 PUSH2 0x177D JUMP JUMPDEST SWAP2 POP PUSH2 0x1BD8 DUP3 PUSH2 0x1B99 JUMP JUMPDEST PUSH1 0x20 DUP3 ADD SWAP1 POP SWAP2 SWAP1 POP JUMP JUMPDEST PUSH0 PUSH1 0x20 DUP3 ADD SWAP1 POP DUP2 DUP2 SUB PUSH0 DUP4 ADD MSTORE PUSH2 0x1BFA DUP2 PUSH2 0x1BC1 JUMP JUMPDEST SWAP1 POP SWAP2 SWAP1 POP JUMP JUMPDEST PUSH32 0x496E73756666696369656E74206F757470757420616D6F756E74000000000000 PUSH0 DUP3 ADD MSTORE POP JUMP JUMPDEST PUSH0 PUSH2 0x1C35 PUSH1 0x1A DUP4 PUSH2 0x177D JUMP JUMPDEST SWAP2 POP PUSH2 0x1C40 DUP3 PUSH2 0x1C01 JUMP JUMPDEST PUSH1 0x20 DUP3 ADD SWAP1 POP SWAP2 SWAP1 POP JUMP JUMPDEST PUSH0 PUSH1 0x20 DUP3 ADD SWAP1 POP DUP2 DUP2 SUB PUSH0 DUP4 ADD MSTORE PUSH2 0x1C62 DUP2 PUSH2 0x1C29 JUMP JUMPDEST SWAP1 POP SWAP2 SWAP1 POP JUMP JUMPDEST PUSH0 PUSH1 0x80 DUP3 ADD SWAP1 POP PUSH2 0x1C7C PUSH0 DUP4 ADD DUP8 PUSH2 0x161A JUMP JUMPDEST PUSH2 0x1C89 PUSH1 0x20 DUP4 ADD DUP7 PUSH2 0x161A JUMP JUMPDEST PUSH2 0x1C96 PUSH1 0x40 DUP4 ADD DUP6 PUSH2 0x16AB JUMP JUMPDEST PUSH2 0x1CA3 PUSH1 0x60 DUP4 ADD DUP5 PUSH2 0x16AB JUMP JUMPDEST SWAP6 SWAP5 POP POP POP POP POP JUMP INVALID LOG2 PUSH5 0x6970667358 0x22 SLT KECCAK256 0xD8 0xC8 0xDD 0xC9 LOG4 0xBF SWAP13 0xC0 LT MCOPY JUMPDEST SWAP14 BLOCKHASH SWAP2 SWAP3 0xDC 0xCE ADDMOD BALANCE DUP13 ADDRESS GAS 0xC5 ISZERO DUP6 0xB5 PUSH23 0xFB627BB4E064736F6C634300081C003300000000000000 "
				},
				"gasEstimates": {
					"creation": {
						"codeDepositCost": "1478800",
						"executionCost": "infinite",
						"totalCost": "infinite"
					},
					"external": {
						"addLiquidity(address,uint256,uint256)": "infinite",
						"initializePool(address,address,address,uint256,address)": "infinite",
						"owner()": "2581",
						"pools(address)": "infinite",
						"removeLiquidity(address,uint256)": "infinite",
						"renounceOwnership()": "infinite",
						"swap(address,address,uint256,uint256)": "infinite",
						"transferOwnership(address)": "infinite"
					}
				},
				"methodIdentifiers": {
					"addLiquidity(address,uint256,uint256)": "55776b77",
					"initializePool(address,address,address,uint256,address)": "5e7b647f",
					"owner()": "8da5cb5b",
					"pools(address)": "a4063dbc",
					"removeLiquidity(address,uint256)": "a201ccf6",
					"renounceOwnership()": "715018a6",
					"swap(address,address,uint256,uint256)": "fe029156",
					"transferOwnership(address)": "f2fde38b"
				}
			},
			"storageLayout": {
				"storage": [
					{
						"astId": 8,
						"contract": "contracts/TokenSwap.sol:TokenSwap",
						"label": "_owner",
						"offset": 0,
						"slot": "0",
						"type": "t_address"
					},
					{
						"astId": 307,
						"contract": "contracts/TokenSwap.sol:TokenSwap",
						"label": "pools",
						"offset": 0,
						"slot": "1",
						"type": "t_mapping(t_address,t_struct(LiquidityPool)302_storage)"
					}
				],
				"types": {
					"t_address": {
						"encoding": "inplace",
						"label": "address",
						"numberOfBytes": "20"
					},
					"t_mapping(t_address,t_struct(LiquidityPool)302_storage)": {
						"encoding": "mapping",
						"key": "t_address",
						"label": "mapping(address => struct TokenSwap.LiquidityPool)",
						"numberOfBytes": "32",
						"value": "t_struct(LiquidityPool)302_storage"
					},
					"t_struct(LiquidityPool)302_storage": {
						"encoding": "inplace",
						"label": "struct TokenSwap.LiquidityPool",
						"members": [
							{
								"astId": 291,
								"contract": "contracts/TokenSwap.sol:TokenSwap",
								"label": "tokenA",
								"offset": 0,
								"slot": "0",
								"type": "t_address"
							},
							{
								"astId": 293,
								"contract": "contracts/TokenSwap.sol:TokenSwap",
								"label": "tokenB",
								"offset": 0,
								"slot": "1",
								"type": "t_address"
							},
							{
								"astId": 295,
								"contract": "contracts/TokenSwap.sol:TokenSwap",
								"label": "totalLiquidity",
								"offset": 0,
								"slot": "2",
								"type": "t_uint256"
							},
							{
								"astId": 297,
								"contract": "contracts/TokenSwap.sol:TokenSwap",
								"label": "feePercentage",
								"offset": 0,
								"slot": "3",
								"type": "t_uint256"
							},
							{
								"astId": 299,
								"contract": "contracts/TokenSwap.sol:TokenSwap",
								"label": "adminFeeAccount",
								"offset": 0,
								"slot": "4",
								"type": "t_address"
							},
							{
								"astId": 301,
								"contract": "contracts/TokenSwap.sol:TokenSwap",
								"label": "lastDepositTime",
								"offset": 0,
								"slot": "5",
								"type": "t_uint256"
							}
						],
						"numberOfBytes": "192"
					},
					"t_uint256": {
						"encoding": "inplace",
						"label": "uint256",
						"numberOfBytes": "32"
					}
				}
			},
			"userdoc": {
				"kind": "user",
				"methods": {
					"addLiquidity(address,uint256,uint256)": {
						"notice": "Adds liquidity to the pool"
					},
					"constructor": {
						"notice": "Constructor for the TokenSwap contract"
					},
					"initializePool(address,address,address,uint256,address)": {
						"notice": "Initializes a new liquidity pool"
					},
					"removeLiquidity(address,uint256)": {
						"notice": "Removes liquidity from the pool"
					},
					"swap(address,address,uint256,uint256)": {
						"notice": "Swaps one token for another in the pool"
					}
				},
				"notice": "This contract allows users to create liquidity pools, add/remove liquidity, and swap tokens.",
				"version": 1
			}
		}
	}
}